Archive member included because of file (symbol)

/usr/bin/../lib/gcc/arm-none-eabi/4.9.3/armv7-m/libgcc.a(_aeabi_uldivmod.o)
                              obj_zoul/strformat.o (__aeabi_uldivmod)
/usr/bin/../lib/gcc/arm-none-eabi/4.9.3/armv7-m/libgcc.a(bpabi.o)
                              /usr/bin/../lib/gcc/arm-none-eabi/4.9.3/armv7-m/libgcc.a(_aeabi_uldivmod.o) (__gnu_uldivmod_helper)
/usr/bin/../lib/gcc/arm-none-eabi/4.9.3/armv7-m/libgcc.a(_dvmd_tls.o)
                              /usr/bin/../lib/gcc/arm-none-eabi/4.9.3/armv7-m/libgcc.a(_aeabi_uldivmod.o) (__aeabi_ldiv0)
/usr/bin/../lib/gcc/arm-none-eabi/4.9.3/armv7-m/libgcc.a(_divdi3.o)
                              /usr/bin/../lib/gcc/arm-none-eabi/4.9.3/armv7-m/libgcc.a(bpabi.o) (__divdi3)
/usr/bin/../lib/gcc/arm-none-eabi/4.9.3/armv7-m/libgcc.a(_udivdi3.o)
                              /usr/bin/../lib/gcc/arm-none-eabi/4.9.3/armv7-m/libgcc.a(bpabi.o) (__udivdi3)
/usr/bin/../lib/gcc/arm-none-eabi/4.9.3/../../../../arm-none-eabi/lib/armv7-m/libc.a(lib_a-ctype_.o)
                              obj_zoul/resolv.o (__ctype_ptr__)
/usr/bin/../lib/gcc/arm-none-eabi/4.9.3/../../../../arm-none-eabi/lib/armv7-m/libc.a(lib_a-memcmp.o)
                              obj_zoul/slip.o (memcmp)
/usr/bin/../lib/gcc/arm-none-eabi/4.9.3/../../../../arm-none-eabi/lib/armv7-m/libc.a(lib_a-memcpy.o)
                              obj_zoul/slip.o (memcpy)
/usr/bin/../lib/gcc/arm-none-eabi/4.9.3/../../../../arm-none-eabi/lib/armv7-m/libc.a(lib_a-memmove.o)
                              obj_zoul/mmem.o (memmove)
/usr/bin/../lib/gcc/arm-none-eabi/4.9.3/../../../../arm-none-eabi/lib/armv7-m/libc.a(lib_a-memset.o)
                              obj_zoul/gpio.o (memset)
/usr/bin/../lib/gcc/arm-none-eabi/4.9.3/../../../../arm-none-eabi/lib/armv7-m/libc.a(lib_a-reent.o)
                              obj_zoul/syscalls.o (errno)
/usr/bin/../lib/gcc/arm-none-eabi/4.9.3/../../../../arm-none-eabi/lib/armv7-m/libc.a(lib_a-strcasecmp.o)
                              obj_zoul/resolv.o (strcasecmp)
/usr/bin/../lib/gcc/arm-none-eabi/4.9.3/../../../../arm-none-eabi/lib/armv7-m/libc.a(lib_a-strcat.o)
                              obj_zoul/resolv.o (strcat)
/usr/bin/../lib/gcc/arm-none-eabi/4.9.3/../../../../arm-none-eabi/lib/armv7-m/libc.a(lib_a-strcmp.o)
                              obj_zoul/cfs-coffee.o (strcmp)
/usr/bin/../lib/gcc/arm-none-eabi/4.9.3/../../../../arm-none-eabi/lib/armv7-m/libc.a(lib_a-strcpy.o)
                              /usr/bin/../lib/gcc/arm-none-eabi/4.9.3/../../../../arm-none-eabi/lib/armv7-m/libc.a(lib_a-strcat.o) (strcpy)
/usr/bin/../lib/gcc/arm-none-eabi/4.9.3/../../../../arm-none-eabi/lib/armv7-m/libc.a(lib_a-strlen.o)
                              obj_zoul/sensors.o (strlen)
/usr/bin/../lib/gcc/arm-none-eabi/4.9.3/../../../../arm-none-eabi/lib/armv7-m/libc.a(lib_a-strncasecmp.o)
                              obj_zoul/resolv.o (strncasecmp)
/usr/bin/../lib/gcc/arm-none-eabi/4.9.3/../../../../arm-none-eabi/lib/armv7-m/libc.a(lib_a-strncat.o)
                              obj_zoul/resolv.o (strncat)
/usr/bin/../lib/gcc/arm-none-eabi/4.9.3/../../../../arm-none-eabi/lib/armv7-m/libc.a(lib_a-strncmp.o)
                              obj_zoul/sensors.o (strncmp)
/usr/bin/../lib/gcc/arm-none-eabi/4.9.3/../../../../arm-none-eabi/lib/armv7-m/libc.a(lib_a-strncpy.o)
                              obj_zoul/cfs-coffee.o (strncpy)
/usr/bin/../lib/gcc/arm-none-eabi/4.9.3/../../../../arm-none-eabi/lib/armv7-m/libc.a(lib_a-freer.o)
                              /usr/bin/../lib/gcc/arm-none-eabi/4.9.3/../../../../arm-none-eabi/lib/armv7-m/libc.a(lib_a-reent.o) (_free_r)
/usr/bin/../lib/gcc/arm-none-eabi/4.9.3/../../../../arm-none-eabi/lib/armv7-m/libc.a(lib_a-impure.o)
                              /usr/bin/../lib/gcc/arm-none-eabi/4.9.3/../../../../arm-none-eabi/lib/armv7-m/libc.a(lib_a-reent.o) (_impure_ptr)
/usr/bin/../lib/gcc/arm-none-eabi/4.9.3/../../../../arm-none-eabi/lib/armv7-m/libc.a(lib_a-mallocr.o)
                              /usr/bin/../lib/gcc/arm-none-eabi/4.9.3/../../../../arm-none-eabi/lib/armv7-m/libc.a(lib_a-freer.o) (__malloc_current_mallinfo)
/usr/bin/../lib/gcc/arm-none-eabi/4.9.3/../../../../arm-none-eabi/lib/armv7-m/libc.a(lib_a-mlock.o)
                              /usr/bin/../lib/gcc/arm-none-eabi/4.9.3/../../../../arm-none-eabi/lib/armv7-m/libc.a(lib_a-freer.o) (__malloc_lock)
/usr/bin/../lib/gcc/arm-none-eabi/4.9.3/../../../../arm-none-eabi/lib/armv7-m/libc.a(lib_a-sbrkr.o)
                              /usr/bin/../lib/gcc/arm-none-eabi/4.9.3/../../../../arm-none-eabi/lib/armv7-m/libc.a(lib_a-freer.o) (_sbrk_r)

Allocating common symbols
Common symbol       size              file

compower_idle_activity
                    0x8               obj_zoul/compower.o
uip_ds6_timer_ra    0x8               obj_zoul/uip-ds6.o
rtcc_int1_callback  0x4               obj_zoul/rtcc.o
usb_setup_buffer    0x8               obj_zoul/usb-core.o
uip_ds6_if          0xf8              obj_zoul/uip-ds6.o
resolv_event_found  0x1               obj_zoul/resolv.o
uip_ds6_netif_addr_list_offset
                    0x1               obj_zoul/uip-ds6.o
uip_len             0x2               obj_zoul/uip6.o
errno               0x4               /usr/bin/../lib/gcc/arm-none-eabi/4.9.3/../../../../arm-none-eabi/lib/armv7-m/libc.a(lib_a-reent.o)
slip_active         0x1               obj_zoul/slip.o
uip_ds6_addr_size   0x1               obj_zoul/uip-ds6.o
uip_sappdata        0x4               obj_zoul/uip6.o
packetbuf_addrs     0x10              obj_zoul/packetbuf.o
uip_acc32           0x4               obj_zoul/uip6.o
uip_ds6_prefix_list
                    0x60              obj_zoul/uip-ds6.o
uip_lladdr          0x8               obj_zoul/uip6.o
uip_aligned_buf     0x514             obj_zoul/uip6.o
uip_flags           0x1               obj_zoul/uip6.o
uip_ds6_timer_periodic
                    0x10              obj_zoul/uip-ds6.o
uip_next_hdr        0x4               obj_zoul/uip6.o
linkaddr_node_addr  0x8               obj_zoul/linkaddr.o
default_instance    0x4               obj_zoul/rpl-dag.o
uip_udp_conn        0x4               obj_zoul/uip6.o
packetbuf_attrs     0x1e              obj_zoul/packetbuf.o
instance_table      0x150             obj_zoul/rpl-dag.o
uip_appdata         0x4               obj_zoul/uip6.o
uip_conn            0x4               obj_zoul/uip6.o
tcpip_event         0x1               obj_zoul/tcpip.o
uip_conns           0x1e0             obj_zoul/uip6.o
uip_icmp6_conns     0x8               obj_zoul/uip6.o
uip_listenports     0x10              obj_zoul/uip6.o
avail_memory        0x4               obj_zoul/mmem.o
sensors_flags       0x4               obj_zoul/zoul-sensors.o
serial_line_event_message
                    0x1               obj_zoul/serial-line.o
sensors_event       0x1               obj_zoul/sensors.o
tcpip_icmp6_event   0x1               obj_zoul/tcpip.o
button_press_duration_exceeded
                    0x1               obj_zoul/button-sensor.o
uip_slen            0x2               obj_zoul/uip6.o
uip_udp_conns       0x140             obj_zoul/uip6.o

Discarded input sections

 .text          0x00000000        0x0 obj_zoul/startup-gcc.o
 .data          0x00000000        0x0 obj_zoul/startup-gcc.o
 .bss           0x00000000        0x0 obj_zoul/startup-gcc.o
 .text          0x00000000        0x0 obj_zoul/contiki-main.o
 .data          0x00000000        0x0 obj_zoul/contiki-main.o
 .bss           0x00000000        0x0 obj_zoul/contiki-main.o
 .text          0x00000000        0x0 obj_zoul/leds.o
 .data          0x00000000        0x0 obj_zoul/leds.o
 .bss           0x00000000        0x0 obj_zoul/leds.o
 .text.leds_get
                0x00000000        0x4 obj_zoul/leds.o
 .text.leds_set
                0x00000000        0xc obj_zoul/leds.o
 .text.leds_toggle
                0x00000000       0x10 obj_zoul/leds.o
 .text.leds_blink
                0x00000000       0x28 obj_zoul/leds.o
 .text          0x00000000        0x0 obj_zoul/leds-arch.o
Memory Configuration

Name             Origin             Length             Attributes
FLASH_FW         0x00202000         0x0007dfd4         xr
FLASH_CCA        0x0027ffd4         0x0000002c         xr
NRSRAM           0x20000000         0x00004000         xrw
FRSRAM           0x20004000         0x00004000         xrw
*default*        0x00000000         0xffffffff

Linker script and memory map

LOAD obj_zoul/startup-gcc.o
LOAD obj_zoul/contiki-main.o
LOAD obj_zoul/leds.o
LOAD obj_zoul/leds-arch.o
LOAD obj_zoul/cc1200-zoul-arch.o
LOAD obj_zoul/adc-zoul.o
LOAD obj_zoul/button-sensor.o
LOAD obj_zoul/zoul-sensors.o
LOAD obj_zoul/board.o
LOAD obj_zoul/antenna-sw.o
LOAD obj_zoul/rtcc.o
LOAD obj_zoul/power-mgmt.o
LOAD obj_zoul/clock.o
LOAD obj_zoul/rtimer-arch.o
LOAD obj_zoul/uart.o
LOAD obj_zoul/watchdog.o
LOAD obj_zoul/nvic.o
LOAD obj_zoul/cpu.o
LOAD obj_zoul/sys-ctrl.o
LOAD obj_zoul/gpio.o
LOAD obj_zoul/ioc.o
LOAD obj_zoul/spi.o
LOAD obj_zoul/adc.o
LOAD obj_zoul/crypto.o
LOAD obj_zoul/aes.o
LOAD obj_zoul/ecb.o
LOAD obj_zoul/cbc.o
LOAD obj_zoul/ctr.o
LOAD obj_zoul/cbc-mac.o
LOAD obj_zoul/gcm.o
LOAD obj_zoul/ccm.o
LOAD obj_zoul/sha256.o
LOAD obj_zoul/cc2538-aes-128.o
LOAD obj_zoul/cc2538-ccm-star.o
LOAD obj_zoul/cc2538-rf.o
LOAD obj_zoul/udma.o
LOAD obj_zoul/lpm.o
LOAD obj_zoul/pka.o
LOAD obj_zoul/bignum-driver.o
LOAD obj_zoul/ecc-driver.o
LOAD obj_zoul/ecc-algorithm.o
LOAD obj_zoul/ecc-curve.o
LOAD obj_zoul/dbg.o
LOAD obj_zoul/ieee-addr.o
LOAD obj_zoul/slip-arch.o
LOAD obj_zoul/slip.o
LOAD obj_zoul/i2c.o
LOAD obj_zoul/cc2538-temp-sensor.o
LOAD obj_zoul/vdd3-sensor.o
LOAD obj_zoul/cfs-coffee.o
LOAD obj_zoul/cfs-coffee-arch.o
LOAD obj_zoul/pwm.o
LOAD obj_zoul/dbg-printf.o
LOAD obj_zoul/dbg-snprintf.o
LOAD obj_zoul/dbg-sprintf.o
LOAD obj_zoul/strformat.o
LOAD obj_zoul/usb-core.o
LOAD obj_zoul/cdc-acm.o
LOAD obj_zoul/usb-arch.o
LOAD obj_zoul/usb-serial.o
LOAD obj_zoul/cdc-acm-descriptors.o
LOAD obj_zoul/arg.o
LOAD obj_zoul/autostart.o
LOAD obj_zoul/compower.o
LOAD obj_zoul/ctimer.o
LOAD obj_zoul/energest.o
LOAD obj_zoul/etimer.o
LOAD obj_zoul/mt.o
LOAD obj_zoul/process.o
LOAD obj_zoul/procinit.o
LOAD obj_zoul/rtimer.o
LOAD obj_zoul/stimer.o
LOAD obj_zoul/timer.o
LOAD obj_zoul/nullradio.o
LOAD obj_zoul/serial-line.o
LOAD obj_zoul/aes-128.o
LOAD obj_zoul/assert.o
LOAD obj_zoul/ccm-star.o
LOAD obj_zoul/crc16.o
LOAD obj_zoul/gcr.o
LOAD obj_zoul/ifft.o
LOAD obj_zoul/list.o
LOAD obj_zoul/me.o
LOAD obj_zoul/memb.o
LOAD obj_zoul/me_tabs.o
LOAD obj_zoul/mmem.o
LOAD obj_zoul/petsciiconv.o
LOAD obj_zoul/print-stats.o
LOAD obj_zoul/random.o
LOAD obj_zoul/ringbuf.o
LOAD obj_zoul/ringbufindex.o
LOAD obj_zoul/sensors.o
LOAD obj_zoul/settings.o
LOAD obj_zoul/trickle-timer.o
LOAD obj_zoul/sicslowpan.o
LOAD obj_zoul/uip6.o
LOAD obj_zoul/uip-ds6.o
LOAD obj_zoul/uip-ds6-nbr.o
LOAD obj_zoul/uip-ds6-route.o
LOAD obj_zoul/uip-icmp6.o
LOAD obj_zoul/uip-nd6.o
LOAD obj_zoul/dhcpc.o
LOAD obj_zoul/ip64-addr.o
LOAD obj_zoul/psock.o
LOAD obj_zoul/resolv.o
LOAD obj_zoul/simple-udp.o
LOAD obj_zoul/slipdev.o
LOAD obj_zoul/tcpip.o
LOAD obj_zoul/tcp-socket.o
LOAD obj_zoul/udp-socket.o
LOAD obj_zoul/uip-debug.o
LOAD obj_zoul/uiplib.o
LOAD obj_zoul/uip-nameserver.o
LOAD obj_zoul/uip-packetqueue.o
LOAD obj_zoul/uip-split.o
LOAD obj_zoul/uip-udp-packet.o
LOAD obj_zoul/rpl.o
LOAD obj_zoul/rpl-dag.o
LOAD obj_zoul/rpl-dag-root.o
LOAD obj_zoul/rpl-ext-header.o
LOAD obj_zoul/rpl-icmp6.o
LOAD obj_zoul/rpl-mrhof.o
LOAD obj_zoul/rpl-of0.o
LOAD obj_zoul/rpl-timers.o
LOAD obj_zoul/syscalls.o
LOAD obj_zoul/linkaddr.o
LOAD obj_zoul/nbr-table.o
LOAD obj_zoul/netstack.o
LOAD obj_zoul/packetbuf.o
LOAD obj_zoul/queuebuf.o
LOAD obj_zoul/csma.o
LOAD obj_zoul/frame802154.o
LOAD obj_zoul/frame802154e-ie.o
LOAD obj_zoul/framer-802154.o
LOAD obj_zoul/framer-nullmac.o
LOAD obj_zoul/mac.o
LOAD obj_zoul/mac-sequence.o
LOAD obj_zoul/nordc.o
LOAD obj_zoul/nullmac.o
LOAD obj_zoul/nullrdc.o
LOAD obj_zoul/nullrdc-noframer.o
LOAD obj_zoul/phase.o
LOAD obj_zoul/contikimac.o
LOAD obj_zoul/contikimac-framer.o
LOAD obj_zoul/anti-replay.o
LOAD obj_zoul/ccm-star-packetbuf.o
LOAD obj_zoul/nullsec.o
LOAD obj_zoul/noncoresec.o
LOAD obj_zoul/cc1200-802154g-863-870-fsk-50kbps.o
LOAD obj_zoul/cc1200.o
LOAD udp-client.co
START GROUP
LOAD /usr/bin/../lib/gcc/arm-none-eabi/4.9.3/armv7-m/libgcc.a
LOAD /usr/bin/../lib/gcc/arm-none-eabi/4.9.3/../../../../arm-none-eabi/lib/armv7-m/libc.a
END GROUP

.text           0x00202000     0xc105
                0x00202000                _text = .
 *(SORT(.vectors))
 .vectors       0x00202000      0x28c obj_zoul/startup-gcc.o
                0x00202000                vectors
 *(SORT(.text*))
 .text.reset_handler
                0x0020228c       0x40 obj_zoul/startup-gcc.o
                0x0020228c                reset_handler
 .text.startup.main
                0x002022cc      0x1b0 obj_zoul/contiki-main.o
                0x002022cc                main
 .text.leds_init
                0x0020247c       0x14 obj_zoul/leds.o
                0x0020247c                leds_init
 .text.leds_on  0x00202490       0x10 obj_zoul/leds.o
                0x00202490                leds_on
 .text.leds_off
                0x002024a0       0x14 obj_zoul/leds.o
                0x002024a0                leds_off
 .text.leds_arch_init
                0x002024b4       0x10 obj_zoul/leds-arch.o
                0x002024b4                leds_arch_init
 .text.leds_arch_set
                0x002024c4        0xc obj_zoul/leds-arch.o
                0x002024c4                leds_arch_set
 .text.value    0x002024d0       0x38 obj_zoul/adc-zoul.o
 .text.configure
                0x00202508       0x88 obj_zoul/adc-zoul.o
 .text.value    0x00202590       0x20 obj_zoul/button-sensor.o
 .text.duration_exceeded_callback
                0x002025b0       0x3c obj_zoul/button-sensor.o
 .text.config_user
                0x002025ec       0xa0 obj_zoul/button-sensor.o
 .text.btn_callback
                0x0020268c       0x5c obj_zoul/button-sensor.o
 .text.antenna_sw_config
                0x002026e8       0x30 obj_zoul/antenna-sw.o
                0x002026e8                antenna_sw_config
 .text.update_ticks
                0x00202718       0x4c obj_zoul/clock.o
 .text.clock_init
                0x00202764       0x50 obj_zoul/clock.o
                0x00202764                clock_init
 .text.clock_time
                0x002027b4       0x14 obj_zoul/clock.o
                0x002027b4                clock_time
 .text.clock_seconds
                0x002027c8       0x14 obj_zoul/clock.o
                0x002027c8                clock_seconds
 .text.clock_delay_usec
                0x002027dc       0x1c obj_zoul/clock.o
                0x002027dc                clock_delay_usec
 .text.clock_adjust
                0x002027f8       0x20 obj_zoul/clock.o
                0x002027f8                clock_adjust
 .text.rtimer_arch_next_trigger
                0x00202818        0xc obj_zoul/rtimer-arch.o
                0x00202818                rtimer_arch_next_trigger
 .text.rtimer_arch_now
                0x00202824       0x2c obj_zoul/rtimer-arch.o
                0x00202824                rtimer_arch_now
 .text.rtimer_arch_schedule
                0x00202850       0x58 obj_zoul/rtimer-arch.o
                0x00202850                rtimer_arch_schedule
 .text.rtimer_isr
                0x002028a8       0x24 obj_zoul/rtimer-arch.o
                0x002028a8                rtimer_isr
 .text.permit_pm1
                0x002028cc       0x2c obj_zoul/uart.o
 .text.uart_isr
                0x002028f8       0x64 obj_zoul/uart.o
 .text.uart_init
                0x0020295c      0x1ac obj_zoul/uart.o
                0x0020295c                uart_init
 .text.uart_set_input
                0x00202b08       0x10 obj_zoul/uart.o
                0x00202b08                uart_set_input
 .text.uart_write_byte
                0x00202b18       0x1c obj_zoul/uart.o
                0x00202b18                uart_write_byte
 .text.watchdog_init
                0x00202b34        0xc obj_zoul/watchdog.o
                0x00202b34                watchdog_init
 .text.watchdog_start
                0x00202b40        0xc obj_zoul/watchdog.o
                0x00202b40                watchdog_start
 .text.watchdog_periodic
                0x00202b4c       0x10 obj_zoul/watchdog.o
                0x00202b4c                watchdog_periodic
 .text.nvic_init
                0x00202b5c       0x3c obj_zoul/nvic.o
                0x00202b5c                nvic_init
 .text.nvic_interrupt_enable
                0x00202b98       0x18 obj_zoul/nvic.o
                0x00202b98                nvic_interrupt_enable
 .text.nvic_interrupt_disable
                0x00202bb0       0x18 obj_zoul/nvic.o
                0x00202bb0                nvic_interrupt_disable
 .text.nvic_interrupt_unpend
                0x00202bc8       0x18 obj_zoul/nvic.o
                0x00202bc8                nvic_interrupt_unpend
 .text.sys_ctrl_init
                0x00202be0       0x28 obj_zoul/sys-ctrl.o
                0x00202be0                sys_ctrl_init
 .text.gpio_register_callback
                0x00202c08       0x10 obj_zoul/gpio.o
                0x00202c08                gpio_register_callback
 .text.notify   0x00202c18       0x30 obj_zoul/gpio.o
                0x00202c18                notify
 .text.gpio_port_isr
                0x00202c48       0x50 obj_zoul/gpio.o
 .text.gpio_init
                0x00202c98       0x10 obj_zoul/gpio.o
                0x00202c98                gpio_init
 .text.ioc_init
                0x00202ca8       0x1c obj_zoul/ioc.o
                0x00202ca8                ioc_init
 .text.ioc_set_over
                0x00202cc4       0x14 obj_zoul/ioc.o
                0x00202cc4                ioc_set_over
 .text.ioc_set_sel
                0x00202cd8       0x14 obj_zoul/ioc.o
                0x00202cd8                ioc_set_sel
 .text.adc_init
                0x00202cec       0x10 obj_zoul/adc.o
                0x00202cec                adc_init
 .text.adc_get  0x00202cfc       0x78 obj_zoul/adc.o
                0x00202cfc                adc_get
 .text.permit_pm1
                0x00202d74       0x10 obj_zoul/crypto.o
 .text.crypto_isr
                0x00202d84       0x24 obj_zoul/crypto.o
                0x00202d84                crypto_isr
 .text.crypto_enable
                0x00202da8       0x20 obj_zoul/crypto.o
                0x00202da8                crypto_enable
 .text.crypto_init
                0x00202dc8       0x3c obj_zoul/crypto.o
                0x00202dc8                crypto_init
 .text.crypto_disable
                0x00202e04       0x20 obj_zoul/crypto.o
                0x00202e04                crypto_disable
 .text.on       0x00202e24       0x2c obj_zoul/cc2538-rf.o
 .text.off      0x00202e50       0x38 obj_zoul/cc2538-rf.o
 .text.set_channel
                0x00202e88       0x48 obj_zoul/cc2538-rf.o
 .text.channel_clear
                0x00202ed0       0x3c obj_zoul/cc2538-rf.o
 .text.receiving_packet
                0x00202f0c       0x18 obj_zoul/cc2538-rf.o
 .text.pending_packet
                0x00202f24       0x10 obj_zoul/cc2538-rf.o
 .text.get_value
                0x00202f34      0x11c obj_zoul/cc2538-rf.o
 .text.prepare  0x00203050       0x64 obj_zoul/cc2538-rf.o
 .text.transmit
                0x002030b4       0x8c obj_zoul/cc2538-rf.o
 .text.set_frame_filtering
                0x00203140       0x18 obj_zoul/cc2538-rf.o
 .text.set_value
                0x00203158       0xd4 obj_zoul/cc2538-rf.o
 .text.get_object
                0x0020322c       0x30 obj_zoul/cc2538-rf.o
 .text.set_object
                0x0020325c       0x30 obj_zoul/cc2538-rf.o
 .text.read     0x0020328c       0xc4 obj_zoul/cc2538-rf.o
 .text.init     0x00203350       0xcc obj_zoul/cc2538-rf.o
 .text.process_thread_cc2538_rf_process
                0x0020341c       0x74 obj_zoul/cc2538-rf.o
 .text.cc2538_rf_rx_tx_isr
                0x00203490       0x18 obj_zoul/cc2538-rf.o
                0x00203490                cc2538_rf_rx_tx_isr
 .text.cc2538_rf_err_isr
                0x002034a8       0x28 obj_zoul/cc2538-rf.o
                0x002034a8                cc2538_rf_err_isr
 .text.udma_init
                0x002034d0       0x30 obj_zoul/udma.o
                0x002034d0                udma_init
 .text.udma_set_channel_src
                0x00203500       0x10 obj_zoul/udma.o
                0x00203500                udma_set_channel_src
 .text.udma_set_channel_dst
                0x00203510       0x14 obj_zoul/udma.o
                0x00203510                udma_set_channel_dst
 .text.udma_set_channel_control_word
                0x00203524       0x14 obj_zoul/udma.o
                0x00203524                udma_set_channel_control_word
 .text.udma_channel_enable
                0x00203538       0x18 obj_zoul/udma.o
                0x00203538                udma_channel_enable
 .text.udma_channel_mask_set
                0x00203550       0x18 obj_zoul/udma.o
                0x00203550                udma_channel_mask_set
 .text.udma_channel_sw_request
                0x00203568       0x18 obj_zoul/udma.o
                0x00203568                udma_channel_sw_request
 .text.udma_channel_get_mode
                0x00203580       0x1c obj_zoul/udma.o
                0x00203580                udma_channel_get_mode
 .text.udma_isr
                0x0020359c       0x10 obj_zoul/udma.o
                0x0020359c                udma_isr
 .text.udma_err_isr
                0x002035ac        0xc obj_zoul/udma.o
                0x002035ac                udma_err_isr
 .text.select_32_mhz_xosc
                0x002035b8       0x2c obj_zoul/lpm.o
 .text.lpm_exit
                0x002035e4       0x34 obj_zoul/lpm.o
                0x002035e4                lpm_exit
 .text.lpm_enter
                0x00203618       0xb0 obj_zoul/lpm.o
                0x00203618                lpm_enter
 .text.lpm_register_peripheral
                0x002036c8       0x20 obj_zoul/lpm.o
                0x002036c8                lpm_register_peripheral
 .text.lpm_init
                0x002036e8       0x24 obj_zoul/lpm.o
                0x002036e8                lpm_init
 .text.pka_isr  0x0020370c       0x24 obj_zoul/pka.o
                0x0020370c                pka_isr
 .text.ieee_addr_cpy_to
                0x00203730       0x74 obj_zoul/ieee-addr.o
                0x00203730                ieee_addr_cpy_to
 .text.printf   0x002037a4       0x20 obj_zoul/dbg-printf.o
                0x002037a4                printf
 .text.sprintf  0x002037c4       0x30 obj_zoul/dbg-sprintf.o
                0x002037c4                sprintf
 .text.fill_space
                0x002037f4       0x34 obj_zoul/strformat.o
 .text.format_str_v
                0x00203828      0x6e8 obj_zoul/strformat.o
                0x00203828                format_str_v
 .text.process_thread_ctimer_process
                0x00203f10       0x80 obj_zoul/ctimer.o
 .text.ctimer_init
                0x00203f90       0x28 obj_zoul/ctimer.o
                0x00203f90                ctimer_init
 .text.ctimer_set_with_process
                0x00203fb8       0x44 obj_zoul/ctimer.o
                0x00203fb8                ctimer_set_with_process
 .text.ctimer_set
                0x00203ffc       0x14 obj_zoul/ctimer.o
                0x00203ffc                ctimer_set
 .text.ctimer_reset
                0x00204010       0x38 obj_zoul/ctimer.o
                0x00204010                ctimer_reset
 .text.ctimer_stop
                0x00204048       0x2c obj_zoul/ctimer.o
                0x00204048                ctimer_stop
 .text.update_time
                0x00204074       0x44 obj_zoul/etimer.o
 .text.etimer_request_poll
                0x002040b8        0xc obj_zoul/etimer.o
                0x002040b8                etimer_request_poll
 .text.process_thread_etimer_process
                0x002040c4       0x94 obj_zoul/etimer.o
 .text.add_timer
                0x00204158       0x40 obj_zoul/etimer.o
 .text.etimer_pending
                0x00204198       0x10 obj_zoul/etimer.o
                0x00204198                etimer_pending
 .text.etimer_stop
                0x002041a8       0x34 obj_zoul/etimer.o
                0x002041a8                etimer_stop
 .text.call_process.part.0
                0x002041dc       0x38 obj_zoul/process.o
 .text.exit_process
                0x00204214       0x80 obj_zoul/process.o
 .text.do_poll  0x00204294       0x30 obj_zoul/process.o
 .text.process_alloc_event
                0x002042c4       0x10 obj_zoul/process.o
                0x002042c4                process_alloc_event
 .text.process_exit
                0x002042d4        0xc obj_zoul/process.o
                0x002042d4                process_exit
 .text.process_init
                0x002042e0       0x30 obj_zoul/process.o
                0x002042e0                process_init
 .text.process_run
                0x00204310       0xb0 obj_zoul/process.o
                0x00204310                process_run
 .text.process_nevents
                0x002043c0       0x14 obj_zoul/process.o
                0x002043c0                process_nevents
 .text.process_post
                0x002043d4       0x44 obj_zoul/process.o
                0x002043d4                process_post
 .text.process_post_synch
                0x00204418       0x14 obj_zoul/process.o
                0x00204418                process_post_synch
 .text.process_start
                0x0020442c       0x30 obj_zoul/process.o
                0x0020442c                process_start
 .text.process_poll
                0x0020445c       0x18 obj_zoul/process.o
                0x0020445c                process_poll
 .text.rtimer_set
                0x00204474       0x24 obj_zoul/rtimer.o
                0x00204474                rtimer_set
 .text.rtimer_run_next
                0x00204498       0x28 obj_zoul/rtimer.o
                0x00204498                rtimer_run_next
 .text.stimer_expired
                0x002044c0       0x20 obj_zoul/stimer.o
                0x002044c0                stimer_expired
 .text.process_thread_serial_line_process
                0x002044e0       0x98 obj_zoul/serial-line.o
 .text.serial_line_input_byte
                0x00204578       0x44 obj_zoul/serial-line.o
                0x00204578                serial_line_input_byte
 .text.serial_line_init
                0x002045bc       0x24 obj_zoul/serial-line.o
                0x002045bc                serial_line_init
 .text.random_rand
                0x002045e0       0x20 obj_zoul/random.o
                0x002045e0                random_rand
 .text.random_init
                0x00204600       0x78 obj_zoul/random.o
                0x00204600                random_init
 .text.process_thread_sensors_process
                0x00204678       0xd4 obj_zoul/sensors.o
 .text.sensors_changed
                0x0020474c       0x38 obj_zoul/sensors.o
                0x0020474c                sensors_changed
 .text.clear_fragments
                0x00204784       0x3c obj_zoul/sicslowpan.o
 .text.sicslowpan_init
                0x002047c0       0x24 obj_zoul/sicslowpan.o
                0x002047c0                sicslowpan_init
 .text.set_packet_attrs
                0x002047e4       0x44 obj_zoul/sicslowpan.o
 .text.compress_addr_64
                0x00204828       0x90 obj_zoul/sicslowpan.o
 .text.addr_context_lookup_by_prefix
                0x002048b8       0x28 obj_zoul/sicslowpan.o
 .text.send_packet
                0x002048e0       0x24 obj_zoul/sicslowpan.o
 .text.packet_sent
                0x00204904       0x28 obj_zoul/sicslowpan.o
 .text.store_fragment
                0x0020492c       0x58 obj_zoul/sicslowpan.o
 .text.uncompress_addr
                0x00204984       0xa4 obj_zoul/sicslowpan.o
 .text.output   0x00204a28      0x6a8 obj_zoul/sicslowpan.o
 .text.add_fragment
                0x002050d0      0x124 obj_zoul/sicslowpan.o
 .text.input    0x002051f4      0x5a8 obj_zoul/sicslowpan.o
 .text.upper_layer_chksum
                0x0020579c       0x54 obj_zoul/uip6.o
 .text.ext_hdr_options_process
                0x002057f0       0xb0 obj_zoul/uip6.o
 .text.uip_add32
                0x002058a0       0x54 obj_zoul/uip6.o
                0x002058a0                uip_add32
 .text.unlikely.uip_add_rcv_nxt
                0x002058f4       0x2c obj_zoul/uip6.o
 .text.uip_init
                0x00205920       0x6c obj_zoul/uip6.o
                0x00205920                uip_init
 .text.remove_ext_hdr
                0x0020598c       0x5c obj_zoul/uip6.o
                0x0020598c                remove_ext_hdr
 .text.uip_udp_new
                0x002059e8       0xb0 obj_zoul/uip6.o
                0x002059e8                uip_udp_new
 .text.uip_unlisten
                0x00205a98       0x34 obj_zoul/uip6.o
                0x00205a98                uip_unlisten
 .text.uip_process
                0x00205acc      0xe00 obj_zoul/uip6.o
                0x00205acc                uip_process
 .text.uip_ds6_prefix_add
                0x002068cc       0x64 obj_zoul/uip-ds6.o
                0x002068cc                uip_ds6_prefix_add
 .text.uip_ds6_is_addr_onlink
                0x00206930       0x40 obj_zoul/uip-ds6.o
                0x00206930                uip_ds6_is_addr_onlink
 .text.uip_ds6_addr_lookup
                0x00206970       0x2c obj_zoul/uip-ds6.o
                0x00206970                uip_ds6_addr_lookup
 .text.uip_ds6_get_link_local
                0x0020699c       0x40 obj_zoul/uip-ds6.o
                0x0020699c                uip_ds6_get_link_local
 .text.uip_ds6_maddr_add
                0x002069dc       0x4c obj_zoul/uip-ds6.o
                0x002069dc                uip_ds6_maddr_add
 .text.uip_ds6_addr_add
                0x00206a28       0x94 obj_zoul/uip-ds6.o
                0x00206a28                uip_ds6_addr_add
 .text.uip_ds6_maddr_lookup
                0x00206abc       0x2c obj_zoul/uip-ds6.o
                0x00206abc                uip_ds6_maddr_lookup
 .text.uip_ds6_addr_rm
                0x00206ae8       0x44 obj_zoul/uip-ds6.o
                0x00206ae8                uip_ds6_addr_rm
 .text.uip_ds6_periodic
                0x00206b2c       0x50 obj_zoul/uip-ds6.o
                0x00206b2c                uip_ds6_periodic
 .text.uip_ds6_select_src
                0x00206b7c       0x94 obj_zoul/uip-ds6.o
                0x00206b7c                uip_ds6_select_src
 .text.uip_ds6_compute_reachable_time
                0x00206c10       0x28 obj_zoul/uip-ds6.o
                0x00206c10                uip_ds6_compute_reachable_time
 .text.uip_ds6_init
                0x00206c38       0xe0 obj_zoul/uip-ds6.o
                0x00206c38                uip_ds6_init
 .text.uip_ds6_nbr_rm
                0x00206d18       0x20 obj_zoul/uip-ds6-nbr.o
                0x00206d18                uip_ds6_nbr_rm
 .text.uip_ds6_neighbors_init
                0x00206d38       0x14 obj_zoul/uip-ds6-nbr.o
                0x00206d38                uip_ds6_neighbors_init
 .text.uip_ds6_nbr_add
                0x00206d4c       0x60 obj_zoul/uip-ds6-nbr.o
                0x00206d4c                uip_ds6_nbr_add
 .text.uip_ds6_nbr_get_ll
                0x00206dac       0x10 obj_zoul/uip-ds6-nbr.o
                0x00206dac                uip_ds6_nbr_get_ll
 .text.uip_ds6_nbr_lookup
                0x00206dbc       0x38 obj_zoul/uip-ds6-nbr.o
                0x00206dbc                uip_ds6_nbr_lookup
 .text.uip_ds6_nbr_ll_lookup
                0x00206df4       0x10 obj_zoul/uip-ds6-nbr.o
                0x00206df4                uip_ds6_nbr_ll_lookup
 .text.uip_ds6_link_neighbor_callback
                0x00206e04       0x2c obj_zoul/uip-ds6-nbr.o
                0x00206e04                uip_ds6_link_neighbor_callback
 .text.uip_ds6_neighbor_periodic
                0x00206e30      0x104 obj_zoul/uip-ds6-nbr.o
                0x00206e30                uip_ds6_neighbor_periodic
 .text.call_route_callback
                0x00206f34       0x48 obj_zoul/uip-ds6-route.o
 .text.uip_ds6_route_init
                0x00206f7c       0x4c obj_zoul/uip-ds6-route.o
                0x00206f7c                uip_ds6_route_init
 .text.uip_ds6_route_nexthop
                0x00206fc8       0x20 obj_zoul/uip-ds6-route.o
                0x00206fc8                uip_ds6_route_nexthop
 .text.uip_ds6_route_head
                0x00206fe8        0xc obj_zoul/uip-ds6-route.o
                0x00206fe8                uip_ds6_route_head
 .text.uip_ds6_route_lookup
                0x00206ff4       0x64 obj_zoul/uip-ds6-route.o
                0x00206ff4                uip_ds6_route_lookup
 .text.uip_ds6_route_rm
                0x00207058       0x9c obj_zoul/uip-ds6-route.o
                0x00207058                uip_ds6_route_rm
 .text.rm_routelist
                0x002070f4       0x30 obj_zoul/uip-ds6-route.o
 .text.uip_ds6_route_add
                0x00207124      0x10c obj_zoul/uip-ds6-route.o
                0x00207124                uip_ds6_route_add
 .text.uip_ds6_defrt_rm
                0x00207230       0x44 obj_zoul/uip-ds6-route.o
                0x00207230                uip_ds6_defrt_rm
 .text.uip_ds6_defrt_lookup
                0x00207274       0x2c obj_zoul/uip-ds6-route.o
                0x00207274                uip_ds6_defrt_lookup
 .text.uip_ds6_defrt_add
                0x002072a0       0x64 obj_zoul/uip-ds6-route.o
                0x002072a0                uip_ds6_defrt_add
 .text.uip_ds6_defrt_choose
                0x00207304       0x30 obj_zoul/uip-ds6-route.o
                0x00207304                uip_ds6_defrt_choose
 .text.uip_ds6_defrt_periodic
                0x00207334       0x30 obj_zoul/uip-ds6-route.o
                0x00207334                uip_ds6_defrt_periodic
 .text.echo_reply_input
                0x00207364       0xe8 obj_zoul/uip-icmp6.o
 .text.echo_request_input
                0x0020744c      0x100 obj_zoul/uip-icmp6.o
 .text.uip_icmp6_input
                0x0020754c       0x38 obj_zoul/uip-icmp6.o
                0x0020754c                uip_icmp6_input
 .text.uip_icmp6_register_input_handler
                0x00207584        0xc obj_zoul/uip-icmp6.o
                0x00207584                uip_icmp6_register_input_handler
 .text.uip_icmp6_error_output
                0x00207590      0x14c obj_zoul/uip-icmp6.o
                0x00207590                uip_icmp6_error_output
 .text.uip_icmp6_send
                0x002076dc       0x8c obj_zoul/uip-icmp6.o
                0x002076dc                uip_icmp6_send
 .text.uip_icmp6_init
                0x00207768       0x1c obj_zoul/uip-icmp6.o
                0x00207768                uip_icmp6_init
 .text.na_input
                0x00207784      0x1d4 obj_zoul/uip-nd6.o
 .text.ns_input
                0x00207958      0x264 obj_zoul/uip-nd6.o
 .text.uip_nd6_ns_output
                0x00207bbc      0x164 obj_zoul/uip-nd6.o
                0x00207bbc                uip_nd6_ns_output
 .text.uip_nd6_init
                0x00207d20       0x1c obj_zoul/uip-nd6.o
                0x00207d20                uip_nd6_init
 .text.dns_name_isequal
                0x00207d3c       0x90 obj_zoul/resolv.o
 .text.mdns_write_announce_records
                0x00207dcc       0x88 obj_zoul/resolv.o
 .text.mdns_prep_host_announce_packet
                0x00207e54       0x78 obj_zoul/resolv.o
 .text.start_name_collision_check
                0x00207ecc       0x20 obj_zoul/resolv.o
 .text.remove_trailing_dots
                0x00207eec       0x40 obj_zoul/resolv.o
 .text.resolv_found
                0x00207f2c       0xd0 obj_zoul/resolv.o
 .text.resolv_set_hostname
                0x00207ffc       0x40 obj_zoul/resolv.o
                0x00207ffc                resolv_set_hostname
 .text.process_thread_resolv_process
                0x0020803c      0x664 obj_zoul/resolv.o
 .text.resolv_query
                0x002086a0      0x12c obj_zoul/resolv.o
                0x002086a0                resolv_query
 .text.process_thread_mdns_probe_process
                0x002087cc       0xac obj_zoul/resolv.o
 .text.resolv_lookup
                0x00208878       0x78 obj_zoul/resolv.o
                0x00208878                resolv_lookup
 .text.start_periodic_tcp_timer
                0x002088f0       0x1c obj_zoul/tcpip.o
 .text.tcpip_output
                0x0020890c       0x10 obj_zoul/tcpip.o
                0x0020890c                tcpip_output
 .text.tcpip_set_outputfunc
                0x0020891c        0xc obj_zoul/tcpip.o
                0x0020891c                tcpip_set_outputfunc
 .text.udp_new  0x00208928       0x18 obj_zoul/tcpip.o
                0x00208928                udp_new
 .text.tcpip_icmp6_call
                0x00208940       0x28 obj_zoul/tcpip.o
                0x00208940                tcpip_icmp6_call
 .text.tcpip_input
                0x00208968       0x24 obj_zoul/tcpip.o
                0x00208968                tcpip_input
 .text.tcpip_ipv6_output
                0x0020898c      0x114 obj_zoul/tcpip.o
                0x0020898c                tcpip_ipv6_output
 .text.process_thread_tcpip_process
                0x00208aa0      0x1e0 obj_zoul/tcpip.o
 .text.tcpip_poll_udp
                0x00208c80       0x10 obj_zoul/tcpip.o
                0x00208c80                tcpip_poll_udp
 .text.tcpip_uipcall
                0x00208c90       0x7c obj_zoul/tcpip.o
                0x00208c90                tcpip_uipcall
 .text.uip_debug_ipaddr_print
                0x00208d0c       0xa0 obj_zoul/uip-debug.o
                0x00208d0c                uip_debug_ipaddr_print
 .text.uip_nameserver_get
                0x00208dac       0x10 obj_zoul/uip-nameserver.o
                0x00208dac                uip_nameserver_get
 .text.uip_udp_packet_send
                0x00208dbc       0x38 obj_zoul/uip-udp-packet.o
                0x00208dbc                uip_udp_packet_send
 .text.rpl_get_mode
                0x00208df4        0xc obj_zoul/rpl.o
                0x00208df4                rpl_get_mode
 .text.rpl_purge_routes
                0x00208e00       0x64 obj_zoul/rpl.o
                0x00208e00                rpl_purge_routes
 .text.rpl_link_neighbor_callback
                0x00208e64       0x70 obj_zoul/rpl.o
                0x00208e64                rpl_link_neighbor_callback
 .text.rpl_ipv6_neighbor_callback
                0x00208ed4       0x28 obj_zoul/rpl.o
                0x00208ed4                rpl_ipv6_neighbor_callback
 .text.rpl_purge_dags
                0x00208efc       0x3c obj_zoul/rpl.o
                0x00208efc                rpl_purge_dags
 .text.rpl_init
                0x00208f38       0x58 obj_zoul/rpl.o
                0x00208f38                rpl_init
 .text.rpl_set_preferred_parent
                0x00208f90       0x28 obj_zoul/rpl-dag.o
 .text.set_ip_from_prefix
                0x00208fb8       0x2c obj_zoul/rpl-dag.o
 .text.find_parent_any_dag_any_instance
                0x00208fe4       0x1c obj_zoul/rpl-dag.o
 .text.rpl_get_nbr
                0x00209000       0x28 obj_zoul/rpl-dag.o
                0x00209000                rpl_get_nbr
 .text.rpl_dag_init
                0x00209028       0x14 obj_zoul/rpl-dag.o
                0x00209028                rpl_dag_init
 .text.rpl_get_parent
                0x0020903c       0x10 obj_zoul/rpl-dag.o
                0x0020903c                rpl_get_parent
 .text.rpl_get_parent_ipaddr
                0x0020904c       0x18 obj_zoul/rpl-dag.o
                0x0020904c                rpl_get_parent_ipaddr
 .text.rpl_alloc_instance
                0x00209064       0x34 obj_zoul/rpl-dag.o
                0x00209064                rpl_alloc_instance
 .text.rpl_add_parent
                0x00209098       0x44 obj_zoul/rpl-dag.o
                0x00209098                rpl_add_parent
 .text.rpl_select_parent
                0x002090dc       0x6c obj_zoul/rpl-dag.o
                0x002090dc                rpl_select_parent
 .text.rpl_remove_parent
                0x00209148       0x1c obj_zoul/rpl-dag.o
                0x00209148                rpl_remove_parent
 .text.remove_parents.constprop.4
                0x00209164       0x2c obj_zoul/rpl-dag.o
 .text.rpl_get_any_dag
                0x00209190       0x18 obj_zoul/rpl-dag.o
                0x00209190                rpl_get_any_dag
 .text.rpl_get_instance
                0x002091a8       0x20 obj_zoul/rpl-dag.o
                0x002091a8                rpl_get_instance
 .text.rpl_find_of
                0x002091c8       0x14 obj_zoul/rpl-dag.o
                0x002091c8                rpl_find_of
 .text.rpl_join_instance
                0x002091dc      0x118 obj_zoul/rpl-dag.o
                0x002091dc                rpl_join_instance
 .text.rpl_local_repair
                0x002092f4       0x58 obj_zoul/rpl-dag.o
                0x002092f4                rpl_local_repair
 .text.rpl_recalculate_ranks
                0x0020934c       0x3c obj_zoul/rpl-dag.o
                0x0020934c                rpl_recalculate_ranks
 .text.rpl_verify_header
                0x00209388      0x114 obj_zoul/rpl-ext-header.o
                0x00209388                rpl_verify_header
 .text.rpl_update_header_empty
                0x0020949c      0x13c obj_zoul/rpl-ext-header.o
                0x0020949c                rpl_update_header_empty
 .text.rpl_update_header_final
                0x002095d8       0x88 obj_zoul/rpl-ext-header.o
                0x002095d8                rpl_update_header_final
 .text.rpl_remove_header
                0x00209660       0x60 obj_zoul/rpl-ext-header.o
                0x00209660                rpl_remove_header
 .text.rpl_invert_header
                0x002096c0       0x68 obj_zoul/rpl-ext-header.o
                0x002096c0                rpl_invert_header
 .text.rpl_insert_header
                0x00209728       0x1c obj_zoul/rpl-ext-header.o
                0x00209728                rpl_insert_header
 .text.dao_ack_input
                0x00209744       0x14 obj_zoul/rpl-icmp6.o
 .text.dio_input
                0x00209758      0x288 obj_zoul/rpl-icmp6.o
 .text.dis_output
                0x002099e0       0x54 obj_zoul/rpl-icmp6.o
                0x002099e0                dis_output
 .text.dio_output
                0x00209a34      0x20c obj_zoul/rpl-icmp6.o
                0x00209a34                dio_output
 .text.dis_input
                0x00209c40       0x3c obj_zoul/rpl-icmp6.o
 .text.dao_output_target
                0x00209c7c       0xe0 obj_zoul/rpl-icmp6.o
                0x00209c7c                dao_output_target
 .text.dao_output
                0x00209d5c       0x64 obj_zoul/rpl-icmp6.o
                0x00209d5c                dao_output
 .text.dao_ack_output
                0x00209dc0       0x34 obj_zoul/rpl-icmp6.o
                0x00209dc0                dao_ack_output
 .text.dao_input
                0x00209df4      0x1e4 obj_zoul/rpl-icmp6.o
 .text.rpl_icmp6_register_handlers
                0x00209fd8       0x30 obj_zoul/rpl-icmp6.o
                0x00209fd8                rpl_icmp6_register_handlers
 .text.new_dio_interval
                0x0020a008       0x58 obj_zoul/rpl-timers.o
 .text.handle_periodic_timer
                0x0020a060       0x3c obj_zoul/rpl-timers.o
 .text.set_dao_lifetime_timer
                0x0020a09c       0x3c obj_zoul/rpl-timers.o
 .text.handle_dio_timer
                0x0020a0d8       0x80 obj_zoul/rpl-timers.o
 .text.schedule_dao
                0x0020a158       0x54 obj_zoul/rpl-timers.o
 .text.handle_dao_timer
                0x0020a1ac       0x58 obj_zoul/rpl-timers.o
 .text.rpl_reset_periodic_timer
                0x0020a204       0x34 obj_zoul/rpl-timers.o
                0x0020a204                rpl_reset_periodic_timer
 .text.rpl_schedule_unicast_dio_immediately
                0x0020a238       0x14 obj_zoul/rpl-timers.o
                0x0020a238                rpl_schedule_unicast_dio_immediately
 .text.rpl_schedule_probing
                0x0020a24c       0x30 obj_zoul/rpl-timers.o
                0x0020a24c                rpl_schedule_probing
 .text.handle_probing_timer
                0x0020a27c       0xd0 obj_zoul/rpl-timers.o
 .text.index_from_key
                0x0020a34c       0x20 obj_zoul/nbr-table.o
 .text.index_from_lladdr
                0x0020a36c       0x40 obj_zoul/nbr-table.o
 .text.key_from_item
                0x0020a3ac       0x2c obj_zoul/nbr-table.o
 .text.nbr_get_bit.constprop.0
                0x0020a3d8       0x30 obj_zoul/nbr-table.o
 .text.nbr_table_register
                0x0020a408       0x28 obj_zoul/nbr-table.o
                0x0020a408                nbr_table_register
 .text.nbr_table_head
                0x0020a430       0x34 obj_zoul/nbr-table.o
                0x0020a430                nbr_table_head
 .text.nbr_table_add_lladdr
                0x0020a464      0x11c obj_zoul/nbr-table.o
                0x0020a464                nbr_table_add_lladdr
 .text.nbr_table_remove
                0x0020a580       0x2c obj_zoul/nbr-table.o
                0x0020a580                nbr_table_remove
 .text.nbr_table_lock
                0x0020a5ac       0x14 obj_zoul/nbr-table.o
                0x0020a5ac                nbr_table_lock
 .text.nbr_table_unlock
                0x0020a5c0       0x14 obj_zoul/nbr-table.o
                0x0020a5c0                nbr_table_unlock
 .text.netstack_init
                0x0020a5d4       0x38 obj_zoul/netstack.o
                0x0020a5d4                netstack_init
 .text.packetbuf_copyto
                0x0020a60c       0x50 obj_zoul/packetbuf.o
                0x0020a60c                packetbuf_copyto
 .text.packetbuf_hdrreduce
                0x0020a65c       0x2c obj_zoul/packetbuf.o
                0x0020a65c                packetbuf_hdrreduce
 .text.packetbuf_set_datalen
                0x0020a688        0xc obj_zoul/packetbuf.o
                0x0020a688                packetbuf_set_datalen
 .text.packetbuf_dataptr
                0x0020a694       0x14 obj_zoul/packetbuf.o
                0x0020a694                packetbuf_dataptr
 .text.packetbuf_hdrptr
                0x0020a6a8       0x14 obj_zoul/packetbuf.o
                0x0020a6a8                packetbuf_hdrptr
 .text.packetbuf_datalen
                0x0020a6bc        0xc obj_zoul/packetbuf.o
                0x0020a6bc                packetbuf_datalen
 .text.packetbuf_hdrlen
                0x0020a6c8       0x1c obj_zoul/packetbuf.o
                0x0020a6c8                packetbuf_hdrlen
 .text.packetbuf_totlen
                0x0020a6e4       0x14 obj_zoul/packetbuf.o
                0x0020a6e4                packetbuf_totlen
 .text.packetbuf_hdralloc
                0x0020a6f8       0x28 obj_zoul/packetbuf.o
                0x0020a6f8                packetbuf_hdralloc
 .text.packetbuf_attr_clear
                0x0020a720       0x38 obj_zoul/packetbuf.o
                0x0020a720                packetbuf_attr_clear
 .text.packetbuf_clear
                0x0020a758       0x30 obj_zoul/packetbuf.o
                0x0020a758                packetbuf_clear
 .text.packetbuf_copyfrom
                0x0020a788       0x2c obj_zoul/packetbuf.o
                0x0020a788                packetbuf_copyfrom
 .text.packetbuf_attr_copyto
                0x0020a7b4       0x34 obj_zoul/packetbuf.o
                0x0020a7b4                packetbuf_attr_copyto
 .text.packetbuf_attr_copyfrom
                0x0020a7e8       0x34 obj_zoul/packetbuf.o
                0x0020a7e8                packetbuf_attr_copyfrom
 .text.packetbuf_set_attr
                0x0020a81c       0x10 obj_zoul/packetbuf.o
                0x0020a81c                packetbuf_set_attr
 .text.packetbuf_attr
                0x0020a82c        0xc obj_zoul/packetbuf.o
                0x0020a82c                packetbuf_attr
 .text.packetbuf_set_addr
                0x0020a838       0x18 obj_zoul/packetbuf.o
                0x0020a838                packetbuf_set_addr
 .text.packetbuf_addr
                0x0020a850       0x10 obj_zoul/packetbuf.o
                0x0020a850                packetbuf_addr
 .text.packetbuf_holds_broadcast
                0x0020a860       0x10 obj_zoul/packetbuf.o
                0x0020a860                packetbuf_holds_broadcast
 .text.queuebuf_init
                0x0020a870       0x1c obj_zoul/queuebuf.o
                0x0020a870                queuebuf_init
 .text.queuebuf_numfree
                0x0020a88c        0xc obj_zoul/queuebuf.o
                0x0020a88c                queuebuf_numfree
 .text.queuebuf_new_from_packetbuf
                0x0020a898       0x44 obj_zoul/queuebuf.o
                0x0020a898                queuebuf_new_from_packetbuf
 .text.queuebuf_free
                0x0020a8dc       0x2c obj_zoul/queuebuf.o
                0x0020a8dc                queuebuf_free
 .text.queuebuf_to_packetbuf
                0x0020a908       0x30 obj_zoul/queuebuf.o
                0x0020a908                queuebuf_to_packetbuf
 .text.input_packet
                0x0020a938        0xc obj_zoul/csma.o
 .text.on       0x0020a944        0xc obj_zoul/csma.o
 .text.off      0x0020a950        0xc obj_zoul/csma.o
 .text.channel_check_interval
                0x0020a95c       0x10 obj_zoul/csma.o
 .text.transmit_packet_list
                0x0020a96c       0x30 obj_zoul/csma.o
 .text.send_packet
                0x0020a99c      0x148 obj_zoul/csma.o
 .text.init     0x0020aae4       0x24 obj_zoul/csma.o
 .text.free_packet
                0x0020ab08       0x98 obj_zoul/csma.o
 .text.packet_sent
                0x0020aba0       0xf8 obj_zoul/csma.o
 .text.frame802154_get_pan_id
                0x0020ac98        0xc obj_zoul/frame802154.o
                0x0020ac98                frame802154_get_pan_id
 .text.frame802154_parse
                0x0020aca4      0x174 obj_zoul/frame802154.o
                0x0020aca4                frame802154_parse
 .text.create_frame.isra.0
                0x0020ae18      0x124 obj_zoul/framer-802154.o
 .text.mac_sequence_is_duplicate
                0x0020af3c       0x38 obj_zoul/mac-sequence.o
                0x0020af3c                mac_sequence_is_duplicate
 .text.mac_sequence_register_seqno
                0x0020af74       0x64 obj_zoul/mac-sequence.o
                0x0020af74                mac_sequence_register_seqno
 .text.init     0x0020afd8       0x40 obj_zoul/contikimac.o
 .text.on       0x0020b018       0x2c obj_zoul/contikimac.o
 .text.off      0x0020b044       0x38 obj_zoul/contikimac.o
 .text.recv_burst_off
                0x0020b07c       0x14 obj_zoul/contikimac.o
 .text.powercycle_turn_radio_off
                0x0020b090       0x1c obj_zoul/contikimac.o
 .text.turn_off
                0x0020b0ac       0x38 obj_zoul/contikimac.o
 .text.turn_on  0x0020b0e4       0x40 obj_zoul/contikimac.o
 .text.schedule_powercycle_fixed
                0x0020b124       0x34 obj_zoul/contikimac.o
 .text.input_packet
                0x0020b158       0xa8 obj_zoul/contikimac.o
 .text.send_packet.isra.8
                0x0020b200      0x1f8 obj_zoul/contikimac.o
 .text.qsend_list
                0x0020b3f8       0xc4 obj_zoul/contikimac.o
 .text.powercycle_wrapper
                0x0020b4bc      0x1ec obj_zoul/contikimac.o
 .text.input    0x0020b6a8        0xc obj_zoul/nullsec.o
 .text.send     0x0020b6b4       0x20 obj_zoul/nullsec.o
 .text.process_thread_udp_client_process
                0x0020b6d4      0x2a0 udp-client.co
 .text          0x0020b974       0x30 /usr/bin/../lib/gcc/arm-none-eabi/4.9.3/armv7-m/libgcc.a(_aeabi_uldivmod.o)
                0x0020b974                __aeabi_uldivmod
 .text          0x0020b9a4       0x60 /usr/bin/../lib/gcc/arm-none-eabi/4.9.3/armv7-m/libgcc.a(bpabi.o)
                0x0020b9a4                __gnu_ldivmod_helper
                0x0020b9d4                __gnu_uldivmod_helper
 .text          0x0020ba04        0x4 /usr/bin/../lib/gcc/arm-none-eabi/4.9.3/armv7-m/libgcc.a(_dvmd_tls.o)
                0x0020ba04                __aeabi_ldiv0
                0x0020ba04                __aeabi_idiv0
 .text          0x0020ba08      0x2ac /usr/bin/../lib/gcc/arm-none-eabi/4.9.3/armv7-m/libgcc.a(_divdi3.o)
                0x0020ba08                __divdi3
 .text          0x0020bcb4      0x270 /usr/bin/../lib/gcc/arm-none-eabi/4.9.3/armv7-m/libgcc.a(_udivdi3.o)
                0x0020bcb4                __udivdi3
 .text.memcmp   0x0020bf24       0x64 /usr/bin/../lib/gcc/arm-none-eabi/4.9.3/../../../../arm-none-eabi/lib/armv7-m/libc.a(lib_a-memcmp.o)
                0x0020bf24                memcmp
 .text          0x0020bf88       0xec /usr/bin/../lib/gcc/arm-none-eabi/4.9.3/../../../../arm-none-eabi/lib/armv7-m/libc.a(lib_a-memcpy.o)
                0x0020bf88                memcpy
 .text.memmove  0x0020c074       0xc8 /usr/bin/../lib/gcc/arm-none-eabi/4.9.3/../../../../arm-none-eabi/lib/armv7-m/libc.a(lib_a-memmove.o)
                0x0020c074                memmove
 .text.memset   0x0020c13c       0x9c /usr/bin/../lib/gcc/arm-none-eabi/4.9.3/../../../../arm-none-eabi/lib/armv7-m/libc.a(lib_a-memset.o)
                0x0020c13c                memset
 .text.strcasecmp
                0x0020c1d8       0x40 /usr/bin/../lib/gcc/arm-none-eabi/4.9.3/../../../../arm-none-eabi/lib/armv7-m/libc.a(lib_a-strcasecmp.o)
                0x0020c1d8                strcasecmp
 .text.strcat   0x0020c218       0x40 /usr/bin/../lib/gcc/arm-none-eabi/4.9.3/../../../../arm-none-eabi/lib/armv7-m/libc.a(lib_a-strcat.o)
                0x0020c218                strcat
 .text          0x0020c258      0x1bc /usr/bin/../lib/gcc/arm-none-eabi/4.9.3/../../../../arm-none-eabi/lib/armv7-m/libc.a(lib_a-strcmp.o)
                0x0020c258                strcmp
 .text.strcpy   0x0020c414       0xbc /usr/bin/../lib/gcc/arm-none-eabi/4.9.3/../../../../arm-none-eabi/lib/armv7-m/libc.a(lib_a-strcpy.o)
                0x0020c414                strcpy
 .text.strlen   0x0020c4d0       0x5c /usr/bin/../lib/gcc/arm-none-eabi/4.9.3/../../../../arm-none-eabi/lib/armv7-m/libc.a(lib_a-strlen.o)
                0x0020c4d0                strlen
 .text.strncasecmp
                0x0020c52c       0x54 /usr/bin/../lib/gcc/arm-none-eabi/4.9.3/../../../../arm-none-eabi/lib/armv7-m/libc.a(lib_a-strncasecmp.o)
                0x0020c52c                strncasecmp
 .text.strncat  0x0020c580       0x5c /usr/bin/../lib/gcc/arm-none-eabi/4.9.3/../../../../arm-none-eabi/lib/armv7-m/libc.a(lib_a-strncat.o)
                0x0020c580                strncat
 .text.strncpy  0x0020c5dc       0x68 /usr/bin/../lib/gcc/arm-none-eabi/4.9.3/../../../../arm-none-eabi/lib/armv7-m/libc.a(lib_a-strncpy.o)
                0x0020c5dc                strncpy
 .text.default_handler
                0x0020c644        0x2 obj_zoul/startup-gcc.o
                0x0020c644                default_handler
 .text.nmi_handler
                0x0020c646        0x6 obj_zoul/startup-gcc.o
                0x0020c646                nmi_handler
 .text.fade     0x0020c64c       0x54 obj_zoul/contiki-main.o
 .text.status   0x0020c6a0        0x4 obj_zoul/adc-zoul.o
 .text.board_init
                0x0020c6a4        0x4 obj_zoul/board.o
                0x0020c6a4                board_init
 .text.clock_isr
                0x0020c6a8        0x4 obj_zoul/clock.o
                0x0020c6a8                clock_isr
 .text.rtimer_arch_init
                0x0020c6ac        0x2 obj_zoul/rtimer-arch.o
                0x0020c6ac                rtimer_arch_init
 .text.uart0_isr
                0x0020c6ae        0x6 obj_zoul/uart.o
                0x0020c6ae                uart0_isr
 .text.uart1_isr
                0x0020c6b4        0x6 obj_zoul/uart.o
                0x0020c6b4                uart1_isr
 .text.cpu_cpsie
                0x0020c6ba        0x8 obj_zoul/cpu.o
                0x0020c6ba                cpu_cpsie
 .text.cpu_cpsid
                0x0020c6c2        0x8 obj_zoul/cpu.o
                0x0020c6c2                cpu_cpsid
 .text.gpio_port_a_isr
                0x0020c6ca        0x6 obj_zoul/gpio.o
                0x0020c6ca                gpio_port_a_isr
 .text.gpio_port_b_isr
                0x0020c6d0        0x6 obj_zoul/gpio.o
                0x0020c6d0                gpio_port_b_isr
 .text.gpio_port_c_isr
                0x0020c6d6        0x6 obj_zoul/gpio.o
                0x0020c6d6                gpio_port_c_isr
 .text.gpio_port_d_isr
                0x0020c6dc        0x6 obj_zoul/gpio.o
                0x0020c6dc                gpio_port_d_isr
 .text.send     0x0020c6e2       0x12 obj_zoul/cc2538-rf.o
 .text.putchar  0x0020c6f4       0x10 obj_zoul/dbg.o
                0x0020c6f4                putchar
 .text.dbg_send_bytes
                0x0020c704       0x20 obj_zoul/dbg.o
                0x0020c704                dbg_send_bytes
 .text.puts     0x0020c724       0x20 obj_zoul/dbg.o
                0x0020c724                puts
 .text.configure
                0x0020c744        0x4 obj_zoul/cc2538-temp-sensor.o
 .text.status   0x0020c748        0x4 obj_zoul/cc2538-temp-sensor.o
 .text.value    0x0020c74c       0x34 obj_zoul/cc2538-temp-sensor.o
 .text.configure
                0x0020c780        0x4 obj_zoul/vdd3-sensor.o
 .text.status   0x0020c784        0x4 obj_zoul/vdd3-sensor.o
 .text.value    0x0020c788       0x2a obj_zoul/vdd3-sensor.o
 .text.write_str
                0x0020c7b2       0x10 obj_zoul/dbg-printf.o
 .text.buffer_str
                0x0020c7c2       0x16 obj_zoul/dbg-sprintf.o
 .text.autostart_start
                0x0020c7d8       0x14 obj_zoul/autostart.o
                0x0020c7d8                autostart_start
 .text.energest_init
                0x0020c7ec        0x2 obj_zoul/energest.o
                0x0020c7ec                energest_init
 .text.etimer_set
                0x0020c7ee       0x12 obj_zoul/etimer.o
                0x0020c7ee                etimer_set
 .text.etimer_reset
                0x0020c800       0x12 obj_zoul/etimer.o
                0x0020c800                etimer_reset
 .text.etimer_restart
                0x0020c812       0x12 obj_zoul/etimer.o
                0x0020c812                etimer_restart
 .text.etimer_expired
                0x0020c824        0xa obj_zoul/etimer.o
                0x0020c824                etimer_expired
 .text.etimer_expiration_time
                0x0020c82e        0x6 obj_zoul/etimer.o
                0x0020c82e                etimer_expiration_time
 .text.call_process
                0x0020c834        0xc obj_zoul/process.o
 .text.rtimer_init
                0x0020c840        0x4 obj_zoul/rtimer.o
                0x0020c840                rtimer_init
 .text.stimer_set
                0x0020c844        0xe obj_zoul/stimer.o
                0x0020c844                stimer_set
 .text.timer_set
                0x0020c852        0xe obj_zoul/timer.o
                0x0020c852                timer_set
 .text.timer_reset
                0x0020c860        0xa obj_zoul/timer.o
                0x0020c860                timer_reset
 .text.timer_restart
                0x0020c86a        0xc obj_zoul/timer.o
                0x0020c86a                timer_restart
 .text.timer_expired
                0x0020c876       0x1c obj_zoul/timer.o
                0x0020c876                timer_expired
 .text.list_init
                0x0020c892        0x6 obj_zoul/list.o
                0x0020c892                list_init
 .text.list_head
                0x0020c898        0x4 obj_zoul/list.o
                0x0020c898                list_head
 .text.list_tail
                0x0020c89c       0x10 obj_zoul/list.o
                0x0020c89c                list_tail
 .text.list_remove
                0x0020c8ac       0x28 obj_zoul/list.o
                0x0020c8ac                list_remove
 .text.list_add
                0x0020c8d4       0x1e obj_zoul/list.o
                0x0020c8d4                list_add
 .text.list_push
                0x0020c8f2       0x12 obj_zoul/list.o
                0x0020c8f2                list_push
 .text.list_length
                0x0020c904        0xe obj_zoul/list.o
                0x0020c904                list_length
 .text.list_item_next
                0x0020c912        0x6 obj_zoul/list.o
                0x0020c912                list_item_next
 .text.memb_init
                0x0020c918       0x20 obj_zoul/memb.o
                0x0020c918                memb_init
 .text.memb_alloc
                0x0020c938       0x28 obj_zoul/memb.o
                0x0020c938                memb_alloc
 .text.memb_free
                0x0020c960       0x2c obj_zoul/memb.o
                0x0020c960                memb_free
 .text.memb_inmemb
                0x0020c98c       0x1c obj_zoul/memb.o
                0x0020c98c                memb_inmemb
 .text.memb_numfree
                0x0020c9a8       0x1c obj_zoul/memb.o
                0x0020c9a8                memb_numfree
 .text.ringbuf_init
                0x0020c9c4        0xe obj_zoul/ringbuf.o
                0x0020c9c4                ringbuf_init
 .text.ringbuf_put
                0x0020c9d2       0x28 obj_zoul/ringbuf.o
                0x0020c9d2                ringbuf_put
 .text.ringbuf_get
                0x0020c9fa       0x20 obj_zoul/ringbuf.o
                0x0020c9fa                ringbuf_get
 .text.chksum   0x0020ca1a       0x38 obj_zoul/uip6.o
 .text.uip_icmp6chksum
                0x0020ca52        0x6 obj_zoul/uip6.o
                0x0020ca52                uip_icmp6chksum
 .text.uip_tcpchksum
                0x0020ca58        0x6 obj_zoul/uip6.o
                0x0020ca58                uip_tcpchksum
 .text.uip_udpchksum
                0x0020ca5e        0x6 obj_zoul/uip6.o
                0x0020ca5e                uip_udpchksum
 .text.uip_htons
                0x0020ca64        0x6 obj_zoul/uip6.o
                0x0020ca64                uip_htons
 .text.uip_htonl
                0x0020ca6a       0x14 obj_zoul/uip6.o
                0x0020ca6a                uip_htonl
 .text.uip_ds6_list_loop
                0x0020ca7e       0x48 obj_zoul/uip-ds6.o
                0x0020ca7e                uip_ds6_list_loop
 .text.uip_ds6_maddr_rm
                0x0020cac6        0x8 obj_zoul/uip-ds6.o
                0x0020cac6                uip_ds6_maddr_rm
 .text.uip_ds6_set_addr_iid
                0x0020cace       0x12 obj_zoul/uip-ds6.o
                0x0020cace                uip_ds6_set_addr_iid
 .text.get_match_length
                0x0020cae0       0x3a obj_zoul/uip-ds6.o
                0x0020cae0                get_match_length
 .text.uip_ds6_nbr_ipaddr_from_lladdr
                0x0020cb1a        0x4 obj_zoul/uip-ds6-nbr.o
                0x0020cb1a                uip_ds6_nbr_ipaddr_from_lladdr
 .text.uip_ds6_nbr_lladdr_from_ipaddr
                0x0020cb1e       0x12 obj_zoul/uip-ds6-nbr.o
                0x0020cb1e                uip_ds6_nbr_lladdr_from_ipaddr
 .text.uip_ds6_route_next
                0x0020cb30        0x8 obj_zoul/uip-ds6-route.o
                0x0020cb30                uip_ds6_route_next
 .text.rm_routelist_callback
                0x0020cb38        0x4 obj_zoul/uip-ds6-route.o
 .text.skip_name
                0x0020cb3c       0x1a obj_zoul/resolv.o
 .text.encode_name
                0x0020cb56       0x32 obj_zoul/resolv.o
 .text.uiplib_ip6addrconv
                0x0020cb88       0xb4 obj_zoul/uiplib.o
                0x0020cb88                uiplib_ip6addrconv
 .text.uip_udp_packet_sendto
                0x0020cc3c       0x50 obj_zoul/uip-udp-packet.o
                0x0020cc3c                uip_udp_packet_sendto
 .text.rpl_remove_routes
                0x0020cc8c       0x1e obj_zoul/rpl.o
                0x0020cc8c                rpl_remove_routes
 .text.rpl_remove_routes_by_nexthop
                0x0020ccaa       0x36 obj_zoul/rpl.o
                0x0020ccaa                rpl_remove_routes_by_nexthop
 .text.rpl_add_route
                0x0020cce0       0x28 obj_zoul/rpl.o
                0x0020cce0                rpl_add_route
 .text.lollipop_greater_than
                0x0020cd08       0x34 obj_zoul/rpl-dag.o
 .text.check_prefix
                0x0020cd3c       0x58 obj_zoul/rpl-dag.o
 .text.rpl_set_prefix
                0x0020cd94       0x6c obj_zoul/rpl-dag.o
                0x0020cd94                rpl_set_prefix
 .text.rpl_set_default_route
                0x0020ce00       0x38 obj_zoul/rpl-dag.o
                0x0020ce00                rpl_set_default_route
 .text.rpl_find_parent
                0x0020ce38       0x16 obj_zoul/rpl-dag.o
                0x0020ce38                rpl_find_parent
 .text.rpl_find_parent_any_dag
                0x0020ce4e       0x1e obj_zoul/rpl-dag.o
                0x0020ce4e                rpl_find_parent_any_dag
 .text.rpl_select_dag
                0x0020ce6c      0x152 obj_zoul/rpl-dag.o
                0x0020ce6c                rpl_select_dag
 .text.rpl_nullify_parent
                0x0020cfbe       0x48 obj_zoul/rpl-dag.o
                0x0020cfbe                rpl_nullify_parent
 .text.nbr_callback
                0x0020d006        0x4 obj_zoul/rpl-dag.o
 .text.rpl_free_dag
                0x0020d00a       0x2e obj_zoul/rpl-dag.o
                0x0020d00a                rpl_free_dag
 .text.rpl_move_parent
                0x0020d038       0x48 obj_zoul/rpl-dag.o
                0x0020d038                rpl_move_parent
 .text.rpl_repair_root
                0x0020d080       0x48 obj_zoul/rpl-dag.o
                0x0020d080                rpl_repair_root
 .text.rpl_alloc_dag
                0x0020d0c8       0x48 obj_zoul/rpl-dag.o
                0x0020d0c8                rpl_alloc_dag
 .text.rpl_process_parent_event
                0x0020d110       0x60 obj_zoul/rpl-dag.o
                0x0020d110                rpl_process_parent_event
 .text.rpl_add_dag
                0x0020d170      0x10c obj_zoul/rpl-dag.o
                0x0020d170                rpl_add_dag
 .text.rpl_process_dio
                0x0020d27c      0x2bc obj_zoul/rpl-dag.o
                0x0020d27c                rpl_process_dio
 .text.get32    0x0020d538       0x18 obj_zoul/rpl-icmp6.o
 .text.set32    0x0020d550       0x12 obj_zoul/rpl-icmp6.o
 .text.get16    0x0020d562        0xc obj_zoul/rpl-icmp6.o
 .text.set16    0x0020d56e        0xa obj_zoul/rpl-icmp6.o
 .text.reset    0x0020d578        0x2 obj_zoul/rpl-mrhof.o
 .text.update_metric_container
                0x0020d57a        0x6 obj_zoul/rpl-mrhof.o
 .text.calculate_rank
                0x0020d580       0x34 obj_zoul/rpl-mrhof.o
 .text.neighbor_link_callback
                0x0020d5b4       0x46 obj_zoul/rpl-mrhof.o
 .text.best_dag
                0x0020d5fa       0x2c obj_zoul/rpl-mrhof.o
 .text.best_parent
                0x0020d626       0x5a obj_zoul/rpl-mrhof.o
 .text.handle_unicast_dio_timer
                0x0020d680       0x1c obj_zoul/rpl-timers.o
 .text.rpl_reset_dio_timer
                0x0020d69c       0x1c obj_zoul/rpl-timers.o
                0x0020d69c                rpl_reset_dio_timer
 .text.rpl_schedule_dao
                0x0020d6b8        0x8 obj_zoul/rpl-timers.o
                0x0020d6b8                rpl_schedule_dao
 .text.linkaddr_copy
                0x0020d6c0        0xa obj_zoul/linkaddr.o
                0x0020d6c0                linkaddr_copy
 .text.linkaddr_cmp
                0x0020d6ca       0x10 obj_zoul/linkaddr.o
                0x0020d6ca                linkaddr_cmp
 .text.nbr_set_bit
                0x0020d6da       0x38 obj_zoul/nbr-table.o
 .text.item_from_key
                0x0020d712       0x22 obj_zoul/nbr-table.o
 .text.nbr_table_next
                0x0020d734       0x2e obj_zoul/nbr-table.o
                0x0020d734                nbr_table_next
 .text.nbr_table_get_from_lladdr
                0x0020d762       0x32 obj_zoul/nbr-table.o
                0x0020d762                nbr_table_get_from_lladdr
 .text.nbr_table_get_lladdr
                0x0020d794        0xc obj_zoul/nbr-table.o
                0x0020d794                nbr_table_get_lladdr
 .text.queuebuf_update_attr_from_packetbuf
                0x0020d7a0        0xc obj_zoul/queuebuf.o
                0x0020d7a0                queuebuf_update_attr_from_packetbuf
 .text.queuebuf_update_from_packetbuf
                0x0020d7ac       0x1c obj_zoul/queuebuf.o
                0x0020d7ac                queuebuf_update_from_packetbuf
 .text.queuebuf_attr
                0x0020d7c8        0xc obj_zoul/queuebuf.o
                0x0020d7c8                queuebuf_attr
 .text.frame802154_has_panid
                0x0020d7d4       0x4c obj_zoul/frame802154.o
                0x0020d7d4                frame802154_has_panid
 .text.field_len
                0x0020d820       0x84 obj_zoul/frame802154.o
 .text.frame802154_is_broadcast_addr
                0x0020d8a4       0x1e obj_zoul/frame802154.o
                0x0020d8a4                frame802154_is_broadcast_addr
 .text.frame802154_hdrlen
                0x0020d8c2       0x32 obj_zoul/frame802154.o
                0x0020d8c2                frame802154_hdrlen
 .text.frame802154_create
                0x0020d8f4       0xe6 obj_zoul/frame802154.o
                0x0020d8f4                frame802154_create
 .text.parse    0x0020d9da       0x94 obj_zoul/framer-802154.o
 .text.create   0x0020da6e        0x6 obj_zoul/framer-802154.o
 .text.hdr_length
                0x0020da74        0x6 obj_zoul/framer-802154.o
 .text.mac_call_sent_callback
                0x0020da7a       0x16 obj_zoul/mac.o
                0x0020da7a                mac_call_sent_callback
 .text.duty_cycle
                0x0020da90        0x4 obj_zoul/contikimac.o
 .text.qsend_packet
                0x0020da94       0x22 obj_zoul/contikimac.o
 .text.init     0x0020dab6        0x2 obj_zoul/nullsec.o
 *(SORT(.rodata*))
 .rodata.adc_zoul
                0x0020dab8       0x10 obj_zoul/adc-zoul.o
                0x0020dab8                adc_zoul
 .rodata.button_sensor
                0x0020dac8       0x10 obj_zoul/button-sensor.o
                0x0020dac8                button_sensor
 .rodata.uart_regs
                0x0020dad8       0x58 obj_zoul/uart.o
 .rodata.cc2538_rf_driver
                0x0020db30       0x38 obj_zoul/cc2538-rf.o
                0x0020db30                cc2538_rf_driver
 .rodata.output_power
                0x0020db68       0x70 obj_zoul/cc2538-rf.o
 .rodata.cc2538_temp_sensor
                0x0020dbd8       0x10 obj_zoul/cc2538-temp-sensor.o
                0x0020dbd8                cc2538_temp_sensor
 .rodata.vdd3_sensor
                0x0020dbe8       0x10 obj_zoul/vdd3-sensor.o
                0x0020dbe8                vdd3_sensor
 .rodata.sicslowpan_driver
                0x0020dbf8        0xc obj_zoul/sicslowpan.o
                0x0020dbf8                sicslowpan_driver
 .rodata.csma_driver
                0x0020dc04       0x1c obj_zoul/csma.o
                0x0020dc04                csma_driver
 .rodata.framer_802154
                0x0020dc20        0xc obj_zoul/framer-802154.o
                0x0020dc20                framer_802154
 .rodata.contikimac_driver
                0x0020dc2c       0x20 obj_zoul/contikimac.o
                0x0020dc2c                contikimac_driver
 .rodata.nullsec_driver
                0x0020dc4c       0x10 obj_zoul/nullsec.o
                0x0020dc4c                nullsec_driver
 .rodata.autostart_processes
                0x0020dc5c        0xc udp-client.co
                0x0020dc5c                autostart_processes
 .rodata._ctype_
                0x0020dc68      0x101 /usr/bin/../lib/gcc/arm-none-eabi/4.9.3/../../../../arm-none-eabi/lib/armv7-m/libc.a(lib_a-ctype_.o)
                0x0020dc68                _ctype_
 *fill*         0x0020dd69        0x1 00000000
 .rodata.nsec_record.6499
                0x0020dd6a       0x12 obj_zoul/resolv.o
 .rodata.resolv_mdns_addr
                0x0020dd7c       0x10 obj_zoul/resolv.o
 .rodata.str1.1
                0x0020dd8c       0x73 obj_zoul/contiki-main.o
 .rodata.str1.1
                0x0020ddff       0x15 obj_zoul/adc-zoul.o
 .rodata.str1.1
                0x0020de14        0x7 obj_zoul/button-sensor.o
 .rodata.str1.1
                0x0020de1b       0x11 obj_zoul/cc2538-rf.o
 .rodata.str1.1
                0x0020de2c       0x14 obj_zoul/cc2538-temp-sensor.o
 .rodata.str1.1
                0x0020de40        0x5 obj_zoul/vdd3-sensor.o
 .rodata.buffer.4159
                0x0020de45       0x10 obj_zoul/strformat.o
 .rodata.str1.1
                0x0020de55       0x35 obj_zoul/strformat.o
                                 0x37 (size before relaxing)
 .rodata.buffer.4150
                0x0020de8a       0x10 obj_zoul/strformat.o
 .rodata.str1.1
                0x0020de9a        0xf obj_zoul/ctimer.o
 .rodata.str1.1
                0x0020dea9        0xc obj_zoul/etimer.o
 .rodata.str1.1
                0x0020deb5        0xe obj_zoul/serial-line.o
 .rodata.str1.1
                0x0020dec3        0x8 obj_zoul/sensors.o
 .rodata        0x0020decb        0x2 obj_zoul/sicslowpan.o
 .rodata.ttl_values
                0x0020decd        0x4 obj_zoul/sicslowpan.o
 .rodata.unc_llconf
                0x0020ded1        0x4 obj_zoul/sicslowpan.o
                0x0020ded1                unc_llconf
 .rodata.llprefix
                0x0020ded5        0x2 obj_zoul/sicslowpan.o
                0x0020ded5                llprefix
 .rodata.unc_mxconf
                0x0020ded7        0x4 obj_zoul/sicslowpan.o
                0x0020ded7                unc_mxconf
 .rodata.str1.1
                0x0020dedb        0xb obj_zoul/sicslowpan.o
 .rodata.unc_ctxconf
                0x0020dee6        0x4 obj_zoul/sicslowpan.o
                0x0020dee6                unc_ctxconf
 .rodata.str1.1
                0x0020deea       0x20 obj_zoul/resolv.o
                                 0x2d (size before relaxing)
 .rodata.str1.1
                0x0020df0a        0xd obj_zoul/tcpip.o
 .rodata.str1.1
                0x0020df17       0x3c obj_zoul/uip-debug.o
 .rodata.linkaddr_null
                0x0020df53        0x8 obj_zoul/linkaddr.o
                0x0020df53                linkaddr_null
 .rodata.str1.1
                0x0020df5b        0x5 obj_zoul/csma.o
 .rodata.str1.1
                0x0020df60        0xb obj_zoul/contikimac.o
 .rodata.str1.1
                0x0020df6b        0x8 obj_zoul/nullsec.o
 .rodata.str1.1
                0x0020df73      0x192 udp-client.co
                0x0020e105                _etext = .

.glue_7         0x0020e108        0x0
 .glue_7        0x00000000        0x0 linker stubs

.glue_7t        0x0020e108        0x0
 .glue_7t       0x00000000        0x0 linker stubs

.vfp11_veneer   0x0020e108        0x0
 .vfp11_veneer  0x00000000        0x0 linker stubs

.v4_bx          0x0020e108        0x0
 .v4_bx         0x00000000        0x0 linker stubs

.iplt           0x0020e108        0x0
 .iplt          0x00000000        0x0 obj_zoul/startup-gcc.o

.socdata        0x20004000       0x40
 *(SORT(.udma_channel_control_table))
 .udma_channel_control_table
                0x20004000       0x40 obj_zoul/udma.o

.data           0x20004040      0x1d5 load address 0x0020e108
                0x20004040                _data = .
 *(SORT(.data*))
 .data.sensors  0x20004040       0x10 obj_zoul/zoul-sensors.o
                0x20004040                sensors
 .data.cc2538_rf_process
                0x20004050       0x10 obj_zoul/cc2538-rf.o
                0x20004050                cc2538_rf_process
 .data.ctxt     0x20004060        0x8 obj_zoul/dbg-printf.o
 .data.ctimer_process
                0x20004068       0x10 obj_zoul/ctimer.o
                0x20004068                ctimer_process
 .data.etimer_process
                0x20004078       0x10 obj_zoul/etimer.o
                0x20004078                etimer_process
 .data.serial_line_process
                0x20004088       0x10 obj_zoul/serial-line.o
                0x20004088                serial_line_process
 .data.sensors_process
                0x20004098       0x10 obj_zoul/sensors.o
                0x20004098                sensors_process
 .data.ds6_neighbors
                0x200040a8        0x4 obj_zoul/uip-ds6-nbr.o
                0x200040a8                ds6_neighbors
 .data.ds6_neighbors_struct
                0x200040ac       0x10 obj_zoul/uip-ds6-nbr.o
 .data.defaultroutermemb
                0x200040bc        0xc obj_zoul/uip-ds6-route.o
 .data.nbr_routes_struct
                0x200040c8       0x10 obj_zoul/uip-ds6-route.o
 .data.nbr_routes
                0x200040d8        0x4 obj_zoul/uip-ds6-route.o
                0x200040d8                nbr_routes
 .data.routememb
                0x200040dc        0xc obj_zoul/uip-ds6-route.o
 .data.neighborroutememb
                0x200040e8        0xc obj_zoul/uip-ds6-route.o
 .data.echo_request_handler
                0x200040f4        0xc obj_zoul/uip-icmp6.o
 .data.echo_reply_handler
                0x20004100        0xc obj_zoul/uip-icmp6.o
 .data.ns_input_handler
                0x2000410c        0xc obj_zoul/uip-nd6.o
 .data.na_input_handler
                0x20004118        0xc obj_zoul/uip-nd6.o
 .data.mdns_probe_process
                0x20004124       0x10 obj_zoul/resolv.o
                0x20004124                mdns_probe_process
 .data.resolv_process
                0x20004134       0x10 obj_zoul/resolv.o
                0x20004134                resolv_process
 .data.tcpip_process
                0x20004144       0x10 obj_zoul/tcpip.o
                0x20004144                tcpip_process
 .data.rpl_parents
                0x20004154        0x4 obj_zoul/rpl-dag.o
                0x20004154                rpl_parents
 .data.rpl_parents_struct
                0x20004158       0x10 obj_zoul/rpl-dag.o
 .data.dao_ack_handler
                0x20004168        0xc obj_zoul/rpl-icmp6.o
 .data.dis_handler
                0x20004174        0xc obj_zoul/rpl-icmp6.o
 .data.dao_handler
                0x20004180        0xc obj_zoul/rpl-icmp6.o
 .data.dio_handler
                0x2000418c        0xc obj_zoul/rpl-icmp6.o
 .data.rpl_mrhof
                0x20004198       0x1c obj_zoul/rpl-mrhof.o
                0x20004198                rpl_mrhof
 .data.neighbor_addr_mem
                0x200041b4        0xc obj_zoul/nbr-table.o
 .data.bufmem   0x200041c0        0xc obj_zoul/queuebuf.o
 .data.buframmem
                0x200041cc        0xc obj_zoul/queuebuf.o
 .data.metadata_memb
                0x200041d8        0xc obj_zoul/csma.o
 .data.neighbor_memb
                0x200041e4        0xc obj_zoul/csma.o
 .data.packet_memb
                0x200041f0        0xc obj_zoul/csma.o
 .data.udp_client_process
                0x200041fc       0x10 udp-client.co
                0x200041fc                udp_client_process
 .data.__ctype_ptr__
                0x2000420c        0x4 /usr/bin/../lib/gcc/arm-none-eabi/4.9.3/../../../../arm-none-eabi/lib/armv7-m/libc.a(lib_a-ctype_.o)
                0x2000420c                __ctype_ptr__
 .data.mac_pan_id
                0x20004210        0x2 obj_zoul/frame802154.o
 .data.rf_channel
                0x20004212        0x1 obj_zoul/cc2538-rf.o
 .data.dao_sequence
                0x20004213        0x1 obj_zoul/rpl-icmp6.o
 .data.status.7648
                0x20004214        0x1 udp-client.co
                0x20004215                _edata = .
                0x0020e108                _ldata = LOADADDR (.data)

.igot.plt       0x20004218        0x0 load address 0x0020e2dd
 .igot.plt      0x00000000        0x0 obj_zoul/startup-gcc.o

.ARM.exidx      0x0020e2e0        0x8
 *(SORT(.ARM.exidx*))
 .ARM.exidx     0x0020e2e0        0x8 /usr/bin/../lib/gcc/arm-none-eabi/4.9.3/armv7-m/libgcc.a(_divdi3.o)
 .ARM.exidx     0x0020e2e8        0x0 /usr/bin/../lib/gcc/arm-none-eabi/4.9.3/armv7-m/libgcc.a(_udivdi3.o)
                                  0x8 (size before relaxing)

.bss            0x20004218     0x2c00
                0x20004218                _bss = .
 *(SORT(.bss*))
 .bss.rt_ticks_startup
                0x20004218        0x8 obj_zoul/clock.o
 .bss.rt_ticks_epoch
                0x20004220        0x8 obj_zoul/clock.o
 .bss.press_counter
                0x20004228       0x20 obj_zoul/button-sensor.o
 .bss.debouncetimer
                0x20004248        0x8 obj_zoul/button-sensor.o
 .bss.press_duration
                0x20004250        0x4 obj_zoul/button-sensor.o
 .bss.next_trigger
                0x20004254        0x4 obj_zoul/rtimer-arch.o
 .bss.input_handler
                0x20004258        0x8 obj_zoul/uart.o
 .bss.interrupt_disable
                0x20004260        0x4 obj_zoul/nvic.o
 .bss.interrupt_pend
                0x20004264        0x4 obj_zoul/nvic.o
 .bss.interrupt_unpend
                0x20004268        0x4 obj_zoul/nvic.o
 .bss.interrupt_enable
                0x2000426c        0x4 obj_zoul/nvic.o
 .bss.gpio_callbacks
                0x20004270       0x80 obj_zoul/gpio.o
 .bss.ioc_sel   0x200042f0        0x4 obj_zoul/ioc.o
 .bss.ioc_over  0x200042f4        0x4 obj_zoul/ioc.o
 .bss.notification_process
                0x200042f8        0x4 obj_zoul/crypto.o
 .bss.periph_permit_pm1_funcs
                0x200042fc       0x14 obj_zoul/lpm.o
 .bss.notification_process
                0x20004310        0x4 obj_zoul/pka.o
 .bss.ctimer_list_list
                0x20004314        0x4 obj_zoul/ctimer.o
 .bss.timerlist
                0x20004318        0x4 obj_zoul/etimer.o
 .bss.next_expiration
                0x2000431c        0x4 obj_zoul/etimer.o
 .bss.receiver.5355
                0x20004320        0x4 obj_zoul/process.o
 .bss.p.5356    0x20004324        0x4 obj_zoul/process.o
 .bss.process_current
                0x20004328        0x4 obj_zoul/process.o
                0x20004328                process_current
 .bss.data.5354
                0x2000432c        0x4 obj_zoul/process.o
 .bss.process_list
                0x20004330        0x4 obj_zoul/process.o
                0x20004330                process_list
 .bss.events    0x20004334      0x180 obj_zoul/process.o
 .bss.next_rtimer
                0x200044b4        0x4 obj_zoul/rtimer.o
 .bss.rxbuf     0x200044b8        0x8 obj_zoul/serial-line.o
 .bss.ptr.4707  0x200044c0        0x4 obj_zoul/serial-line.o
 .bss.i.4722    0x200044c4        0x4 obj_zoul/sensors.o
 .bss.events.4723
                0x200044c8        0x4 obj_zoul/sensors.o
 .bss.context   0x200044cc        0x4 obj_zoul/sicslowpan.o
 .bss.last_rssi
                0x200044d0        0x4 obj_zoul/sicslowpan.o
 .bss.hc06_ptr  0x200044d4        0x4 obj_zoul/sicslowpan.o
 .bss.packetbuf_ptr
                0x200044d8        0x4 obj_zoul/sicslowpan.o
 .bss.packetbuf_payload_len
                0x200044dc        0x4 obj_zoul/sicslowpan.o
 .bss.last_tx_status
                0x200044e0        0x4 obj_zoul/sicslowpan.o
 .bss.callback  0x200044e4        0x4 obj_zoul/sicslowpan.o
 .bss.frag_info
                0x200044e8      0x170 obj_zoul/sicslowpan.o
 .bss.locmaddr  0x20004658        0x4 obj_zoul/uip-ds6.o
 .bss.locprefix
                0x2000465c        0x4 obj_zoul/uip-ds6.o
 .bss.locaddr   0x20004660        0x4 obj_zoul/uip-ds6.o
 .bss._ds6_neighbors_mem
                0x20004664      0x320 obj_zoul/uip-ds6-nbr.o
 .bss.defaultroutermemb_memb_mem
                0x20004984       0x40 obj_zoul/uip-ds6-route.o
 .bss.num_routes
                0x200049c4        0x4 obj_zoul/uip-ds6-route.o
 .bss.defaultrouterlist_list
                0x200049c8        0x4 obj_zoul/uip-ds6-route.o
 .bss._nbr_routes_mem
                0x200049cc       0xa0 obj_zoul/uip-ds6-route.o
 .bss.routelist_list
                0x20004a6c        0x4 obj_zoul/uip-ds6-route.o
 .bss.routememb_memb_mem
                0x20004a70      0x320 obj_zoul/uip-ds6-route.o
 .bss.neighborroutememb_memb_mem
                0x20004d90       0xa0 obj_zoul/uip-ds6-route.o
 .bss.notificationlist_list
                0x20004e30        0x4 obj_zoul/uip-ds6-route.o
 .bss.echo_reply_callback_list_list
                0x20004e34        0x4 obj_zoul/uip-icmp6.o
 .bss.input_handler_list_list
                0x20004e38        0x4 obj_zoul/uip-icmp6.o
 .bss.defrt     0x20004e3c        0x4 obj_zoul/uip-nd6.o
 .bss.nbr       0x20004e40        0x4 obj_zoul/uip-nd6.o
 .bss.nd6_opt_llao
                0x20004e44        0x4 obj_zoul/uip-nd6.o
 .bss.addr      0x20004e48        0x4 obj_zoul/uip-nd6.o
 .bss.resolv_conn
                0x20004e4c        0x4 obj_zoul/resolv.o
 .bss.mdns_needs_host_announce
                0x20004e50        0x4 obj_zoul/resolv.o
 .bss.retry     0x20004e54       0x10 obj_zoul/resolv.o
 .bss.delay.6559
                0x20004e64       0x10 obj_zoul/resolv.o
 .bss.names     0x20004e74      0x100 obj_zoul/resolv.o
 .bss.s         0x20004f74       0x44 obj_zoul/tcpip.o
 .bss.periodic  0x20004fb8       0x10 obj_zoul/tcpip.o
 .bss.outputfunc
                0x20004fc8        0x4 obj_zoul/tcpip.o
 .bss._rpl_parents_mem
                0x20004fcc      0x140 obj_zoul/rpl-dag.o
 .bss.periodic_timer
                0x2000510c       0x20 obj_zoul/rpl-timers.o
 .bss.nbr_table_keys_list
                0x2000512c        0x4 obj_zoul/nbr-table.o
 .bss.neighbor_addr_mem_memb_mem
                0x20005130       0xf0 obj_zoul/nbr-table.o
 .bss.all_tables
                0x20005220       0x20 obj_zoul/nbr-table.o
 .bss.num_tables
                0x20005240        0x4 obj_zoul/nbr-table.o
 .bss.packetbufptr
                0x20005244        0x4 obj_zoul/packetbuf.o
 .bss.packetbuf_aligned
                0x20005248       0xb0 obj_zoul/packetbuf.o
 .bss.bufmem_memb_mem
                0x200052f8       0x20 obj_zoul/queuebuf.o
 .bss.metadata_memb_memb_mem
                0x20005318       0x60 obj_zoul/csma.o
 .bss.neighbor_list_list
                0x20005378        0x4 obj_zoul/csma.o
 .bss.packet_memb_memb_mem
                0x2000537c       0x60 obj_zoul/csma.o
 .bss.neighbor_memb_memb_mem
                0x200053dc       0x70 obj_zoul/csma.o
 .bss.cycle_start
                0x2000544c        0x4 obj_zoul/contikimac.o
 .bss.we_are_receiving_burst
                0x20005450        0x4 obj_zoul/contikimac.o
 .bss.rt        0x20005454        0xc obj_zoul/contikimac.o
 .bss.ct.7079   0x20005460       0x20 obj_zoul/contikimac.o
 .bss.start.7004
                0x20005480        0x4 obj_zoul/contikimac.o
 .bss.client_conn
                0x20005484        0x4 udp-client.co
 .bss.et.7643   0x20005488       0x10 udp-client.co
 .bss.count_entering.7615
                0x20005498        0x4 udp-client.co
 .bss.passed_flag.7620
                0x2000549c        0x4 udp-client.co
 .bss.sensor_timer.7644
                0x200054a0       0x10 udp-client.co
 .bss.my_tag    0x200054b0        0x2 obj_zoul/sicslowpan.o
 .bss.tmp16     0x200054b2        0x2 obj_zoul/uip6.o
 .bss.lastport  0x200054b4        0x2 obj_zoul/uip6.o
 .bss.loc_fipaddr
                0x200054b6       0x10 obj_zoul/uip-ds6.o
 .bss.tmp_ipaddr
                0x200054c6       0x10 obj_zoul/uip-icmp6.o
 .bss.aligned.6539
                0x200054d6       0x1a obj_zoul/resolv.o
 .bss.aligned.6531
                0x200054f0        0x4 obj_zoul/resolv.o
 .bss.serveraddr
                0x200054f4       0x10 obj_zoul/uip-nameserver.o
 .bss.next_dis  0x20005504        0x2 obj_zoul/rpl-timers.o
 .bss.buflen    0x20005506        0x2 obj_zoul/packetbuf.o
 .bss.bufptr    0x20005508        0x2 obj_zoul/packetbuf.o
 .bss.buframmem_memb_mem
                0x2000550a      0x580 obj_zoul/queuebuf.o
 .bss.seqno.6254
                0x20005a8a        0x2 obj_zoul/csma.o
 .bss.pt        0x20005a8c        0x2 obj_zoul/contikimac.o
 .bss.leds      0x20005a8e        0x1 obj_zoul/leds.o
 .bss.decimation_rate
                0x20005a8f        0x1 obj_zoul/adc-zoul.o
 .bss.enabled_channels
                0x20005a90        0x1 obj_zoul/adc-zoul.o
 .bss.press_event_counter
                0x20005a91        0x1 obj_zoul/button-sensor.o
 .bss.initialized
                0x20005a92        0x1 obj_zoul/antenna-sw.o
 .bss.rf_flags  0x20005a93        0x1 obj_zoul/cc2538-rf.o
 .bss.max_pm    0x20005a94        0x1 obj_zoul/lpm.o
 .bss.initialized
                0x20005a95        0x1 obj_zoul/ctimer.o
 .bss.fevent    0x20005a96        0x1 obj_zoul/process.o
 .bss.nevents   0x20005a97        0x1 obj_zoul/process.o
 .bss.poll_requested
                0x20005a98        0x1 obj_zoul/process.o
 .bss.snum.5371
                0x20005a99        0x1 obj_zoul/process.o
 .bss.ev.5353   0x20005a9a        0x1 obj_zoul/process.o
 .bss.lastevent
                0x20005a9b        0x1 obj_zoul/process.o
 .bss.overflow.4700
                0x20005a9c        0x1 obj_zoul/serial-line.o
 .bss.rxbuf_data
                0x20005a9d       0x80 obj_zoul/serial-line.o
 .bss.buf.4706  0x20005b1d       0x80 obj_zoul/serial-line.o
 .bss.num_sensors
                0x20005b9d        0x1 obj_zoul/sensors.o
 .bss.uncomp_hdr_len
                0x20005b9e        0x1 obj_zoul/sicslowpan.o
 .bss.addr_contexts
                0x20005b9f        0xa obj_zoul/sicslowpan.o
 .bss.frag_buf  0x20005ba9      0x54c obj_zoul/sicslowpan.o
 .bss.packetbuf_hdr_len
                0x200060f5        0x1 obj_zoul/sicslowpan.o
 .bss.uip_ext_len
                0x200060f6        0x1 obj_zoul/uip6.o
                0x200060f6                uip_ext_len
 .bss.uip_ext_bitmap
                0x200060f7        0x1 obj_zoul/uip6.o
                0x200060f7                uip_ext_bitmap
 .bss.iss       0x200060f8        0x4 obj_zoul/uip6.o
 .bss.uip_ext_opt_offset
                0x200060fc        0x1 obj_zoul/uip6.o
                0x200060fc                uip_ext_opt_offset
 .bss.c         0x200060fd        0x1 obj_zoul/uip6.o
 .bss.opt       0x200060fe        0x1 obj_zoul/uip6.o
 .bss.defaultroutermemb_memb_count
                0x200060ff        0x2 obj_zoul/uip-ds6-route.o
 .bss.neighborroutememb_memb_count
                0x20006101       0x14 obj_zoul/uip-ds6-route.o
 .bss.routememb_memb_count
                0x20006115       0x14 obj_zoul/uip-ds6-route.o
 .bss.nd6_opt_offset
                0x20006129        0x1 obj_zoul/uip-nd6.o
 .bss.resolv_hostname
                0x2000612a       0x21 obj_zoul/resolv.o
 .bss.seqno     0x2000614b        0x1 obj_zoul/resolv.o
 .bss.mdns_state
                0x2000614c        0x1 obj_zoul/resolv.o
 .bss.initialized.6580
                0x2000614d        0x1 obj_zoul/resolv.o
 .bss.dns_name_without_dots.6584
                0x2000614e       0x21 obj_zoul/resolv.o
 .bss.i.7853    0x2000616f        0x1 obj_zoul/tcpip.o
 .bss.i.7865    0x20006170        0x1 obj_zoul/tcpip.o
 .bss.i.7809    0x20006171        0x1 obj_zoul/tcpip.o
 .bss.mode      0x20006172        0x1 obj_zoul/rpl.o
 .bss.dio_send_ok
                0x20006173        0x1 obj_zoul/rpl-timers.o
 .bss.neighbor_addr_mem_memb_count
                0x20006174       0x14 obj_zoul/nbr-table.o
 .bss.locked_map
                0x20006188       0x14 obj_zoul/nbr-table.o
 .bss.used_map  0x2000619c       0x14 obj_zoul/nbr-table.o
 .bss.hdrptr    0x200061b0        0x1 obj_zoul/packetbuf.o
 .bss.buframmem_memb_count
                0x200061b1        0x8 obj_zoul/queuebuf.o
 .bss.bufmem_memb_count
                0x200061b9        0x8 obj_zoul/queuebuf.o
 .bss.neighbor_memb_memb_count
                0x200061c1        0x2 obj_zoul/csma.o
 .bss.initialized.6253
                0x200061c3        0x1 obj_zoul/csma.o
 .bss.packet_memb_memb_count
                0x200061c4        0x8 obj_zoul/csma.o
 .bss.metadata_memb_memb_count
                0x200061cc        0x8 obj_zoul/csma.o
 .bss.mac_dsn   0x200061d4        0x1 obj_zoul/framer-802154.o
 .bss.initialized
                0x200061d5        0x1 obj_zoul/framer-802154.o
 .bss.received_seqnos
                0x200061d6       0x90 obj_zoul/mac-sequence.o
 .bss.radio_is_on
                0x20006266        0x1 obj_zoul/contikimac.o
 .bss.we_are_sending
                0x20006267        0x1 obj_zoul/contikimac.o
 .bss.contikimac_keep_radio_on
                0x20006268        0x1 obj_zoul/contikimac.o
 .bss.count.6999
                0x20006269        0x1 obj_zoul/contikimac.o
 .bss.periods.7006
                0x2000626a        0x1 obj_zoul/contikimac.o
 .bss.silence_periods.7005
                0x2000626b        0x1 obj_zoul/contikimac.o
 .bss.contikimac_is_on
                0x2000626c        0x1 obj_zoul/contikimac.o
 .bss.packet_seen.6998
                0x2000626d        0x1 obj_zoul/contikimac.o
 .bss.buf       0x2000626e       0x28 udp-client.co
 *(SORT(COMMON))
 *fill*         0x20006296        0x2 
 COMMON         0x20006298      0x878 obj_zoul/uip6.o
                0x20006298                uip_len
                0x2000629c                uip_sappdata
                0x200062a0                uip_acc32
                0x200062a4                uip_lladdr
                0x200062ac                uip_aligned_buf
                0x200067c0                uip_flags
                0x200067c4                uip_next_hdr
                0x200067c8                uip_udp_conn
                0x200067cc                uip_appdata
                0x200067d0                uip_conn
                0x200067d4                uip_conns
                0x200069b4                uip_icmp6_conns
                0x200069bc                uip_listenports
                0x200069cc                uip_slen
                0x200069d0                uip_udp_conns
 COMMON         0x20006b10      0x174 obj_zoul/uip-ds6.o
                0x20006b10                uip_ds6_timer_ra
                0x20006b18                uip_ds6_if
                0x20006c10                uip_ds6_netif_addr_list_offset
                0x20006c11                uip_ds6_addr_size
                0x20006c14                uip_ds6_prefix_list
                0x20006c74                uip_ds6_timer_periodic
 COMMON         0x20006c84      0x154 obj_zoul/rpl-dag.o
                0x20006c84                default_instance
                0x20006c88                instance_table
 COMMON         0x20006dd8       0x2e obj_zoul/packetbuf.o
                0x20006dd8                packetbuf_addrs
                0x20006de8                packetbuf_attrs
 COMMON         0x20006e06        0x1 obj_zoul/button-sensor.o
                0x20006e06                button_press_duration_exceeded
 COMMON         0x20006e07        0x4 obj_zoul/zoul-sensors.o
                0x20006e07                sensors_flags
 COMMON         0x20006e0b        0x1 obj_zoul/serial-line.o
                0x20006e0b                serial_line_event_message
 COMMON         0x20006e0c        0x1 obj_zoul/sensors.o
                0x20006e0c                sensors_event
 COMMON         0x20006e0d        0x1 obj_zoul/resolv.o
                0x20006e0d                resolv_event_found
 COMMON         0x20006e0e        0x2 obj_zoul/tcpip.o
                0x20006e0e                tcpip_event
                0x20006e0f                tcpip_icmp6_event
 COMMON         0x20006e10        0x8 obj_zoul/linkaddr.o
                0x20006e10                linkaddr_node_addr
                0x20006e18                _ebss = .

.stack          0x20006e18      0x800
 *(SORT(.stack))
 .stack         0x20006e18      0x800 obj_zoul/startup-gcc.o
                0x20007618                _heap = .
                0x20008000                _eheap = (ORIGIN (FRSRAM) + 0x4000)

.nrdata         0x20000000        0x0
                0x20000000                _nrdata = .
 *(SORT(.nrdata*))
                0x20000000                _enrdata = .

.flashcca       0x0027ffd4       0x2c
 *(SORT(.flashcca))
 .flashcca      0x0027ffd4       0x2c obj_zoul/startup-gcc.o
                0x0027ffd4                flash_cca_lock_page
OUTPUT(udp-client.elf elf32-littlearm)

.rel.dyn        0x00280000        0x0
 .rel.iplt      0x00000000        0x0 obj_zoul/startup-gcc.o

.comment        0x00000000       0x70
 .comment       0x00000000       0x70 obj_zoul/startup-gcc.o
                                 0x71 (size before relaxing)
 .comment       0x00000000       0x71 obj_zoul/contiki-main.o
 .comment       0x00000000       0x71 obj_zoul/leds.o
 .comment       0x00000000       0x71 obj_zoul/leds-arch.o
 .comment       0x00000000       0x71 obj_zoul/adc-zoul.o
 .comment       0x00000000       0x71 obj_zoul/button-sensor.o
 .comment       0x00000000       0x71 obj_zoul/zoul-sensors.o
 .comment       0x00000000       0x71 obj_zoul/board.o
 .comment       0x00000000       0x71 obj_zoul/antenna-sw.o
 .comment       0x00000000       0x71 obj_zoul/clock.o
 .comment       0x00000000       0x71 obj_zoul/rtimer-arch.o
 .comment       0x00000000       0x71 obj_zoul/uart.o
 .comment       0x00000000       0x71 obj_zoul/watchdog.o
 .comment       0x00000000       0x71 obj_zoul/nvic.o
 .comment       0x00000000       0x71 obj_zoul/cpu.o
 .comment       0x00000000       0x71 obj_zoul/sys-ctrl.o
 .comment       0x00000000       0x71 obj_zoul/gpio.o
 .comment       0x00000000       0x71 obj_zoul/ioc.o
 .comment       0x00000000       0x71 obj_zoul/adc.o
 .comment       0x00000000       0x71 obj_zoul/crypto.o
 .comment       0x00000000       0x71 obj_zoul/cc2538-rf.o
 .comment       0x00000000       0x71 obj_zoul/udma.o
 .comment       0x00000000       0x71 obj_zoul/lpm.o
 .comment       0x00000000       0x71 obj_zoul/pka.o
 .comment       0x00000000       0x71 obj_zoul/dbg.o
 .comment       0x00000000       0x71 obj_zoul/ieee-addr.o
 .comment       0x00000000       0x71 obj_zoul/cc2538-temp-sensor.o
 .comment       0x00000000       0x71 obj_zoul/vdd3-sensor.o
 .comment       0x00000000       0x71 obj_zoul/dbg-printf.o
 .comment       0x00000000       0x71 obj_zoul/dbg-sprintf.o
 .comment       0x00000000       0x71 obj_zoul/strformat.o
 .comment       0x00000000       0x71 obj_zoul/autostart.o
 .comment       0x00000000       0x71 obj_zoul/ctimer.o
 .comment       0x00000000       0x71 obj_zoul/energest.o
 .comment       0x00000000       0x71 obj_zoul/etimer.o
 .comment       0x00000000       0x71 obj_zoul/process.o
 .comment       0x00000000       0x71 obj_zoul/rtimer.o
 .comment       0x00000000       0x71 obj_zoul/stimer.o
 .comment       0x00000000       0x71 obj_zoul/timer.o
 .comment       0x00000000       0x71 obj_zoul/serial-line.o
 .comment       0x00000000       0x71 obj_zoul/list.o
 .comment       0x00000000       0x71 obj_zoul/memb.o
 .comment       0x00000000       0x71 obj_zoul/random.o
 .comment       0x00000000       0x71 obj_zoul/ringbuf.o
 .comment       0x00000000       0x71 obj_zoul/sensors.o
 .comment       0x00000000       0x71 obj_zoul/sicslowpan.o
 .comment       0x00000000       0x71 obj_zoul/uip6.o
 .comment       0x00000000       0x71 obj_zoul/uip-ds6.o
 .comment       0x00000000       0x71 obj_zoul/uip-ds6-nbr.o
 .comment       0x00000000       0x71 obj_zoul/uip-ds6-route.o
 .comment       0x00000000       0x71 obj_zoul/uip-icmp6.o
 .comment       0x00000000       0x71 obj_zoul/uip-nd6.o
 .comment       0x00000000       0x71 obj_zoul/resolv.o
 .comment       0x00000000       0x71 obj_zoul/tcpip.o
 .comment       0x00000000       0x71 obj_zoul/uip-debug.o
 .comment       0x00000000       0x71 obj_zoul/uiplib.o
 .comment       0x00000000       0x71 obj_zoul/uip-nameserver.o
 .comment       0x00000000       0x71 obj_zoul/uip-udp-packet.o
 .comment       0x00000000       0x71 obj_zoul/rpl.o
 .comment       0x00000000       0x71 obj_zoul/rpl-dag.o
 .comment       0x00000000       0x71 obj_zoul/rpl-ext-header.o
 .comment       0x00000000       0x71 obj_zoul/rpl-icmp6.o
 .comment       0x00000000       0x71 obj_zoul/rpl-mrhof.o
 .comment       0x00000000       0x71 obj_zoul/rpl-timers.o
 .comment       0x00000000       0x71 obj_zoul/linkaddr.o
 .comment       0x00000000       0x71 obj_zoul/nbr-table.o
 .comment       0x00000000       0x71 obj_zoul/netstack.o
 .comment       0x00000000       0x71 obj_zoul/packetbuf.o
 .comment       0x00000000       0x71 obj_zoul/queuebuf.o
 .comment       0x00000000       0x71 obj_zoul/csma.o
 .comment       0x00000000       0x71 obj_zoul/frame802154.o
 .comment       0x00000000       0x71 obj_zoul/framer-802154.o
 .comment       0x00000000       0x71 obj_zoul/mac.o
 .comment       0x00000000       0x71 obj_zoul/mac-sequence.o
 .comment       0x00000000       0x71 obj_zoul/contikimac.o
 .comment       0x00000000       0x71 obj_zoul/nullsec.o
 .comment       0x00000000       0x71 udp-client.co

.ARM.attributes
                0x00000000       0x31
 .ARM.attributes
                0x00000000       0x33 obj_zoul/startup-gcc.o
 .ARM.attributes
                0x00000033       0x33 obj_zoul/contiki-main.o
 .ARM.attributes
                0x00000066       0x33 obj_zoul/leds.o
 .ARM.attributes
                0x00000099       0x33 obj_zoul/leds-arch.o
 .ARM.attributes
                0x000000cc       0x33 obj_zoul/adc-zoul.o
 .ARM.attributes
                0x000000ff       0x33 obj_zoul/button-sensor.o
 .ARM.attributes
                0x00000132       0x33 obj_zoul/zoul-sensors.o
 .ARM.attributes
                0x00000165       0x33 obj_zoul/board.o
 .ARM.attributes
                0x00000198       0x33 obj_zoul/antenna-sw.o
 .ARM.attributes
                0x000001cb       0x33 obj_zoul/clock.o
 .ARM.attributes
                0x000001fe       0x33 obj_zoul/rtimer-arch.o
 .ARM.attributes
                0x00000231       0x33 obj_zoul/uart.o
 .ARM.attributes
                0x00000264       0x33 obj_zoul/watchdog.o
 .ARM.attributes
                0x00000297       0x33 obj_zoul/nvic.o
 .ARM.attributes
                0x000002ca       0x33 obj_zoul/cpu.o
 .ARM.attributes
                0x000002fd       0x33 obj_zoul/sys-ctrl.o
 .ARM.attributes
                0x00000330       0x33 obj_zoul/gpio.o
 .ARM.attributes
                0x00000363       0x33 obj_zoul/ioc.o
 .ARM.attributes
                0x00000396       0x33 obj_zoul/adc.o
 .ARM.attributes
                0x000003c9       0x33 obj_zoul/crypto.o
 .ARM.attributes
                0x000003fc       0x33 obj_zoul/cc2538-rf.o
 .ARM.attributes
                0x0000042f       0x33 obj_zoul/udma.o
 .ARM.attributes
                0x00000462       0x33 obj_zoul/lpm.o
 .ARM.attributes
                0x00000495       0x33 obj_zoul/pka.o
 .ARM.attributes
                0x000004c8       0x33 obj_zoul/dbg.o
 .ARM.attributes
                0x000004fb       0x33 obj_zoul/ieee-addr.o
 .ARM.attributes
                0x0000052e       0x33 obj_zoul/cc2538-temp-sensor.o
 .ARM.attributes
                0x00000561       0x33 obj_zoul/vdd3-sensor.o
 .ARM.attributes
                0x00000594       0x33 obj_zoul/dbg-printf.o
 .ARM.attributes
                0x000005c7       0x33 obj_zoul/dbg-sprintf.o
 .ARM.attributes
                0x000005fa       0x33 obj_zoul/strformat.o
 .ARM.attributes
                0x0000062d       0x33 obj_zoul/autostart.o
 .ARM.attributes
                0x00000660       0x33 obj_zoul/ctimer.o
 .ARM.attributes
                0x00000693       0x33 obj_zoul/energest.o
 .ARM.attributes
                0x000006c6       0x33 obj_zoul/etimer.o
 .ARM.attributes
                0x000006f9       0x33 obj_zoul/process.o
 .ARM.attributes
                0x0000072c       0x33 obj_zoul/rtimer.o
 .ARM.attributes
                0x0000075f       0x33 obj_zoul/stimer.o
 .ARM.attributes
                0x00000792       0x33 obj_zoul/timer.o
 .ARM.attributes
                0x000007c5       0x33 obj_zoul/serial-line.o
 .ARM.attributes
                0x000007f8       0x33 obj_zoul/list.o
 .ARM.attributes
                0x0000082b       0x33 obj_zoul/memb.o
 .ARM.attributes
                0x0000085e       0x33 obj_zoul/random.o
 .ARM.attributes
                0x00000891       0x33 obj_zoul/ringbuf.o
 .ARM.attributes
                0x000008c4       0x33 obj_zoul/sensors.o
 .ARM.attributes
                0x000008f7       0x33 obj_zoul/sicslowpan.o
 .ARM.attributes
                0x0000092a       0x33 obj_zoul/uip6.o
 .ARM.attributes
                0x0000095d       0x33 obj_zoul/uip-ds6.o
 .ARM.attributes
                0x00000990       0x33 obj_zoul/uip-ds6-nbr.o
 .ARM.attributes
                0x000009c3       0x33 obj_zoul/uip-ds6-route.o
 .ARM.attributes
                0x000009f6       0x33 obj_zoul/uip-icmp6.o
 .ARM.attributes
                0x00000a29       0x33 obj_zoul/uip-nd6.o
 .ARM.attributes
                0x00000a5c       0x33 obj_zoul/resolv.o
 .ARM.attributes
                0x00000a8f       0x33 obj_zoul/tcpip.o
 .ARM.attributes
                0x00000ac2       0x33 obj_zoul/uip-debug.o
 .ARM.attributes
                0x00000af5       0x33 obj_zoul/uiplib.o
 .ARM.attributes
                0x00000b28       0x33 obj_zoul/uip-nameserver.o
 .ARM.attributes
                0x00000b5b       0x33 obj_zoul/uip-udp-packet.o
 .ARM.attributes
                0x00000b8e       0x33 obj_zoul/rpl.o
 .ARM.attributes
                0x00000bc1       0x33 obj_zoul/rpl-dag.o
 .ARM.attributes
                0x00000bf4       0x33 obj_zoul/rpl-ext-header.o
 .ARM.attributes
                0x00000c27       0x33 obj_zoul/rpl-icmp6.o
 .ARM.attributes
                0x00000c5a       0x33 obj_zoul/rpl-mrhof.o
 .ARM.attributes
                0x00000c8d       0x33 obj_zoul/rpl-timers.o
 .ARM.attributes
                0x00000cc0       0x33 obj_zoul/linkaddr.o
 .ARM.attributes
                0x00000cf3       0x33 obj_zoul/nbr-table.o
 .ARM.attributes
                0x00000d26       0x33 obj_zoul/netstack.o
 .ARM.attributes
                0x00000d59       0x33 obj_zoul/packetbuf.o
 .ARM.attributes
                0x00000d8c       0x33 obj_zoul/queuebuf.o
 .ARM.attributes
                0x00000dbf       0x33 obj_zoul/csma.o
 .ARM.attributes
                0x00000df2       0x33 obj_zoul/frame802154.o
 .ARM.attributes
                0x00000e25       0x33 obj_zoul/framer-802154.o
 .ARM.attributes
                0x00000e58       0x33 obj_zoul/mac.o
 .ARM.attributes
                0x00000e8b       0x33 obj_zoul/mac-sequence.o
 .ARM.attributes
                0x00000ebe       0x33 obj_zoul/contikimac.o
 .ARM.attributes
                0x00000ef1       0x33 obj_zoul/nullsec.o
 .ARM.attributes
                0x00000f24       0x33 udp-client.co
 .ARM.attributes
                0x00000f57       0x1d /usr/bin/../lib/gcc/arm-none-eabi/4.9.3/armv7-m/libgcc.a(_aeabi_uldivmod.o)
 .ARM.attributes
                0x00000f74       0x2d /usr/bin/../lib/gcc/arm-none-eabi/4.9.3/armv7-m/libgcc.a(bpabi.o)
 .ARM.attributes
                0x00000fa1       0x1d /usr/bin/../lib/gcc/arm-none-eabi/4.9.3/armv7-m/libgcc.a(_dvmd_tls.o)
 .ARM.attributes
                0x00000fbe       0x2d /usr/bin/../lib/gcc/arm-none-eabi/4.9.3/armv7-m/libgcc.a(_divdi3.o)
 .ARM.attributes
                0x00000feb       0x2d /usr/bin/../lib/gcc/arm-none-eabi/4.9.3/armv7-m/libgcc.a(_udivdi3.o)
 .ARM.attributes
                0x00001018       0x2d /usr/bin/../lib/gcc/arm-none-eabi/4.9.3/../../../../arm-none-eabi/lib/armv7-m/libc.a(lib_a-ctype_.o)
 .ARM.attributes
                0x00001045       0x2d /usr/bin/../lib/gcc/arm-none-eabi/4.9.3/../../../../arm-none-eabi/lib/armv7-m/libc.a(lib_a-memcmp.o)
 .ARM.attributes
                0x00001072       0x1b /usr/bin/../lib/gcc/arm-none-eabi/4.9.3/../../../../arm-none-eabi/lib/armv7-m/libc.a(lib_a-memcpy.o)
 .ARM.attributes
                0x0000108d       0x2d /usr/bin/../lib/gcc/arm-none-eabi/4.9.3/../../../../arm-none-eabi/lib/armv7-m/libc.a(lib_a-memmove.o)
 .ARM.attributes
                0x000010ba       0x2d /usr/bin/../lib/gcc/arm-none-eabi/4.9.3/../../../../arm-none-eabi/lib/armv7-m/libc.a(lib_a-memset.o)
 .ARM.attributes
                0x000010e7       0x2d /usr/bin/../lib/gcc/arm-none-eabi/4.9.3/../../../../arm-none-eabi/lib/armv7-m/libc.a(lib_a-strcasecmp.o)
 .ARM.attributes
                0x00001114       0x2d /usr/bin/../lib/gcc/arm-none-eabi/4.9.3/../../../../arm-none-eabi/lib/armv7-m/libc.a(lib_a-strcat.o)
 .ARM.attributes
                0x00001141       0x1b /usr/bin/../lib/gcc/arm-none-eabi/4.9.3/../../../../arm-none-eabi/lib/armv7-m/libc.a(lib_a-strcmp.o)
 .ARM.attributes
                0x0000115c       0x2d /usr/bin/../lib/gcc/arm-none-eabi/4.9.3/../../../../arm-none-eabi/lib/armv7-m/libc.a(lib_a-strcpy.o)
 .ARM.attributes
                0x00001189       0x2d /usr/bin/../lib/gcc/arm-none-eabi/4.9.3/../../../../arm-none-eabi/lib/armv7-m/libc.a(lib_a-strlen.o)
 .ARM.attributes
                0x000011b6       0x2d /usr/bin/../lib/gcc/arm-none-eabi/4.9.3/../../../../arm-none-eabi/lib/armv7-m/libc.a(lib_a-strncasecmp.o)
 .ARM.attributes
                0x000011e3       0x2d /usr/bin/../lib/gcc/arm-none-eabi/4.9.3/../../../../arm-none-eabi/lib/armv7-m/libc.a(lib_a-strncat.o)
 .ARM.attributes
                0x00001210       0x2d /usr/bin/../lib/gcc/arm-none-eabi/4.9.3/../../../../arm-none-eabi/lib/armv7-m/libc.a(lib_a-strncpy.o)

.debug_frame    0x00000000      0x2b0
 .debug_frame   0x00000000       0x28 /usr/bin/../lib/gcc/arm-none-eabi/4.9.3/armv7-m/libgcc.a(_aeabi_uldivmod.o)
 .debug_frame   0x00000028       0x54 /usr/bin/../lib/gcc/arm-none-eabi/4.9.3/armv7-m/libgcc.a(bpabi.o)
 .debug_frame   0x0000007c       0x34 /usr/bin/../lib/gcc/arm-none-eabi/4.9.3/armv7-m/libgcc.a(_divdi3.o)
 .debug_frame   0x000000b0       0x34 /usr/bin/../lib/gcc/arm-none-eabi/4.9.3/armv7-m/libgcc.a(_udivdi3.o)
 .debug_frame   0x000000e4       0x38 /usr/bin/../lib/gcc/arm-none-eabi/4.9.3/../../../../arm-none-eabi/lib/armv7-m/libc.a(lib_a-memcmp.o)
 .debug_frame   0x0000011c       0x30 /usr/bin/../lib/gcc/arm-none-eabi/4.9.3/../../../../arm-none-eabi/lib/armv7-m/libc.a(lib_a-memmove.o)
 .debug_frame   0x0000014c       0x34 /usr/bin/../lib/gcc/arm-none-eabi/4.9.3/../../../../arm-none-eabi/lib/armv7-m/libc.a(lib_a-memset.o)
 .debug_frame   0x00000180       0x2c /usr/bin/../lib/gcc/arm-none-eabi/4.9.3/../../../../arm-none-eabi/lib/armv7-m/libc.a(lib_a-strcasecmp.o)
 .debug_frame   0x000001ac       0x28 /usr/bin/../lib/gcc/arm-none-eabi/4.9.3/../../../../arm-none-eabi/lib/armv7-m/libc.a(lib_a-strcat.o)
 .debug_frame   0x000001d4       0x20 /usr/bin/../lib/gcc/arm-none-eabi/4.9.3/../../../../arm-none-eabi/lib/armv7-m/libc.a(lib_a-strcpy.o)
 .debug_frame   0x000001f4       0x20 /usr/bin/../lib/gcc/arm-none-eabi/4.9.3/../../../../arm-none-eabi/lib/armv7-m/libc.a(lib_a-strlen.o)
 .debug_frame   0x00000214       0x38 /usr/bin/../lib/gcc/arm-none-eabi/4.9.3/../../../../arm-none-eabi/lib/armv7-m/libc.a(lib_a-strncasecmp.o)
 .debug_frame   0x0000024c       0x30 /usr/bin/../lib/gcc/arm-none-eabi/4.9.3/../../../../arm-none-eabi/lib/armv7-m/libc.a(lib_a-strncat.o)
 .debug_frame   0x0000027c       0x34 /usr/bin/../lib/gcc/arm-none-eabi/4.9.3/../../../../arm-none-eabi/lib/armv7-m/libc.a(lib_a-strncpy.o)

Cross Reference Table

Symbol                                            File
__aeabi_idiv0                                     /usr/bin/../lib/gcc/arm-none-eabi/4.9.3/armv7-m/libgcc.a(_dvmd_tls.o)
__aeabi_ldiv0                                     /usr/bin/../lib/gcc/arm-none-eabi/4.9.3/armv7-m/libgcc.a(_dvmd_tls.o)
                                                  /usr/bin/../lib/gcc/arm-none-eabi/4.9.3/armv7-m/libgcc.a(_aeabi_uldivmod.o)
__aeabi_uldivmod                                  /usr/bin/../lib/gcc/arm-none-eabi/4.9.3/armv7-m/libgcc.a(_aeabi_uldivmod.o)
                                                  obj_zoul/strformat.o
__ctype_ptr__                                     /usr/bin/../lib/gcc/arm-none-eabi/4.9.3/../../../../arm-none-eabi/lib/armv7-m/libc.a(lib_a-ctype_.o)
                                                  /usr/bin/../lib/gcc/arm-none-eabi/4.9.3/../../../../arm-none-eabi/lib/armv7-m/libc.a(lib_a-strncasecmp.o)
                                                  /usr/bin/../lib/gcc/arm-none-eabi/4.9.3/../../../../arm-none-eabi/lib/armv7-m/libc.a(lib_a-strcasecmp.o)
                                                  obj_zoul/resolv.o
__divdi3                                          /usr/bin/../lib/gcc/arm-none-eabi/4.9.3/armv7-m/libgcc.a(_divdi3.o)
                                                  /usr/bin/../lib/gcc/arm-none-eabi/4.9.3/armv7-m/libgcc.a(bpabi.o)
__gnu_ldivmod_helper                              /usr/bin/../lib/gcc/arm-none-eabi/4.9.3/armv7-m/libgcc.a(bpabi.o)
__gnu_uldivmod_helper                             /usr/bin/../lib/gcc/arm-none-eabi/4.9.3/armv7-m/libgcc.a(bpabi.o)
                                                  /usr/bin/../lib/gcc/arm-none-eabi/4.9.3/armv7-m/libgcc.a(_aeabi_uldivmod.o)
__malloc_av_                                      /usr/bin/../lib/gcc/arm-none-eabi/4.9.3/../../../../arm-none-eabi/lib/armv7-m/libc.a(lib_a-mallocr.o)
                                                  /usr/bin/../lib/gcc/arm-none-eabi/4.9.3/../../../../arm-none-eabi/lib/armv7-m/libc.a(lib_a-freer.o)
__malloc_current_mallinfo                         /usr/bin/../lib/gcc/arm-none-eabi/4.9.3/../../../../arm-none-eabi/lib/armv7-m/libc.a(lib_a-mallocr.o)
                                                  /usr/bin/../lib/gcc/arm-none-eabi/4.9.3/../../../../arm-none-eabi/lib/armv7-m/libc.a(lib_a-freer.o)
__malloc_lock                                     /usr/bin/../lib/gcc/arm-none-eabi/4.9.3/../../../../arm-none-eabi/lib/armv7-m/libc.a(lib_a-mlock.o)
                                                  /usr/bin/../lib/gcc/arm-none-eabi/4.9.3/../../../../arm-none-eabi/lib/armv7-m/libc.a(lib_a-mallocr.o)
                                                  /usr/bin/../lib/gcc/arm-none-eabi/4.9.3/../../../../arm-none-eabi/lib/armv7-m/libc.a(lib_a-freer.o)
__malloc_max_sbrked_mem                           /usr/bin/../lib/gcc/arm-none-eabi/4.9.3/../../../../arm-none-eabi/lib/armv7-m/libc.a(lib_a-mallocr.o)
__malloc_max_total_mem                            /usr/bin/../lib/gcc/arm-none-eabi/4.9.3/../../../../arm-none-eabi/lib/armv7-m/libc.a(lib_a-mallocr.o)
__malloc_sbrk_base                                /usr/bin/../lib/gcc/arm-none-eabi/4.9.3/../../../../arm-none-eabi/lib/armv7-m/libc.a(lib_a-mallocr.o)
                                                  /usr/bin/../lib/gcc/arm-none-eabi/4.9.3/../../../../arm-none-eabi/lib/armv7-m/libc.a(lib_a-freer.o)
__malloc_top_pad                                  /usr/bin/../lib/gcc/arm-none-eabi/4.9.3/../../../../arm-none-eabi/lib/armv7-m/libc.a(lib_a-mallocr.o)
                                                  /usr/bin/../lib/gcc/arm-none-eabi/4.9.3/../../../../arm-none-eabi/lib/armv7-m/libc.a(lib_a-freer.o)
__malloc_trim_threshold                           /usr/bin/../lib/gcc/arm-none-eabi/4.9.3/../../../../arm-none-eabi/lib/armv7-m/libc.a(lib_a-mallocr.o)
                                                  /usr/bin/../lib/gcc/arm-none-eabi/4.9.3/../../../../arm-none-eabi/lib/armv7-m/libc.a(lib_a-freer.o)
__malloc_unlock                                   /usr/bin/../lib/gcc/arm-none-eabi/4.9.3/../../../../arm-none-eabi/lib/armv7-m/libc.a(lib_a-mlock.o)
                                                  /usr/bin/../lib/gcc/arm-none-eabi/4.9.3/../../../../arm-none-eabi/lib/armv7-m/libc.a(lib_a-mallocr.o)
                                                  /usr/bin/../lib/gcc/arm-none-eabi/4.9.3/../../../../arm-none-eabi/lib/armv7-m/libc.a(lib_a-freer.o)
__udivdi3                                         /usr/bin/../lib/gcc/arm-none-eabi/4.9.3/armv7-m/libgcc.a(_udivdi3.o)
                                                  /usr/bin/../lib/gcc/arm-none-eabi/4.9.3/armv7-m/libgcc.a(bpabi.o)
_bss                                              obj_zoul/startup-gcc.o
_ctype_                                           /usr/bin/../lib/gcc/arm-none-eabi/4.9.3/../../../../arm-none-eabi/lib/armv7-m/libc.a(lib_a-ctype_.o)
_data                                             obj_zoul/startup-gcc.o
_ebss                                             obj_zoul/startup-gcc.o
_edata                                            obj_zoul/startup-gcc.o
_eheap                                            obj_zoul/syscalls.o
_free_r                                           /usr/bin/../lib/gcc/arm-none-eabi/4.9.3/../../../../arm-none-eabi/lib/armv7-m/libc.a(lib_a-freer.o)
                                                  /usr/bin/../lib/gcc/arm-none-eabi/4.9.3/../../../../arm-none-eabi/lib/armv7-m/libc.a(lib_a-mallocr.o)
                                                  /usr/bin/../lib/gcc/arm-none-eabi/4.9.3/../../../../arm-none-eabi/lib/armv7-m/libc.a(lib_a-reent.o)
_global_impure_ptr                                /usr/bin/../lib/gcc/arm-none-eabi/4.9.3/../../../../arm-none-eabi/lib/armv7-m/libc.a(lib_a-impure.o)
_heap                                             obj_zoul/syscalls.o
_impure_ptr                                       /usr/bin/../lib/gcc/arm-none-eabi/4.9.3/../../../../arm-none-eabi/lib/armv7-m/libc.a(lib_a-impure.o)
                                                  /usr/bin/../lib/gcc/arm-none-eabi/4.9.3/../../../../arm-none-eabi/lib/armv7-m/libc.a(lib_a-reent.o)
_ldata                                            obj_zoul/startup-gcc.o
_malloc_r                                         /usr/bin/../lib/gcc/arm-none-eabi/4.9.3/../../../../arm-none-eabi/lib/armv7-m/libc.a(lib_a-mallocr.o)
_malloc_trim_r                                    /usr/bin/../lib/gcc/arm-none-eabi/4.9.3/../../../../arm-none-eabi/lib/armv7-m/libc.a(lib_a-freer.o)
_reclaim_reent                                    /usr/bin/../lib/gcc/arm-none-eabi/4.9.3/../../../../arm-none-eabi/lib/armv7-m/libc.a(lib_a-reent.o)
_sbrk                                             obj_zoul/syscalls.o
                                                  /usr/bin/../lib/gcc/arm-none-eabi/4.9.3/../../../../arm-none-eabi/lib/armv7-m/libc.a(lib_a-sbrkr.o)
_sbrk_r                                           /usr/bin/../lib/gcc/arm-none-eabi/4.9.3/../../../../arm-none-eabi/lib/armv7-m/libc.a(lib_a-sbrkr.o)
                                                  /usr/bin/../lib/gcc/arm-none-eabi/4.9.3/../../../../arm-none-eabi/lib/armv7-m/libc.a(lib_a-mallocr.o)
                                                  /usr/bin/../lib/gcc/arm-none-eabi/4.9.3/../../../../arm-none-eabi/lib/armv7-m/libc.a(lib_a-freer.o)
_xassert                                          obj_zoul/assert.o
adc_get                                           obj_zoul/adc.o
                                                  obj_zoul/vdd3-sensor.o
                                                  obj_zoul/cc2538-temp-sensor.o
                                                  obj_zoul/adc-zoul.o
adc_init                                          obj_zoul/adc.o
                                                  obj_zoul/adc-zoul.o
adc_zoul                                          obj_zoul/adc-zoul.o
                                                  udp-client.co
aes_128_driver                                    obj_zoul/aes-128.o
aes_128_set_padded_key                            obj_zoul/aes-128.o
aes_auth_crypt_check_status                       obj_zoul/aes.o
                                                  obj_zoul/cc2538-ccm-star.o
                                                  obj_zoul/ctr.o
                                                  obj_zoul/cbc.o
                                                  obj_zoul/ecb.o
aes_auth_crypt_get_result                         obj_zoul/aes.o
                                                  obj_zoul/ccm.o
                                                  obj_zoul/gcm.o
                                                  obj_zoul/cbc-mac.o
                                                  obj_zoul/ctr.o
                                                  obj_zoul/cbc.o
                                                  obj_zoul/ecb.o
aes_auth_crypt_start                              obj_zoul/aes.o
                                                  obj_zoul/ccm.o
                                                  obj_zoul/gcm.o
                                                  obj_zoul/cbc-mac.o
                                                  obj_zoul/ctr.o
                                                  obj_zoul/cbc.o
                                                  obj_zoul/ecb.o
aes_load_keys                                     obj_zoul/aes.o
                                                  obj_zoul/cc2538-aes-128.o
antenna_sw_config                                 obj_zoul/antenna-sw.o
                                                  obj_zoul/board.o
antenna_sw_get                                    obj_zoul/antenna-sw.o
antenna_sw_select                                 obj_zoul/antenna-sw.o
anti_replay_get_counter                           obj_zoul/anti-replay.o
anti_replay_init_info                             obj_zoul/anti-replay.o
                                                  obj_zoul/noncoresec.o
anti_replay_set_counter                           obj_zoul/anti-replay.o
                                                  obj_zoul/noncoresec.o
anti_replay_was_replayed                          obj_zoul/anti-replay.o
                                                  obj_zoul/noncoresec.o
arg_alloc                                         obj_zoul/arg.o
arg_free                                          obj_zoul/arg.o
arg_init                                          obj_zoul/arg.o
autostart_exit                                    obj_zoul/autostart.o
autostart_processes                               udp-client.co
                                                  obj_zoul/contiki-main.o
autostart_start                                   obj_zoul/autostart.o
                                                  obj_zoul/contiki-main.o
avail_memory                                      obj_zoul/mmem.o
bignum_add_get_result                             obj_zoul/bignum-driver.o
                                                  obj_zoul/ecc-algorithm.o
bignum_add_start                                  obj_zoul/bignum-driver.o
                                                  obj_zoul/ecc-algorithm.o
bignum_cmp_get_result                             obj_zoul/bignum-driver.o
                                                  obj_zoul/ecc-algorithm.o
bignum_cmp_start                                  obj_zoul/bignum-driver.o
                                                  obj_zoul/ecc-algorithm.o
bignum_divide_get_result                          obj_zoul/bignum-driver.o
bignum_divide_start                               obj_zoul/bignum-driver.o
bignum_exp_mod_get_result                         obj_zoul/bignum-driver.o
bignum_exp_mod_start                              obj_zoul/bignum-driver.o
bignum_inv_mod_get_result                         obj_zoul/bignum-driver.o
                                                  obj_zoul/ecc-algorithm.o
bignum_inv_mod_start                              obj_zoul/bignum-driver.o
                                                  obj_zoul/ecc-algorithm.o
bignum_mod_get_result                             obj_zoul/bignum-driver.o
                                                  obj_zoul/ecc-algorithm.o
bignum_mod_start                                  obj_zoul/bignum-driver.o
                                                  obj_zoul/ecc-algorithm.o
bignum_mul_get_result                             obj_zoul/bignum-driver.o
                                                  obj_zoul/ecc-algorithm.o
bignum_mul_start                                  obj_zoul/bignum-driver.o
                                                  obj_zoul/ecc-algorithm.o
bignum_subtract_get_result                        obj_zoul/bignum-driver.o
bignum_subtract_start                             obj_zoul/bignum-driver.o
board_init                                        obj_zoul/board.o
                                                  obj_zoul/contiki-main.o
button_press_duration_exceeded                    obj_zoul/button-sensor.o
button_sensor                                     obj_zoul/button-sensor.o
                                                  udp-client.co
                                                  obj_zoul/zoul-sensors.o
                                                  obj_zoul/contiki-main.o
cbc_crypt_check_status                            obj_zoul/cbc.o
cbc_crypt_start                                   obj_zoul/cbc.o
cbc_mac_auth_get_result                           obj_zoul/cbc-mac.o
cbc_mac_auth_start                                obj_zoul/cbc-mac.o
cc1200_802154g_863_870_fsk_50kbps                 obj_zoul/cc1200-802154g-863-870-fsk-50kbps.o
                                                  obj_zoul/cc1200.o
cc1200_arch_gpio0_disable_irq                     obj_zoul/cc1200-zoul-arch.o
                                                  obj_zoul/cc1200.o
cc1200_arch_gpio0_enable_irq                      obj_zoul/cc1200-zoul-arch.o
                                                  obj_zoul/cc1200.o
cc1200_arch_gpio0_read_pin                        obj_zoul/cc1200-zoul-arch.o
                                                  obj_zoul/cc1200.o
cc1200_arch_gpio0_setup_irq                       obj_zoul/cc1200-zoul-arch.o
                                                  obj_zoul/cc1200.o
cc1200_arch_gpio2_disable_irq                     obj_zoul/cc1200-zoul-arch.o
                                                  obj_zoul/cc1200.o
cc1200_arch_gpio2_enable_irq                      obj_zoul/cc1200-zoul-arch.o
                                                  obj_zoul/cc1200.o
cc1200_arch_gpio2_read_pin                        obj_zoul/cc1200-zoul-arch.o
cc1200_arch_gpio2_setup_irq                       obj_zoul/cc1200-zoul-arch.o
                                                  obj_zoul/cc1200.o
cc1200_arch_gpio3_read_pin                        obj_zoul/cc1200-zoul-arch.o
cc1200_arch_init                                  obj_zoul/cc1200-zoul-arch.o
                                                  obj_zoul/cc1200.o
cc1200_arch_spi_deselect                          obj_zoul/cc1200-zoul-arch.o
                                                  obj_zoul/cc1200.o
cc1200_arch_spi_rw                                obj_zoul/cc1200-zoul-arch.o
                                                  obj_zoul/cc1200.o
cc1200_arch_spi_rw_byte                           obj_zoul/cc1200-zoul-arch.o
                                                  obj_zoul/cc1200.o
cc1200_arch_spi_select                            obj_zoul/cc1200-zoul-arch.o
                                                  obj_zoul/cc1200.o
cc1200_driver                                     obj_zoul/cc1200.o
cc1200_int_handler                                obj_zoul/cc1200-zoul-arch.o
cc1200_process                                    obj_zoul/cc1200.o
cc1200_rx_interrupt                               obj_zoul/cc1200.o
                                                  obj_zoul/cc1200-zoul-arch.o
cc2538_aes_128_driver                             obj_zoul/cc2538-aes-128.o
                                                  obj_zoul/ccm-star.o
                                                  obj_zoul/aes-128.o
                                                  obj_zoul/cc2538-ccm-star.o
cc2538_ccm_star_driver                            obj_zoul/cc2538-ccm-star.o
                                                  obj_zoul/noncoresec.o
cc2538_rf_driver                                  obj_zoul/cc2538-rf.o
                                                  obj_zoul/contikimac.o
                                                  obj_zoul/nullrdc-noframer.o
                                                  obj_zoul/nullrdc.o
                                                  obj_zoul/netstack.o
                                                  obj_zoul/contiki-main.o
cc2538_rf_err_isr                                 obj_zoul/cc2538-rf.o
                                                  obj_zoul/startup-gcc.o
cc2538_rf_process                                 obj_zoul/cc2538-rf.o
cc2538_rf_rx_tx_isr                               obj_zoul/cc2538-rf.o
                                                  obj_zoul/startup-gcc.o
cc2538_rf_set_promiscous_mode                     obj_zoul/cc2538-rf.o
cc2538_temp_sensor                                obj_zoul/cc2538-temp-sensor.o
                                                  obj_zoul/zoul-sensors.o
ccm_auth_decrypt_get_result                       obj_zoul/ccm.o
                                                  obj_zoul/cc2538-ccm-star.o
ccm_auth_decrypt_start                            obj_zoul/ccm.o
                                                  obj_zoul/cc2538-ccm-star.o
ccm_auth_encrypt_get_result                       obj_zoul/ccm.o
                                                  obj_zoul/cc2538-ccm-star.o
ccm_auth_encrypt_start                            obj_zoul/ccm.o
                                                  obj_zoul/cc2538-ccm-star.o
ccm_star_driver                                   obj_zoul/ccm-star.o
ccm_star_packetbuf_set_nonce                      obj_zoul/ccm-star-packetbuf.o
                                                  obj_zoul/noncoresec.o
cfs_close                                         obj_zoul/cfs-coffee.o
cfs_closedir                                      obj_zoul/cfs-coffee.o
cfs_coffee_arch_erase                             obj_zoul/cfs-coffee-arch.o
                                                  obj_zoul/cfs-coffee.o
cfs_coffee_arch_read                              obj_zoul/cfs-coffee-arch.o
                                                  obj_zoul/cfs-coffee.o
cfs_coffee_arch_write                             obj_zoul/cfs-coffee-arch.o
                                                  obj_zoul/cfs-coffee.o
cfs_coffee_configure_log                          obj_zoul/cfs-coffee.o
cfs_coffee_format                                 obj_zoul/cfs-coffee.o
cfs_coffee_get_protected_mem                      obj_zoul/cfs-coffee.o
cfs_coffee_reserve                                obj_zoul/cfs-coffee.o
cfs_open                                          obj_zoul/cfs-coffee.o
cfs_opendir                                       obj_zoul/cfs-coffee.o
cfs_read                                          obj_zoul/cfs-coffee.o
cfs_readdir                                       obj_zoul/cfs-coffee.o
cfs_remove                                        obj_zoul/cfs-coffee.o
cfs_seek                                          obj_zoul/cfs-coffee.o
cfs_write                                         obj_zoul/cfs-coffee.o
cleanup_glue                                      /usr/bin/../lib/gcc/arm-none-eabi/4.9.3/../../../../arm-none-eabi/lib/armv7-m/libc.a(lib_a-reent.o)
clock_adjust                                      obj_zoul/clock.o
                                                  obj_zoul/lpm.o
clock_delay                                       obj_zoul/clock.o
                                                  obj_zoul/cc1200.o
                                                  obj_zoul/leds.o
clock_delay_usec                                  obj_zoul/clock.o
                                                  obj_zoul/i2c.o
                                                  obj_zoul/cc2538-rf.o
                                                  obj_zoul/power-mgmt.o
                                                  obj_zoul/rtcc.o
clock_init                                        obj_zoul/clock.o
                                                  obj_zoul/contiki-main.o
clock_isr                                         obj_zoul/clock.o
                                                  obj_zoul/startup-gcc.o
clock_seconds                                     obj_zoul/clock.o
                                                  obj_zoul/cc1200.o
                                                  obj_zoul/resolv.o
                                                  obj_zoul/stimer.o
clock_set_seconds                                 obj_zoul/clock.o
clock_time                                        obj_zoul/clock.o
                                                  obj_zoul/rpl-timers.o
                                                  obj_zoul/rpl-dag.o
                                                  obj_zoul/rpl.o
                                                  obj_zoul/trickle-timer.o
                                                  obj_zoul/timer.o
                                                  obj_zoul/etimer.o
clock_wait                                        obj_zoul/clock.o
compower_accumulate                               obj_zoul/compower.o
compower_accumulate_attrs                         obj_zoul/compower.o
compower_attrconv                                 obj_zoul/compower.o
compower_clear                                    obj_zoul/compower.o
compower_idle_activity                            obj_zoul/compower.o
compower_init                                     obj_zoul/compower.o
configuration_block                               obj_zoul/cdc-acm-descriptors.o
configuration_head                                obj_zoul/cdc-acm-descriptors.o
                                                  obj_zoul/usb-core.o
contikimac_debug_print                            obj_zoul/contikimac.o
contikimac_driver                                 obj_zoul/contikimac.o
                                                  obj_zoul/cc1200.o
                                                  obj_zoul/phase.o
                                                  obj_zoul/nullmac.o
                                                  obj_zoul/csma.o
                                                  obj_zoul/netstack.o
                                                  obj_zoul/cc2538-rf.o
                                                  obj_zoul/contiki-main.o
contikimac_framer                                 obj_zoul/contikimac-framer.o
cpu_cpsid                                         obj_zoul/cpu.o
                                                  obj_zoul/cfs-coffee-arch.o
                                                  obj_zoul/watchdog.o
                                                  obj_zoul/rtimer-arch.o
cpu_cpsie                                         obj_zoul/cpu.o
                                                  obj_zoul/cfs-coffee-arch.o
                                                  obj_zoul/rtimer-arch.o
                                                  obj_zoul/contiki-main.o
crc16_add                                         obj_zoul/crc16.o
crc16_data                                        obj_zoul/crc16.o
crypto_disable                                    obj_zoul/crypto.o
                                                  obj_zoul/cc2538-ccm-star.o
                                                  obj_zoul/cc2538-aes-128.o
                                                  obj_zoul/contiki-main.o
crypto_enable                                     obj_zoul/crypto.o
                                                  obj_zoul/cc2538-ccm-star.o
                                                  obj_zoul/cc2538-aes-128.o
crypto_init                                       obj_zoul/crypto.o
                                                  obj_zoul/contiki-main.o
crypto_isr                                        obj_zoul/crypto.o
                                                  obj_zoul/startup-gcc.o
crypto_register_process_notification              obj_zoul/crypto.o
                                                  obj_zoul/aes.o
csma_driver                                       obj_zoul/csma.o
                                                  obj_zoul/noncoresec.o
                                                  obj_zoul/nullsec.o
                                                  obj_zoul/contikimac.o
                                                  obj_zoul/nullrdc-noframer.o
                                                  obj_zoul/nullrdc.o
                                                  obj_zoul/netstack.o
                                                  obj_zoul/contiki-main.o
ctimer_expired                                    obj_zoul/ctimer.o
ctimer_init                                       obj_zoul/ctimer.o
                                                  obj_zoul/contiki-main.o
ctimer_process                                    obj_zoul/ctimer.o
ctimer_reset                                      obj_zoul/ctimer.o
                                                  obj_zoul/rpl-timers.o
ctimer_restart                                    obj_zoul/ctimer.o
ctimer_set                                        obj_zoul/ctimer.o
                                                  obj_zoul/contikimac.o
                                                  obj_zoul/phase.o
                                                  obj_zoul/csma.o
                                                  obj_zoul/rpl-timers.o
                                                  obj_zoul/rpl-dag-root.o
                                                  obj_zoul/uip-packetqueue.o
                                                  obj_zoul/trickle-timer.o
                                                  obj_zoul/button-sensor.o
ctimer_set_with_process                           obj_zoul/ctimer.o
ctimer_stop                                       obj_zoul/ctimer.o
                                                  obj_zoul/contikimac.o
                                                  obj_zoul/csma.o
                                                  obj_zoul/rpl-timers.o
                                                  obj_zoul/rpl-dag.o
                                                  obj_zoul/uip-packetqueue.o
                                                  obj_zoul/button-sensor.o
ctr_crypt_check_status                            obj_zoul/ctr.o
ctr_crypt_start                                   obj_zoul/ctr.o
dao_ack_output                                    obj_zoul/rpl-icmp6.o
dao_output                                        obj_zoul/rpl-icmp6.o
                                                  obj_zoul/rpl-timers.o
                                                  obj_zoul/rpl-dag.o
                                                  obj_zoul/rpl.o
dao_output_target                                 obj_zoul/rpl-icmp6.o
                                                  obj_zoul/rpl-ext-header.o
                                                  obj_zoul/rpl.o
dbg_send_bytes                                    obj_zoul/dbg.o
                                                  obj_zoul/dbg-printf.o
default_handler                                   obj_zoul/startup-gcc.o
default_instance                                  obj_zoul/rpl-dag.o
                                                  obj_zoul/rpl-ext-header.o
                                                  obj_zoul/rpl.o
device_descriptor                                 obj_zoul/cdc-acm-descriptors.o
                                                  obj_zoul/usb-core.o
dhcpc_appcall                                     obj_zoul/dhcpc.o
dhcpc_configured                                  obj_zoul/dhcpc.o
dhcpc_init                                        obj_zoul/dhcpc.o
dhcpc_request                                     obj_zoul/dhcpc.o
dhcpc_unconfigured                                obj_zoul/dhcpc.o
dio_output                                        obj_zoul/rpl-icmp6.o
                                                  obj_zoul/rpl-timers.o
dis_output                                        obj_zoul/rpl-icmp6.o
                                                  obj_zoul/rpl-timers.o
                                                  obj_zoul/rpl-dag-root.o
ds6_neighbors                                     obj_zoul/uip-ds6-nbr.o
                                                  obj_zoul/rpl-dag.o
ecb_crypt_check_status                            obj_zoul/ecb.o
                                                  obj_zoul/cc2538-aes-128.o
ecb_crypt_start                                   obj_zoul/ecb.o
                                                  obj_zoul/cc2538-aes-128.o
ecc_add_get_result                                obj_zoul/ecc-driver.o
                                                  obj_zoul/ecc-algorithm.o
ecc_add_start                                     obj_zoul/ecc-driver.o
                                                  obj_zoul/ecc-algorithm.o
ecc_compare                                       obj_zoul/ecc-algorithm.o
ecc_dsa_sign                                      obj_zoul/ecc-algorithm.o
ecc_dsa_verify                                    obj_zoul/ecc-algorithm.o
ecc_mul_gen_pt_get_result                         obj_zoul/ecc-driver.o
ecc_mul_gen_pt_start                              obj_zoul/ecc-driver.o
ecc_mul_get_result                                obj_zoul/ecc-driver.o
                                                  obj_zoul/ecc-algorithm.o
ecc_mul_start                                     obj_zoul/ecc-driver.o
                                                  obj_zoul/ecc-algorithm.o
ecc_multiply                                      obj_zoul/ecc-algorithm.o
energest_flush                                    obj_zoul/energest.o
                                                  obj_zoul/compower.o
energest_init                                     obj_zoul/energest.o
                                                  obj_zoul/contiki-main.o
energest_type_set                                 obj_zoul/energest.o
energest_type_time                                obj_zoul/energest.o
                                                  obj_zoul/compower.o
errno                                             /usr/bin/../lib/gcc/arm-none-eabi/4.9.3/../../../../arm-none-eabi/lib/armv7-m/libc.a(lib_a-reent.o)
                                                  /usr/bin/../lib/gcc/arm-none-eabi/4.9.3/../../../../arm-none-eabi/lib/armv7-m/libc.a(lib_a-sbrkr.o)
                                                  obj_zoul/syscalls.o
etimer_adjust                                     obj_zoul/etimer.o
etimer_expiration_time                            obj_zoul/etimer.o
                                                  obj_zoul/rpl-timers.o
etimer_expired                                    obj_zoul/etimer.o
                                                  udp-client.co
                                                  obj_zoul/rpl-timers.o
                                                  obj_zoul/tcpip.o
                                                  obj_zoul/dhcpc.o
                                                  obj_zoul/ctimer.o
etimer_next_expiration_time                       obj_zoul/etimer.o
etimer_pending                                    obj_zoul/etimer.o
                                                  obj_zoul/clock.o
etimer_process                                    obj_zoul/etimer.o
                                                  obj_zoul/contiki-main.o
etimer_request_poll                               obj_zoul/etimer.o
                                                  obj_zoul/clock.o
etimer_reset                                      obj_zoul/etimer.o
                                                  obj_zoul/uip-ds6.o
                                                  obj_zoul/ctimer.o
etimer_reset_with_new_interval                    obj_zoul/etimer.o
etimer_restart                                    obj_zoul/etimer.o
                                                  udp-client.co
                                                  obj_zoul/tcpip.o
                                                  obj_zoul/ctimer.o
etimer_set                                        obj_zoul/etimer.o
                                                  udp-client.co
                                                  obj_zoul/tcpip.o
                                                  obj_zoul/resolv.o
                                                  obj_zoul/dhcpc.o
                                                  obj_zoul/uip-ds6.o
                                                  obj_zoul/ctimer.o
etimer_start_time                                 obj_zoul/etimer.o
etimer_stop                                       obj_zoul/etimer.o
                                                  obj_zoul/ctimer.o
event_process                                     obj_zoul/usb-arch.o
flash_cca_lock_page                               obj_zoul/startup-gcc.o
format_str                                        obj_zoul/strformat.o
format_str_v                                      obj_zoul/strformat.o
                                                  obj_zoul/dbg-sprintf.o
                                                  obj_zoul/dbg-snprintf.o
                                                  obj_zoul/dbg-printf.o
frame802154_check_dest_panid                      obj_zoul/frame802154.o
frame802154_create                                obj_zoul/frame802154.o
                                                  obj_zoul/framer-802154.o
frame802154_extract_linkaddr                      obj_zoul/frame802154.o
frame802154_get_pan_id                            obj_zoul/frame802154.o
                                                  obj_zoul/framer-802154.o
frame802154_has_panid                             obj_zoul/frame802154.o
frame802154_hdrlen                                obj_zoul/frame802154.o
                                                  obj_zoul/framer-802154.o
frame802154_is_broadcast_addr                     obj_zoul/frame802154.o
                                                  obj_zoul/framer-802154.o
frame802154_parse                                 obj_zoul/frame802154.o
                                                  obj_zoul/cc1200.o
                                                  obj_zoul/framer-802154.o
frame802154_set_pan_id                            obj_zoul/frame802154.o
frame802154e_parse_information_elements           obj_zoul/frame802154e-ie.o
frame80215e_create_ie_header_ack_nack_time_correction obj_zoul/frame802154e-ie.o
frame80215e_create_ie_header_list_termination_1   obj_zoul/frame802154e-ie.o
frame80215e_create_ie_header_list_termination_2   obj_zoul/frame802154e-ie.o
frame80215e_create_ie_mlme                        obj_zoul/frame802154e-ie.o
frame80215e_create_ie_payload_list_termination    obj_zoul/frame802154e-ie.o
frame80215e_create_ie_tsch_channel_hopping_sequence obj_zoul/frame802154e-ie.o
frame80215e_create_ie_tsch_slotframe_and_link     obj_zoul/frame802154e-ie.o
frame80215e_create_ie_tsch_synchronization        obj_zoul/frame802154e-ie.o
frame80215e_create_ie_tsch_timeslot               obj_zoul/frame802154e-ie.o
framer_802154                                     obj_zoul/framer-802154.o
                                                  obj_zoul/noncoresec.o
                                                  obj_zoul/contikimac-framer.o
                                                  obj_zoul/contikimac.o
                                                  obj_zoul/nullrdc.o
                                                  obj_zoul/sicslowpan.o
framer_nullmac                                    obj_zoul/framer-nullmac.o
gcm_auth_decrypt_get_result                       obj_zoul/gcm.o
gcm_auth_decrypt_start                            obj_zoul/gcm.o
gcm_auth_encrypt_get_result                       obj_zoul/gcm.o
gcm_auth_encrypt_start                            obj_zoul/gcm.o
gcr_decode                                        obj_zoul/gcr.o
gcr_encode                                        obj_zoul/gcr.o
gcr_finished                                      obj_zoul/gcr.o
gcr_get_decoded                                   obj_zoul/gcr.o
gcr_get_encoded                                   obj_zoul/gcr.o
gcr_init                                          obj_zoul/gcr.o
gcr_valid                                         obj_zoul/gcr.o
get_match_length                                  obj_zoul/uip-ds6.o
gpio_init                                         obj_zoul/gpio.o
                                                  obj_zoul/contiki-main.o
gpio_port_a_isr                                   obj_zoul/gpio.o
                                                  obj_zoul/startup-gcc.o
gpio_port_b_isr                                   obj_zoul/gpio.o
                                                  obj_zoul/startup-gcc.o
gpio_port_c_isr                                   obj_zoul/gpio.o
                                                  obj_zoul/startup-gcc.o
gpio_port_d_isr                                   obj_zoul/gpio.o
                                                  obj_zoul/startup-gcc.o
gpio_register_callback                            obj_zoul/gpio.o
                                                  obj_zoul/rtcc.o
                                                  obj_zoul/button-sensor.o
                                                  obj_zoul/cc1200-zoul-arch.o
i2c_burst_receive                                 obj_zoul/i2c.o
                                                  obj_zoul/rtcc.o
i2c_burst_send                                    obj_zoul/i2c.o
                                                  obj_zoul/rtcc.o
i2c_init                                          obj_zoul/i2c.o
                                                  obj_zoul/rtcc.o
i2c_master_busy                                   obj_zoul/i2c.o
i2c_master_command                                obj_zoul/i2c.o
i2c_master_data_get                               obj_zoul/i2c.o
i2c_master_data_put                               obj_zoul/i2c.o
i2c_master_disable                                obj_zoul/i2c.o
i2c_master_enable                                 obj_zoul/i2c.o
                                                  obj_zoul/rtcc.o
i2c_master_error                                  obj_zoul/i2c.o
i2c_master_set_slave_address                      obj_zoul/i2c.o
i2c_set_frequency                                 obj_zoul/i2c.o
i2c_single_receive                                obj_zoul/i2c.o
i2c_single_send                                   obj_zoul/i2c.o
                                                  obj_zoul/rtcc.o
icmp6_new                                         obj_zoul/tcpip.o
ieee_addr_cpy_to                                  obj_zoul/ieee-addr.o
                                                  obj_zoul/usb-serial.o
                                                  obj_zoul/contiki-main.o
ifft                                              obj_zoul/ifft.o
instance_table                                    obj_zoul/rpl-dag.o
                                                  obj_zoul/rpl-icmp6.o
                                                  obj_zoul/rpl.o
ioc_init                                          obj_zoul/ioc.o
                                                  obj_zoul/contiki-main.o
ioc_set_over                                      obj_zoul/ioc.o
                                                  obj_zoul/pwm.o
                                                  obj_zoul/i2c.o
                                                  obj_zoul/spi.o
                                                  obj_zoul/uart.o
                                                  obj_zoul/rtcc.o
                                                  obj_zoul/button-sensor.o
                                                  obj_zoul/adc-zoul.o
                                                  obj_zoul/cc1200-zoul-arch.o
ioc_set_sel                                       obj_zoul/ioc.o
                                                  obj_zoul/pwm.o
                                                  obj_zoul/i2c.o
                                                  obj_zoul/spi.o
                                                  obj_zoul/uart.o
ip64_addr_4to6                                    obj_zoul/ip64-addr.o
ip64_addr_6to4                                    obj_zoul/ip64-addr.o
ip64_addr_copy4                                   obj_zoul/ip64-addr.o
ip64_addr_copy6                                   obj_zoul/ip64-addr.o
leds_arch_get                                     obj_zoul/leds-arch.o
                                                  obj_zoul/leds.o
leds_arch_init                                    obj_zoul/leds-arch.o
                                                  obj_zoul/leds.o
leds_arch_set                                     obj_zoul/leds-arch.o
                                                  obj_zoul/leds.o
leds_blink                                        obj_zoul/leds.o
leds_get                                          obj_zoul/leds.o
leds_init                                         obj_zoul/leds.o
                                                  obj_zoul/contiki-main.o
leds_off                                          obj_zoul/leds.o
                                                  obj_zoul/contiki-main.o
leds_on                                           obj_zoul/leds.o
                                                  obj_zoul/contiki-main.o
leds_set                                          obj_zoul/leds.o
leds_toggle                                       obj_zoul/leds.o
linkaddr_cmp                                      obj_zoul/linkaddr.o
                                                  obj_zoul/cc1200.o
                                                  obj_zoul/noncoresec.o
                                                  obj_zoul/contikimac.o
                                                  obj_zoul/nullrdc.o
                                                  obj_zoul/mac-sequence.o
                                                  obj_zoul/csma.o
                                                  obj_zoul/packetbuf.o
                                                  obj_zoul/nbr-table.o
                                                  obj_zoul/uip-ds6-nbr.o
                                                  obj_zoul/sicslowpan.o
linkaddr_copy                                     obj_zoul/linkaddr.o
                                                  obj_zoul/mac-sequence.o
                                                  obj_zoul/framer-nullmac.o
                                                  obj_zoul/framer-802154.o
                                                  obj_zoul/frame802154.o
                                                  obj_zoul/csma.o
                                                  obj_zoul/packetbuf.o
                                                  obj_zoul/nbr-table.o
                                                  obj_zoul/sicslowpan.o
linkaddr_node_addr                                obj_zoul/linkaddr.o
                                                  obj_zoul/cc1200.o
                                                  obj_zoul/noncoresec.o
                                                  obj_zoul/ccm-star-packetbuf.o
                                                  obj_zoul/contikimac.o
                                                  obj_zoul/nullrdc.o
                                                  obj_zoul/framer-nullmac.o
                                                  obj_zoul/framer-802154.o
                                                  obj_zoul/contiki-main.o
linkaddr_null                                     obj_zoul/linkaddr.o
                                                  obj_zoul/frame802154.o
                                                  obj_zoul/packetbuf.o
                                                  obj_zoul/nbr-table.o
                                                  obj_zoul/uip-ds6-nbr.o
                                                  obj_zoul/sicslowpan.o
linkaddr_set_node_addr                            obj_zoul/linkaddr.o
list_add                                          obj_zoul/list.o
                                                  obj_zoul/csma.o
                                                  obj_zoul/nbr-table.o
                                                  obj_zoul/tcp-socket.o
                                                  obj_zoul/uip-icmp6.o
                                                  obj_zoul/uip-ds6-route.o
                                                  obj_zoul/mmem.o
                                                  obj_zoul/ctimer.o
list_chop                                         obj_zoul/list.o
list_copy                                         obj_zoul/list.o
list_head                                         obj_zoul/list.o
                                                  obj_zoul/csma.o
                                                  obj_zoul/nbr-table.o
                                                  obj_zoul/tcp-socket.o
                                                  obj_zoul/uip-icmp6.o
                                                  obj_zoul/uip-ds6-route.o
                                                  obj_zoul/ctimer.o
list_init                                         obj_zoul/list.o
                                                  obj_zoul/csma.o
                                                  obj_zoul/tcp-socket.o
                                                  obj_zoul/uip-ds6-route.o
                                                  obj_zoul/mmem.o
                                                  obj_zoul/ctimer.o
list_insert                                       obj_zoul/list.o
list_item_next                                    obj_zoul/list.o
                                                  obj_zoul/contikimac.o
                                                  obj_zoul/csma.o
                                                  obj_zoul/nbr-table.o
                                                  obj_zoul/tcp-socket.o
                                                  obj_zoul/uip-icmp6.o
                                                  obj_zoul/uip-ds6-route.o
list_length                                       obj_zoul/list.o
                                                  obj_zoul/csma.o
                                                  obj_zoul/uip-ds6-route.o
list_pop                                          obj_zoul/list.o
list_push                                         obj_zoul/list.o
                                                  obj_zoul/uip-ds6-route.o
list_remove                                       obj_zoul/list.o
                                                  obj_zoul/csma.o
                                                  obj_zoul/nbr-table.o
                                                  obj_zoul/tcp-socket.o
                                                  obj_zoul/uip-icmp6.o
                                                  obj_zoul/uip-ds6-route.o
                                                  obj_zoul/mmem.o
                                                  obj_zoul/ctimer.o
list_tail                                         obj_zoul/list.o
                                                  obj_zoul/uip-ds6-route.o
llprefix                                          obj_zoul/sicslowpan.o
lpm_enter                                         obj_zoul/lpm.o
                                                  obj_zoul/contiki-main.o
lpm_exit                                          obj_zoul/lpm.o
                                                  obj_zoul/gpio.o
                                                  obj_zoul/rtimer-arch.o
lpm_init                                          obj_zoul/lpm.o
                                                  obj_zoul/contiki-main.o
lpm_register_peripheral                           obj_zoul/lpm.o
                                                  obj_zoul/usb-arch.o
                                                  obj_zoul/pwm.o
                                                  obj_zoul/pka.o
                                                  obj_zoul/crypto.o
                                                  obj_zoul/uart.o
lpm_set_max_pm                                    obj_zoul/lpm.o
mac_call_sent_callback                            obj_zoul/mac.o
                                                  obj_zoul/contikimac.o
                                                  obj_zoul/nullrdc-noframer.o
                                                  obj_zoul/nullrdc.o
                                                  obj_zoul/csma.o
mac_sequence_is_duplicate                         obj_zoul/mac-sequence.o
                                                  obj_zoul/contikimac.o
                                                  obj_zoul/nullrdc.o
mac_sequence_register_seqno                       obj_zoul/mac-sequence.o
                                                  obj_zoul/contikimac.o
                                                  obj_zoul/nullrdc.o
main                                              obj_zoul/contiki-main.o
                                                  obj_zoul/startup-gcc.o
mdns_probe_process                                obj_zoul/resolv.o
me_decode16                                       obj_zoul/me.o
me_decode8                                        obj_zoul/me.o
me_decode_tab                                     obj_zoul/me_tabs.o
                                                  obj_zoul/me.o
me_encode                                         obj_zoul/me.o
me_encode_tab                                     obj_zoul/me_tabs.o
                                                  obj_zoul/me.o
me_valid                                          obj_zoul/me.o
me_valid_tab                                      obj_zoul/me_tabs.o
                                                  obj_zoul/me.o
memb_alloc                                        obj_zoul/memb.o
                                                  obj_zoul/phase.o
                                                  obj_zoul/csma.o
                                                  obj_zoul/queuebuf.o
                                                  obj_zoul/nbr-table.o
                                                  obj_zoul/uip-packetqueue.o
                                                  obj_zoul/uip-ds6-route.o
memb_free                                         obj_zoul/memb.o
                                                  obj_zoul/phase.o
                                                  obj_zoul/csma.o
                                                  obj_zoul/queuebuf.o
                                                  obj_zoul/uip-packetqueue.o
                                                  obj_zoul/uip-ds6-route.o
memb_init                                         obj_zoul/memb.o
                                                  obj_zoul/phase.o
                                                  obj_zoul/csma.o
                                                  obj_zoul/queuebuf.o
                                                  obj_zoul/uip-ds6-route.o
memb_inmemb                                       obj_zoul/memb.o
                                                  obj_zoul/queuebuf.o
memb_numfree                                      obj_zoul/memb.o
                                                  obj_zoul/queuebuf.o
memcmp                                            /usr/bin/../lib/gcc/arm-none-eabi/4.9.3/../../../../arm-none-eabi/lib/armv7-m/libc.a(lib_a-memcmp.o)
                                                  obj_zoul/linkaddr.o
                                                  obj_zoul/rpl-icmp6.o
                                                  obj_zoul/rpl-dag-root.o
                                                  obj_zoul/rpl-dag.o
                                                  obj_zoul/rpl.o
                                                  obj_zoul/dhcpc.o
                                                  obj_zoul/uip-nd6.o
                                                  obj_zoul/uip-ds6-route.o
                                                  obj_zoul/uip-ds6-nbr.o
                                                  obj_zoul/uip-ds6.o
                                                  obj_zoul/uip6.o
                                                  obj_zoul/sicslowpan.o
                                                  obj_zoul/slip.o
memcpy                                            /usr/bin/../lib/gcc/arm-none-eabi/4.9.3/../../../../arm-none-eabi/lib/armv7-m/libc.a(lib_a-memcpy.o)
                                                  obj_zoul/cc1200.o
                                                  obj_zoul/frame802154e-ie.o
                                                  obj_zoul/packetbuf.o
                                                  obj_zoul/rpl-icmp6.o
                                                  obj_zoul/rpl-dag.o
                                                  obj_zoul/uip-split.o
                                                  obj_zoul/udp-socket.o
                                                  obj_zoul/tcp-socket.o
                                                  obj_zoul/slipdev.o
                                                  obj_zoul/simple-udp.o
                                                  obj_zoul/psock.o
                                                  obj_zoul/dhcpc.o
                                                  obj_zoul/uip6.o
                                                  obj_zoul/sicslowpan.o
                                                  obj_zoul/ccm-star.o
                                                  obj_zoul/aes-128.o
                                                  obj_zoul/dbg-sprintf.o
                                                  obj_zoul/dbg-snprintf.o
                                                  obj_zoul/slip.o
memmove                                           /usr/bin/../lib/gcc/arm-none-eabi/4.9.3/../../../../arm-none-eabi/lib/armv7-m/libc.a(lib_a-memmove.o)
                                                  obj_zoul/rpl-ext-header.o
                                                  obj_zoul/uip-udp-packet.o
                                                  obj_zoul/uiplib.o
                                                  obj_zoul/uip-icmp6.o
                                                  obj_zoul/uip6.o
                                                  obj_zoul/sicslowpan.o
                                                  obj_zoul/mmem.o
memset                                            /usr/bin/../lib/gcc/arm-none-eabi/4.9.3/../../../../arm-none-eabi/lib/armv7-m/libc.a(lib_a-memset.o)
                                                  obj_zoul/contikimac-framer.o
                                                  obj_zoul/framer-802154.o
                                                  obj_zoul/frame802154.o
                                                  obj_zoul/nbr-table.o
                                                  obj_zoul/rpl-icmp6.o
                                                  obj_zoul/rpl-dag.o
                                                  obj_zoul/uiplib.o
                                                  obj_zoul/resolv.o
                                                  obj_zoul/dhcpc.o
                                                  obj_zoul/uip-nd6.o
                                                  obj_zoul/uip-ds6-route.o
                                                  obj_zoul/uip-ds6.o
                                                  obj_zoul/uip6.o
                                                  obj_zoul/sicslowpan.o
                                                  obj_zoul/memb.o
                                                  obj_zoul/aes-128.o
                                                  obj_zoul/cfs-coffee.o
                                                  obj_zoul/slip.o
                                                  obj_zoul/udma.o
                                                  obj_zoul/gpio.o
mmem_alloc                                        obj_zoul/mmem.o
mmem_free                                         obj_zoul/mmem.o
mmem_init                                         obj_zoul/mmem.o
mt_exec                                           obj_zoul/mt.o
mt_exit                                           obj_zoul/mt.o
mt_init                                           obj_zoul/mt.o
mt_remove                                         obj_zoul/mt.o
mt_start                                          obj_zoul/mt.o
mt_stop                                           obj_zoul/mt.o
mt_yield                                          obj_zoul/mt.o
mtarch_exec                                       obj_zoul/mt.o
mtarch_init                                       obj_zoul/mt.o
mtarch_pstop                                      obj_zoul/mt.o
mtarch_remove                                     obj_zoul/mt.o
mtarch_start                                      obj_zoul/mt.o
mtarch_stop                                       obj_zoul/mt.o
mtarch_yield                                      obj_zoul/mt.o
nbr_routes                                        obj_zoul/uip-ds6-route.o
nbr_table_add_lladdr                              obj_zoul/nbr-table.o
                                                  obj_zoul/noncoresec.o
                                                  obj_zoul/phase.o
                                                  obj_zoul/rpl-dag.o
                                                  obj_zoul/uip-ds6-route.o
                                                  obj_zoul/uip-ds6-nbr.o
nbr_table_get_from_lladdr                         obj_zoul/nbr-table.o
                                                  obj_zoul/noncoresec.o
                                                  obj_zoul/phase.o
                                                  obj_zoul/rpl-ext-header.o
                                                  obj_zoul/rpl-dag.o
                                                  obj_zoul/uip-ds6-route.o
                                                  obj_zoul/uip-ds6-nbr.o
nbr_table_get_lladdr                              obj_zoul/nbr-table.o
                                                  obj_zoul/rpl-dag.o
                                                  obj_zoul/uip-ds6-route.o
                                                  obj_zoul/uip-ds6-nbr.o
nbr_table_head                                    obj_zoul/nbr-table.o
                                                  obj_zoul/rpl-timers.o
                                                  obj_zoul/rpl-dag.o
                                                  obj_zoul/uip-ds6-nbr.o
nbr_table_lock                                    obj_zoul/nbr-table.o
                                                  obj_zoul/noncoresec.o
                                                  obj_zoul/rpl-dag.o
                                                  obj_zoul/uip-ds6-route.o
nbr_table_next                                    obj_zoul/nbr-table.o
                                                  obj_zoul/rpl-timers.o
                                                  obj_zoul/rpl-dag.o
                                                  obj_zoul/uip-ds6-nbr.o
nbr_table_register                                obj_zoul/nbr-table.o
                                                  obj_zoul/noncoresec.o
                                                  obj_zoul/phase.o
                                                  obj_zoul/rpl-dag.o
                                                  obj_zoul/uip-ds6-route.o
                                                  obj_zoul/uip-ds6-nbr.o
nbr_table_remove                                  obj_zoul/nbr-table.o
                                                  obj_zoul/noncoresec.o
                                                  obj_zoul/phase.o
                                                  obj_zoul/rpl-dag.o
                                                  obj_zoul/uip-ds6-route.o
                                                  obj_zoul/uip-ds6-nbr.o
nbr_table_unlock                                  obj_zoul/nbr-table.o
                                                  obj_zoul/rpl-dag.o
netstack_init                                     obj_zoul/netstack.o
                                                  obj_zoul/contiki-main.o
nist_p_192                                        obj_zoul/ecc-curve.o
nist_p_256                                        obj_zoul/ecc-curve.o
nmi_handler                                       obj_zoul/startup-gcc.o
noncoresec_driver                                 obj_zoul/noncoresec.o
noncoresec_framer                                 obj_zoul/noncoresec.o
nordc_driver                                      obj_zoul/nordc.o
notify                                            obj_zoul/gpio.o
nullmac_driver                                    obj_zoul/nullmac.o
nullradio_driver                                  obj_zoul/nullradio.o
nullrdc_driver                                    obj_zoul/nullrdc.o
nullrdc_noframer_driver                           obj_zoul/nullrdc-noframer.o
nullsec_driver                                    obj_zoul/nullsec.o
                                                  obj_zoul/nullmac.o
                                                  obj_zoul/csma.o
                                                  obj_zoul/netstack.o
                                                  obj_zoul/sicslowpan.o
nvic_init                                         obj_zoul/nvic.o
                                                  obj_zoul/contiki-main.o
nvic_interrupt_disable                            obj_zoul/nvic.o
                                                  obj_zoul/ecc-driver.o
                                                  obj_zoul/bignum-driver.o
                                                  obj_zoul/pka.o
                                                  obj_zoul/aes.o
                                                  obj_zoul/crypto.o
                                                  obj_zoul/rtimer-arch.o
                                                  obj_zoul/button-sensor.o
nvic_interrupt_en_restore                         obj_zoul/nvic.o
                                                  obj_zoul/usb-arch.o
nvic_interrupt_en_save                            obj_zoul/nvic.o
                                                  obj_zoul/usb-arch.o
nvic_interrupt_enable                             obj_zoul/nvic.o
                                                  obj_zoul/usb-arch.o
                                                  obj_zoul/ecc-driver.o
                                                  obj_zoul/bignum-driver.o
                                                  obj_zoul/udma.o
                                                  obj_zoul/cc2538-rf.o
                                                  obj_zoul/aes.o
                                                  obj_zoul/uart.o
                                                  obj_zoul/rtimer-arch.o
                                                  obj_zoul/rtcc.o
                                                  obj_zoul/button-sensor.o
                                                  obj_zoul/cc1200-zoul-arch.o
nvic_interrupt_pend                               obj_zoul/nvic.o
nvic_interrupt_unpend                             obj_zoul/nvic.o
                                                  obj_zoul/ecc-driver.o
                                                  obj_zoul/bignum-driver.o
                                                  obj_zoul/pka.o
                                                  obj_zoul/aes.o
                                                  obj_zoul/crypto.o
                                                  obj_zoul/rtimer-arch.o
packetbuf_addr                                    obj_zoul/packetbuf.o
                                                  obj_zoul/noncoresec.o
                                                  obj_zoul/ccm-star-packetbuf.o
                                                  obj_zoul/contikimac.o
                                                  obj_zoul/nullrdc.o
                                                  obj_zoul/mac-sequence.o
                                                  obj_zoul/framer-nullmac.o
                                                  obj_zoul/framer-802154.o
                                                  obj_zoul/csma.o
                                                  obj_zoul/rpl-icmp6.o
                                                  obj_zoul/rpl-ext-header.o
                                                  obj_zoul/uip-ds6-nbr.o
                                                  obj_zoul/sicslowpan.o
packetbuf_addrs                                   obj_zoul/packetbuf.o
packetbuf_attr                                    obj_zoul/packetbuf.o
                                                  obj_zoul/noncoresec.o
                                                  obj_zoul/ccm-star-packetbuf.o
                                                  obj_zoul/anti-replay.o
                                                  obj_zoul/contikimac.o
                                                  obj_zoul/mac-sequence.o
                                                  obj_zoul/framer-802154.o
                                                  obj_zoul/csma.o
                                                  obj_zoul/sicslowpan.o
                                                  obj_zoul/compower.o
packetbuf_attr_clear                              obj_zoul/packetbuf.o
packetbuf_attr_copyfrom                           obj_zoul/packetbuf.o
                                                  obj_zoul/queuebuf.o
packetbuf_attr_copyto                             obj_zoul/packetbuf.o
                                                  obj_zoul/queuebuf.o
packetbuf_attrs                                   obj_zoul/packetbuf.o
packetbuf_clear                                   obj_zoul/packetbuf.o
                                                  obj_zoul/cc1200.o
                                                  obj_zoul/sicslowpan.o
                                                  obj_zoul/cc2538-rf.o
packetbuf_clear_hdr                               obj_zoul/packetbuf.o
packetbuf_compact                                 obj_zoul/packetbuf.o
                                                  obj_zoul/contikimac-framer.o
packetbuf_copyfrom                                obj_zoul/packetbuf.o
                                                  obj_zoul/queuebuf.o
packetbuf_copyto                                  obj_zoul/packetbuf.o
                                                  obj_zoul/queuebuf.o
packetbuf_copyto_hdr                              obj_zoul/packetbuf.o
packetbuf_datalen                                 obj_zoul/packetbuf.o
                                                  obj_zoul/noncoresec.o
                                                  obj_zoul/contikimac-framer.o
                                                  obj_zoul/contikimac.o
                                                  obj_zoul/nullrdc.o
                                                  obj_zoul/framer-802154.o
                                                  obj_zoul/sicslowpan.o
packetbuf_dataptr                                 obj_zoul/packetbuf.o
                                                  obj_zoul/cc1200.o
                                                  obj_zoul/contikimac-framer.o
                                                  obj_zoul/framer-nullmac.o
                                                  obj_zoul/framer-802154.o
                                                  obj_zoul/sicslowpan.o
                                                  obj_zoul/cc2538-rf.o
packetbuf_hdr_remove                              obj_zoul/packetbuf.o
packetbuf_hdralloc                                obj_zoul/packetbuf.o
                                                  obj_zoul/contikimac-framer.o
                                                  obj_zoul/framer-nullmac.o
                                                  obj_zoul/framer-802154.o
packetbuf_hdrlen                                  obj_zoul/packetbuf.o
packetbuf_hdrptr                                  obj_zoul/packetbuf.o
                                                  obj_zoul/noncoresec.o
                                                  obj_zoul/contikimac-framer.o
                                                  obj_zoul/contikimac.o
                                                  obj_zoul/nullrdc-noframer.o
                                                  obj_zoul/nullrdc.o
                                                  obj_zoul/framer-nullmac.o
                                                  obj_zoul/framer-802154.o
packetbuf_hdrreduce                               obj_zoul/packetbuf.o
                                                  obj_zoul/contikimac-framer.o
                                                  obj_zoul/framer-nullmac.o
                                                  obj_zoul/framer-802154.o
packetbuf_holds_broadcast                         obj_zoul/packetbuf.o
                                                  obj_zoul/anti-replay.o
                                                  obj_zoul/contikimac.o
                                                  obj_zoul/nullrdc.o
                                                  obj_zoul/framer-802154.o
packetbuf_set_addr                                obj_zoul/packetbuf.o
                                                  obj_zoul/contikimac.o
                                                  obj_zoul/nullrdc.o
                                                  obj_zoul/framer-nullmac.o
                                                  obj_zoul/framer-802154.o
                                                  obj_zoul/sicslowpan.o
packetbuf_set_attr                                obj_zoul/packetbuf.o
                                                  obj_zoul/cc1200.o
                                                  obj_zoul/noncoresec.o
                                                  obj_zoul/nullsec.o
                                                  obj_zoul/anti-replay.o
                                                  obj_zoul/contikimac.o
                                                  obj_zoul/phase.o
                                                  obj_zoul/nullrdc.o
                                                  obj_zoul/framer-802154.o
                                                  obj_zoul/csma.o
                                                  obj_zoul/sicslowpan.o
                                                  obj_zoul/compower.o
                                                  obj_zoul/cc2538-rf.o
packetbuf_set_datalen                             obj_zoul/packetbuf.o
                                                  obj_zoul/cc1200.o
                                                  obj_zoul/noncoresec.o
                                                  obj_zoul/contikimac-framer.o
                                                  obj_zoul/sicslowpan.o
                                                  obj_zoul/cc2538-rf.o
packetbuf_totlen                                  obj_zoul/packetbuf.o
                                                  obj_zoul/noncoresec.o
                                                  obj_zoul/contikimac-framer.o
                                                  obj_zoul/contikimac.o
                                                  obj_zoul/nullrdc-noframer.o
                                                  obj_zoul/nullrdc.o
petsciiconv_toascii                               obj_zoul/petsciiconv.o
petsciiconv_topetscii                             obj_zoul/petsciiconv.o
phase_init                                        obj_zoul/phase.o
phase_update                                      obj_zoul/phase.o
phase_wait                                        obj_zoul/phase.o
pka_check_status                                  obj_zoul/pka.o
                                                  obj_zoul/ecc-algorithm.o
pka_disable                                       obj_zoul/pka.o
pka_enable                                        obj_zoul/pka.o
pka_init                                          obj_zoul/pka.o
pka_isr                                           obj_zoul/pka.o
                                                  obj_zoul/startup-gcc.o
pka_register_process_notification                 obj_zoul/pka.o
                                                  obj_zoul/ecc-driver.o
                                                  obj_zoul/bignum-driver.o
pm_disable_timer                                  obj_zoul/power-mgmt.o
pm_enable_timer                                   obj_zoul/power-mgmt.o
pm_get_firmware_version                           obj_zoul/power-mgmt.o
pm_get_state                                      obj_zoul/power-mgmt.o
pm_init                                           obj_zoul/power-mgmt.o
print_stats                                       obj_zoul/print-stats.o
printf                                            obj_zoul/dbg-printf.o
                                                  udp-client.co
                                                  obj_zoul/cc1200.o
                                                  obj_zoul/rpl-dag-root.o
                                                  obj_zoul/rpl-dag.o
                                                  obj_zoul/uip-debug.o
                                                  obj_zoul/tcp-socket.o
                                                  obj_zoul/assert.o
                                                  obj_zoul/ecc-algorithm.o
                                                  obj_zoul/power-mgmt.o
                                                  obj_zoul/rtcc.o
                                                  obj_zoul/contiki-main.o
process_alloc_event                               obj_zoul/process.o
                                                  obj_zoul/tcpip.o
                                                  obj_zoul/resolv.o
                                                  obj_zoul/sensors.o
                                                  obj_zoul/serial-line.o
                                                  obj_zoul/button-sensor.o
process_current                                   obj_zoul/process.o
                                                  obj_zoul/udp-socket.o
                                                  obj_zoul/tcp-socket.o
                                                  obj_zoul/tcpip.o
                                                  obj_zoul/simple-udp.o
                                                  obj_zoul/serial-line.o
                                                  obj_zoul/etimer.o
                                                  obj_zoul/ctimer.o
process_exit                                      obj_zoul/process.o
                                                  obj_zoul/resolv.o
                                                  obj_zoul/autostart.o
process_init                                      obj_zoul/process.o
                                                  obj_zoul/contiki-main.o
process_is_running                                obj_zoul/process.o
process_list                                      obj_zoul/process.o
process_nevents                                   obj_zoul/process.o
                                                  obj_zoul/lpm.o
process_poll                                      obj_zoul/process.o
                                                  obj_zoul/cc1200.o
                                                  obj_zoul/sensors.o
                                                  obj_zoul/serial-line.o
                                                  obj_zoul/etimer.o
                                                  obj_zoul/usb-arch.o
                                                  obj_zoul/cdc-acm.o
                                                  obj_zoul/usb-core.o
                                                  obj_zoul/slip.o
                                                  obj_zoul/pka.o
                                                  obj_zoul/cc2538-rf.o
                                                  obj_zoul/crypto.o
                                                  obj_zoul/rtcc.o
process_post                                      obj_zoul/process.o
                                                  obj_zoul/tcpip.o
                                                  obj_zoul/resolv.o
                                                  obj_zoul/sensors.o
                                                  obj_zoul/serial-line.o
                                                  obj_zoul/etimer.o
                                                  obj_zoul/button-sensor.o
process_post_synch                                obj_zoul/process.o
                                                  obj_zoul/tcpip.o
process_run                                       obj_zoul/process.o
                                                  obj_zoul/contiki-main.o
process_start                                     obj_zoul/process.o
                                                  obj_zoul/cc1200.o
                                                  obj_zoul/udp-socket.o
                                                  obj_zoul/tcp-socket.o
                                                  obj_zoul/simple-udp.o
                                                  obj_zoul/resolv.o
                                                  obj_zoul/serial-line.o
                                                  obj_zoul/procinit.o
                                                  obj_zoul/ctimer.o
                                                  obj_zoul/autostart.o
                                                  obj_zoul/usb-serial.o
                                                  obj_zoul/usb-core.o
                                                  obj_zoul/cc2538-rf.o
                                                  obj_zoul/rtcc.o
                                                  obj_zoul/contiki-main.o
procinit                                          obj_zoul/procinit.o
procinit_init                                     obj_zoul/procinit.o
psock_datalen                                     obj_zoul/psock.o
psock_generator_send                              obj_zoul/psock.o
psock_init                                        obj_zoul/psock.o
psock_newdata                                     obj_zoul/psock.o
psock_readbuf_len                                 obj_zoul/psock.o
psock_readto                                      obj_zoul/psock.o
psock_send                                        obj_zoul/psock.o
putchar                                           obj_zoul/dbg.o
                                                  udp-client.co
                                                  obj_zoul/rpl-dag-root.o
                                                  obj_zoul/uip-debug.o
puts                                              obj_zoul/dbg.o
                                                  udp-client.co
                                                  obj_zoul/cc1200.o
                                                  obj_zoul/rpl-dag.o
                                                  obj_zoul/contiki-main.o
pwm_disable                                       obj_zoul/pwm.o
pwm_enable                                        obj_zoul/pwm.o
pwm_set_direction                                 obj_zoul/pwm.o
pwm_start                                         obj_zoul/pwm.o
pwm_stop                                          obj_zoul/pwm.o
pwm_toggle_direction                              obj_zoul/pwm.o
queuebuf_addr                                     obj_zoul/queuebuf.o
queuebuf_attr                                     obj_zoul/queuebuf.o
                                                  obj_zoul/csma.o
queuebuf_datalen                                  obj_zoul/queuebuf.o
queuebuf_dataptr                                  obj_zoul/queuebuf.o
queuebuf_debug_print                              obj_zoul/queuebuf.o
queuebuf_free                                     obj_zoul/queuebuf.o
                                                  obj_zoul/phase.o
                                                  obj_zoul/csma.o
                                                  obj_zoul/sicslowpan.o
queuebuf_init                                     obj_zoul/queuebuf.o
                                                  obj_zoul/contiki-main.o
queuebuf_new_from_packetbuf                       obj_zoul/queuebuf.o
                                                  obj_zoul/phase.o
                                                  obj_zoul/csma.o
                                                  obj_zoul/sicslowpan.o
queuebuf_numfree                                  obj_zoul/queuebuf.o
                                                  obj_zoul/sicslowpan.o
queuebuf_to_packetbuf                             obj_zoul/queuebuf.o
                                                  obj_zoul/contikimac.o
                                                  obj_zoul/phase.o
                                                  obj_zoul/nullrdc-noframer.o
                                                  obj_zoul/nullrdc.o
                                                  obj_zoul/sicslowpan.o
queuebuf_update_attr_from_packetbuf               obj_zoul/queuebuf.o
                                                  obj_zoul/csma.o
queuebuf_update_from_packetbuf                    obj_zoul/queuebuf.o
                                                  obj_zoul/contikimac.o
random_init                                       obj_zoul/random.o
                                                  obj_zoul/contiki-main.o
random_rand                                       obj_zoul/random.o
                                                  obj_zoul/framer-802154.o
                                                  obj_zoul/csma.o
                                                  obj_zoul/rpl-timers.o
                                                  obj_zoul/resolv.o
                                                  obj_zoul/uip-ds6.o
                                                  obj_zoul/trickle-timer.o
remove_ext_hdr                                    obj_zoul/uip6.o
reset_handler                                     obj_zoul/startup-gcc.o
resolv_event_found                                obj_zoul/resolv.o
                                                  udp-client.co
resolv_get_hostname                               obj_zoul/resolv.o
resolv_lookup                                     obj_zoul/resolv.o
                                                  udp-client.co
resolv_process                                    obj_zoul/resolv.o
                                                  udp-client.co
resolv_query                                      obj_zoul/resolv.o
                                                  udp-client.co
resolv_set_hostname                               obj_zoul/resolv.o
rime_sniffer_add                                  obj_zoul/sicslowpan.o
rime_sniffer_remove                               obj_zoul/sicslowpan.o
ringbuf_elements                                  obj_zoul/ringbuf.o
ringbuf_get                                       obj_zoul/ringbuf.o
                                                  obj_zoul/serial-line.o
ringbuf_init                                      obj_zoul/ringbuf.o
                                                  obj_zoul/serial-line.o
ringbuf_put                                       obj_zoul/ringbuf.o
                                                  obj_zoul/serial-line.o
ringbuf_size                                      obj_zoul/ringbuf.o
ringbufindex_elements                             obj_zoul/ringbufindex.o
ringbufindex_empty                                obj_zoul/ringbufindex.o
ringbufindex_full                                 obj_zoul/ringbufindex.o
ringbufindex_get                                  obj_zoul/ringbufindex.o
ringbufindex_init                                 obj_zoul/ringbufindex.o
ringbufindex_peek_get                             obj_zoul/ringbufindex.o
ringbufindex_peek_put                             obj_zoul/ringbufindex.o
ringbufindex_put                                  obj_zoul/ringbufindex.o
ringbufindex_size                                 obj_zoul/ringbufindex.o
rpl_add_dag                                       obj_zoul/rpl-dag.o
rpl_add_parent                                    obj_zoul/rpl-dag.o
rpl_add_route                                     obj_zoul/rpl.o
                                                  obj_zoul/rpl-icmp6.o
rpl_alloc_dag                                     obj_zoul/rpl-dag.o
rpl_alloc_instance                                obj_zoul/rpl-dag.o
rpl_cancel_dao                                    obj_zoul/rpl-timers.o
                                                  obj_zoul/rpl.o
rpl_dag_init                                      obj_zoul/rpl-dag.o
                                                  obj_zoul/rpl.o
rpl_dag_root_init                                 obj_zoul/rpl-dag-root.o
rpl_dag_root_init_dag                             obj_zoul/rpl-dag-root.o
rpl_dag_root_init_dag_immediately                 obj_zoul/rpl-dag-root.o
rpl_dag_root_is_root                              obj_zoul/rpl-dag-root.o
rpl_find_of                                       obj_zoul/rpl-dag.o
rpl_find_parent                                   obj_zoul/rpl-dag.o
                                                  obj_zoul/rpl-icmp6.o
                                                  obj_zoul/rpl-ext-header.o
rpl_find_parent_any_dag                           obj_zoul/rpl-dag.o
                                                  obj_zoul/rpl.o
rpl_free_dag                                      obj_zoul/rpl-dag.o
                                                  obj_zoul/rpl.o
rpl_free_instance                                 obj_zoul/rpl-dag.o
rpl_get_any_dag                                   obj_zoul/rpl-dag.o
                                                  obj_zoul/rpl-timers.o
                                                  obj_zoul/rpl-dag-root.o
rpl_get_default_instance                          obj_zoul/rpl-dag.o
                                                  obj_zoul/rpl-dag-root.o
rpl_get_instance                                  obj_zoul/rpl-dag.o
                                                  obj_zoul/rpl-icmp6.o
                                                  obj_zoul/rpl-ext-header.o
rpl_get_mode                                      obj_zoul/rpl.o
                                                  obj_zoul/rpl-timers.o
                                                  obj_zoul/rpl-icmp6.o
rpl_get_nbr                                       obj_zoul/rpl-dag.o
                                                  obj_zoul/rpl-of0.o
                                                  obj_zoul/rpl-mrhof.o
rpl_get_parent                                    obj_zoul/rpl-dag.o
                                                  obj_zoul/rpl-ext-header.o
rpl_get_parent_ipaddr                             obj_zoul/rpl-dag.o
