:020000040020DA
:10200000187600208D2220008FC420008DC420006F
:102010008DC420008DC420008DC42000000000006D
:102020000000000000000000000000008DC420003F
:102030008DC42000000000008DC42000F1C42000E9
:1020400013C5200019C520001FC5200025C520008C
:1020500000000000F7C42000FDC420008DC4200053
:102060008DC42000000000000000000000000000FF
:1020700000000000000000008DC4200000000000EF
:1020800000000000000000008DC420008DC420006E
:102090008DC420008DC420008DC420008DC420007C
:1020A0008DC420008DC420008DC420008DC420006C
:1020B0008DC420008DC420008DC420008DC420005C
:1020C0008DC420008DC420008DC420008DC420004C
:1020D0008DC420000000000000000000000000008F
:1020E00000000000000000000000000000000000F0
:1020F00000000000000000009D352000AD352000EC
:1021000000000000000000000000000000000000CF
:1021100000000000000000000000000000000000BF
:1021200000000000000000000000000000000000AF
:10213000000000000000000000000000000000009F
:10214000000000000000000000000000000000008F
:10215000000000000000000000000000000000007F
:10216000000000000000000000000000000000006F
:10217000000000000000000000000000000000005F
:10218000000000000000000000000000000000004F
:10219000000000000000000000000000000000003F
:1021A000000000000000000000000000000000002F
:1021B000000000000000000000000000000000001F
:1021C000000000000000000000000000000000000F
:1021D00000000000000000000000000000000000FF
:1021E00000000000000000000000000000000000EF
:1021F00000000000000000000000000000000000DF
:1022000000000000000000000000000000000000CE
:1022100000000000000000000000000000000000BE
:1022200000000000000000000000000000000000AE
:10223000000000000000000000000000000000009E
:10224000000000000000000000000000000000008E
:10225000000000000000000000000000000000007E
:10226000000000000000000000000000000000006E
:102270008DC4200091342000A9342000852D200039
:102280000D372000A92820008DC4200008B5094B77
:10229000FF221A600848094A4824E3690849121ACB
:1022A00098470848084AA3690021121A984700F085
:1022B0000DF8FEE7B4200D404040002014420020FD
:1022C000E0DD200018420020186E0020F7B500F075
:1022D00045FC00F0E9FC00F083FC00F043FA01F05B
:1022E00003FA0AF0D1F900F0D7FC00F0C7F820207B
:1022F0000AF0D0F801F0F4FF00F01CFC002000F020
:102300002DFB012000F02AFB4849002000F0FCFBD7
:1023100002F054F90AF0F5F808200AF0BBF8444836
:102320000AF024F943480AF021F9002002F068F984
:1023300001F0CEF84048002102F078F801F028FEC4
:102340000AF0D4F800F040FD00F05CFD08F006F95A
:102350006846082101F0ECF99DF807309DF80670F9
:10236000364C43EA07276B4603CB20606160344854
:1023700001F018FA0025615D3248013501F012FACA
:10238000072D2E4EF7D1304DF179304801F00AFA81
:10239000EC6A4AF6CD310220A04739460320A04717
:1023A0001A210120A047694608226B6B0B20984731
:1023B000274801F0F7F9274B18680AF0D7F82648A4
:1023C00001F0F0F9254B18680AF0D0F8244801F024
:1023D000E9F9244B18680AF0C9F8234A33681360F6
:1023E0007368536008F008FA2048002102F01EF8D4
:1023F0001F48002102F01AF81E4B01219B68812022
:1024000098470AF017F91C480AF00AF900F098FBFF
:1024100010200AF03FF800F099FB01F079FF10F06E
:10242000FF0FF8D101F0F8F8F5E700BF794520007B
:1024300020DB20003ADB200078400020106E0020D6
:1024400054DB200072DB2000C4D8200078DB2000A1
:102450007EDB20008CD9200085DB200098D920006D
:102460008CDB2000C0D92000A46200204441002061
:10247000984000205CD82000F0D9200008B500F07A
:1024800019F8024B00221A7008BD00BF8E5A0020B6
:10249000024A13781843107000F014B88E5A0020C6
:1024A000034A137823EA0000107000F00BB800BF55
:1024B0008E5A0020024A136843F0380313607047B5
:1024C00000C40D40014B1860704700BFE0C00D40D4
:1024D00008B50B4B1B78184203D0202804D00428E1
:1024E00004D04FF0004008BD052000E00220054B5D
:1024F00080211A7800F002FC20EAE07000B208BDEA
:10250000905A00208F5A0020802810B50C4603D026
:10251000B0F5807F23D02FE08B1E222B2CD8C9430F
:10252000174B1A680A401A60164A13680B4013606A
:10253000A20604D500200521012200F0C3FB630799
:1025400004D500200221012200F0BCFB00F0CEFBEC
:102550000D4B30221A700D4B00201C7010BDC8B2FC
:10256000102806D001D820B106E0202801D030285C
:1025700002D1054B187010BD4FF0004010BD00BFD8
:1025800020940D4000940D408F5A0020905A002056
:1025900020B1012805D1044B18787047034B186807
:1025A00070470020704700BF915A002020900D40D6
:1025B00010B5094A0020137801331370074B1978BE
:1025C00001F008FFBDE81040054B06481968064AAF
:1025D000002301F013BD00BF915A0020066E0020B9
:1025E0005042002028420020B1252000812810B54B
:1025F0000C462AD0B0F5807F39D0802839D101F03F
:1026000061FE1D4B1D4A18701368002023F008035B
:10261000136052F8203C032123F0080342F8203CC9
:1026200052F81C3C23F0080342F81C3C52F8183CBA
:1026300043F0080342F8183C042200F043FB104822
:102640000021032200F0E0FA13E00E4B1A6831B1CA
:1026500042F008021A60002000F09EFA05E022F025
:1026600008021A60084600F0A3FA204610BD064B87
:102670001960012010BD00BF066E002020940D409F
:102680008D26200010940D405042002008B50F48C0
:102690000AF015F8C0B108210C4809F0FEFF0C4BF8
:1026A000196861B10B4B00221A700B4B0B481B6869
:1026B0001BB90B4A01F0A2FC01E001F0C5FCBDE82A
:1026C0000840084802F042B808BD00BF4842002058
:1026D00050420020915A002020900D4028420020B6
:1026E000B12520005CD82000084A136823F00403B9
:1026F000136052F8203C43F0040342F8203C044BA2
:1027000000221A60034B01221A70704720C40D404A
:1027100010C00D40925A0020F8B500F083F80F4B1E
:102720000024D3E900673A46B04238BF7A1C154608
:102730000443C3E90045DFF828E0DEE90001821B1D
:1027400061EB070312196B41CEE9002301F024FD70
:1027500018B1BDE8F84001F0AFBCF8BD1842002048
:10276000204200200F4B104A1A6053F8042C42F00C
:10277000050243F8042C53F8042C42F0020243F8FB
:10278000042C0A4A136843F001031360084B00222B
:102790001A60042243F80C2C012243F8082C0F2263
:1027A000DA62704714E000E047E8010008200D40BD
:1027B0000C000340034BD3E90023100A40EA0360F6
:1027C000704700BF18420020034BD3E90023D00B11
:1027D00040EA4340704700BF20420020054B18608C
:1027E0001C3B1A6842F001021A601A68D207FCD436
:1027F000704700BF2800034010B5064C236823F043
:1028000001032360FFF788FF236843F0010323607F
:1028100010BD00BF10E000E0014B1868704700BF1A
:1028200054420020074B084A196804331B68126899
:10283000120442EA0323054A0B43106843EA00608E
:10284000704700BF40500D4048500D404C500D4067
:1028500010B50446114B1B68DB07FBD509F055FE8C
:10286000FFF7E0FF231A062BD8BFC41D0C4B220E26
:102870001A60C4F3074243F8042CC4F3072243F858
:10288000082CE2B243F80C2C09F03BFE054B9120DA
:102890001C60BDE8104000F07FB900BF50500D40F3
:1028A0004C500D405442002008B500F09BFE064BF2
:1028B000002291201A6000F087F9912000F078F949
:1028C000BDE8084001F0E8BD544200200023084A5A
:1028D0001068084A9958084205D01A44D26890698D
:1028E00010F0800003D02C33582BF0D1012070471A
:1028F00028200D406CD82000164A38B52C2303FB45
:1029000000234FF6BF72DC680546236C62649BB2FD
:1029100013F050020DD0A369DB0609D40E4B53F817
:1029200025301BB12068C0B29847F4E72368F2E76E
:1029300038BD13F4D06F0BD04FF440732363FF23E3
:102940006360E36AE262E362236B43F001032363A3
:1029500038BD00BF6CD82000584200202DE9F04F50
:10296000012885B0064600F2BF802C244443604B0A
:102970001D1995F920A005F12007BAF1000F99461D
:10298000C0F2B28095F92230002BC0F2AD805948D8
:1029900000F09AFE584A59F804301168EC680B436D
:1029A000136051686B6895F921B00B4353609168CF
:1029B000AB6895F822800B4393600023C4F8C83FAE
:1029C0002B690BEBCA021A6095F823305FFA88FC7A
:1029D00001939DF80430604619462A7DCDF80CC05D
:1029E000029300F079F9029BDDF80CC019466046AD
:1029F000082200F067F94FFA88F840494FEA083892
:102A00009DF9042058F80100012303FA02F2024361
:102A100048F801204FEA0A3A5AF8010003FA0BF28B
:102A200002434AF801205022A263A26B95F82400C9
:102A300042F4D062A263022262634FF440722263C6
:102A4000AA696262EA69A2627022E26242B2002A64
:102A50000C4614DB95F92510294D41EAC201296085
:102A60007979120315594FB2BB402B431351002201
:102A700000F028F9234A136843F4004313602C2321
:102A800003FB069393F8265020336FB2002F1CDB14
:102A900093F807A0EDB25FFA8AF828464146012272
:102AA0003F0300F019F94FFA8AFA3A59012303FA61
:102AB0000AF313433B5108222846414600F002F92D
:102AC000104A136843F4804313602C2303FB0696DB
:102AD000F26896F82800136B43F00103136305B006
:102AE000BDE8F04F00F058B805B0BDE8F08F00BF6A
:102AF0006CD82000CD28200028200D4020940D40C7
:102B000004410D4030D0004001289CBF014B43F8E8
:102B10002010704758420020012808D8044B2C226E
:102B200002FB0030C3689A699206FCD419607047B2
:102B30006CD82000014B00221A60704700500D40F5
:102B4000014B08221A60704700500D40024BA02232
:102B50001A6050221A60704700500D40074A084B17
:102B60001A60084B80321A60074B80321A60074B9C
:102B700080321A60064B074A1A60704700E100E095
:102B80006C42002060420020644200206842002025
:102B900008ED00E000202000044B41091A6800F015
:102BA0001F000123834042F8213070476C4200200F
:102BB000044B41091A6800F01F000123834042F8CA
:102BC0002130704760420020044B41091A6800F030
:102BD0001F000123834042F82130704768420020E3
:102BE000054A064B1A60064B1A68064B1340B3F1B0
:102BF000807FF8D1704700BF0101020100200D4025
:102C000004200D4000000101024B02EBC10243F819
:102C10002200704770420020F8B507460E46094D65
:102C2000002405EB411547FA04F3DB07E1B204D5B4
:102C300055F824300BB1304698470134082CF2D1B6
:102C4000F8BD00BF704200202DE9F04780464FEAF2
:102C50000837DFF8409007F1804505F5592500F069
:102C6000C1FCD5F8186457F809404FEAC80A24FA9D
:102C70000AF446EA0400E4B2C0B24146F6B204FAED
:102C80000AF4FFF7C9FFC5F81C6447F80940BDE81E
:102C9000F08700BF18970D4002480021802209F0FC
:102CA00071B900BF70420020034A044B1A60044B04
:102CB000803A1A60704700BF80400D40F442002007
:102CC000F0420020034B01EBC0011B6843F82120B8
:102CD000704700BFF4420020034B01EBC0011B68AA
:102CE00043F82120704700BFF0420020024A1368D9
:102CF00043F030031360704700700D400E2870B52C
:102D00000BD1164B164E1C6844F002051D60356849
:102D100025F03F0343F001033360124E336823F084
:102D2000FF031A431143014331600F4B1B681B061D
:102D3000FBD50E4B0E4A1B6812680E2803F0FC03ED
:102D400043EA022308BF064A9BB204BF1560034A48
:102D50009BB208BF146018B270BD00BF34000144BC
:102D6000F486084008700D4000700D400C700D4056
:102D700010700D40024B1868B0FA80F0400970479F
:102D800000B7084010B58F20064CFFF71DFF8F20BD
:102D9000FFF70EFF206818B101F060FB00232360ED
:102DA00010BD00BFF8420020064A136843F002033A
:102DB0001360536843F002035360936843F00203C7
:102DC0009360704748200D4007B50C4800F07CFC2C
:102DD000FFF7EAFF0A4B1A6842F002021A6000226B
:102DE0000192019A0F2A02DC019A0132F8E71A686F
:102DF00022F002021A6003B05DF804FB752D20007A
:102E000054200D40064A136823F0020313605368F0
:102E100023F002035360936823F00203936070472A
:102E200048200D40084B93F90020002A09DB074A8F
:102E3000ED2111601160E32111601A7862F07F02C8
:102E40001A700120704700BF935A0020388808404C
:102E5000094B1B689B07FBD4084BED221A601A60D4
:102E6000074A12680AB1EF221A60064A0120137855
:102E700003F07F03137070474C8608403888084081
:102E80002C860840935A002038B5A0F10B04E3B219
:102E90000F2B054613D80B4B1B6813F03F0302D0D2
:102EA000FFF7D6FF012304EB8404074A0B341460B8
:102EB0000BB1FFF7B7FF054BE8B21D7000E0FF2034
:102EC00040B238BD488608403C8608401242002087
:102ED00010B50B4B1B68990603D1FFF7A3FF012325
:102EE00000E00023074A1268D207FBD5064A14689F
:102EF000C4F300140BB1FFF7ABFF204610BD00BFB9
:102F000048860840648608404C860840044B186890
:102F100000F02200A0F1200358425841704700BF42
:102F20004C860840024B186800F04000704700BF14
:102F30004C86084038B50C4600296ED010286ED853
:102F4000DFE800F0090F1A1C236D3344496D6D6DE5
:102F50006D6062646900334B1B68003318BF012346
:102F600056E0314B05221B6803F07F030B3B93FBBC
:102F7000F2F30B33DBB24BE02C4B00E02C4B1A6826
:102F8000043B1B6843EA022342E02A4B002008600E
:102F90001A68243302F001020A601B6813F0200350
:102FA00037D042F002020A6038BD234B1A68002372
:102FB000D2B2224901EBC3000079904202D851F805
:102FC000333025E001330E2BF3D11FE01C4B1B687F
:102FD0005BB2493B1CE01B4B1B68990603D1FFF712
:102FE00021FF012300E00023174A1268D207FBD516
:102FF000164A1568493DEDB20BB1FFF729FF6DB2D6
:10300000256006E00B2303E01A2301E06FF01703AD
:103010002360002038BD0723FAE7022038BD0120D5
:1030200038BD00BF2C8608403C860840CC8508404F
:10303000D48508400086084040860840FCD820001F
:1030400058860840488608406486084060860840E4
:1030500038B505460C46134B1B689B07FBD4124B37
:1030600093F90030002B01DBFFF7DCFE0F4BEE2263
:103070001A60691E1A60A21C43F8102C2144022019
:1030800000F03EFA013C0A4924012143022000F0ED
:1030900049FA022000F050FA022000F065FA002000
:1030A00038BD00BF4C860840935A0020388808403D
:1030B00002C001C0F8B51F4B93F90030002B0DDBA7
:1030C000FFF7B0FB0446FFF7ADFEFFF7ABFB6FF079
:1030D00009031B1BC342F8D4012600E00026FFF7BA
:1030E000F7FE18B3144C236899061FD4134DE92337
:1030F0002B60042723689A0707D4013F17F0FF07C6
:1031000003D00620FFF76AFBF4E723689B0704D48B
:10311000EE232B6001242B6004E0206810F00200F5
:10312000FBD1044626B1FFF793FE01E00220F8BD73
:103130002046F8BD935A00204C8608403888084045
:10314000044B1A6810B142F0010201E022F00102C2
:103150001A6070470086084038B50C46072855D8D5
:10316000DFE800F0040F1B1F26543B4F012903D159
:10317000FFF758FE002038BD002949D1FFF768FE4F
:10318000F8E7A1F10B030F2B42D8C8B2FFF77CFE82
:10319000431C0CBF0320002038BD8CB2E2B21D4B93
:1031A00002E08CB21C4BE2B2240A1A605C60E1E7D8
:1031B00031F003052CD101F00100FFF7C1FF174BDF
:1031C00014F002001A681BBF284642F0200222F0C9
:1031D00020021A6008BF1A6038BD01F118031F2BC6
:1031E00016D80D230E49DA0051F83300844204DC6E
:1031F0008B181A790B4B1A60BCE713F1FF33F1D22D
:10320000B8E7CCB2084B49341C60B3E7012038BDA5
:10321000022038BDC8850840D08508402486084073
:10322000FCD8200040860840588608400B280DD165
:10323000082A0DD161B1074B013953F8042D01F86B
:10324000012F054A9342F8D10020704701207047B2
:1032500002207047C8850840A88508400B280DD17A
:10326000082A0DD161B1074B083111F8012D43F83F
:10327000042F054A9342F8D100207047012070477F
:1032800002207047A4850840C485084070B52B4EC5
:10329000336813F0400308D0294D2B68DCB21B06BD
:1032A00005D5284BED221A601A60002070BD042C51
:1032B000F7D9023C8C42F4DCE4B2032C1BD0011998
:1032C0000139032000F024F9631E1F491B0103206C
:1032D000194300F027F9032000F02EF9032000F035
:1032E00043F9032000F04CF90028FAD129682D6831
:1032F0002806D6D506E02B6803702B6843702B6830
:103300008370F3E7493949B289B2042007F04AFAD9
:10331000032005F07F0107F045FA33685A060BD504
:10332000064B1B681B0603D5084801F097F803E01D
:10333000044BED221A601A60204670BD4C8608408E
:10334000288808403888084002C0010C50400020FE
:10335000F8B52B4E357815F001054ED1294B0124D7
:103360001C605C609C60A3F59323A3F51473F822A2
:103370001A600922C3F89021152270331A6003F5F0
:103380009B230B2203F59E731A60A3F59B23A3F5E1
:10339000F07340221A601A687F2742F020021A60F8
:1033A000D52243F81C5CDF62DA61174B1878FFF70F
:1033B0006BFD164A8D20136843F004031360FFF77A
:1033C000EBFB134B8E201F60FFF7E6FB022000F0A3
:1033D000BFF81049022000F09BF8032000F0B8F875
:1033E00003200C4900F08CF80B48294601F01EF828
:1033F0003378204623433370F8BD0020F8BD00BF6A
:10340000935A0020A8200D40124200208C860840CC
:1034100094860840288808405040002038B503882A
:103420000446E3B140F2B932934203D00023038053
:10343000032038BD822915D107F052F907F0EEF8C4
:103440008021FFF723FF002805DD80B207F0E0F8B8
:103450000C4B1B6998470C4B1A78520604D440F267
:10346000B9332380012038BD00221A70074B1D6834
:10347000FFF7EEFCFFF76CFFAB06F0D0FFF7D2FCD6
:10348000EDE700BFC0D92000935A002048860840CD
:1034900008B5034800F0E2FF024B00221A6008BDA5
:1034A0005040002034880840064B07481A68042A18
:1034B0001FBF06490A7842F040020A7000221A60D3
:1034C00000F0CCBF2C88084050400020935A0020C8
:1034D00010B5094C00212046402208F053FD074B4F
:1034E00001221A602E205C60FFF756FBBDE81040F9
:1034F0002F20FFF751BB00BF0040002004F00F4019
:1035000003289EBF014B0001195070470040002066
:1035100003289EBF024B03EB00104160704700BFC1
:103520000040002003289EBF024B03EB0010816087
:10353000704700BF0040002003289FBF03490123BC
:103540000A6883409CBF13430B60704728F00F400C
:1035500003289FBF034901230A6883409CBF13438C
:103560000B60704720F00F4003289FBF03490123E1
:103570000A6883409CBF13430B60704714F00F40F0
:1035800003289FBF044B03EB0010806800F0070086
:1035900088BF0020704700BF00400020024B4FF062
:1035A000FF321A60704700BF04F50F40014B012243
:1035B0001A6070474CF00F40094B1A6812F4801FD4
:1035C0001A46F9D1043B196821F480311960116859
:1035D000C903FCD41A6842F400321A60704700BF75
:1035E00004200D4010B50A4B1A681C4612F0030F58
:1035F0000CD0084B1A685101FBD41A685201FCD553
:10360000FFF7FAF8FFF7D8FF0023236010BD00BFD3
:1036100058200D4004200D4038B5254B1C6814F08F
:103620003F0413D1234B53F8243023B1984768B19A
:103630000134052CF6D1204D2B783BB1FFF7ECF887
:103640000446FFF7EFF8201A092801D830BF38BD2B
:10365000002CFBD0194B1A6822F400321A60184A69
:103660001168C902FBD4196841F4803119601368EC
:10367000DB03FCD5FFF7D6F8201A092803D8BDE8EC
:103680003840FFF799BF63280E4C02D92B78022BE4
:1036900000D00123236000F093FE20B1FFF78CFFE0
:1036A0000023236038BDFFF7B7F80028CED1F5E737
:1036B00048860840FC420020945A002000200D401B
:1036C00004200D4058200D400023064A52F82310D4
:1036D000814206D011B942F8230070470133052B0F
:1036E000F3D17047FC420020054B00221A60054AC6
:1036F000136843F004031360034B02221A707047EF
:1037000058200D4010ED00E0945A002010B5902094
:10371000064CFFF759FA9020FFF74AFA206818B1D3
:1037200000F09CFE0023236010BD00BF104300206A
:1037300030B5184B1A78431E3AB9174A1278122A34
:1037400003D1164A12784B2A03D001F520112731F4
:1037500017E04A0802F12814B4F1281F04D014F825
:10376000015D03F8015FF7E701F520112731002320
:10377000934205DA11F801598418E5540133F7E74B
:1037800030BD074A914204D011F8012903F8012FF6
:10379000F7E730BD2B0028002A0028002900280068
:1037A000270028000FB407B504AA52F8041B0448E8
:1037B000019200F039F803B05DF804EB04B07047F3
:1037C000604000200EB43FB5094B07AA52F8041B15
:1037D0000190049304A801AB0392059300F024F830
:1037E000019B00221A7006B05DF804EB03B070472D
:1037F0000BC6200070B505460C46102C07D92B6867
:10380000686808491022984750B9103CF5E734B170
:103810002B6868682246BDE8704002491847204678
:1038200070BD00BF1EDC20002DE9F04F80468FB038
:10383000069107920026069B1B78002B00F05F8301
:10384000069B1C4613F8012B1AB9069B9C4203D118
:103850000FE0252AF5D1F8E7069BD8F80400E51A11
:103860000699D8F800302A469847002840F02A8365
:103870002E442378002B00F042836378611C002BD8
:1038800000F03D8300240A4611F8013B2B2B11D098
:1038900006D8202B11D0232B12D144F00804F2E7D4
:1038A0002D2B04D0302B0BD144F01004EBE744F067
:1038B0000104E8E744F00604E5E744F00204E2E727
:1038C000A3F1310108290DD8134600251A4613F833
:1038D000011BA1F13000092811D80A2202FB0515AD
:1038E000303DF3E72A2B09D1079B01321D68191DD2
:1038F000002D0791B8BF44F0010400E000251378C3
:103900002E2B1CD15178531CA1F1300009280ED860
:10391000194600270A780B46A2F13000092801F168
:1039200001010FD80A2303FB0727303FF2E72A29BA
:1039300006D1931C079A111D0791176802E01346E0
:103940004FF0FF371A786C2A09D15A786C2A02D1C5
:1039500044F080040AE0013344F060040BE0682A7C
:1039600009D15A78682A03D144F02004023302E0D6
:10397000013344F040041A78642A3CD01FD8462A08
:1039800048D00DD8252A5AD003D8002A00F0B78293
:1039900057E0412A4AD0452A53D144F4424450E0EA
:1039A000582A31D004D8472A4BD144F4A13448E0F6
:1039B000612A38D0632A44D144F4A06441E06E2ADD
:1039C0003AD007D8662A22D027D3672A28D0692A76
:1039D00011D036E0732A2CD006D86F2A11D0702A65
:1039E0002FD144F440742CE0752A07D0782A28D1CE
:1039F00044F4C85425E044F4245422E044F4106410
:103A00001FE044F488541CE044F4B24419E044F448
:103A1000007416E044F4844413E044F4024410E0DB
:103A200044F481340DE044F4C1340AE044F4E13458
:103A300007E044F4806404E044F4E06401E044F40A
:103A4000C0640133069304F4E063B3F5806F00F0C3
:103A5000AA8116D8B3F5807F2BD0B3F5407F7FF4D1
:103A6000EAAE079BA04914F4804F03F104029F487B
:103A700018BF08460DF1330107920F461A6800235C
:103A8000C5E1B3F5C06F08D0B3F5E06F00F0318247
:103A9000B3F5A06F7FF4CFAE00E2D8F80030D8F8CD
:103AA0000400934901229847002840F00B82013618
:103AB000C1E6002FACBF24F01004012714F400531A
:103AC000039304F0E00337D0402B17D008D8DBB1C4
:103AD000202B2AD1079B1A1D079293F9002017E08B
:103AE000602B11D0802B20D1079B073323F00703D5
:103AF00003F108020792D3E900230AE0079B1A1D8D
:103B00000792B3F9002003E0079B1A1D07921A6879
:103B1000D317002A73F1000109DA524263EB430321
:103B2000CDE900234FF0010933E000220023CDE965
:103B300000234FF000092CE0402B16D007D8CBB162
:103B4000202B20D1079B1A1D07921A78EEE7602BD5
:103B500010D0802B17D1079B073323F0070303F105
:103B600008020792D3E90023E1E7079B1A1D079299
:103B70001A88DBE7079B00211A1D07921B6818466D
:103B8000CDE90001D5E700220023CDE900234FF065
:103B9000000904F4C053B3F5805F0CD0B3F5C05FE7
:103BA00033D0B3F5006F4FD1DDE900230DF1360AB4
:103BB000CDE9042304E0DDE900230DF1360A15E028
:103BC000DDE9042313433AD0DDE904010A2200238E
:103BD00007F0F4FDDDE9040130320AF8012D00237D
:103BE0000A2207F0EBFDCDE90401E9E752EA0301FF
:103BF00025D002F0070130310AF8011DD10841EA51
:103C00004371D8080A460346F0E7384B14F4804F56
:103C10000DF1360A344908BF1946DDE9002352EA9E
:103C200003000CD002F00F00085C4FEA131E0AF8E4
:103C3000010D100940EA037002467346EFE70DF1EB
:103C4000360BCAEB0B0B03E00DF1360A4FF0000BFD
:103C500041F6080241F208035F4502EA04028CBF04
:103C6000CBEB070700279A4202D1002F08BF01279C
:103C700041F608018A4207EB0B030DD1DDE9000193
:103C800050EA010208D01B4914F4804F1A4A4FF041
:103C9000020C18BF0A4602E04FF0000C624603997E
:103CA000A1B1B9F1000F0AD104F0060102290AD02E
:103CB0000629124904BF4FF0010C0A4606E04FF0F6
:103CC000010C0F4A02E00F4A4FF0010C63449D4281
:103CD0008CBFED1A002514F0010922D1E30613D59B
:103CE0002F444D461DE000BFE9DB2000FADB200039
:103CF0001CDC20000EDC20000BDC200013DC20008C
:103D000011DC20008ADB200040462946CDF80CC09B
:103D10000092FFF76FFD009ADDF80CC0002840F01C
:103D2000D180BCF1000F0DD01146D8F800306246AA
:103D3000D8F80400CDF800C09847DDF800C000288E
:103D400040F0C0803C465E44102CD8F800300DD9BD
:103D5000D8F804006C491022CDF800C0984700281C
:103D600040F0B080103CDDF800C0EDE75CB1D8F861
:103D7000040065492246CDF800C09847DDF800C030
:103D8000002840F09F80D8F80030D8F80400514651
:103D90005A4666449847002840F094803E44B9F162
:103DA000000F79D073E0079BD3F800A01A1D07928B
:103DB000BAF1000F09D05346994699F80020013313
:103DC000002AF9D1CAEB090903E0DFF840A14FF05E
:103DD0000609002F02DBB94528BFB9464D458CBF07
:103DE000C9EB0505002514F0010405D1404629461C
:103DF000FFF700FD002865D1D8F80030D8F804009E
:103E000051464A46984700285CD14E443EE052EA6B
:103E1000030E0ED002F00F0E10F80EE04FEA131C46
:103E200001F801ED4FEA121E4EEA037E7246634628
:103E3000EDE70B467F1A01BF3022012701F1FF3366
:103E400001F8012C03377822BD4203F8012C4FF012
:103E5000300203F8022C88BFED1B4FF0230298BFFD
:103E6000002514F00104A3F1030903F8032C04D185
:103E700040462946FFF7BEFC20BBD8F80030D8F8F2
:103E8000040049463A469847E0B93E4424B14046CA
:103E90002946FFF7AFFCA8B92E44CCE4079B012DBF
:103EA00003F104021B688CBF05F1FF35002514F0F7
:103EB000010407928DF8203008D140462946FFF7CB
:103EC00099FC10B14FF0FF301AE02E44D8F80030C2
:103ED000D8F8040008A9012298470028F2D16F1CE5
:103EE0002CB140462946FFF785FC0028EAD13E4424
:103EF000A1E4079B1A1D1B6807921E609BE43046D5
:103F00000FB0BDE8F08F00BFD9DB200015DC20002A
:103F1000F8B50388064615462BB14A2B15D0002369
:103F200003800320F8BD174808F0DAFB04462CB1E3
:103F3000201DA16808F07FFB2468F8E7124B0122DE
:103F40001A704A2333800120F8BD8829FBD10D481F
:103F500008F0C6FB0446002CF3D0231D9D420ED171
:103F60000848214608F0C6FB084B62691F681A60C2
:103F7000A2691D460AB1E06990472F60E1E7246815
:103F8000E9E700BF14430020955A00202843002091
:103F900010B5064B002406481C7008F09EFB214615
:103FA000BDE81040034800F041BA00BF955A002018
:103FB000144300206840002070B50446E3610B4BB9
:103FC000049D1B786561A26143B1094D094B2E68C0
:103FD000201D2B6008F02FFB2E6000E0A160214621
:103FE000BDE87040044808F099BB00BF955A002016
:103FF00028430020684000201443002013B5034CE0
:1040000024680094FFF7D8FF02B010BD28430020B9
:1040100070B5094B05461B783BB1084C084B266828
:104020000430236008F010FB26602946BDE870408C
:10403000044808F073BB00BF955A002028430020B5
:10404000684000201443002010B5084B04461B783C
:104050001BB1043000F0A8F801E0C3600361214601
:10406000BDE81040024808F045BB00BF955A00204B
:104070001443002010B50E4C236813B90D4A136089
:1040800010BDFEF797FB216891E80C001A44131A43
:104090008A6842B192E812002144091A8B4228BF73
:1040A0000B469268F5E71844024B186010BD00BF3C
:1040B000184300201C430020014800F0CFB900BF86
:1040C00078400020F8B5038805462BB1592B09D05C
:1040D000002303800320F8BD1E4A136059232B8060
:1040E0000120F8BD872920D08229F7D1194F002659
:1040F0003C68002CF2D0204608F0E1FA90B1E0686C
:104100008821224600F066F950B9E060A3680EB13C
:10411000B36000E03B600023A360FFF7ABFFE5E77F
:10412000FFF7CAFF2646A468E3E70A490B680BB904
:104130000B60D3E7D868904201D19B68F7E70B602A
:1041400099680029CAD0C86890420ABF89680B469E
:104150009960F5E71843002010B50446FFF7ACFF5F
:10416000E3680B4A4BB113683BB1A34203D1094A40
:104170001268DA6007E09B68F6E7064B1B68E360AD
:1041800013681460A360BDE81040FFF773BF00BF61
:104190001843002028430020024B1868003018BF45
:1041A000012070471843002010B50B4A04461368DD
:1041B000984206D18368136008E09A68A24203D04F
:1041C0001346002BF9D103E0A2689A60FFF752FF73
:1041D0000023A360E36010BD1843002038B5836856
:1041E00004460D469BB10A4804600220A07304F106
:1041F0000C0098470238012801D9832D05D12046AB
:104200002146BDE8384000F005B80123A37338BD4E
:10421000284300202DE9F8431C4A044615688946C6
:104220002B4690461A4E3768A34204D00BB11B6848
:10423000FAE7BDE8F88334B3A37BABB10023A373E3
:1042400045B1AC4204D028468721224608F016FA30
:104250002D68F5E7A3683BB14C4505D0346004F107
:104260000C0083212A469847D8F800309C4203D19D
:104270002268064B05E0134623B11A68A242FAD120
:1042800022681A603760BDE8F88300BF3043002021
:104290002843002010B5094B00221A70084B1C68F7
:1042A0005CB1E37B3BB101230022A373E2732046A0
:1042B0008221FFF793FF2468F2E710BD985A00208F
:1042C00030430020024B1878421C1A70704700BF20
:1042D0009B5A0020014B1968FFF79CBF2843002020
:1042E000064B8A221A70064A00231370054A13707F
:1042F000054A1360054A1360704700BF9B5A0020AF
:10430000965A0020975A002030430020284300206E
:104310002DE9F041214E33780BB1FFF7BBFF204D63
:104320002C78002C34D0DFF88CE00C229EF8003082
:104330001C495A4388181C4F895CDFF87C8042680E
:10434000DFF878C08068013303F01F03013C397047
:10435000C8F80020CCF800008EF800302C7088B926
:10436000124C134B1B68236023688BB133780BB15D
:10437000FFF790FF20683978D8F8002008F07EF920
:104380002368EFE7812904BF0123837308F076F9DE
:10439000337828781844BDE8F08100BF985A00208F
:1043A000975A0020344300209A5A002024430020CA
:1043B00030430020965A00202C4300202043002048
:1043C000024A034B10781B7818447047975A002014
:1043D000985A0020F0B50C4E3478202C11D00B4B9D
:1043E0000B4D1B780B4F234403F01F032B700C2540
:1043F0006B430134FD18A860F9546A6034700020E2
:10440000F0BD0120F0BD00BF975A0020965A002051
:10441000995A00203443002038B5034C256808F031
:104420002DF9256038BD00BF2843002010B50A468D
:1044300009490C68234683420DD00BB11B68FAE78B
:1044400048B1046008600121817383818121BDE846
:104450001040FFF7E1BF10BD3043002038B1837B2F
:10446000013B012B9FBF024A0123C37313707047A6
:10447000985A0020024610B5064853600468029B13
:1044800011609360026014B90846FEF7E1F900205C
:1044900010BD00BFB444002010B5084C206858B1CE
:1044A00000232360816843689847236823B1BDE8EF
:1044B00010401868FEF7CCB910BD00BFB44400200E
:1044C00010B50446FEF780F994E80C001344C01AB6
:1044D000024B98428CBF0020012010BDFEFFFF7FE1
:1044E00038B505880446672D09D0792D2ED0002DCA
:1044F00032D1FFF7E7FE1B4B18701B4B1D601B48AA
:1045000008F09FF9431C01D167231DE00A28164BD0
:1045100007D01A687E2AF2DC511C1960144B98549B
:10452000EDE7196800254A1C1A60114A0D4B5554D5
:1045300028461978FFF74EFF0E4B852118682A464A
:10454000FFF748FF20B97923238009E0852907D1A7
:10455000054B00221A60D2E700230380032038BDF8
:10456000012038BD0B6E0020C0440020B84400205C
:104570001D5B0020284300200D2810B5014615D0F2
:104580000B4C23782BB90B4808F047F948B90123A5
:1045900006E00A2805D1074808F03FF908B10023D2
:1045A00023700548FFF75AFF012010BD002010BD01
:1045B0009C5A0020B84400208840002008B50548D7
:1045C0000549802208F022F9BDE80840034800218F
:1045D000FFF72CBFB84400209D5A002088400020DF
:1045E000054A136843F004031360044B1B68906989
:1045F00043EA002080B2704700700D4014700D40F7
:10460000174A136823F00C031360164B01221A603B
:104610001A68012AFCD1144B08221A60E322C3F85D
:10462000142203F505731946104B1B68DB07FBD5F5
:10463000102000230E4A0138126802F0010243EAFA
:1046400002034FEA43039BB2F4D1002BF0D0094A96
:10465000180A03F0FE0310601360EF230B6070472D
:1046600000700D40A8200D40248608406486084054
:104670009C86084014700D4070B505880446772D5F
:1046800030D07E2D3FD0002D4DD1FFF71BFE294BA2
:104690001870294B1D601D462B68284A264E52F87B
:1046A00023204AB126480021C154936880209847AE
:1046B000336801333360EFE7224A1370772320E039
:1046C0001F4AD256002A12DB1B4A136801331360BB
:1046D000194B1C4A1B6812789342F1DB1A4B1B687A
:1046E000002BEBD0184A00231360134AEFE7114A5E
:1046F00000201178114A52F82320FFF76BFE30B9E1
:104700007E23238013E00B4B1B788B420FD10A4B87
:104710000B491A688B5C03F07F038B540A4A1368B9
:1047200001331360D0E700230380032070BD012014
:1047300070BD00BF0C6E0020C4440020404000202B
:10474000076E00209D5B0020C8440020094B1A78AA
:104750000023934204DA084951F82310814207D11B
:1047600006490748CA5C62F07F02CA54FFF776BE6A
:104770000133EEE79D5B002040400020076E0020E3
:10478000984000200C4AB82303FB0022002330B5D8
:1047900053821A46094CE1188D782DB11C5D844274
:1047A00002BF00248C70013240F24C5171338B42B5
:1047B000F0D1104630BD00BFE8440020A95B0020C6
:1047C00008B5064804F06EF8054B01221A70FD2169
:1047D00000225A709970DA7008BD00BF294A200083
:1047E0009F5B002010B50F4C0220A17905F0DAFF85
:1047F000A379112B01D0062B05D1238D618D994210
:10480000A8BF194608E03A2B05BF94F8281094F881
:104810002930002143EA01210120BDE8104005F0C4
:10482000C1BF00BFAC62002010B513780446087AFF
:1048300083F0020398421DD1487A5378984219D1E7
:10484000887A9378984215D1C87AD378984211D152
:10485000087B137998420DD1487B5379984209D14E
:10486000887B9379984205D1C87BD379984201D14E
:1048700003201BE00B890F4A6BB94B89B3F57F4FBF
:1048800009D18B89FE2B06D11368C989022023F830
:10489000021B13600AE0136851F8080F083343F84D
:1048A000080C486843F8040C13600120A040C0B213
:1048B00010BD00BFD444002010B5084C0146237839
:1048C000012B08D1A01C082207F050FA00280CBFC9
:1048D0002046002010BD002010BD00BF9F5B0020BF
:1048E00008B50146102005F06BFF044B04489B6897
:1048F00000219847BDE80840FEF728B9E0D920001C
:104900000549200010B508460C46114602F07AFA17
:10491000044B1B6813B19B6820469847024B1C60F0
:1049200010BD00BFE4440020E0440020F8B5054677
:104930000023114A712404FB0324A278B2B96170E8
:1049400005F080FE26460D4F0D4A3B7806F8035BC6
:10495000C01A1568A0701D4405F074FE3A78294607
:10496000821A304607F034FAA078F8BD01330C2BD8
:10497000DFD14FF0FF30F8BDA95B0020F5600020CB
:10498000D84400202DE9F8434FEA1219B9F10F0F6E
:1049900080461D4602F00F040BD00F2C05D1B9F153
:1049A000000F0AD11024274619E0B9F1000F09D0F1
:1049B00004E00F2C4FF0100900D1102440464A4665
:1049C00007F006FA09EB04020F2A274606DC08EB7B
:1049D00009000021C2F1100207F0D4FABCB1114D58
:1049E000C7F110002E6840443146224607F0F0F926
:1049F000022C08D1B9F10A0F9FBFFF2388F80B30B2
:104A0000FE2388F80C3034442C60BDE8F883B9F1FB
:104A1000000F05D040462946BDE8F84307F07BBFAC
:104A2000BDE8F883D44400202DE9F04F904F914E1B
:104A3000002387B03B703370044605F051FE05F04B
:104A4000EDFD8D4D04212860092005F0ABFE8B4B58
:104A50008DE8C0001B68A9460BB1FFF7C3FE04A890
:104A60000CB9874900E0214608F0F4FC854B864EDE
:104A70001A8803933E2A40F20182D9F800B0834D90
:104A80000BF102032B60009B06F1180093F80080E5
:104A9000002308F102080BF80830FFF70DFF20B9DA
:104AA00006F10800FFF708FF20B10BF103032B60AC
:104AB000802400E0044672783178130943EA011338
:104AC000DBB2980840EA8313DBB212F00F0FDEB2BC
:104AD0006E4F01F00F010CD16B48408848B911B9F5
:104AE00012F0F00F1FD03B6803F8016B3B6070269B
:104AF0001AE079B912F0F00F0CD1296823F03F03C6
:104B00001A43634B0A701B88033121F8023C682664
:104B1000296009E05C4A2B681068186003F8046B90
:104B20002B60602600E07826574B9A790293112A71
:104B300008BF46F0040673075EBF3B6803F8012B0D
:104B40003B60029BDB79402B06D0FF2B07D0012B6B
:104B500008D146F0010609E046F0020606E046F0FC
:104B6000030603E03A6802F8013B3A60029A464BBA
:104B7000128982B95A8972B99A8962B9DA8952B9A5
:104B80001A8A42B95A8A32B99A8A22B9DB8A13B987
:104B900044F0400013E03F48FFF78EFE3E4B1860A4
:104BA00078B142781BF80830042043EA02130BF86E
:104BB00008303849394AFFF737FE60F03F00C4B289
:104BC00027E0029B30491A8948F2FE039A420CD131
:104BD0004B8B53B98B8B43B9CB8B33B90420083142
:104BE0002E4AFFF721FE2043E9E73A68DFF8A4C028
:104BF00096460CF1100A634603CB5345CEF80000ED
:104C0000CEF804109C460EF1080EF4D11F4B103262
:104C10001A60DFF874A09AF81830FF2B40F08A80F1
:104C20009AF8192044F0080E022A5FFA8EFE37D156
:104C3000BAF81A30A3BBBAF81C308BBBBAF81E30D6
:104C400073BBBAF820305BBBBAF8223043BBBAF86A
:104C500024302BBB9AF8263013BB3B689AF82720E8
:104C600044F00B0003F8012BC4B23B609FE000BF8F
:104C70009E5B0020F5600020D8440020E444002022
:104C8000EEDC200098620020AC620020D4440020BA
:104C9000AE620020B4620020CC440020A462002058
:104CA0009B4B588B194688BB988B78BBD88BA8B97F
:104CB000188C98B9588C88B993F8240070B9296871
:104CC00044F00A00C4B2084600F8012B33F8252F3F
:104CD000043121F8032C9B78837015E0C98B8C4B31
:104CE000A1B9198C91B993F8221079B9296844F0C7
:104CF0000900C4B2084600F8012B53F8232F0631EF
:104D000041F8052C1B790371296050E0814ADFF8D6
:104D100018C214680CF110082746634603CB4345BC
:104D2000386079609C4607F10807F6D110341460AA
:104D300074463CE00AF11800FFF7BEFD764B1860A0
:104D400050B143781BF8081044F004040B43E4B25C
:104D50000BF8083000200EE048F2FE03BAF81820E5
:104D60009A4210D1BAF81A306BB9BAF81C3053B95C
:104D7000BAF81E303BB90AF1180104AAFFF754FD36
:104D80002043C4B213E0634ADFF89CC117680CF1FA
:104D90001008BE46634603CB4345CEF80000CEF86C
:104DA00004109C460EF1080EF4D110371760019ADA
:104DB0005749282313708B79112B53D14FF2B0032D
:104DC0000A8D52BA92B222F00F0080B2984217D1E7
:104DD0004B8D5BBA23F00F031B041B0C83420FD1D6
:104DE0002868F32303704B8D02301A0A0B8D1B0ABF
:104DF00002EB031303F5AA6300F8013C286028E0E6
:104E0000029B43495B8D5BBA03F47F43B3F5704F5C
:104E100009D12B68F1221A700A8DA3F801204A8D5E
:104E2000120ADA700CE002F47F42B2F5704F2B6880
:104E300008D1F2221A700A8D120A5A704A8D5A80CD
:104E4000043305E0F0221A70886A053343F8040C35
:104E50002B60324B1A882B6823F8022B019A2B60A7
:104E600030231370009BD9F800201B78D6541344CC
:104E70005C70284B1B689B1A009A1AE0D9F8002036
:104E800041231370009B06F128051C78631CDBB2DC
:104E90001344324603CAAA4218605960164603F109
:104EA0000803F6D1009B29341C70019B019A1B78E2
:104EB0002833102013700DEB000105F081FC184B16
:104EC000DFF868801B68984730EA200028BF15206B
:104ED000039BC0F17D051C88019BDFF854A01E7860
:104EE000009BA21B93F800B00E4FCBEB05039A4238
:104EF00040F3CD80C0F17803019305F08BFC019B5A
:104F000094FBF3F40134A04214DC0020D1E000BF94
:104F1000AC620020D4440020CC440020DA6200209F
:104F2000B4D92000F5600020C462002098620020FF
:104F30009E5B0020D9F800B05F4B3C7800221A60DD
:104F4000594622460BF10400039306F0B7FFB8F868
:104F500000205A496FEA82426FEA9242C2F3072266
:104F60008BF80020B8F8002004348BF801200A8860
:104F7000E4B2501C0880110ADFF850C18BF802100F
:104F80002D1B9AF8001025F007054D4E61448BF853
:104F900003200BEB04002A46CDF808C03C703560B6
:104FA00006F016FF281980B205F032FB05F038FC38
:104FB000039B04461D460028A7D00DF1100B584650
:104FC000FFF78EFC204605F063FC204605F04AFC06
:104FD0002B68012B99D0043B012B96D99AF800A09D
:104FE000336853441FFA83FA05233B70354B1A6824
:104FF000B8F800306FEAC3436FEAD343C3F3072323
:105000001370B8F800305370019B23F00707376026
:105010002D4B1B889A454BD2D9F800204FEADA0174
:1050200011713268CAEB03039342B8BF244AD9F81E
:105030000000B8BF1360009B376893F80080029BA4
:105040003A4603EB0A01404406F0C2FE08EB0700B3
:1050500080B205F0DDFA05F0E3FB074600283FF4D7
:1050600054AF5846FFF73CFC384605F011FC384673
:1050700005F0F8FB124B1B689A442B681FFA8AFA5A
:10508000012B3FF442AF043B012BC1D83DE7D9F8D7
:1050900000000E495844314406F09AFEB8F800006A
:1050A0005844801B80B205F0B3FA04A8FFF718FC3F
:1050B000012007B0BDE8F08FE0440020B05400208C
:1050C000DC440020D844002098620020AC6200201C
:1050D0002DE9F047074688461646002A47D0434C3C
:1050E0000025A146238ABB4215D1638A9BB10F20BC
:1050F00005F072FB0146204608F0B1F958B1ECB258
:1051000020463146FFF712FC002827DA0027DFF897
:10511000E0A0B8460DE0B834002D5DD10125E1E7EF
:10512000A8450BD10AF1B80AB8F1000F10D14FF021
:1051300001083AF8063C002BF4D0F1E7504607F09E
:10514000BEFA0028EED04046FFF71CFB0744E9E713
:10515000002F41DD20463146FFF7E8FB00283BDD0C
:10516000B82303FB0595AB8A1844A8823AE0204D8A
:10517000FF2435F8063C4FFA84F97BB3284607F044
:105180009EFA10B13046FFF7FDFAB9F1FF3F03D1A7
:1051900035F8063C03B9F4B2012E05F1B80501D08B
:1051A0000126E6E765B26B1C16D0B8235D43DFF835
:1051B0003C900F2009EB0506A6F81280378205F017
:1051C0000BFB0146304608F045F905F1180048444C
:1051D000402107F062FA05E0FF2403E0B9F1FF3F48
:1051E000DAD1D8E760B2BDE8F08700BFE84400201C
:1051F000004500202DE9F04FA44CDFF8C8A287B08D
:1052000000268AF80060267005F008FAA04DA04636
:105210002860042005F0CEFA9E4B2A6800B2186080
:105220005778137847EA032703F0F803C02B02D01E
:10523000E02B19D03AE090782378D278C7F30A07A8
:10524000043342EA0020394632462370FFF740FF1C
:10525000B0F1FF3F814600F081828F4CB82303FB01
:1052600000440126223424E01379D1789078227802
:10527000C7F30A070532227041EA00201A46394670
:105280000093FFF725FFB0F1FF3F814600F06682F3
:105290008149B82202FB0012958A4FF0010BBD42F2
:1052A00034BF002501253446009BE0E1B1464F465E
:1052B0007A4C296898F800504A5D02F0E003602BB0
:1052C00040F0B781A81C084429444D78744B5FFA1C
:1052D00085FC1CF0800F18601CBF0130186012F0B4
:1052E000100F02F0080130D1D1B9196831F8010F5F
:1052F000A4F801008978E170196811F8040B1960AD
:10530000830803F00F0141F060012170617803F020
:10531000300343EA801301F00F010B43637030E068
:1053200018686021864621701EF8011B03304FEA81
:10533000910B0BF0300B01F00F014BEA0101617092
:10534000BEF80010186061801BE001F0FF0E99B9F3
:1053500019680878C0F3830040F06000207011F8ED
:1053600001BBA4F802E04FEA9B0000F0300040EAE5
:105370008B106070196004E0602323700023637059
:10538000638002F0040303F0FF0100912BB944494C
:105390000B6813F8010BA0710B6012F003020BBF36
:1053A0003F4A404B13689B5C09BF13F8011BE37134
:1053B0001360E1716B06C5F3011233D51CF0800F49
:1053C0001DBF334998F80030096800211EBF5B18E3
:1053D0009978090922B904F1080B9AB9114614E029
:1053E000314B1878012805D1587888420CBF1946EE
:1053F000002100E000212D4B19600029EBD1B346BC
:105400000D4633E1294B19680231294B0F209A5C74
:105410000391CDF808C0019205F0DEF90399034627
:1054200058460BE0234B0F209A5CCDF808C0019240
:1054300005F0D2F92049034604F10800019AFFF76C
:10544000A1FA05F00800DDF808C005F0030200F03D
:10545000FF0105F00403002836D0002B6CD1174B58
:105460001B88ADF81430531E012B9FBF0C490B68ED
:1054700013F8010B0B60124B98BF8DF815009A5C66
:1054800004F1180005A9002354E000BFF5600020D6
:10549000D8440020D0440020E8440020AC62002022
:1054A000D444002061DC20009F5B0020CC4400201D
:1054B0007ADC200065DC200069DC20005FDC200055
:1054C0006BDC20009E5B002053B31CF0800F1DBFDF
:1054D000A44998F8003009680B4618BF5B18A24928
:1054E00018BF9D78087818BF05F00F03012805D173
:1054F0004D789D420CBF0D46002500E000259B4BDA
:105500001D60002D00F0AE80994B10209A5C019236
:1055100005F062F9A91C0346019A04F1180009E09C
:10552000944B10209D5C05F057F92A46924903469A
:1055300004F11800FFF726FA9AF800008F4900F1ED
:1055400028038AF80030009B002B53D00B681A7890
:1055500002F0F802F02A4DD11122A2711A7802F05D
:10556000040502F0F302F03AEDB2032A7CD8DFE83A
:1055700002F0020A1622B3F801200533228533F81F
:10558000022C62852CE0B3F801202285DA78A2F59E
:10559000805292B2120242F0F002628509E05A781B
:1055A000A2F5805292B2120242F0F00222855A888D
:1055B0006285043314E05A7802331209A2F5756249
:1055C00092B2120242F0F002228513F8012C02F08E
:1055D0000F02A2F5756292B2120242F0F0026285E9
:1055E0000B6025B90B6833F8022BE2850B60303075
:1055F0008AF800005B4A0B6812689B1A88F8003032
:1056000067B905F01FF85E4B1B78C01A9AF8003096
:105610001844283803122371607104E0A7F12803AD
:105620001A1222716371A379112B1DD1A388A3854E
:105630001AE0412A40F092806A1CD2B28B182246AE
:1056400003F1280153F8040B8B4242F8040BF9D103
:1056500005F1290388F800309AF8003028338AF8D9
:10566000003001E0B34601E0B34600252B4600932D
:1056700004F0E8FF98F8002082426FD804F0E2FFBF
:105680003F4A40491278009BC2EB0008C1F80080F5
:1056900040F214519AF800A0DB009BB253444344FB
:1056A0008B425BD83CB12F4B04EB0A0019681144C4
:1056B000424606F08DFB002F39D056B132484FFAE2
:1056C00089F3B82404FB030308EB0A0189B2998229
:1056D000198495B3B8224FFA89F402FB04F32A49DE
:1056E0002A48CA18114697822231128C06F070FBA4
:1056F000274D05F24C5615F8012C5AB115F8033C0C
:10570000A34207D115F8020C204B294603EBC00039
:1057100006F05EFB7135B542EDD15FFA89F0FFF717
:1057200031F8BBF1000F0BD01A4B1F800CE0BBF11E
:10573000000F05D0002DF7D110E0BBF1000F0DD107
:10574000144BD044A3F80080134C236823B1FFF717
:1057500049F823685B68984703F0CAF807B0BDE8CA
:10576000F08F00BFD84400209F5B0020CC44002075
:105770007ADC200065DC200069DC2000D4440020B5
:10578000F5600020DC440020E8440020AC620020EA
:10579000AC5B002098620020E444002037B5124B37
:1057A000124D1C782B796A79C4EB032313449BB206
:1057B000ADF80630BDF8063005F108011844202286
:1057C00080B207F04EF8BDF8062004F12801294404
:1057D00092B207F046F810B140BA80B201E04FF63D
:1057E000FF7003B030BD00BFF6600020AC62002047
:1057F00028492DE9F04188460D78274E2835AB1908
:105800005C782648E400073402239C423DDBE9181B
:105810007218715C204F012932D002D3632902D063
:1058200013E001332FE0037018461C4C03F070FDA9
:10583000D8B998F800302278283313443B445B7879
:10584000134402332370BDE8F08101F0C0018029C8
:1058500005D0C02905D0402912D1037005E003709E
:1058600006E03A7E0370FF2A02D10120BDE8F081F4
:1058700004200221EA1801F08BFE0220BDE8F0812D
:10588000527802321344DBB2BFE703700020BDE858
:10589000F08100BFF6600020AC620020FC600020B8
:1058A000F0B5C578124A0D44EDB2D57083780F0A71
:1058B0003B44DBB293704478BB4254700678167058
:1058C00005D2601CC0B2507008B901361670C9B25A
:1058D0008D420CDA0133DBB2054993703BB94B784A
:1058E0000133DBB24B7013B90B7801330B70F0BD91
:1058F000A062002010B5084C014620681430FFF764
:10590000CFFF064A23681178197551785975917837
:10591000D2789975DA7510BDD0670020A06200209A
:1059200008B501F089F901F01FFF02F0F9F9002331
:105930001149002221F813200133DBB2082BF7D1E3
:105940000E49302303FB02110132D2B200230A2A8E
:1059500081F82530F4D10A4A4FF480611180094A58
:10596000002102EB43120133DBB20A2B1182F6D184
:10597000054A137008BD00BFBC690020D467002031
:10598000B4540020D0690020FD6000202DE9F041D2
:10599000124F3D7805B3DFF84C8005F12703B8F8C6
:1059A0000040A34203DB0023A8F8003013E00C4EB4
:1059B000A4F1280205F12801641BA4B206F1280015
:1059C0003144521B06F07AFAA8F80040283C231212
:1059D0003371747100233B70BDE8F081F6600020E4
:1059E000AC620020986200202DE9F0410346264871
:1059F0000288013292B2B2F5FA4F28BF4FF48052BA
:105A000000240A2C0AD0214D05EB44152E8A55BAE4
:105A1000ADB2AE4204F10104F3D1EAE7DFF874E07D
:105A2000028000220A2A18D0184E55017419B4F8C1
:105A30001080571CFFB2B8F1000F0CD18EF8002077
:105A40000288618252BA228263B920461946102226
:105A500006F098FA11E03A46E4E78EF800200020BC
:105A6000BDE8F081274603F1100E3A4618685968E0
:105A7000083303C273451746F7D1054B35441B79EC
:105A800020462B75BDE8F081B4540020D069002079
:105A9000186B0020FD60002030B50A490023082B58
:105AA0000DD0094C5A1C34F81350D2B2854204D19F
:105AB00000220B7024F8132030BD1346EFE70B7063
:105AC00030BD00BFFD600020BC6900202DE9F74F0C
:105AD000A44E04283468B346A34F00F07682A3494D
:105AE000A34DA44A03280D6015608A4615D194F889
:105AF000253003F00F03032B08D1A38B002B40F0BC
:105B0000CB869D4B08221A7000F0B7BD022B40F0E7
:105B1000C386002305F8073CDFE302287AD1974AC1
:105B200000231370964A3B801380964AD378013342
:105B3000DBB2D37063B993780133DBB293703BB9B6
:105B400053780133DBB2537013B9137801331370F8
:105B500094F8253003F0FD02052A0DD194F8263083
:105B60000133DBB2782B84F8263040F09586002391
:105B700084F8253000F090BE002B00F08D86A28BBB
:105B80007D48002A3DD094F82620511E84F8261026
:105B9000002A40F0818694F82720082A04D0591E54
:105BA00001290AD8052A08D1002384F8253080234A
:105BB000037003F031F800F06EBD042A9CBF03218E
:105BC000914003F00F0394BFC9B230210132013B71
:105BD00084F8261084F82720072B00F25D86DFE882
:105BE00013F0780308000A0013055B0613055B0633
:105BF000130500226EE30423037003F00DF800F098
:105C00007BBD03F00F03032B40F04686082303708F
:105C100000F033BD052811D15B4B1B681B8A002B9C
:105C200000F03A860C3D1560554A0023138033601E
:105C30003B80514B08220D601A70C4E115F83C3CC2
:105C40003C3D03F0F003602B40F026862B796A7907
:105C50001B0239889818884200F31E8628321344A4
:105C60003B802B7AFF2B00F01786484EAB1D33602C
:105C7000474C424B00221A702270AA799846BAB952
:105C800001232370FFF7B4FD012800F0058603D33C
:105C9000022800F0FD850BE098F8003003F128029F
:105CA0002A4432605278083303EBC20388F800308C
:105CB000384800F05DFE002840F0B580354800F01F
:105CC000FDFE002840F0AF802A7E334BFF2A65D0CE
:105CD00048F2FE00198B814260D0198981425DD063
:105CE00079B9598969B9998959B9D98949B91B8A41
:105CF0003BB9698A284B21B9998A11B9DB8A002BF3
:105D00004CD0298B244B79B9598B69B9998B59B9E6
:105D1000D98B49B9198C39B9598C29B9998C19B9C8
:105D2000DB8CB3F5807F39D03B88B3F5A06F04D905
:105D3000022000214FF4A06206E0EB79164C012B03
:105D400006D800210A46032001F022FC00F0A0BD85
:105D500003F068FB002840F09F85E379013BE37185
:105D600000F096BDD067002098620020CC6700202C
:105D7000E86200209C620020C0670020F6600020DE
:105D8000CC690020F8600020C8670020C4670020AC
:105D9000F7600020C4620020AC62002048F2FE03DD
:105DA0002989994240F07885298BA44B81B9598B78
:105DB00071B9998B61B9D98B51B9198C41B9598C89
:105DC00031B9998C21B9DB8CB3F5807F00F0648503
:105DD000FF2A00F061859A4800F0AAFD02460028DB
:105DE00040F05A8501200221AEE725D9B9F13A0FDA
:105DF0007CD02CD9B9F13B0F00F04E85B9F13C0FA6
:105E000070D123788F4998073FD558066AD443F05C
:105E100040030B70FFF7ECFC012800F03D8537D301
:105E2000022800F035853268DFF844C292F800900D
:105E3000B9F12B0FD9D138E0B9F1060F00F01A8172
:105E4000B9F1110F73D0B9F1000F4BD104E0B9F1E2
:105E50002C0F00F0218545E02378CDF800C0D9074C
:105E600040D4784A43F001031370FFF7C1FC0128C6
:105E700000F01285DDF800C0D2D298F8003003F1AE
:105E800028022A44CCF8002008E043F00203C0E7CF
:105E900098F8003003F128022A443260527808331F
:105EA00003EBC20388F80030BDE7237803F0040059
:105EB00000F0FF01B0B9634A43F00403137098F88F
:105EC000002002F128032B44D87810B104202A3294
:105ED0003AE7CCF800305B78083202EBC3025A4B49
:105EE0001A70A0E704200121521B2DE706F0D5FC13
:105EF0004FF6FF73984240F0CF8498F80030283373
:105F0000E85C02F0E1FC98F800302833EA18E85C1D
:105F1000517801F01BFB012801BF00234A4A3B8056
:105F200013703B88002B00F0B78400F0B1BCFFF782
:105F30002DFDEB8D85F8069053B96E8D002E00F087
:105F4000AB84424B424D2B603C4BB3F828800BE0B6
:105F500006F0A9FC4FF6FF73984240F09D84ECE7F1
:105F6000238A33B920342C602C683A4B9C42F7D3F7
:105F700015E09E42F6D1638A0BB19845F2D12368B1
:105F80002BB963681BB9A3680BB9E3685BB13248EE
:105F90002146102205F0EAFE0028E3D103E00120AB
:105FA00004210022D0E62D4902202D4A3B880870AA
:105FB0002C49303BCAF800200A602B4A3B80002362
:105FC000CBF80030138002F027FE274B1A88002AF6
:105FD00000F0628402F13003184C9BB23B80283BF6
:105FE000191263711A4B08321B6852BA2171197D5C
:105FF000A2850022E2851A8AE17122855A8A11213E
:106000006285A17104F118050FCB85E80F0004F13A
:106010000800294600F0B2FD144B04F13C021A605E
:1060200006F041FCC04380B208B1E08502E04FF6C3
:10603000FF73E38503F03CFB00F024BCAC6200205E
:10604000C4620020F7600020F6600020D0690020C4
:10605000C8670020106B0020B4620020C0670020D9
:10606000DC6200209C620020CC690020CC6700200C
:10607000C4670020FFF78AFC85F8069006F010FC44
:106080004FF6FF739842B64C40F00684638D002BA8
:1060900000F00284B4F828C0BCF1000F00F0FC83CB
:1060A000B04E344696F82590B9F1000F11D0328ADF
:1060B0009A420ED1728A62450BD1AB48314610220A
:1060C0008DE8081005F052FE9DE80810002800F049
:1060D0001A81A64A30369642E4D195F8352002F06E
:1060E0003F02022A12D1A249A24E88460B8000220A
:1060F000082A0AD0A04931F8121001328B42D2B2DC
:10610000F6D100223270914657E0327095F8352072
:10611000934B500700F1C083142283F835203C22B2
:106120003A80502283F8342093F8332093F831409A
:1061300093F82F0083F82F2093F8322093F82E1035
:106140008C4E83F82E2093F82D2083F82D4093F861
:106150002C400130347093F83060C0B283F83210B4
:1061600083F8312083F82C6083F8304083F83300C3
:1061700060B90131C9B283F8321039B90132D2B2F3
:1061800083F8312012B9621C83F830202B8D784AB5
:106190007A4C13806A8D6B852A85A4F1100595E8E9
:1061A0000F0084E80F002846214600F0E7FC54E386
:1061B000BEF1070F10D00132D2B20A2A19D0302115
:1061C00001FB024101F1200090F805E0BEF1000F53
:1061D000EED132700C4611E0B9F1000F04D0807995
:1061E00099F826108842E6D94FF0300909FB024998
:1061F000E1E74C463270002C00F04E8303222382EC
:10620000594B84F8262084F82420042284F8232083
:106210000FCB84E80F005A4B01201A784FF0000989
:1062200022765A78A4F812C062769A78DB78A27641
:10623000E37695F82C3084F82500237595F82D30F9
:10624000A083637595F82E30CBF80040A37595F8C0
:106250002F3084F8229084F82790E375FFF74AFBEB
:1062600095F8343003F0F002502A32D9454A1B0920
:10627000053B980096464B461178834226DAEA1889
:1062800092F83C1011B3012901D101331CE002291D
:1062900015D192F83DC0BCF1040F10D18EF800105A
:1062A000337092F83E1092F83F3043EA0123402BBE
:1062B000A8F8003028BF4023E383238409E0EA18CC
:1062C00092F83D2012B11344DBB2D6E78EF80010ED
:1062D00033701022224B83F83520214B93F8352060
:1062E00042F0020283F83520022283F83C20042287
:1062F00083F83D20002283F83E20402283F83F208F
:106300003A8060226DE295F835201F4902F0040EB4
:106310003446CBF8006008700EF0FF03BEF1000FAA
:1063200004D0202386F825000B7009E20C4909F0FF
:106330000F0991F83410B9F1020F4FEA11114FEA29
:1063400081000C4908703988A1F12801A1EB0001F6
:1063500089B239801AD102F03F0012281CE000BF38
:10636000AC620020D4670020B4620020B469002031
:10637000B2540020FD600020BC690020C4620020EF
:10638000F8600020FE600020C0670020B9F1010F16
:1063900003D102F03F00022816D009B9910713D0AB
:1063A000A88DB18A884204D1BC49C88DF18A88423F
:1063B0000AD0960740F10E82B9F1010F89D0B9F1E8
:1063C000020F40F0078288E7D00657D5B18B00292D
:1063D00054D006F118000093FFF762FAB04A95F81E
:1063E000300092F800E0AD498645009B46D191F817
:1063F000310092F80190814540D191F832C09078F7
:1064000060453BD191F83310D2788A4236D1F2768A
:1064100096F8272086F818E086F81990B07622BB07
:1064200096F8242096F8260096F822E0101AA0EBA1
:10643000DE00C0B25FFA80FC1CF0800F96F82320CB
:10644000864418BF4042A2EB920218BF5FFA80FC5C
:1064500002EB0C015FFA8EFECAB286F8232002EB33
:10646000DE0286F822E086F824208E4A012111708F
:1064700096F8242086F826200022B28396F825106C
:10648000DFF8209201F00F02013A072A00F204829D
:10649000DFE812F008002500950059017B01950105
:1064A000A0014B0199F800207E4BD1070FD50322A4
:1064B00086F82520388840221A700022B2830028EE
:1064C00000F0D88042221A70FFF714FAD2E095F853
:1064D000353003F03F03022B40F0DE81F9E699F8F6
:1064E0000020D20760D595F8352002F03F02122A2D
:1064F0005AD16A4A92F8341001F0F002502A36D983
:106500006948090905390278DFF8A8E189008B425A
:106510002ADA05EB030C9CF83C202AB3012A01D1AE
:1065200001331FE0022A15D19CF83D90B9F1040F08
:1065300010D102708EF800309CF83E209CF83F305D
:1065400043EA0223594A402B138028BF4023F38398
:1065500033840CE005EB030C9CF83DC0BCF1000F4C
:1065600002D06344DBB2D2E702708EF8003003231E
:1065700086F8253095F82C300120337595F82D30AC
:10658000737595F82E30B37595F82F30F375FFF7C6
:10659000B1F9444A42231370454A0023B3833B8038
:1065A00088F80030138068E0202389F8003002F07A
:1065B00033FBDBF80030002283F82520A6E595F8B0
:1065C0003530D80725D5CA0623D4B38B002B40F02D
:1065D00063813888013080B2FFF78CF999F8003078
:1065E00043F0100289F800203A881AB12D4A43F08E
:1065F0001203137002F010FB0123B383082386F803
:106600002530002386F827301122244B83F83520CB
:10661000E3E098060DD595F83A2095F83B3043EA2B
:106620000223DAF800201A44CAF800203A88D31A64
:106630003B80388848B1CA0607D499F8003043F047
:10664000020389F80030FFF755F995F8362095F8E0
:106650003730318C03EB02239BB2144A8B421380F8
:1066600000D803B911801388F38399F800309B0791
:1066700000F012810E4B00221A8002F0CDFA094B75
:106680001A780B4B02F0200000F0FF01A0B10022AD
:106690001A8084F825201422B7E700BFAC620020DE
:1066A000A0620020C0670020FE600020B2540020DD
:1066B000CC690020FD60002002F0100000F0FF0512
:1066C00040B119800123A383042384F8253084F882
:1066D000271099E7198861B1D60748BFA583A28B17
:1066E00032B9E28B914288BF1A801B88A38300E0F5
:1066F0001A80002384F827306D4B1B68CAF80030DD
:106700006C4B1B882BB1A38B1BB13C333B801822F5
:1067100007E0694B1B789D0740F1BE803C233B801E
:106720001022664B83F8352059E099F80030DC07D9
:1067300040F1B280002386F825305F4B10221A709A
:1067400002F06AFAA8E0388808B1FFF7D3F895F8A4
:10675000353013F001030FD099F80030D80745BF4A
:10676000072386F825300623002346BF86F8263007
:10677000B38386F8253016E099F80020D1071BD5A1
:10678000052286F82520B38386E0388808B1FFF714
:10679000B1F895F83530DA070ED5072386F825309D
:1067A000002386F826300120FFF7A4F8102389F88B
:1067B000003002F031FA0DE03B885BB96CE099F8EB
:1067C0000030DB0768D5072386F82530002386F8DC
:1067D000263061E0102385F835303C233B80374B71
:1067E000502283F83420237D344D85F83030637D8A
:1067F00005F1180685F83130A37D85F83230E37D48
:1068000085F83330237E85F82C30637E85F82D3073
:10681000A37E85F82E30E37E85F82F30238A2B85E2
:10682000638A6B8594E80F0086E80F0005F1080085
:10683000314600F0A3F994F8253003F0100303F07B
:10684000FF022BB1002385F8373085F8363004E09D
:10685000402385F8362085F83730184C0623A3717D
:10686000174B1B79E3713B88283B1A126371002395
:10687000227184F83B3084F83A30238706F010F810
:10688000C04320870D4B60221A7000225A705A8034
:10689000094B00221A7007E00A4A002313700A4AC3
:1068A0003B801370044A137003B0BDE8F08F00BF43
:1068B0009C620020CC690020C0670020AC620020F0
:1068C000186B0020F6600020F76000202DE9F341EE
:1068D0000446154D00910E4690461F4601952346ED
:1068E00012480321202205F0EEFF01282B4616D185
:1068F0002A6804F11001107020462A68023250F80C
:10690000044B884242F8044BF9D11868089B8674FE
:106910004361099B80F813800777836100E00020C2
:1069200002B0BDE8F08100BF5C460020146C00207E
:1069300070B506460B4D0C4B2B602C680B4B9C42E4
:106940000BD2237833B1A27CA01C3146D20805F0CB
:106950000DFA20B120342C60EFE7002070BD01203B
:1069600070BD00BF5C460020146C0020746C0020D9
:1069700013B5084C80220346009201940648032177
:10698000202205F0A0FF08B9206800E0002002B036
:1069900010BD00BF60460020306B002010B50C4ACF
:1069A0000C4B136013680C498B420DD2197849B116
:1069B000411C02D0997C814204D148F2FE015C88DE
:1069C0008C4202D02033ECE70023184610BD00BFF4
:1069D00060460020306B0020906B002037B50446E5
:1069E0000F4D80230093019523460E480521122266
:1069F00005F069FF01282B460ED12A6804F1100129
:106A0000107020462A68023250F8044B884242F83F
:106A1000044BF9D1186800E0002003B030BD00BF7E
:106A200058460020B46B0020F7B50546204C802363
:106A300000930E46174601941E48032120222B4640
:106A400005F041FF012830D12A46236805F11001E5
:106A500018702368023352F8040B8A4243F8040B7F
:106A6000F9D12068C77416B90123037505E0002326
:106A700003753146183005F009FE23680E480121E0
:106A8000997402234370FF220023027043808380A5
:106A9000C38003818372C17202736B7B4373EB8982
:106AA000C381FFF79BFF206800E0002003B0F0BD2A
:106AB00060460020306B0020B654002013B5084C0F
:106AC000802203460092019406480521122205F017
:106AD000FAFE08B9206800E0002002B010BD00BF37
:106AE00058460020B46B002038B50546C8B10D48A3
:106AF000022200244270FF230122C272448084805B
:106B0000C4800481847203730370EB7B43732B8A0C
:106B1000C381FFF7D3FF044A106008B105F0F7FE08
:106B20002C7038BDB65400205846002010B50F4BCD
:106B30000F4C236020680F4B98420ED203784BB164
:106B4000037D3BB91830FDF7BBFC18B1084B186842
:106B5000FFF7CAFF23682033EBE700F0EBFB00F000
:106B600067F9BDE81040044805F06EBD306B0020A9
:106B700060460020906B0020746C00202DE9F843E3
:106B800048F2FE030A8805469A42884621D00B78CF
:106B9000FF2B1ED01B4B0024A1461F461A4A1A6029
:106BA0003E681A4A964218D233787BB1B37C012BE7
:106BB0000CD148F2FE0372889A4207D04046B11CBD
:106BC00005F0B2FE484524BF3446814620363E607B
:106BD000E6E70120FFF7E2FE04464CB92C806C800A
:106BE000AC80EC802C816C81AC81EC81BDE8F883B9
:106BF000A31C123453F8042BA34245F8042BF9D1FB
:106C0000BDE8F88360460020306B0020906B0020C8
:106C100010B5FDF7E5FC0446FDF7E2FC054B240248
:106C20009A68A4B22044B0FBF2F302FB130000EB1D
:106C3000520010BD186B002073B52F4C00F07CF88B
:106C400000F09CF9002160222C4805F09BF90021FE
:106C50002046F82205F096F9294B20221A70294B7C
:106C600018221A704FF4A0632360274B4026267128
:106C7000A360FFF7CDFF42F21073236148F2FE03D9
:106C8000314640F2FF260025E06025751F4C2A465C
:106C9000238065802B46A580E580204600950195E0
:106CA000FFF714FE20461A4905F035FE2946012259
:106CB0002046FFF7B9FE4FF480732046E38126801B
:106CC0006580A580E58025816581A581FFF786FE29
:106CD0004FF40073204626806580A580E5802581DD
:106CE0006581A581E381FFF779FE0A480C2102B096
:106CF000BDE8704005F09FBC186B0020146C0020AC
:106D0000116C0020106C0020C0270900B654002030
:106D1000A4620020746C002010B5044640B102F05B
:106D20009DF8044B2146BDE81040186803F0ECBB09
:106D300010BD00BFA8400020024B0349186803F0B3
:106D400027BB00BFA8400020196D20002DE9F843A3
:106D50009846154B05461868914603F047FB0446D4
:106D6000F0B1074605F110033E462868696808350A
:106D700003C69D423746F7D104F11400002184F880
:106D8000109084F8118005F081FC04F11C000021B2
:106D900005F07CFC002384F82430204602F05EF8E5
:106DA0002046BDE8F88300BFA8400020024B014602
:106DB000186806F0B9BB00BFA840002070B50C4DA4
:106DC0000646286803F0F8FA044666B9002070BD4C
:106DD00020463146102204F0C9FF38B12146286808
:106DE00006F072FB0446002CF2D1EFE7204670BD9E
:106DF000A8400020024B0146186806F07CBB00BF8B
:106E0000A840002070B5054610200C4603F0E4FCB5
:106E10000649064606F023FB30B93046294622468D
:106E2000BDE8704001F0E2BF70BD00BFEEDC2000A5
:106E300070B53D4D286803F0BFFA0446002872D0B3
:106E4000637C042B6AD8DFE803F01B0369313E0042
:106E500004F114063046FDF733FB00285ED02046CF
:106E600000F008FA48B1032363743046052105F0A9
:106E70000DFC002384F8243050E0022363744DE0BD
:106E800094F82430022B2AD804F11C063046FDF772
:106E900017FB002842D0254B188800283ED194F8D3
:106EA00024300146013384F824302BE004F114002F
:106EB000FDF706FB90B304230021637484F82410CB
:106EC00004F11C0028E094F82430022B0BD9204652
:106ED00000F0D0F918B1037F0BB900F0A9F92046F2
:106EE000FFF71AFF1AE004F11C063046FDF7E8FA36
:106EF000A0B10E4B188888B9214694F8243001338C
:106F000084F82430224600F059FE094B30461969B6
:106F10004FF47A73B1FBF3F105F0B8FB2868214612
:106F200006F0D2FA89E770BDA840002098620020E0
:106F3000186B00202DE9F04105460D480F4690469C
:106F400005F0CEFB044688B1012D04D8094805F0B0
:106F5000FDFB034601E0084B1B682846666839467E
:106F60004246B047204605F0F8FBEBE7BDE8F0816C
:106F7000304E0020C8490020C449002008B50B4805
:106F800005F0EEFB0A4805F0A8FB0A4B0A49186811
:106F900003F0FEF9094805F0E3FB094805F09DFB05
:106FA000BDE80840074805F098BB00BFDC40002062
:106FB0006C4A0020D840002081C92000BC4000203D
:106FC000C8490020304E002008B5034640B1054AAC
:106FD0005968106806F0A8FABDE8084005F0C1BC81
:106FE00008BD00BFD8400020014805F079BB00BFB4
:106FF0006C4A00202DE9F0418046FFF7F5FF00269E
:10700000044637469CB194F82450B5420AD3404612
:1070100004F10801EA0804F0A9FE18B9802D08D08F
:107020002E462746204605F0A7FC0446EAE73C46E4
:1070300067B1084805F054FB844207D00548214653
:1070400005F058FB0348214605F077FB2046BDE8D4
:10705000F08100BF6C4A002038B5044600283ED0BD
:107060004368002B3BD01E48214605F043FB636874
:10707000586805F035FB054630B14368A34207D098
:10708000284605F06AFBF6E704F1080001F002FE6D
:1070900063682946586805F02DFB6368586805F059
:1070A0001FFB28B963680F4A5968106803F02CFA6F
:1070B00021460D4805F078FB29460C4805F074FB85
:1070C0000B4A20461368013B1360FFF77DFF04F174
:1070D00008010246BDE838400320FFF72BBF38BD4A
:1070E0006C4A0020D8400020DC400020E84000200E
:1070F000C449002010B5044680B1406870B105F065
:10710000EFFA20B14068FFF7A7FF6068F7E7044B8C
:107110002146BDE81040186803F0F6B910BD00BF65
:10712000D84000202DE9F84F074610468946904682
:1071300005F019FC834610B90020BDE8F88F3846E9
:10714000FFF758FF044660B1FFF73EFF014628B144
:107150004046102204F00AFE00285CD02046FFF7CB
:107160007BFF2E4B1A689A46142A04D12C4805F04E
:10717000B9FAFFF771FF2B4E5946306806F0BBF99C
:10718000054658B93068594603F030F905460028DD
:10719000D2D000236860036005F09FFA224805F012
:1071A000EFFA04460028C7D01D48214605F0C5FA6D
:1071B0001E4805F0E5FA834620B921461A4805F035
:1071C000F3FAB9E744606868594605F0A7FADAF8B7
:1071D00000306560013330682946CAF8003003F09A
:1071E000A9F93B4604F1080507F110062A4618687C
:1071F0005968083303C2B3421546F7D100210C2267
:1072000084F8249004F1180004F0BCFE02203946F2
:107210004246FFF78FFE2046BDE8F88FC4490020A4
:107220006C4A0020D8400020DC400020E8400020CC
:1072300038B505460D4805F053FA0446A0B1AC42F6
:107240000ED12146094805F055FA2146084805F0B7
:10725000ABFA211D01200A46BDE83840FFF76ABE9F
:10726000204605F07AFAE8E738BD00BFC84900209B
:10727000BC40002038B50546084805F031FA044600
:1072800048B1201D2946102204F070FD18B1204697
:1072900005F063FAF3E7204638BD00BFC849002077
:1072A000F8B505460F46FFF7E5FF044640B9134819
:1072B00005F066FA0446F0B11148214605F03DFAA2
:1072C0002B46261D05F1100E324618685968083302
:1072D00003C273451646F7D137B104F1140039469D
:1072E00005F0D4F9002300E001232377002029468C
:1072F0002A46FFF71FFE2046F8BD00BFBC40002015
:10730000C849002038B50A4805F0EAF904460025C6
:107310005CB1251D2846FFF751FD08B1437C23B918
:10732000204605F01AFA0446F2E7284638BD00BFA9
:10733000C849002010B50A4805F0D2F9044670B1DA
:10734000237F43B904F11400FDF7BAF818B12046C1
:10735000FFF76EFFEFE7204605F0FFF9EEE710BDFF
:10736000C84900202DE9F043344C354D85B004F177
:1073700008030FCB8DE80F002B786E46E779002BC2
:107380003DD002F061F9DFF8C090804629783A23B9
:1073900000B3814284F8283013D0B9F80020521A83
:1073A000024492B2A9F80020283A131262712C31DB
:1073B0002C30C8EB020220442144043A237104F02B
:1073C0007DFDB9F8003085F80080C8EB0308A9F806
:1073D000008014E0B9F80020A371521A92B2A2F111
:1073E000280318122C31A9F800202071214404F13F
:1073F0002C002C3A637104F061FD85F8008011487F
:1074000005F06EF9804690B1D8F804C0BCF1000FC9
:1074100009D00D4B2A781B8838322C3B3046394630
:1074200022449BB2E047404605F097F9EAE7064B55
:107430002870188005B0BDE8F08300BFAC62002062
:10744000F6600020344E002098620020F8B5384BDA
:10745000384C1B7904F11806E371237E04F108050A
:10746000FF2B08D195E80F0086E80F00284631462B
:10747000FFF784FB1BE02F46B6462F4A3B4603CB63
:107480007345106051601F4602F10802F6D196E87C
:107490000F0085E80F00284B284D03F110062A46FF
:1074A00018685968083303C2B3421546F7D1244D12
:1074B0002B787BB302F0C8F82B7806463A22B0B19D
:1074C00083421C4F84F8282023D01E490A88D21AF0
:1074D000024492B20A80283A111239717A7103F18A
:1074E0002C012C30921B38443944043A0FE01549E2
:1074F000A2710A88D21A92B20A80A2F12801081257
:1075000020716171104803F12C0121442C3A04F0E0
:10751000D5FC2E702B7881222833E518E254002305
:107520006B706B8005F0B9F9C0436880F8BD00BF8F
:10753000186B0020AC620020C6540020C4620020FA
:10754000F660002098620020D862002038B504461A
:107550000B480D4605F0C4F878B10379A34209D170
:107560004379AB4204D183683BB19847002038BDD2
:10757000FF2BF8D005F0F1F8EEE7012038BD00BF91
:10758000384E00200146014805F0C8B8384E0020AA
:107590002DE9F74F4A4D81462B7888469246494C53
:1075A00053B12833E35C3A2B0DD1474A00231380B3
:1075B0002B7003B0BDE8F08FA3793A2B03D194F977
:1075C0002830002BF1DA02F00FF8404E404AB44662
:1075D000934606F1100E334603CB7345106051609D
:1075E0001E4602F10802F6D1374E2F78338804EB9D
:1075F000470030339BB2B3F5A06F88BF4FF4A06350
:10760000338032882F4BD21B1946303A3030CDF8B8
:1076100004C0009304F052FC9DE808106022227020
:107620000022627062803A2217B183F8282000E0BD
:107630009A71284A234B1279E271228972B95A89C8
:1076400062B99A8952B9DA8942B91A8A32B95A8A20
:1076500022B99A8A12B9DB8A002BA6D01E4B0FCB17
:107660008CE80F009BF80030FF2B05D1B9F1040F17
:107670009BD1B8F1020F98D115491748FFF77EFA50
:107680002F78504607F12803E21804F8039082F897
:10769000018005F00EF933882C37283BE0511A128F
:1076A00063712B78227128331C440023638005F01A
:1076B000F4F8C043608003B0BDE8F04F01F0F8BFBC
:1076C000F6600020AC62002098620020C4620020B6
:1076D000C6540020186B0020B46200202DE9F04150
:1076E0001E460F461B4905460C4660230B700023BF
:1076F0004B704B803A238B71174B90461B7900F1EE
:10770000100ECB71331D1A120A714B7101F1180260
:10771000134628686968083503C375451A46F7D1CA
:107720000E482C3600F11001FFF728FA0C4B1B789D
:107730002833E518E75400236B8085F8018005F0B5
:10774000ACF8C043074B68801E80BDE8F04101F0F3
:10775000E1B800BFAC620020186B0020B4620020CA
:10776000F66000209862002008B50448FFF70AFF81
:10777000BDE808400248FFF705BF00BFF440002005
:10778000004100202DE9F74F694C6A4DE2792B78D2
:10779000FF2A03F12C0909EB040A19F80470DFF839
:1077A000B48140F0BB80234493F82930002B40F093
:1077B000B5809AF80430FF2B00F0B08007F040034A
:1077C00003F0FF061BB1237EFF2B00F0A7805A4871
:1077D000B8F8003059494FF0140E81F800E00193D9
:1077E0007346864600220260019809EB030C84452B
:1077F00012DA04EB0C0B9BF8010018B9CEF800204C
:107800000B708BE014F80CC003EBC003DBB2BCF1CF
:10781000020F08BF5A46E7E70AF104000B70CEF8E2
:107820000020FFF7A5F8464B1860002876D128788D
:1078300020443030FFF7C2FA424C2060FFF7B6FA1E
:10784000D4F800900346A246B9F1000F66D03A4A38
:10785000146844B11946A01C0822019304F086FA6A
:10786000019BC0B200E0204699F8112027F07F0B61
:107870005FFA8BFBDAB9002C50D054F8021F196064
:10788000616859607EB1012389F811302E4B89F867
:107890002420D9684FF47A7309F11400B1FBF3F195
:1078A00004F0F4FE36E0022389F8113032E0B90624
:1078B00006D428B1012A31D1022389F811302DE0F4
:1078C0009CB3214651F8022F1A604A685A606EB183
:1078D000012389F811301C4B09F11400D9684FF4C9
:1078E0007A73B1FBF3F104F0D1FE04E01CB110B1E6
:1078F000022389F81130DAF800301B7C53B1BBF158
:10790000000F07D11148FFF7B5FC114A106008B10C
:10791000FFF78EFCDAF8003083F810B00023A8F8E7
:1079200000302B7003B0BDE8F08F002EE3D0CFE71E
:10793000AC620020F6600020444E00202961002047
:10794000484E0020404E0020186B0020B4620020FA
:107950003C4E0020986200202DE9F74F8B4C8C4F55
:10796000E379DFF85082FF2B40F008813B78E21882
:1079700092F83020FF2A00F00181234493F8293047
:10798000002B40F0FB80834E834D336014232B701B
:1079900038782A782C30B8F8003002449A4258DA05
:1079A000A1184878794B002800F0E880A25C012AF1
:1079B00045D11A8931607AB95A896AB99A895AB90E
:1079C000DA894AB91A8A3AB95A8A2AB99B8A1BB9FA
:1079D000E38A002B00F0D2807048FFF7EFF9DFF860
:1079E000D8A1CAF8000068B9336823B16A4653F8D1
:1079F000020F596803C26946002202236748FFF755
:107A0000A5F91CE0FFF7D2F983463368594603F124
:107A100002094846082204F0A9F950B1D9F800300B
:107A2000CBF80030D9F80430CBF80430DAF8003065
:107A300003E0DAF800305A7C0AB902225A743B7823
:107A40002A782C33134423445B7802EBC3022A7058
:107A50009EE720440430FEF78BFF514B4B4D1860DE
:107A60009946002800F08A802B8973B96B8963B925
:107A7000AB8953B9EB8943B92B8A33B96B8A23B9E4
:107A8000AB8A13B9EB8A002B78D0444D2846FEF719
:107A90006FFF2E46002871D140F2FF23228BA5F103
:107AA000080E9A4205F1100C19D16B8ABBB9AB8A4A
:107AB000ABB9EB8A9BB92B8B8BB96B8BB3F5807F02
:107AC0000DD12B7FFF2B0AD195E80F008CE80F001A
:107AD0003B78734430330FCB85E80F0011E0314D14
:107AE0002846FEF745FFD9F80030834246D196E894
:107AF0000F0085E80F003B78234430330FCB86E836
:107B00000F0060222270282262713A22A271FF22A5
:107B1000E2718822002384F82820D9F800203B70E5
:107B200063706380237184F829301F4EE02384F84A
:107B30002C30931C1232354618685968083303C537
:107B400093422E46F7D1194A022384F8403084F834
:107B5000413013681648C4F842305368002143602E
:107B60000622083004F00EFA0023638504F095FE27
:107B7000C04350236085A8F8003003E00023A8F834
:107B800000303B7003B0BDE8F08F00BFAC62002056
:107B9000F6600020444E002029610020B4620020DD
:107BA000484E0020C4620020DC620020A462002055
:107BB000EE62002098620020404E00202DE9F04146
:107BC000524C534F00233B70637063803A238046CE
:107BD000A3716020FF232070E37199B96183A183B1
:107BE000E183218484F8221002200121237660762B
:107BF00084F8231084F82430537B84F82530D3890B
:107C0000E3840CE00B4604F1180601F1100E354632
:107C100018685968083303C573452E46F7D1872382
:107C200084F82830002384F82930E3621346394E63
:107C300002F1100E354618685968083303C57345BC
:107C40002E46F7D1002626711046304DFEF790FEE5
:107C5000002843D1B8F1000F0CD04346083508F195
:107C600010062A4618685968083303C2B3421546FD
:107C7000F7D105E005F1080005F11801FEF77EFFD8
:107C80002289224B244D8AB95A897AB99A896AB9CC
:107C9000DA895AB91A8A4AB95A8A3AB99A8A2AB9E9
:107CA000DB8A1BB92B803B70BDE8F0812823637110
:107CB0003B7801224033E254184AE0180223437013
:107CC00013680A3040F8083C5368002140F8043C2F
:107CD000062204F057F950232B800CE018236B7117
:107CE0000D4B40222E816E81AE81EE812E826E82FE
:107CF000AE82EE821A803B7828331C4400236380D6
:107D000004F0CBFDC0436080BDE8F081AC62002090
:107D1000F6600020DC62002098620020A46200204F
:107D200008B50448FFF72EFCBDE808400248FFF7FD
:107D300029BC00BF0C41002018410020F0B50B7891
:107D40000478002B3BD0431C1F48066874B30D46D3
:107D500014F0C00F1FBF1B7824F0C00403EB0424F1
:107D600013191CBF145D01331C44A34215D015F830
:107D7000010B38B33118497801F00301012913F8D8
:107D8000011B08BF203077187F7807F00307012F09
:107D900008BF20318842E8D013E024782946013317
:107DA00024B12878691C2E28D0D00AE00B782E2B1D
:107DB00008BF01310878B0FA80F04009F0BD1846DC
:107DC000F0BD0020F0BD00BF0C420020F8B50D460C
:107DD0001E4C04F16006237E9BB3A37EFE2B30D1A4
:107DE000E37E802B2DD12B7823B9194904F0D7FDE0
:107DF000034605E00346C02203F8022B0C22427022
:107E00001C21597080210022997001211A70D970AB
:107E10001A7178215A719A711A721022D9715A7294
:107E200003F10A0104F11A0204F12A0052F8047B5A
:107E3000824241F8047BF9D103F11A002B78013317
:107E40002B702034B442C6D1F8BD00BF186B00209F
:107E50002A610020F7B51A4C0C27256800213A4604
:107E600002AE284606F8011D04F08CF86FF07B0383
:107E7000AB70206831463844FFF7A8FF9DF8072013
:107E800003461AB90F4904F08AFD03E0C02200F846
:107E9000022B5F7002460C4B03F1100153F8046B88
:107EA0008B4242F8046BF9D11B88123013809DF885
:107EB0000730EB710123EB722368C01A03B0F0BDE9
:107EC000CC6700202A610020FEDA200037B5064D7D
:107ED00002AC44F8040D2846FCF7FCF9284621467C
:107EE000FCF7A4FA03B030BD2441002070B504466D
:107EF00004F012FA231813F8013C05462E2B11D179
:107F0000094E214634463046212204F08BFA70197E
:107F1000844207D010F8013D2E2B02D100230370BC
:107F2000F6E7014C204670BD4E61002073B52D4C24
:107F3000054620460E4604F0EFF929460246204643
:107F400004F018FA002841D1002E3FD03046FEF749
:107F50000FFD0646002839D1234B1B78012B2ED16B
:107F6000204604F0D9F92044204C00F8066CE51CAA
:107F700014F8013F1E4A1B48019203F00F020A2A1F
:107F800034BF302161211B090A440A2B8DF80620D9
:107F900034BF3022612213448DF8053004F0BCF95F
:107FA00001A9C0F120020F4804F00EFAAC42DFD163
:107FB0000C48104904F054F84FF4207001E0022BF3
:107FC0000DD102B0BDE87040FFF780BF2A460A4BD2
:107FD0000020197802B0BDE87040FCF7FBB902B090
:107FE00070BD00BF2A6100204C610020A862002003
:107FF0002D5858007EDC20000D6E002010B50D4C71
:1080000001462022204604F00DFA204604F084F9AF
:10801000062805D906382044074904F001F818B1AC
:108020000448054904F01CF8BDE810400020FFF7A3
:108030004DBF00BF2A6100207EDC20002DE9F04FFB
:10804000048889B0029044B140F29F439C4224D0FE
:10805000029A0023138003200AE321464FF4807222
:10806000C14803F08FFFFCF72DF9C04B2146187073
:108070002246204600F01CFCBD4B18604EF614133F
:108080000382BC48FEF7AAFCBB48FFF7B7FF40F2EB
:108090009F43029A01201380EAE2882902D1B44B5F
:1080A000186806E2B54B1B788B4240F0D782B04B84
:1080B000B34A984611681A68914240F0CF82B14B9A
:1080C0001A78039312F0020F00F0D581AE4B1E68B0
:1080D0009A46B278B08812F0FE0F09BF96F8039066
:1080E0004FF00009B9FA89F94FEA591904F0DEFB9B
:1080F000C4B2F08804F0DAFB06F10C05C7B2B9F19E
:10810000000F0AD04CB9B6E1B9F1000F08D12846EA
:1081100004F038FC013C051DE4B2002CF4D146E02B
:10812000284604F02FFCDFF87CB20368CBF800305F
:10813000BBF8020004F0BAFBC0F30E000128E6D140
:10814000BBF80030B3F57F4F02D0B3F5E05FDED16E
:10815000DAF800B028468D495A46FFF7EFFD0028AF
:10816000D5D08B4B1B78022B17D14EF61413894CAC
:10817000228D9A4203D1884B01221A607BE1D8F804
:108180000050FFF767FE238D0246009328465946AC
:1081900004F1080304F01CFC6DE1308904F086FB57
:1081A00010F0FF0FB3D08020FFF790FEAFE7002F55
:1081B00000F06181774B1A8D4EF614139A4202D16A
:1081C0003388002B54D0684B4FEA841A1AF80320E6
:1081D000032A06D103EB0A09B9F80210328891424A
:1081E00003D00134042CEED145E199F800204C462F
:1081F000032A40F04081CB4601220BF8182BF1787E
:10820000059301F00F018BF804100492FAF7DCFAE1
:108210009BF804101E30C9F80800049A059B39B376
:1082200003EB0A0089F800201F30002105E150F817
:10823000041B904243F8041BF9D10288DFF85C91DB
:108240001A80BAF8020004F031FBC0F30E000128D6
:1082500016D0284604F096FB0546BAF8080004F04C
:1082600025FB013F0A3017F0FF07054400F0EA80C4
:10827000284604F087FB494B00F118029A46D6E7DE
:10828000B9F80830B3F5805FE3D1B9F80030B3F541
:10829000E05FDED13F4B1A8D4EF614139A4240F048
:1082A000AD803288002A40F0A98093463C4B4FF0C5
:1082B0000409DFF8D4C02846DCF800201946CDF8C0
:1082C00010C00593FFF73AFD5FFA8BF4DDF810C09C
:1082D000002840F08F80059B13F81F2C7AB1042AE8
:1082E0000ED1CDF814C00493FAF76EFA049BDDF8B2
:1082F00014C053F8172C904288BFA14600E0A14655
:108300000BF1010BBBF1040F03F14003D1D14C463B
:10831000154B4FFA89F103EB8111DCF800202B7823
:108320001F3105F1010E2020002B4ED013F0C00F9D
:108330000CD09EF800E023F0C0030EEB032302EB09
:10834000030ED35C0EF1010E002B3ED0013BDBB2DD
:1083500001330B448C461EF801BB01380CF801BBFD
:1083600022D148706CE000BF744E00200D6E0020DA
:108370004C4E002010DB200085DC20000E6E00201B
:10838000C8670020C0670020CC6700202A61002059
:108390004C610020AC620020504E0020D6540020DA
:1083A000934E0020F05400209C456146D2D19EF8A7
:1083B00000303BB14FF02E0B013801F101018CF878
:1083C00000B002D00EF1010EAEE74FF0000B81F8C5
:1083D00000B0A8B34FFA89F9B9F1040F0AD12846C1
:1083E000A549FFF7ABFC58B3A348A449FFF79EFD8E
:1083F0005C462EE7A24864B200EB84140423BAF86A
:1084000004202370BAF8063003EB0223A360FAF7C6
:10841000DBF904F10C021646A3681844974BA060E0
:1084200003F11007154618685968083303C5BB42A5
:108430002A46F7D1314604F11F00FFF777FD1AE015
:10844000044606E78F4B1A8D4EF614139A4212D04B
:10845000338883B1607F0130C0B2607700F06AFC7E
:1084600040B103232771237088213A468648FBF7E1
:10847000B1FF00E06777039B1B781A0740F1EE809D
:10848000824C236853B3824D00210C22286803F0EC
:1084900079FDFFF7DFFC4EF61413009302467D4B87
:1084A000D8F80000296804F093FA0023D8F80000F7
:1084B000236000F0A9FBD1E09DF81E40DFF8C091D9
:1084C000E7B2BD0119F8053009EB0504023B012BA9
:1084D0004E460AD99DF81E300133DBB28DF81E30AE
:1084E0009DF81E30032BE7D9B8E06B48202104F03B
:1084F000A2F819F80530032B42D194F801A00AF133
:10850000FF3A5FFA8AFA84F801A0BAF1000FE1D1CC
:10851000A27F237912F0010F03F10103DBB214BF34
:1085200003220422934223711ED104F1180B9BF8FD
:1085300005000130C0B28BF8050000F0FBFB10B164
:1085400084F804A010E001238BF8050009F8053039
:108550000390FAF739F91E30A06009EB05001F30CF
:108560000399FFF7E3FCB5E735442B795B4303EB55
:1085700043036B70AB7F9B0708D502236B7005E04C
:10858000032323700123637000232371404D0C22C9
:10859000D5F800900021484603F0F4FCFCF720F8E1
:1085A000BC01A9F80000331958809B7F311903F0F2
:1085B0000303012B1CBF012389F8023033199B7F71
:1085C0001F31DF0744BF0023A9F8003028684FF4AB
:1085D0008073A9F804300C3004F0E1F933199B7F63
:1085E000811C03F0020303F0FF021BB100230370A0
:1085F000FF2301E002701C230A4643700120002380
:1086000002F8023B26444870B17FC80716D5890797
:108610000BD508A901F8013D1046FFF7D7FB02462C
:108620009DF81F301B02A9F808304EF61413296874
:108630000093D8F80000521A164B0DE02D68707F99
:10864000541BD8F8007000F075FB4FF454520346E9
:10865000009238462946224604F0BAF90B4B1B68B3
:10866000002B3FF414AD0D4B186800F0CDFA0EE569
:1086700009B0BDE8F08F00BF2A610020E05400205F
:10868000744E0020AC62002034410020504E002087
:10869000CC67002010DB2000544E00204C4E002000
:1086A0002DE9F743414C0546217821B94048FBF7B5
:1086B000BDFE012323702846FFF718FC002507465E
:1086C000A946A8463B4E30463946ECB203F0A8FC1A
:1086D00000B316F81F3CA3B1042B08D0364B16F894
:1086E0001A2C1B789B1A434508DC4C460BE0FAF722
:1086F0006BF856F8173C984203D8EFE75FFA83F817
:1087000001E04FF0FF080135042D06F1400649D085
:10871000A146D8E7294C04EB8514002140222046CD
:1087200004F11F0603F02EFC39462122304603F0E7
:1087300079FE214A0223237013783846637101338E
:10874000137003F0E9FD03461D4A052B106892885B
:108750000090ADF80420A57F08D9581F3844694619
:1087600003F05EFC10B945F0010501E06FF3000570
:10877000144BA5771B78012B07D13046124903F023
:108780008FFCB0FA80F0400900E00020A37F882130
:1087900060F3410306480022A37703B0BDE8F0432D
:1087A000FBF718BE054B03EB8414B6E74D610020C0
:1087B00034410020934E00204B610020744E002075
:1087C0007FDC20004C6100202A61002038B540F297
:1087D000694503880446AB4214D001D84BB13AE056
:1087E00040F26F40834219D040F27640834222D05B
:1087F00031E01C490B703AB11B48116803F01BFFB4
:1088000025802CE088292AD1FBF7EAFEC0F3C401B9
:10881000154803F010FF40F26F430AE088294FF03B
:1088200001001ED10F4B18701048FFF739FF40F2BE
:108830007643238013E00E4B1B788B420FD10B48FD
:10884000114603F0EDFB0028F1D1064B02221A700D
:10885000084B01221A6000232380032038BD012029
:1088600038BD38BD4C610020644E00202A610020D4
:108870000D6E0020504E002008B5054803F0F6FEAE
:1088800020B1BDE80840024803F0E7BE08BD00BFC4
:10889000B84F0020024B1B6803B1184718467047B9
:1088A000C84F0020014B1860704700BFC84F002020
:1088B00010B51446FDF798F818B1024BC4611B6857
:1088C000836110BD2843002007B5074B8DF80700D2
:1088D000186828B1054B0DF107021978FBF79CFDCC
:1088E00003B05DF804FB00BFB46900200F6E0020E8
:1088F00008B5002204480221FBF78EFD034A00233D
:108900001380034A137008BD444100209862002080
:10891000F6600020F8B53E4E3388002B77D0B3F5D3
:10892000A06F70D83B4B1A8B72B95A8B62B99A8B75
:1089300052B9DA8B42B91A8C32B95A8C22B99A8C54
:1089400012B9DA8C002A5ED01B7EFF2B58D0324839
:10895000FDF7EEFFC8B93048FEF74CFB044620B9DE
:10896000FEF7D0FC054688B94DE0FEF72DFB054625
:1089700060B9E36923B11B6A93F8940004F04AFAE2
:108980002046BDE8F840FEF767BB234D284600F0BF
:10899000E7FD0746B8BB2846FEF710FA0446F8B9CB
:1089A0002846214622462346FEF7D0F9054650B315
:1089B0001A48FDF7DDFF014608B1214617482A464F
:1089C000FFF7FCF8164B05F11C0019694FF47A7398
:1089D000B1FBF3F103F05AFE012385F824300FE0D8
:1089E000437C83B1022B07D1032343740521143048
:1089F00003F04CFE84F824702046FEF7D7F900E01F
:108A00000020FFF747FF074A002333801370F8BDAB
:108A100098620020AC620020C4620020B462002092
:108A2000186B0020F66000202DE9F041038806460F
:108A3000144643B140F23632934227D000230380DC
:108A40000320BDE8F0815F4A002122F83310013392
:108A5000DBB2082BF7D15C490B705C4B1B681364CD
:108A6000FBF730FC5A4B1870FBF72CFC594B40219C
:108A70001870594803F0DFFDFCF752FF00F020FAB0
:108A800040F2363333800120BDE8F081022917D14E
:108A9000524B1A881C46002AF2D0514B9A79062A6A
:108AA00005D193F835309B0701D5FFF7E5FE01208E
:108AB000FDF70CF82388002BE2D0FFF72BFFDFE750
:108AC00016D859B9002CDBD0464B03201C60FCF7AC
:108AD000FDFFFFF71FFFFFF7CFFED1E70129CFD141
:108AE000002CCDD0404B05201C60FCF7EFFFE4E7E5
:108AF000872931D13D4D00233D4F2B702B78072B1B
:108B000011D857F8043CA34208D137F8080CFCF7F9
:108B1000C3FF002327F8083C47F8043C2B780837AC
:108B200001332B70EAE7334B9A6A3033A24202BF1B
:108B3000002243F8082C03F80B2C2F4A9342F3D160
:108B40002E4B9A692033A24204BF002223F8102C36
:108B50002B4A9342F5D193E7882991D11E4B9C4231
:108B600003D0284B9C428BD123E0204603F07EFDAE
:108B70000028F6D01D4D00232B702B78072BF0D842
:108B80001C4F4FF0300808FB037393F825306BB18E
:108B9000114803F062FD154B02201A7808FB02739E
:108BA000104A1360FCF792FFFFF7B4FE2B780133F5
:108BB000E2E7204603F05AFD00283FF461AFFDF7DD
:108BC000B5FF7AE7744F0020706100202843002031
:108BD0000E6E00200F6E0020B84F0020986200201B
:108BE000AC620020D0670020C867002071610020BF
:108BF0007C4F0020D467002054690020D0690020F9
:108C0000106B0020746C0020024601210148FBF724
:108C1000E1BB00BF4441002070B5184B186810B18B
:108C200000F1280402E0164B1C681834154B1B7821
:108C30005B0619D5144A002314491370082B10D071
:108C400031F8086C058AAE4207D151F8045C25B1B1
:108C5000137000232560636004E001330831DBB248
:108C6000ECE71370FFF708FE206830B1084B62682C
:108C70001978BDE87040FBF7CFBB70BDD06700200E
:108C8000C8670020C06700206F6100207C4F002073
:108C90000E6E0020F7B5054628B9224803B0BDE89E
:108CA000F040FAF77FBD0388ABB94488ACB983883C
:108CB000A3B9C4888CB9038983B94FF6FF7241897F
:108CC00091420AD1017B427B837BC07B0090164896
:108CD000FAF768FD24E0002400E01C462646AB19A4
:108CE0005B78AF5D03EB0727BFB24FB9002C09DB00
:108CF00001D0013411E00D48FAF754FD01240CE0D5
:108D0000002C04DC2EB13A2003F018FC01E04FF0F7
:108D1000FF3407483946FAF745FD0236102EDED1FA
:108D200003B0F0BDB2DC2000C1DC2000D4DC2000A8
:108D3000D7DC20000028024818BF0020704700BF81
:108D4000F454002010B50A4C79B10A4B2280186007
:108D500040F2E4439A42A8BF1A46074803F0AEF82F
:108D60000420FCF7B3FEFFF7D5FD0023238010BDE0
:108D7000CC690020C8670020DC620020014B187815
:108D8000704700BF726100207FB5FEF72DF930B14A
:108D900083690BB1013B836103F0EEFDF7E7FEF75A
:108DA00023F90446F4B1A669C6B904F108030FCB50
:108DB0008DE80F002046FEF74FF9FEF715F90A4B34
:108DC00004461A68D368B2F8A220998B9142E9D080
:108DD00098696946324600F015FF03E0204603F02B
:108DE000CBFDDEE704B070BD846C0020F0B548F226
:108DF000FE03044685B0184DADF800300F46002341
:108E000068462146ADF80230ADF80430ADF80630C2
:108E1000ADF80830ADF80A30ADF80C30ADF80E30D2
:108E2000164603F078FD95F89530012B12D12846AF
:108E3000694603F0D6FE044660B1437B43F001036C
:108E40004373AB685B682BB1394632469847F9F7F4
:108E5000B1FCA06005B0F0BD886C002008B50146EB
:108E6000074890F89530012B09D103F0BAFE30B1D4
:108E70004FF6FF738380437B43F00103437308BDC8
:108E8000886C002038B50D4B93F89520AAB103F1FA
:108E9000100403F19005637D1BB94034AC420CD043
:108EA000F9E7E36B13B1013BE363F6E7A37D002B26
:108EB000F3D1204603F073FFEFE738BD886C002044
:108EC0001FB5134B00241C6000F072F801F05EF92E
:108ED00001F046F840F2FF236846ADF800304FF449
:108EE000D053ADF80E30ADF80240ADF80440ADF807
:108EF0000640ADF80840ADF80A40ADF80C40FDF76B
:108F00006DFD044B20461B68984704B010BD00BFA0
:108F1000846C00209841002070B50D46044658B17D
:108F20008169A94208D0054E306801F00DFB306818
:108F3000294601F0FFFAA56170BD00BF5441002031
:108F400038B50D4604460021102203F01BF82A7D97
:108F5000294607322046D21002F03AFF2046BDE8EB
:108F60003840014903F0D7BCA462002008B5FDF7E2
:108F700025FFFDF71BFF034B01461868BDE80840BD
:108F800004F0B9BA5441002008B5074B01461868EF
:108F900004F0CAFA014628B1044B1868BDE808403D
:108FA00004F0A9BA08BD00BF54410020A840002029
:108FB000024B0349186801F0EBB900BF544100208F
:108FC0009BCD2000024B0146186804F094BA00BF04
:108FD0005441002008B5044B0146186804F0A4FA77
:108FE000BDE8084003F0BDBC5441002038B50B4C2F
:108FF000054694F8951071B94FF4A872204602F016
:10900000C1FF0123204684F8945084F8953001F084
:10901000E1F8204638BD002038BD00BF886C002034
:1090200070B5064610460D4603F09DFC014608B992
:10903000002413E00A4B186801F0D8F90446002810
:10904000F6D0FFF7A1FF26606B8AA3806B7E2373A7
:1090500020B1438A13B94FF400734382204670BD98
:1090600054410020F8B5194F0646386801F0A4F9BC
:1090700004460025BCB12368B3420ED14FF6FF73FE
:10908000A2889A4209D03DB1336A28469B6821469E
:109090009B689847054600E025462146386804F05D
:1090A00013FA0446E6E75DB130462946FFF734FF80
:1090B000336AB0699B6821461B699847B08302E018
:1090C0004FF6FF73B3832846F8BD00BF544100201C
:1090D00010B5044603F03DFE034B2146BDE81040A9
:1090E000186801F011BA00BF5441002070B5094D55
:1090F0000646286801F060F9044650B123689E4294
:1091000002D12046FFF7E4FF2868214604F0DCF98D
:10911000F2E770BD54410020044B93F8950020B154
:10912000D868837D002B08BF00207047886C002022
:10913000064A92F8953033B192F8943083420CBFCE
:109140001046002070471846704700BF886C00200A
:10915000034B1A8B82420CBF18460020704700BF99
:10916000984100202DE9F8438046088A0C46FFF715
:10917000EFFF814600287CD0207E214603F06EFE62
:109180000646002875D021464246056AFFF748FF8B
:10919000074618B985F89500BDE8F883637E037328
:1091A00094F851305B0604D5002004F13C0103F033
:1091B0008FFC0123B375A37D04F110013375237D6A
:1091C000F374E37DB374C5F80890637DEE6085F8B1
:1091D0009730F02385F89630238CA5F8A030638C67
:1091E000A5F8A230A37E85F89830E27E134485F876
:1091F000992085F89C30237F324685F89A30637F2A
:1092000085F89B30E38BA5F8A430234653F8040B74
:109210008B4242F8040BF9D104F13C0306F124021D
:10922000543453F8041BA34242F8041BF9D13946C5
:109230003046FFF771FEAB6828465B699847AB681C
:1092400038461B69002198470B4BB0831A6830825F
:1092500002B91D60284604F0EBF82846414603F0A9
:1092600099FC95F8973023B12846BDE8F84304F0FF
:10927000EDB8BDE8F88300BF846C00202DE9F04113
:10928000064610B300F1100400F19008637D3BB96D
:1092900040344445FAD13046BDE8F04104F0C8B846
:1092A0004FF6FF730A4FA383386801F085F805462F
:1092B0000028EDD02B689C4202D1284603F049FDDE
:1092C0003868294604F000F9F1E7BDE8F08100BFF5
:1092D0005441002038B50D4D286801F06DF8044662
:1092E00090B122685AB1136A4BB1637BD90706D596
:1092F00023F001036373106A214603F0D3FD28684D
:10930000214604F0E1F8EAE738BD00BF54410020EF
:109310002DE9F84FDFF808913F4C99F800300546E9
:1093200028331A195278C8462746002A68D10344C0
:109330001A191B5D632B63D15378042B60D1D0784D
:10934000FFF7F6FE064600285AD099F80030283379
:109350002B44234493F8029019F0200F08D004F115
:109360001800FDF747FE002847D0FDF775FE44E0E2
:10937000C268917D002943D0B3F804B0908B9BFA6A
:109380009BFB1FFA8BF39842244B4FF00F00D3F84E
:1093900000A094BF0024012401F01EFA01465046AB
:1093A00004F0A9F85FFA89F9824668B198F80030AC
:1093B00028332B443B449B785B0605D5A0F804B0CA
:1093C0005146304603F01CFC19F0800F01D0FCB967
:1093D00000E0ECB1BAF1000F04D0C6F84CA1304661
:1093E00000F0EEFE98F8003028331D443D44AB7881
:1093F00003F0400202F0FF002AB1304604F018F8F2
:109400000120BDE8F88F43F04003AB70BDE8F88F52
:109410000020BDE8F88F00BFAC620020544100205E
:10942000F66000202DE9F84F494D4A4E95F806A008
:1094300000243778B0463470BAF1000F19D195F88E
:109440002940002C7ED195F82A30632B7AD195F8EB
:109450002B30042B76D195F82D00FFF769FE0028FC
:1094600073D090F895309BB3C168887D98BBBDE8F8
:10947000F88F40F20C53DFF8E4B0BBF80090994548
:1094800060DC05F12806A9F1280205F1300031461B
:1094900002F014FD6A796323AC6285F82A30042354
:1094A00085F82B3002F10803DBB293426B7138BFB1
:1094B0002B7909F1080938BF0133EC6285F828A03F
:1094C000AC71ABF8009038BF2B71083788F800708A
:1094D0000020BDE8F88F33782A335A195B5D632B7F
:1094E00030D18B8B05F118005BBA938092F9023072
:1094F000002B15DAFDF77EFD0028E7D133780F2029
:109500002A332B449A7842F020029A7001F064F9D1
:10951000FFF758FDC0B11049002200F073FB13E0C3
:10952000FDF768FD30B932782A32AB189A7802F02C
:109530007F0205E033782A332B449A7862F07F0269
:109540009A70C3E73770C3E70120BDE8F88F00BF0A
:10955000AC620020F6600020C46200209862002007
:10956000F8B51E4D1E4AAF79002392F800E001467F
:10957000137016462C4667BB95F8290010B182F887
:1095800000E026E095F82A30632B25D1EB8D1BBB3C
:10959000144A13681546F3B193F89520DAB1D868E8
:1095A000837DC3B103F012FB18B103689B69984235
:1095B00004D033788022234483F82C202A6833781F
:1095C00092F894102A332344D970D268928B52BAFD
:1095D0009A800020F8BD0120F8BD00BFAC620020D9
:1095E000F6600020846C002010B5134B00221A7026
:1095F000124B9A79FAB9124993F8282093F8294026
:109600009A710A885879083A121B92B20A80A0F11E
:109610000801091BC9B28142597188BF19790948EB
:1096200084BF01F1FF311971283A00F10801BDE84A
:10963000104002F043BC10BDF6600020AC62002078
:1096400098620020D4620020F8B5174C174EA0791C
:1096500000233778337010B137701846F8BD94F88E
:109660002A30632B1DD194F82C3094F82D0023F070
:109670007F0383F0800384F82C30FFF759FDC36823
:109680009D8B33782D022A331C44E078FFF750FD80
:10969000C368ADB29B8B377045EA1325A5800820BF
:1096A000F8BD3770F8BD00BFAC620020F660002046
:1096B000044B1B682BB1044B1B7EFF2B01D0FFF723
:1096C000B1BE7047846C0020AC620020024A0023C7
:1096D0001380024A1370704798620020F6600020E1
:1096E0002DE9F04F9FB000215C2207A802F04AFC50
:1096F00008238DF836300C238DF837300A238DF887
:1097000038304FF48073ADF83E304FF4E063ADF87D
:109710003C30904B03AF1B8BDFF84482ADF82C300C
:10972000FF238DF839304FF6FF73ADF83A308A4B8E
:10973000DFF830920FCB87E80F003846FDF73EFB8D
:10974000044680B90F2001F047F822460146012364
:109750003846FDF7FBFA002800F0F48014304FF48F
:10976000167102F093FF98F8003099F800607B4A78
:10977000F61A2C3303EB020BD35C58468DF83430C9
:109780009BF8013002218DF8333003F0B4FD9BF8D3
:1097900004302C3E23F07F028DF83020C3F3C20248
:1097A00003F007038DF832309BF80530F6B28DF8E0
:1097B0003530ADF82E008DF831200BF1080307ACE1
:1097C0000BF11805224618685968083303C2AB42EA
:1097D0001446F7D11824B44280F2B0801BF804304C
:1097E00023B10BEB04025578023500E0012505EBAF
:1097F000040AB24500F3A680023B062B00F29C80CF
:10980000DFE803F00432519A9A9A7D00052D40F367
:1098100099800BEB0403D9781A79490041EAD211F7
:109820008DF87110C2F3011102F00F0298788DF8D3
:1098300073205A798DF870008DF872108DF87420AD
:10984000002879D0072806D15846A11D03F053FD02
:10985000ADF8760070E0022874D19A79DB798DF842
:1098600076208DF8773067E0082D6BDD0BEB040276
:109870009378D278211D58468DF8543001938DF895
:10988000552003F023FD019B1490DA1DD210D11D49
:10989000A94257DA802B55D804F1080110A8594481
:1098A00002F096FA48E0102D4CD10BEB0405EB7852
:1098B000A11D8DF836302B7958468DF837306B79ED
:1098C0008DF8383003F017FD04F10801ADF83C00C5
:1098D000584603F010FD04F10A01ADF83E00584669
:1098E00003F009FD6B7BADF82C0004F10E01584626
:1098F0008DF8393003F0FFFCADF83A001CE0202D64
:1099000020D10BEB04039A78DB7804F10801584668
:109910008DF86C208DF86D3003F0D8FC10345C4469
:109920001A9016AA04F110051346206861680834DD
:1099300003C3AC421A46F7D154464CE7384607A950
:1099400003F066FB0023A9F8003088F800301FB050
:10995000BDE8F08F98410020B4620020AC62002086
:10996000F6600020986200201FB5124B124A1B7847
:1099700000212C339C186170D154A0B940F2FF2310
:10998000ADF80200ADF80400ADF80600ADF808002F
:10999000ADF80A00ADF80C006846ADF800304FF4A1
:1099A000D053ADF80E309B2100220223FDF796FE26
:1099B00004B010BDF6600020AC6200202DE9F04F2D
:1099C000054689467E4B90F894101B787D4AC66800
:1099D0002C33D1549C18B37C85B06370B28B204675
:1099E000022103F08EFC00232371F37C002B18BFAF
:1099F0008023237195F8972043EAC203DBB22371D9
:109A0000327D02F007021343237195F8963063719B
:109A1000B9F1000F0AD195F8963013F0800F03F1D9
:109A2000010308BF03F07F0385F896300023A3717C
:109A3000E371334604F1080206F1100153F8040BF8
:109A40008B4242F8040BF9D12B784BB3AB68284614
:109A50005B69984706230221217663762B78A376EB
:109A60006B785B08E3766B78DB012377AA7843EAAF
:109A70000213EA78134323772B78072B06D16177FB
:109A800020461E21EA8803F03CFC07E0022B40F050
:109A900093806377AB79A377EB79E377202700E0B6
:109AA000182704EB07080E234FF0000A4FF0040BB1
:109AB00004F807B088F8013088F802A095F89830CB
:109AC000204688F8033095F89930B91D88F804309D
:109AD00095F89A3088F80530B5F8A02003F011FC0D
:109AE000204607F10801B5F8A22003F00AFCAB6894
:109AF00020461A8B07F10A0103F003FC88F80CA03A
:109B000095F89B30204688F80D30B5F8A42007F171
:109B10000E0103F0F6FB96F8382007F110036AB344
:109B20000822E2541E2388F8113096F83830204677
:109B300088F8123096F8393007F1140188F813309C
:109B4000726B03F0CFFB2046726B07F1180103F034
:109B5000C9FB07F11C0020445A46514602F012FA94
:109B600007F1200306F124021C44343652F8043B6A
:109B7000B24244F8043BF9D107F13003B9F1000FC8
:109B800015D140F2FF22ADF800204FF4D052ADF8CD
:109B90000290ADF80490ADF80690ADF80890ADF8DD
:109BA0000A90ADF80C90ADF80E20684600E04846EB
:109BB0009B210122FDF792FD05B0BDE8F08F00BFAB
:109BC000F6600020AC62002008B50A4890F8953095
:109BD000012B09D108490B7EFF2B03D00831FFF779
:109BE000EDFE01E003F024FC044A00231380044A44
:109BF000137008BD886C0020AC62002098620020C1
:109C0000F66000202DE9F04106460C469046FFF72D
:109C1000B5F801285ED0002E5CD03068002859D0FD
:109C2000026A002A56D0002C54D02B4D2B4B297899
:109C300093F800E092F89420294F0EF12C0E11F0C9
:109C4000800F01F101010EEB070307F80E2008BF9A
:109C500001F07F01402229705A7000229A702A7800
:109C600000F11001DA701A1D50F8045B884242F8C6
:109C7000045BF9D1214605221A7512225A75002279
:109C80009A758022DA7504F1100003F1180251F878
:109C9000044B814242F8044BF9D1062283F8282074
:109CA000042283F82920002283F82A2083F82B201D
:109CB00083F82C2083F82D803046FFF78BF948B1CC
:109CC0003046FFF787F9BDE8F0419B2102222E23A1
:109CD000FDF704BDBDE8F08113420020F6600020CE
:109CE000AC620020F0B50A461549064685B0002052
:109CF0000C7E91F82A30DCB1012B19D88B7EFE2B1B
:109D000013D06C466F460F4B03EB401303F1100E5C
:109D1000254618685968083303C573452C46F7D1A2
:109D200030463946FFF76EFF07E0CB7E802BE8D147
:109D30000130032801F12001DAD105B0F0BD00BFE8
:109D4000186B0020326B002030B50A4B90F894005D
:109D50001B78094D2C33E8545C1900236370A27002
:109D6000E3700846BDE830409B2103220423FDF741
:109D7000B5BC00BFF6600020AC6200202DE9F04FBA
:109D8000744C8DB004AE04F108030FCB86E80F00CD
:109D9000714B724A1B78128801932C33E05C1F19B7
:109DA0000392FFF7C5F90546002800F0C38090F83C
:109DB0009B3097F801B00093FB781BF0400F0293A3
:109DC000C4680AD02046391D102201F0CFFF0028B8
:109DD00040F0B0804FF0140A01E04FF0040A9DF803
:109DE0001020FF2A02D14FF0020815E0204631462C
:109DF00002F0ECFE70B1B5F8A2608188A28BB1FBD5
:109E0000F6F1B2FBF6F29142C0F09C80A26990425A
:109E100000F098804FF001084FF00009039B019A71
:109E20009E1A2C3EF6B2B24522DA17F80A10E1B1BA
:109E300007EB0A025678052906F1020604D0062926
:109E400014D15379009311E092F8039008A80021EF
:109E5000102202F097F809F107020AF1040108A89C
:109E60003944D21001F0B4FF00E00126B244D5E736
:109E700008A8FDF7BFF8009B0746E3B9002859D0B2
:109E800090F82130002B55D190F824304B4551D11A
:109E9000FDF79AF800284DD03846FDF795F804A94B
:109EA000102201F063FF002844D1012387F82130FC
:109EB0003C23BB6129E004A8FCF780FF074670B98A
:109EC0000F2000F089FC3A460146012304A8FCF764
:109ED0003DFF78B314304FF4167102F0D7FB2046E3
:109EE00008A94A4604AB02F0C5FD18B3B5F8A43082
:109EF000009AB8F1010F03FB02F383614FF00003F6
:109F000080F8208080F8213014D1A06950B1FFF78B
:109F100061F838B1A069FFF75DF89B210222334652
:109F2000FDF7DCFB1BF0800F04D0284604A9029A41
:109F3000FFF70AFF094A00231380074A13700DB088
:109F4000BDE8F08F4FF6FF738380437B43F001033E
:109F50004373EFE7AC620020F660002098620020B7
:109F600008B50748FDF70EFB0648FDF70BFB064852
:109F7000FDF708FBBDE808400448FDF703BB00BF40
:109F8000744100208C410020804100206841002065
:109F900070B590F89C30012606FA03F44FF47A71FC
:109FA000E401B4FBF1F4C0F8A8400546FAF718FB49
:109FB0004FF6FF71F4406043B0FBF1F1D5F8A830E3
:109FC00021445B1AC5F8A830002385F89E3085F837
:109FD0009D6005F1CC002B46BDE87040014AFAF7C0
:109FE0000DB800BF61A0200010B50C4CFEF74AFF71
:109FF000FEF7CAFEFFF76EF9238801332380FFF7CF
:10A000008BF828B922883B2A02D92080FFF7ACFCC4
:10A01000BDE810400248F9F7FBBF00BF045500201F
:10A020000C51002010B50446FEF7A8FE012813D0FD
:10A030004FF6FF72B4F8A43093420DD094F89B1001
:10A04000FF2909D0594304F586702346BDE8104026
:10A050008901024AF9F7D2BF10BD00BF35A1200027
:10A0600070B51D4D04462B7853B90120FCF796FCC2
:10A0700010B101232B7003E004F1CC00802114E027
:10A0800094F89D30BBB194F89A303BB194F89E207F
:10A090009A4203D220460021FFF790FC0023D4F817
:10A0A000A81084F89D3004F1CC002346BDE8704030
:10A0B0000A4AF9F7A3BF94F8991094F8982094F8F5
:10A0C0009C300A449342BCBF013384F89C30204644
:10A0D000BDE87040FFF75CBF7361002061A0200005
:10A0E00070B505460C46FEF749FE01281ED005F165
:10A0F000F006304602F0BFFA304602F0B7FAA8B1D7
:10A1000044B1FAF76DFAB0FBF4F101FB140000EB77
:10A11000540100E0214605F1EC002B46044AF9F712
:10A120006DFF2846BDE87040FFF77CBF70BD00BFE3
:10A1300035A1200070B5134B04461B7800F1EC05E7
:10A140005BB90120FCF72AFC38B928462346BDE854
:10A15000704080210C4AF9F751BFE368986918B143
:10A1600094F89B10FFF7BEFD2846F9F76DFF04F544
:10A17000887002F07BFA20B12046BDE87040FFF7FE
:10A1800051BF70BD7361002035A1200010B5FAF7F2
:10A1900027FA3C2358434FF6FF73B0FBF3F0054B0F
:10A1A0001930188080210448044A0023BDE810407B
:10A1B000F9F724BF045500200C510020E99F20002E
:10A1C0000346002100F59670014AF9F717BF00BF5A
:10A1D00015D4200010B50446FAF702FA4FF4705275
:10A1E000B0FBF2F101FB120081B2234604F1AC0096
:10A1F00001F5F051024ABDE81040F9F7FFBE00BF7B
:10A2000005A220002DE9F0470646C768F8F7D2FA04
:10A21000B0F5163F8CBFA0F596384FF001083FB15E
:10A22000386AC0B1B869B0B18368434513D301E05F
:10A23000384610E0FAF7D4F910F001042FD1DFF816
:10A2400090A04FF6FF79DAF8000000F0B5F8054667
:10A250006DB924B32046FEF7BDFE014610B130466D
:10A26000FFF7ACFB3046BDE8F047FFF7B3BF2B6804
:10A27000BB420DD1AB6843450AD23B6A28469B6876
:10A2800000211B6998470CB1484501D281462C46F4
:10A290002946DAF8000003F017F90546D8E70C4D17
:10A2A0000024286800F088F801460029D2D00B6805
:10A2B000BB4207D12CB18A68A3689A4238BF0C46CA
:10A2C00000E00C46286803F0FFF80146EDE700BF08
:10A2D0005441002030B1054B9B68C01A044B8010DC
:10A2E000584370474FF0FF30704700BFB441002023
:10A2F000ABAAAAAA38B50D4D002818BF05460C48D0
:10A3000002F0EEF9044668B12846211D03F0A7F8D3
:10A3100020B12046BDE83840FFF7DCBF204602F000
:10A320001CFAEFE74FF0FF3038BD00BFEEDC200035
:10A330002C51002080B161B1C3684068CB1A93FBF7
:10A34000F0F14B1C07D0054B0C209B6800FB013043
:10A350007047084670470020704700BFB441002096
:10A3600090B171B1C368CB1A416893FBF1F35A1CE9
:10A3700009D0064AD35C026843FA02F000F00100FB
:10A380007047084670470020704700BF9C6100205E
:10A3900010B5074A1368072B9FBF5C1C1460054A61
:10A3A00003609DBF816042F823000120002010BDA2
:10A3B000405200202052002038B505460A4802F0DD
:10A3C0008FF90146284603F06EF8044628462146D8
:10A3D000FFF7C6FF28B928462146BDE8384003F0FC
:10A3E00073B8204638BD00BF2C5100202DE9F0473E
:10A3F0003F4F0646002918BF0F463846FFF77AFF41
:10A40000054601305FD13B4802F0BAF90446002806
:10A4100048D1394802F064F9A0460546C5B128463E
:10A42000FFF758FF354B1B5C6BB9354A125C22B104
:10A43000D10748BF01335210F9E70CB1434502DAA6
:10A440004BB12C469846284602F087F90546E5E7C9
:10A450002546002C48D000242A4B53F82480B8F11C
:10A46000000F11D0D8F80890B9F1000F0CD0294690
:10A47000404603F018F8824640465146FFF770FF09
:10A48000012801D15046C8470134082CE4D12846A0
:10A49000FFF720FF1A4B00221A542946164802F0F3
:10A4A00029F92C462146144802F038F92046FFF7D6
:10A4B00011FF39460546201D02F0CCFF0EB16B1C82
:10A4C00003D1002405E0002EFBD07368F46803FB81
:10A4D000054400217268204601F054FD08483146C9
:10A4E0002246012302F0C3FF2046BDE8F08700BFEB
:10A4F000EEDC2000B44100202C51002088610020B7
:10A500009C6100202052002070B505460C460023B7
:10A5100029462246054802F0AAFF06462946224659
:10A520000023034802F0A3FF304670BD9C61002069
:10A530008861002003460A4602481946012302F0BA
:10A5400096BF00BF8861002003460A4602481946AC
:10A55000002302F08CBF00BF88610020084B10B5BB
:10A560001B689847074B5B689847074B5B689847A1
:10A57000064B5B689847BDE81040054B5B68184781
:10A58000C4D82000C0D92000E0D9200098D92000EC
:10A590008CD92000F8B50E4B0E4A1B781688C3F1F3
:10A5A0003005AC19802C07460EDC0B492A461944AD
:10A5B00001F00EFC094A0A4B11681B8878191944EE
:10A5C000324601F005FC00E000242046F8BD00BF43
:10A5D000B06100200655002048520020445200205F
:10A5E0000855002010B508490B888342A1BF074CCD
:10A5F00080B222881218A1BF181A08802280012078
:10A60000B8BF002010BD00BF06550020085500202F
:10A61000014B1880704700BF06550020024B188878
:10A62000024B1844704700BF0855002078520020A4
:10A63000024B03481B781844704700BFB0610020EC
:10A6400048520020014B1888704700BF0655002073
:10A65000044B1878C0F1300010F0FF0004BF024B2B
:10A6600018787047B06100200855002008B5FFF742
:10A67000EFFF024B1B88184480B208BD065500202E
:10A6800070B5084E05463478844208DBFFF7EEFFCC
:10A690002844802803DC641B3470012070BD002036
:10A6A00070BD00BFB061002008B50023084A00213A
:10A6B00022F8131001330F2BF8D10648064902F097
:10A6C000C9FEBDE808400548034902F0C3BE00BF0B
:10A6D000E86D0020D86D0020EEDC2000E06D002049
:10A6E000064A00231380064A1380064B30221A7054
:10A6F000054A064B1A60FFF7D7BF00BF0855002078
:10A7000006550020B06100207852002044520020FD
:10A7100038B50C460546FFF7E3FF802C054B28BFF4
:10A72000802418682946224601F052FB024B20463D
:10A730001C8038BD445200200655002010B50A4B3D
:10A7400003F11C0253F8044B934240F8044BF9D137
:10A750001B880380054B03F1100253F8040B93424E
:10A7600041F8040BF9D110BDE86D0020D86D002030
:10A7700010B50A4B00F11C0250F8044B904243F80C
:10A78000044BF9D102881A80054B01F1100251F8EF
:10A79000040B914243F8040BF9D110BDE86D002081
:10A7A000D86D0020024B23F810100120704700BF25
:10A7B000E86D0020014B33F810007047E86D002071
:10A7C00008B5044B0F3803EBC00002F043FE012034
:10A7D00008BD00BFD86D0020024B0F3803EBC0004E
:10A7E000704700BFD86D00200148024902F037BE13
:10A7F000E06D0020EEDC200008B5044801F0B0FF59
:10A80000BDE80840024801F0ABBF00BFCC410020CA
:10A81000C0410020014801F0EBBF00BFC041002053
:10A8200038B50E4801F0ACFF0446A8B10C4801F061
:10A83000A7FF0546206028B92146084801F0B4FF6B
:10A84000284638BDFFF7A6FE05F1A001A5F8800057
:10A8500005F18200FFF772FF204638BDC04100209D
:10A86000CC41002010B504460748214601F0B2FF54
:10A8700048B12168054801F097FF2146BDE8104026
:10A88000014801F091BF10BDC0410020CC41002023
:10A8900010B504460948214601F09CFF68B12468C0
:10A8A000B4F880102046FFF733FF04F1820004F172
:10A8B000A001BDE81040FFF75BBF10BDC041002004
:10A8C000014BDB68184700BFE0D92000014B5B69F2
:10A8D000184700BFC0D92000014B9B69184700BF33
:10A8E000C0D92000024BD86900B10047704700BFB3
:10A8F000C0D9200013B5044668B1406B01F0F0FEEA
:10A90000024640B12146054B0548DB68019302B081
:10A91000BDE81040184702B010BD00BFC0D92000EC
:10A9200029AB20002DE9F041074610208846FFF7AB
:10A9300053FF474B05461A78464C22B901221A703C
:10A94000F9F74EFE2080238813B9424B01221A806A
:10A9500021880A204B1C2380FFF724FF3E4801F08A
:10A96000BFFE044640B1201D294602F078FDE8B93B
:10A97000204601F0F2FEF4E7384801F001FF0446FA
:10A9800050B32946201D02F065FD002304F130007C
:10A99000606384F82C3084F82D3084F82E302363E3
:10A9A00001F09BFE2C48214601F0B8FE606B01F0DF
:10A9B000CDFE072810DC2A4801F0E2FE054698B9D2
:10A9C000606B01F0C3FE38B92348214601F092FEC6
:10A9D0002248214601F0E8FE38464146BDE8F041F4
:10A9E0000422012302F013BF1E4801F0C9FEA86033
:10A9F00038B3FFF715FF6860F8B10920AE68FFF7BC
:10AA0000D9FE10B90323337203E00920FFF7D2FE09
:10AA1000307286E880012946606B01F07FFE606B32
:10AA200001F05EFE854211D104F10C002346BDE821
:10AA3000F04100210C4AF9F7E1BA0A48A96801F08F
:10AA4000B3FE2946064801F0AFFEB9E7BDE8F08144
:10AA5000C36100208A5A002078530020E44100207E
:10AA6000F0410020D8410020F5A8200008B5054895
:10AA700001F076FE044801F073FEBDE8084003488B
:10AA800001F06EBEF0410020D8410020E4410020DA
:10AA900070B5044615460E46002938D0406B01F0CB
:10AAA00029FE7068FFF7DEFEB168194801F07CFEF0
:10AAB0003146184801F078FE606B01F011FE04F198
:10AAC0000C06B8B1002384F82C3084F82D3084F8BB
:10AAD0002E303DB1104BDB699847002814BF01466A
:10AAE000102100E0294630462346BDE870400B4A5D
:10AAF000F9F784BA3046F9F7A7FA2146084801F079
:10AB0000F9FD2146BDE87040064801F04DBE70BD1C
:10AB1000D8410020F0410020C0D92000F5A8200035
:10AB200078530020E44100202DE9F14F0E46044601
:10AB300000286ED0032914D8DFE801F00208020EC5
:10AB400090F82C301A4480F82C200AE090F82D3030
:10AB50001A4480F82D2004E090F82E301A4480F832
:10AB60002E20606B01F0BCFD0546002851D00A2163
:10AB7000686802F0F3FC07460A20FFF71BFE8742D5
:10AB800003D0284601F0E9FDEEE7D5F80880B8F1DA
:10AB9000000F3ED0731E012BD8F800B0D8F80490F7
:10ABA00094F82C7027D81C4BDB699847002814BFF9
:10ABB00082464FF0100AF9F713FD94F82C2098F80C
:10ABC00008309A4217D2032FA8BF03270123BB40A6
:10ABD00003FB0AF3B0FBF3F203FB120104F10C00D8
:10ABE00051440E4A2346F9F709FA686801B0BDE8F6
:10ABF000F04F02F09FBC204629463246FFF748FF3F
:10AC00005846494632463B4601B0BDE8F04F02F097
:10AC1000FEBD01B0BDE8F08FC0D92000F5A820002E
:10AC2000014B1888704700BF104200202DE9F04109
:10AC3000012986B006460F46144640F3AA800378E1
:10AC400003F007028DF80C20C3F3C0028DF80D202D
:10AC5000C3F300128DF80E20C3F34012C3F3801328
:10AC60008DF8103043788DF80F20C3F340028DF833
:10AC70001220C3F3810203F001058DF81320C3F302
:10AC800001129B098DF815308DF814208DF81150A4
:10AC900003AB03CB1B882061616123830DB1B51C1D
:10ACA00002E0B378F51CA37603A801A902AA02F07A
:10ACB0005BFC9DF81380B8F1000F23D0029B23B1F9
:10ACC0006A7815F8023B03EB0223B8F1020FA38365
:10ACD00009D12046314902F0BDFB6B78237015F88D
:10ACE000023B637014E0B8F1030F11D105F10802C3
:10ACF0001346611E13F8010DAB4201F8010FF9D1A3
:10AD0000154605E02046254902F0A4FBA4F81C8066
:10AD10009DF81580B8F1000F2BD0019B53B16A78D4
:10AD200015F8023B03EB0223029A9BB2E3831AB9A4
:10AD3000A38301E0A38BE383B8F1020F0AD104F1EE
:10AD40000800164902F086FB6B78237215F8023B67
:10AD5000637215E0B8F1030F12D108352A46E31DDE
:10AD600004F10F0112F8010D03F8010F8B42F9D124
:10AD700006E004F10800094902F06CFBA4F81E800B
:10AD8000AE1BBB1BE363A563BE42D4BF30460020AD
:10AD900000E0002006B0BDE8F08100BFEEDC20003E
:10ADA00030B591B00546FFF73BFF4FF6FF73984271
:10ADB00002D14FF0FF307CE040226846002101F0D4
:10ADC000E1F83D4B1A782AB901221A70F9F708FC0C
:10ADD0003A4B18700E20FFF7EDFC8DF810000D2097
:10ADE000FFF7E8FC8DF81200FFF7FEFC18B1002316
:10ADF0008DF8133004E00B20FFF7DCFC8DF8130016
:10AE0000002301248DF814308DF815308DF818408A
:10AE1000ADB10A20FFF7CEFC28B10A20FFF7CAFC2B
:10AE20008DF81A000BE0254B1A7802B91C701978BE
:10AE30000A204A1C1A708DF81A10FFF7B3FC03247D
:10AE40008DF81940FFF7ECFEADF81C00FFF7CCFCC5
:10AE500040B102238DF81730FF238DF800308DF8B4
:10AE6000013008E01020FFF7B7FC0146684602F009
:10AE7000F1FA8DF81740FFF7D3FE1149ADF81E0027
:10AE800002A802F0E7FAFFF7C9FB0E90FFF7DAFB22
:10AE90000F90684602F0DFFB04464DB1FFF7F0FB70
:10AEA000002886D0FFF7C4FB0146684602F0ECFBA1
:10AEB000204611B030BD00BFD5610020D461002014
:10AEC000106E002038B500240F200B4DFFF784FCD6
:10AED00004EBC4031D44294602F0C1FA38B10A202C
:10AEE000FFF768FC2B7A1B1A5842584138BD0134D1
:10AEF000102CE9D138BD00BFD661002038B500253F
:10AF00000F20164CFFF768FC05EBC501214402F049
:10AF1000A6FA6B1C10B9102B1D46F1D1581E03EB7D
:10AF2000C303123B2344093B58B1194651F8095F4A
:10AF30000138C3F812504D68C3F81650097A997653
:10AF4000F1E70A20FFF736FC20720F20FFF744FCE0
:10AF5000BDE838400146014802F07CBAD6610020C5
:10AF60000A4B13B500241C70094B1C80F7F75AFCE0
:10AF7000009400F580510122064B0748F9F77AFA50
:10AF8000064B01221A7002B010BD00BF666200209D
:10AF90008C5A002045B42000545400206C620020DC
:10AFA000074B82B01B784BB1064B1A7832B901229D
:10AFB0001A70054B1B6A019302B0184702B0704724
:10AFC0006C62002066620020C4D82000094B82B069
:10AFD0001B786BB1084B1A7852B1084A127802F00C
:10AFE000FF012AB91970064B5B6A019302B018473A
:10AFF00002B070476C620020666200206862002028
:10B00000C4D8200008B5FFF7E1FF024B00221A6008
:10B0100008BD00BF50540020044B1B7823B9044BDB
:10B020001B680BB9FFF7D2BF704700BF67620020F3
:10B0300050540020094B00221A70094BC2B21A70FA
:10B0400082B0084A084B18B1012111701B6A01E057
:10B050005B6A1070019302B0184700BF6C62002059
:10B060006862002066620020C4D8200037B50B4B10
:10B070001A7802F0FF056AB901241C70084B1D7094
:10B08000F7F7D0FB009500F5805122460548064BA6
:10B09000F9F7F0F9012003B030BD00BF6C62002069
:10B0A000686200205454002045B4200037B50A4B94
:10B0B00005461B780C466BB1F7F7B4FB231A022B3D
:10B0C00048BF841C00230093284621460122034BDD
:10B0D000F9F7D0F903B030BD6C62002045B4200010
:10B0E00013B5234B1A681C460AB9FFF76FFFFFF729
:10B0F000A9FA032839D0FFF7B9FA002835D01D4B3B
:10B100009B689847002830DBFFF79CFA68B3FFF78D
:10B11000ADFA50B31020FFF75FFB174902F09FF91B
:10B1200068B10D20FFF746FB206068B1FFF738FFDC
:10B1300012480421124A0023F8F760FF09E0FFF7E4
:10B1400053FB0028EDD110E0FFF740FF0B48F8F764
:10B150007BFFFFF7B7FE40B9FFF7D0FE094BDB6876
:10B16000019302B0BDE81040184702B010BD00BF07
:10B1700050540020B4D92000106E002060540020EC
:10B1800005B0200098D920002DE9F04F744E89B009
:10B190003378049023B9734B1B780BB90525DBE09A
:10B1A000FFF764FA0028F9D06F490F20FFF708FB7A
:10B1B000FFF71AFB07460C20FFF7FCFA98B1FFF7E0
:10B1C00055FA8246694C4FF001096568FFF730FA7D
:10B1D0005146A847664DA36985F8009001939847AA
:10B1E000A84678B909E001210B20FFF7DBFA614B93
:10B1F0005B6898470028E2DAD0E7E3690293984752
:10B20000054618B1002388F8003085E0FFF7DEFE20
:10B21000337886F80090DBB20393049B63BB4FF056
:10B220000609F7F7FFFA8346FFF7BAFEF7F7FAFACF
:10B230006FF00303CBEB0303C342F7D46369984772
:10B24000834648B9FFF7C2FE88F800B0FFF7BEFE9C
:10B250009DF80C3033705FE0FFF7B8FEF7F7E2FAC5
:10B260008346F7F7DFFA6FF00F03CBEB0303C3421C
:10B27000F7D4B9F10109D4D1003718BF01270FB9AC
:10B28000FFF78EFE0A20FFF795FA5FFA80FBF7F7CB
:10B290005DFCF7F7C7FA8146F7F7C4FA364BC9EBFE
:10B2A0000303C34244D5F7F751FC002F36D0A368FF
:10B2B00050469847F7F7B6FA02460592F7F7B2FA02
:10B2C000059A6FF00C039B1AC342F6D4002FE3D10A
:10B2D000019B984770B3F7F7A5FA8146F7F7A2FAF2
:10B2E0006FF01403C9EB0303C342F7D4236907A823
:10B2F00003219847032826D19DF81E305B4522D1B3
:10B3000000244FF00109FFF761FE9DF80C30337007
:10B31000002388F80030D4B101251DE0049B002BE8
:10B32000C5D0F7F77FFA154BC9EB0303C342BED470
:10B33000002409E0029B98470028CCD16369984714
:10B340000028C8D0A8E701244FF00009DBE71FB9A7
:10B35000994514BF1D460225284609B0BDE8F08F67
:10B360006C62002068620020106E0020C4D82000AB
:10B3700067620020B4D92000B0EFFFFFDEFDFFFFC1
:10B380002DE9F047074688461546002A54D02B4B36
:10B390001B683BB15068FFF77BFA012238464146F3
:10B3A00013461DE01646304601F0D7F90446706892
:10B3B000FFF76EFA0C20FFF7FDF9E0B91CB10D2084
:10B3C0000121FFF7EFF901210B20FFF7EBF91C4BEF
:10B3D0005B689847002807DA384641460522012372
:10B3E000BDE8F04702F013BA0C200121FFF7DAF9AB
:10B3F000706802F0A5F82646002CD4D1284601F04A
:10B40000ACF906466868FFF743FA0D20FFF7D2F95A
:10B4100081462046FFF7B8FE032804460CD0384684
:10B4200041462246012302F0F2F92CB926B13546F5
:10B430000124B9F1000FE1D1BDE8F087505400209C
:10B44000B4D920002DE9F3476B4C80462388B3F52F
:10B45000D47F19D007D8002B40F0BD80F7F7E2F970
:10B46000664B186006E0B3F5ED7F39D0B3F5FB7F8E
:10B4700040F0B180614A136803F580531360604A5D
:10B48000002313705F4A02E05E4A137801331370A1
:10B490005C4B1B78012B16D85B4B1A78002A40F0C6
:10B4A000A1805A4A1268002A40F09C801B780BB990
:10B4B000FFF776FD564B5B699847002840F0908077
:10B4C0004F4B01221A704E4B1B78002B71D0F7F7AF
:10B4D000A9F9504B504A1860002313704F4A13705B
:10B4E000494BDFF848911B78002B4BD199F800307D
:10B4F000002B47D0F7F796F9464B1A686FF4CC73D8
:10B500009B1AC3423ED5424D434F6B69984718B1D1
:10B510003B7801333B7000E03870404ED5F818A0FE
:10B52000337801333370D04708B100233B703B7848
:10B53000052B02D9FFF770FD24E033780A2B05D9DB
:10B54000D04718B9EB6998470028F3D0EB699847C2
:10B55000C0B9334B1B7893B1D8F80050F7F762F9B4
:10B5600005F114062D1A15F1120F48BF861C002391
:10B5700000934046314601222A4BF8F77BFF4FF4F7
:10B58000ED7329E099F800309BB1214DAB699847E4
:10B5900048B1F7F747F91F4B1A686FF4CC739B1A41
:10B5A000C34204D505E0EB6998470028F1D1FFF7C5
:10B5B00033FDF7F737F9114A1B4B11685B1AC34289
:10B5C0007FF558AF1168404601F58051FFF76EFDD9
:10B5D0004FF4FB7300E00023238002B0BDE8F08746
:10B5E000FFF71AFDF7F71EF900F110014046FFF7CB
:10B5F0005DFD4FF4D473EFE78C5A00204C540020CB
:10B600006D620020696200206762002050540020B3
:10B61000C4D82000805400206B6200206A620020A1
:10B620006C62002045B42000A0F0FFFF666200209D
:10B63000014B9B68184700BF8CD9200070B50546A8
:10B640000C460E200121FFF7ADF8034B284621469A
:10B65000BDE870409B68184798D9200070B5054632
:10B66000434B444C8CB09B680E4681200121984787
:10B67000A3688020242198472B883BB140F21D12FB
:10B68000934214D000232B8003206EE03A4800F050
:10B690006DFF3A484FF4F06100F0CDFF38480121CA
:10B6A00000F0C9FF40F21D1301202B805DE0354BF7
:10B6B0001B78B34213D12020F6F7EAFE324B1B78F9
:10B6C0009B0708D5314B00221968314B31481B8844
:10B6D000CA54F8F767F82020F6F7E2FEE2E72848B8
:10B6E00000F0C4FF0028DDD0636804209847B0F55F
:10B6F000FA6F294C30DA2268002A32D127490B68C8
:10B7000023B901220A6002A8254908E0012B15BFD0
:10B710001A460A60234924490CBF02A802A8F8F778
:10B7200051F82248F8F73EF8214B1B681846019360
:10B73000FDF7B0FA02A91F48F8F744F81D491E4862
:10B74000F8F730F81B4800F0E7FD1A490246019867
:10B75000FDF7F8FA012303E02368012B01D1002350
:10B760002360074800F079FF9CE70CB070BD00BF74
:10B770005CD820004CD820000EDD2000885400202A
:10B78000A05400200E6E0020C0670020CC6700206F
:10B790009862002029DD20009C540020985400204D
:10B7A00049DD20007DDD200066DD2000ADDD2000CC
:10B7B000845400206E620020C1DD200053B94AB9D4
:10B7C000002908BF00281CBF4FF0FF314FF0FF30A9
:10B7D00000F03CB882B0EC462DE9005000F01EF8B5
:10B7E000DDF804E002B00CBC704700BF2DE9F04169
:10B7F000069C904606460F461D4600F029F808FBB9
:10B8000001FCA8FB002300FB05C5B21A2B4467EB23
:10B8100003038646C4E90023BDE8F0812DE9F8431F
:10B82000089E1746804689461D4600F067F900FBD2
:10B8300005F3A0FB074507FB0137B8EB04043D44C3
:10B8400069EB0505C6E90045BDE8F883704700BF10
:10B8500000292DE9F043C0F2A8800026002BC0F299
:10B860009E8081468E4690469C46174604460D466D
:10B87000002B3DD18A4259D9B2FA82F33BB1C3F1D0
:10B8800020029D4020FA02F29F4015439C40390C53
:10B89000B5FBF1F01FFA87FE01FB10550EFB00F31C
:10B8A000220C42EA0545AB4209D9ED1900F1FF32FD
:10B8B00080F00B81AB4240F2088102383D44ED1A22
:10B8C000B5FBF1F301FB13550EFB03FEA4B244EAF2
:10B8D0000545AE4508D9ED1903F1FF3280F0F78038
:10B8E000AE4540F2F480023B43EA0043002203E00D
:10B8F0008B420FD900221346341C18BF012460422A
:10B900004FF0000565EB4501584051400019694171
:10B91000BDE8F083B3FA83F2002A40F089808B42BD
:10B9200002D3804500F2E2800123E5E712B901234A
:10B93000B3FBF2F7B7FA87F8B8F1000F3BD1ED1B74
:10B940004FEA174C1FFA87FE0122B5FBFCF00CFBF7
:10B9500010550EFB00F3210C41EA0545AB4207D917
:10B96000ED1900F1FF3102D2AB4200F2C38008466C
:10B97000ED1AB5FBFCF30CFB13550EFB03FEA4B252
:10B9800044EA0545AE4507D9ED1903F1FF3102D26E
:10B99000AE4500F2AD800B4643EA0043ACE75242AD
:10B9A0006FEA060663EB43035BE7404261EB41014C
:10B9B0004FF0FF3652E707FA08F7C8F1200225FAE0
:10B9C00002F34FEA174CB3FBFCF11FFA87FE0CFBA6
:10B9D000113324FA02F205FA08F50EFB01F92A43A5
:10B9E000100C40EA0343994504FA08F407D9DB191F
:10B9F00001F1FF3078D2994576D902393B44C9EB41
:10BA00000303B3FBFCF00CFB10330EFB00F592B20A
:10BA100042EA03439D4207D9DB1900F1FF325FD2AE
:10BA20009D425DD902383B445D1B40EA01428CE7F0
:10BA3000C2F1200328FA03F10CFA02FC41EA0C0CD3
:10BA40004FEA1C402EFA03F1B1FBF0F51FFA8CF718
:10BA500000FB151129FA03F30EFA02FE07FB05F9A4
:10BA600043EA0E0E4FEA1E4343EA0141894508FAB4
:10BA700002F808D911EB0C0105F1FF3332D28945E8
:10BA800030D9023D6144C9EB0101B1FBF0F300FB89
:10BA9000131107FB03F71FFA8EFE4EEA014E77459E
:10BAA00008D91EEB0C0E03F1FF3117D2774515D9DB
:10BAB000023BE64443EA0543A3FB0889C7EB0E0EAD
:10BAC000CE4509D305D0002216E71046F7E6134607
:10BAD0000AE794404445F6D2013BF4E70B46E9E718
:10BAE0001046A1E71D46CEE7014688E7134603E767
:10BAF000023B51E702383D443AE700BF2DE9F043ED
:10BB0000002B44D18A42154604464FD9B2FA82F737
:10BB10000E464FB1C7F12003B94020FA03F602FAEE
:10BB200007F50E4300FA07F42F0CB6FBF7F01FFAE7
:10BB300085FE07FB10620EFB00F1260C46EA02436D
:10BB4000994209D95B1900F1FF3280F0EE809942E9
:10BB500040F2EB8002382B44591AB1FBF7F307FB94
:10BB600013110EFB03FEA4B244EA01418E4508D92D
:10BB7000491903F1FF3280F0DA808E4540F2D78018
:10BB8000023B43EA004000263146BDE8F0838B4289
:10BB900047D8B3FA83F6002E48D18B4202D38242B3
:10BBA00000F2CF8001203146BDE8F08312B90125B3
:10BBB000B5FBF2F5B5FA85FCBCF1000F78D1491B55
:10BBC0002F0C1FFA85FE0126B1FBF7F007FB1011C1
:10BBD0000EFB00F2230C43EA01418A4207D94919BE
:10BBE00000F1FF3302D28A4200F2BC801846891A63
:10BBF000B1FBF7F307FB13110EFB03FEA4B244EAFB
:10BC00000142964508D9521903F1FF3180F0918025
:10BC1000964540F28E80023B43EA00403146BDE843
:10BC2000F083002630463146BDE8F083C6F120049B
:10BC300022FA04F5B3402B4321FA04F74FEA1348E4
:10BC4000B7FBF8FC1FFA83F908FB1C7720FA04FE07
:10BC500001FA06F509FB0CF44EEA05054FEA154E0C
:10BC60004EEA0747BC4202FA06F204D9FF180CF16B
:10BC7000FF3168D38C463F1BB7FBF8F408FB147701
:10BC800009FB04F9ADB245EA0741894504D9C91851
:10BC900004F1FF355DD32C4644EA0C44A4FB022397
:10BCA000C9EB0101994249D345D0204600266BE7F4
:10BCB000CCF1200405FA0CF521FA04F32A0CB3FBAD
:10BCC000F2F61FFA85FE02FB163820FA04F701FA95
:10BCD0000CF10EFB06F90F433C0C44EA084399456E
:10BCE00000FA0CF407D95B1906F1FF3138D29945F7
:10BCF00036D9023E2B44C9EB0303B3FBF2F002FB3F
:10BD000010330EFB00F1BFB247EA0343994207D953
:10BD10005B1900F1FF3721D299421FD902382B4419
:10BD20001746591A40EA06464EE7104614E71346EE
:10BD300027E70B4670E7B0409042B6D2601E00265F
:10BD400022E7304620E7BC4294D9ACF1020C1F44F4
:10BD500091E789459FD9023C19449DE73846DFE7C2
:10BD60000E46C8E70238294441E700BF032A70B4F1
:10BD700026D940EA01039B0711D004780D78AC4224
:10BD800022D10244431C05E013F8014B11F8015F76
:10BD9000AC4219D19342F7D1002070BC70470C46D9
:10BDA00003461E6825681846AE42214603F1040387
:10BDB00004F1040404D1043A032A18462146F0D8B9
:10BDC000002ADAD11046E8E7601B70BC704700BF5C
:10BDD000844641EA000313F0030349D1403A23D3D8
:10BDE0000B6803604B6843608B688360CB68C360FB
:10BDF0000B6903614B6943618B698361CB69C361E3
:10BE00000B6A03624B6A43628B6A8362CB6AC362CA
:10BE10000B6B03634B6B43638B6B8363CB6BC363B2
:10BE200040304031403ADBD230320BD30B680360F4
:10BE30004B6843608B688360CB68C36010301031FF
:10BE4000103AF3D20C3205D351F8043B40F8043BCE
:10BE5000043AF9D2043208D0D2071CBF11F8013BD2
:10BE600000F8013B01D30B8803806046704700BF98
:10BE7000082A13D38B07B1D010F00303AED0C3F15F
:10BE80000403D21ADB071CBF11F8013B00F8013B89
:10BE9000A4D331F8023B20F8023B9FE7043AD9D300
:10BEA000013A11F8013B00F8013BF9D20B7803701D
:10BEB0004B7843708B788370604670478842F0B54A
:10BEC0000DD98B1898420AD28118002A54D09A1A98
:10BED00013F8014D934201F8014DF9D1F0BD0F2A3D
:10BEE00048D940EA01039B0747D1154600F11004E9
:10BEF00001F1100353F8106C103D44F8106C53F826
:10BF00000C6C0F2D44F80C6C53F8086C04F1100401
:10BF100044F8186C53F8046C03F1100344F8146CE3
:10BF2000E8D8A2F1100323F00F0302F00F0E103334
:10BF3000BEF1030F1944034421D90E4674461D1F58
:10BF400056F8047B043C032C45F8047FF8D8AEF186
:10BF5000040424F0030404342344214402F00302C3
:10BF600052B1013B0A4411F8014B914203F8014FD1
:10BF7000F9D1F0BD0346F3E7F0BD0346F1E77246A1
:10BF8000EEE700BF70B4840746D0541E002A41D0AB
:10BF9000CDB2034602E0621EE4B3144603F8015B2F
:10BFA0009A07F8D1032C2ED9CDB245EA05250F2CDE
:10BFB00045EA054519D9264603F11002103E0F2E19
:10BFC00042F8105C42F80C5C42F8085C42F8045CF1
:10BFD00002F11002F2D8A4F1100222F00F0204F0D4
:10BFE0000F041032032C13440DD91E462246043A86
:10BFF000032A46F8045BFAD8221F22F00302043217
:10C00000134404F003042CB1C9B21C4403F8011B0F
:10C01000A342FBD170BC704714460346C2E700BF81
:10C020000E4B30B41D6802E09B1A14D19AB110F87F
:10C03000013BEA18527802F00302012A11F8012BA1
:10C0400008BF2033AC18647804F00304012CEBD152
:10C0500020329B1AEBD0184630BC70470C420020AF
:10C06000830710B5044610D10268A2F1013323EA18
:10C07000020313F0803F08D150F8042FA2F10133DE
:10C0800023EA020313F0803FF6D003781BB110F8C7
:10C09000013F002BFBD100F0E1F8204610BD00BFAE
:10C0A00080EA010C1CF0030F37D110F0030C20F0D4
:10C0B000030021F0030150F8042B08BF51F8043BA2
:10C0C0000ED08CF0030C6FF07F434FEACC0C23FAB8
:10C0D0000CFC51F8043B42EA0C0243EA0C0300BF9B
:10C0E000A2F1013C9A4201BF2CEA020C1CF0803FF5
:10C0F00050F8042B51F8043BF2D04FEA02604FEAAB
:10C100001222012828BFB0EB036F08BF1B0AF4D02E
:10C1100003F0FF03000EC01A704710F0030F0AD09F
:10C1200010F8012B11F8013B012A28BF9A42F4D0E4
:10C13000A2EB030070474DF8045D50F8042B01F0AA
:10C14000030521F0030151F8043B022D26D04DD800
:10C1500022F07F45B5EB132FA2F1013C2CEA020C33
:10C160000DD11CF0803C08BF51F8043B0AD185EA90
:10C170000205B5EB036F0CD150F8042BE8E74FEA4A
:10C1800013235BE03CF07F4C54D10B784FEA1265EF
:10C1900054E04FEA126503F0FF034FE04FEA024517
:10C1A000A2F1013C4FEA15452CEA020CB5EB134F06
:10C1B00018D11CF0803C08BF51F8043B07D185EA38
:10C1C0000205B5EB034F09D150F8042BE6E75FEA0F
:10C1D0000C4C2FD10B884FEA12452FE04FEA034356
:10C1E0004FEA12454FEA134328E000BF02F0FF0573
:10C1F000B5EB136FA2F1013C2CEA020C0DD11CF03F
:10C20000803C08BF51F8043B0AD185EA0205B5EB32
:10C21000032F0AD150F8042BE8E74FEA13630DE02F
:10C2200012F0FF0F06D051F8043B4FEA122523F01D
:10C230007F4303E04FF0000020BC704705F0FF0291
:10C2400003F0FF00012828BF904204BF2D0A1B0AFB
:10C25000F4D0A2EB000020BC704700BF80EA0102CE
:10C26000844612F0030F4FD111F0030F32D14DF875
:10C27000044D11F0040F51F8043B0BD0A3F101322F
:10C280009A4312F0803F04BF4CF8043B51F8043B42
:10C2900016D100BF51F8044BA3F101329A4312F0BA
:10C2A000803FA4F101320BD14CF8043BA24312F0C1
:10C2B000803F04BF51F8043B4CF8044BEAD02346BE
:10C2C0000CF8013B13F0FF0F4FEA3323F8D15DF870
:10C2D000044B704711F0010F06D011F8012B0CF838
:10C2E000012B002A08BF704711F0020FBFD031F8B0
:10C2F000022B12F0FF0F16BF2CF8022B8CF8002037
:10C3000012F47F4FB3D1704711F8012B0CF8012BB9
:10C31000002AF9D1704700BF20F0030110F003009C
:10C32000C0F1000051F8043B00F1040C4FEACC0CC2
:10C330006FF000021CBF22FA0CF213434FF0010C05
:10C340004CEA0C2C4CEA0C4CA3EB0C0222EA030244
:10C3500012EACC1204BF51F8043B0430F4D0C2F10D
:10C36000000102EA0102B2FA82F2C2F11F0200EBFE
:10C37000D20070471AB3134B70B41E6804E01B1B45
:10C3800016D1ACB1013A16D010F8013BF41864781C
:10C3900004F00304012C11F8014B08BF20333519B8
:10C3A0006D7805F00305012DE9D120341B1BE9D080
:10C3B000184670BC7047134670BC1846704710464C
:10C3C000704700BF0C420020830730B425D10468B9
:10C3D000A4F1013323EA040313F0803F034608D19C
:10C3E00053F8045FA5F1013424EA050414F0803FFA
:10C3F000F6D01C781CB113F8014F002CFBD19D180E
:10C4000005E011F8014B03F8014B24B13AB1AB42FE
:10C4100002F1FF32F5D130BC70470346E9E71A70EC
:10C42000F5E700BF40EA01039B0770B42BD1032A54
:10C4300029D90C460346214654F8046BA6F1013570
:10C4400025EA060515F0803F05D1043A032A43F892
:10C45000046B2146EFD8A2B10C78013A1C7001316F
:10C4600001333CB16AB111F8014B013A03F8014BB9
:10C47000002CF7D12AB11A44002103F8011B934282
:10C48000FBD170BC70470346E5E700BFFEE708B587
:10C49000F5F7FCFE73B50646002425463046F5F751
:10C4A000F7FF00230193019BAB4203DA00BF019B1E
:10C4B0000133F7E73046F5F7F3FF00230193019AC4
:10C4C000C5F5C8739A4203DA00BF019B0133F5E753
:10C4D0000134B4F5487F05D0B4F5C87FDDDDC4F57F
:10C4E0004875DBE702B070BD01207047F6F7FCB875
:10C4F000F6F712B970470020F6F7FEB90120F6F7FB
:10C50000FBB9EFF3108062B67047EFF3108072B69C
:10C5100070470020F6F798BB0120F6F795BB022084
:10C52000F6F792BB0320F6F78FBB10B50C46F6F773
:10C530008FFD2046BDE81040F6F7BCBD10B504469F
:10C540000020E1B2F6F7E8FA204610BD70B50546C6
:10C5500004464618601B44B1237833B1B44204D07A
:10C5600018460134FFF7EAFFF4E770BD38B5054619
:10C57000002415F8010B20B1FFF7E0FF0134002D76
:10C58000F7D10A20FFF7DAFF204638BD00207047B8
:10C590000120704710B5044600210E203022F6F726
:10C5A000ADFB84B1012C0CD142F210730011A0F24A
:10C5B0008E5058432A2390FBF3F000F5C3402830F7
:10C5C00010BD4FF0004010BD0020704701207047A3
:10C5D00010B5044600210F203022F6F78FFB5CB126
:10C5E000012C07D140F6F253584347F6F07390FB05
:10C5F000F3F010BD4FF0004010BD08B51AB1084669
:10C600001146FFF7A3FF002008BD38B504461546C4
:10C610000068FFF7DDFB236800201D44256038BD5E
:10C6200010B5041F54F8040F18B10021F7F7FEFEEF
:10C63000F8E710BD704710B5044600F02EF820460C
:10C64000BDE81040F7F788BD10B5044600F02CF89F
:10C650002046BDE81040F7F77FBD10B5044600F056
:10C6600028F82046BDE81040F7F776BDC068B0FA5C
:10C6700080F04009704705C810447047837BDB0792
:10C6800001D5F7F7ABBD7047FFF734BF10B5416078
:10C690000446F6F799F8206010BD10B541600446D5
:10C6A000F6F788F8206010BD90E80C001344036092
:10C6B000704710B50446F6F77DF8206010BD10B540
:10C6C0000446F6F777F82368C3F101030344606872
:10C6D00098422CBF0020012010BD0023036070474A
:10C6E00000687047006800B9704703680BB11846CE
:10C6F000FBE77047036810B57BB100228B4207D17E
:10C700000B680AB9036000E0136000230B6010BDE2
:10C710001C681A460CB12346F0E710BD38B5054633
:10C720000C46FFF7E7FF002323602846FFF7DAFFF8
:10C7300008B92C6038BD046038BD38B504460D46D4
:10C74000FFF7D8FF23682B60256038BD0368002001
:10C7500013B101301B68FBE7704700B100687047F8
:10C7600010B50446002162884068FFF70BFC23885F
:10C770006288A06800215A43BDE81040FFF702BC60
:10C7800010B5418800238B420CDA4268D418D25C81
:10C7900032B9012222700188826801FB032010BD9A
:10C7A0000133F0E7002010BD30B5826844880023D3
:10C7B000A3420DDA8A4207D14168CA5C0AB1013A44
:10C7C000CA544268D05C30BD058801332A44EFE783
:10C7D000FF2030BD8268914208D34388008800FB67
:10C7E000032081422CBF00200120704700207047A9
:10C7F00000231A4610B541888A4205DA4468A45CD1
:10C8000004B901330132F7E7184610BD0023013A9D
:10C810000160027143718371704710B54279837969
:10C820000479D31A2340A3421FBF03689954437964
:10C830005A1C1FBF037913404371012008BF002019
:10C8400010BD837942790179D21A0A421FBF02686A
:10C85000D25C01330B401ABF837110464FF0FF309A
:10C86000704710B5013A0A4491420CD20C784B78CB
:10C87000023103EB04239BB2184480B298423CBFC0
:10C88000013080B2F0E707D10B781B02184480B268
:10C8900098423CBF013080B210BD3A20F8F77EBF0D
:10C8A0000620F8F77BBF1120F8F778BF40BA80B2B6
:10C8B0007047030C80B2020A5BBA9BB242EA0020C6
:10C8C00043EA004070472DE9F8430446174602FB4F
:10C8D0000108099D9DF82060994600232B60F60809
:10C8E00044450DD2237843B1A01C49463246FFF798
:10C8F0003DFA18B92C60BDE8F8832C603C44EFE7A2
:10C900002B68002B14BF01200220BDE8F88308B17A
:10C910000023037070470B6883604B68C360037A21
:10C9200083F002030372704770B500242246065D4F
:10C930000B5D02F108059E4204D10134102CEAB2CD
:10C94000F5D10CE011467340EAB2180606D4013165
:10C95000C9B25B009142DBB2F7D100E00A46104653
:10C9600070BDFAF747BA08B5FAF728FA18B1BDE86A
:10C970000840FAF71BBA08BD08B1FFF7EEBE7047D2
:10C98000FAF7B8BB037813F0C00F01D0013004E010
:10C99000013318440378002BF4D10130704730B5CF
:10C9A0000139451C2B4601310C785A1B2E2CD2B272
:10C9B00004D102700A783AB11846F2E7002CF8D098
:10C9C00003F8014B0131EFE7184600F8012B30BDA9
:10C9D0002DE9FF418C46044696461D46EBB10FC833
:10C9E0008DE80F002B466E462546678A03F1100836
:10C9F0002A4618685968083303C243451546F7D1DB
:10CA0000BDF828302046638261467246FCF79AF9E9
:10CA100096E80F0084E80F00678204B0BDE8F0815B
:10CA200010B50446FAF7E0FA40B1C369A34202D157
:10CA3000FAF712FBF6E7FFF79FFFF5E710BD70B5B9
:10CA400005460E46FAF7D0FA044690B12046FAF7AA
:10CA5000BBFA29461022FFF789F930B9E369B342DE
:10CA600003D12046FAF7F8FAECE72046FFF784FFF7
:10CA7000EAE770BD10B504460846D1B21A46FAF787
:10CA800051FB50B1C461226A92F89B10B2F8A430F5
:10CA90004B438361002380F8203010BD7F2806DDE2
:10CAA0007F2904DC01F58071081A10280AE0884209
:10CAB00005DD401A0F28CCBF00200120704705DAA1
:10CAC000081A7028D4BF002001207047002070474A
:10CAD00030B50C4685B00546B0B159B1037D0A7D2D
:10CAE0009A4207D1D208FFF741F918B96A7D637DF0
:10CAF0009A4217D068462946FCF722FA6846F9F7A9
:10CB000037FF08B1F9F7F0FF64B121466846FCF73A
:10CB100017FA6846F9F72CFF014618B96846012252
:10CB2000F9F782FF05B030BD2DE9F041802A86B0CB
:10CB300005468846174690F8386027D800F1240447
:10CB40005EB12346EE4600F13C0C72461868596807
:10CB5000083303C263459646F7D1002110222046D0
:10CB6000FFF710FAFA1D20464146D208FFF730F9C8
:10CB7000402385F8387085F839300EB9304600E02A
:10CB800068462146FFF7A4FF012000E0002006B020
:10CB9000BDE8F08138B50446D0F890000D4620B1CC
:10CBA000FAF746FB0023C4F890306DB194F89B303F
:10CBB000B4F8A41028465943FAF772FBC4F8900061
:10CBC000003018BF012038BD012038BD10B5044623
:10CBD0000846FCF7CBF918B10368A34218BF002040
:10CBE00010BD10B504460846FCF7C0F938B103681B
:10CBF00023B11B6AA34218BF002010BD184610BD08
:10CC00002DE9F041C468B0F8A230A28B05469A42E3
:10CC10000E46A7692BD00868FCF724FA316838B1B2
:10CC2000A14224D0AB682046DB68984704461CE04C
:10CC3000A1421CD1044605F1100605F190084645B5
:10CC400013D2737D7BB1B3696BB19A884FF6FF73D2
:10CC50009A4208D034B1AB682046DB683146984729
:10CC6000044600E034464036E9E7002C49D0E86845
:10CC7000A0421AD0FFF7D4FE94F83930E86803F0E8
:10CC8000400303F0FF011BB1243004F1240104E050
:10CC900090F839305B0602D52430FFF719FF0123E5
:10CCA000A375EB6800229A75EC60AB6828465B6957
:10CCB0009847AB68A0691B6900219847A08317B10A
:10CCC000218A884201D220821EE04FF6FF739842EB
:10CCD0000CD0226AB2F8A030B3B1B2F8A2200B4453
:10CCE000B0FBF2F093FBF2F398420DDDE86800210F
:10CCF000FCF712F995F897301BB138460021FCF784
:10CD0000F1FF0020BDE8F081A069B8421ED0FCF719
:10CD100061F901462846FFF73DFF95F8973093B13A
:10CD20001FB138460021FCF7DDFF95F89630284604
:10CD300013F0800F03F1010308BF03F07F0385F8B0
:10CD4000963000F083FB284600F072FB2046BDE8D9
:10CD5000F08138B504680546A369984200D0DBB974
:10CD60004FF6FF73A383A37DB3B1236AD3F890007A
:10CD700028B1FAF75DFA236A0022C3F89020A3696C
:10CD80009D4209D128460021FCF7ACFF2046BDE8B2
:10CD900038400021FCF7C0B838BDFCF799B938B568
:10CDA000837D04467BB100258575FFF739FE94F835
:10CDB00039305B0604D504F124002946FFF788FECC
:10CDC0002046FCF793F90023637538BD70B583697D
:10CDD00004469A420E46154612D10021FCF79CF8F3
:10CDE0004FF6FF73A383A37D93B1236AD3F890001A
:10CDF00070B1FAF71DFA236A0022C3F8902007E009
:10CE0000837D2BB11046FCF7E5F82146FFF717FEAE
:10CE10002E6070BD08B5FCF78BF9F0B1C268B0F8B0
:10CE2000A230918B994217D1937C13F0800F03F1BC
:10CE3000010308BF03F07F03937490F8963013F05A
:10CE4000800F03F1010308BF03F07F0380F89630E1
:10CE500000F0EEFA012008BD002008BD38B50446F8
:10CE6000FCF766F9054630B92046FCF7BFF80546E1
:10CE700008B9002038BD05F1100405F190039C426B
:10CE8000F7D2617D61B920464022FFF77BF801238C
:10CE900063754FF6FF732562A3832382204638BD56
:10CEA0004034ECE74FF6FF7370B58A8806469A4225
:10CEB0000D4608681BD0016AB1F8A0304BB1008A5A
:10CEC000B1F8A2100344B2FBF1F293FBF1F39A42E2
:10CED0000DDC012429463046FFF792FE054620B9B5
:10CEE0003046FCF7CBF9284670BD204670BD284679
:10CEF000FFF72FFFF3689B699D4201D0002070BDB2
:10CF00000024E7E72DE9F0410646087E0D46FFF7CD
:10CF1000A5FF0446002876D0076A3046FCF726F8BD
:10CF200020B1D0F80080B8F1000F09D13246204678
:10CF30002946FCF775F8064670B96075BDE8F081C2
:10CF400031464046FFF742FE064600285ED0404686
:10CF500021463246FFF73AFF6B8AB380288AFCF7F6
:10CF6000F7F8BB68834218D197F897206B7D9A42F7
:10CF700013D1D7F8A0202B6A9A420ED1B7F8982087
:10CF80006B8B9A4209D1B7F89A20AB8B9A4204D1A5
:10CF9000B7F8A420EB8B9A4206D03046FCF798F8FD
:10CFA00000206075BDE8F081012363752B7D22466A
:10CFB000E374AB7D05F110012375EB7DA3742B4663
:10CFC00053F8040B8B4242F8040BF9D105F13C03F2
:10CFD00004F1240205F1540153F8040B8B4242F88A
:10CFE000040BF9D120463146FBF796FFBB680021C0
:10CFF0001B69304698473146A08320823846FFF7A8
:10D0000051FF6B7E33732046BDE8F081B080FFDEB8
:10D010002DE9F8434B7D8046022B0E4640F05481AB
:10D02000087EFCF785F80546B8B190F825303BB18D
:10D0300000F11004204631461022FEF797FE90B111
:10D0400095F8654004B305F150042046314610229E
:10D05000FEF78CFE38B1002416E040463146BDE8AC
:10D06000F843FCF77FB8F77D94F8129038464946AC
:10D07000FFF714FD002840F0BD8048463946FFF711
:10D080000DFD002840F01781EB68B5F8A220998BC0
:10D09000914203D1A34240F0178108E03CB94046D9
:10D0A0003146FFF72FFF0446002800F00D81738AF8
:10D0B000B5F8A2209A4200F207814FF6FF72934220
:10D0C00004D1A37D13B1284600F0B2F996F85020A0
:10D0D00042B196F851305B0604D5204606F13C017A
:10D0E000FFF722FDA28BB5F8A2309A420CD14FF681
:10D0F000FF73728A9A4200F0E78095F89E30013300
:10D1000085F89E30BDE8F88395F8983095F8992019
:10D1100020461A44012393404FF47A72B3FBF2F392
:10D120004146E363FFF752FD0746F0B94046FBF77F
:10D130001DFF20B1D0F80090B9F1000F08D12046B2
:10D1400031464246FBF76CFF0746C8B9BDE8F88395
:10D1500048464146FFF73AFD0746002848D0484672
:10D1600021463A46FFF732FE0AE08288738A9A42E5
:10D1700006D1A37D23B195F89E30013385F89E300A
:10D18000738A2846BB807B7B394643F001037B735F
:10D19000FFF788FE002800F09780A37D23B3A369E2
:10D1A0009F4221D195F89730B3B1EB689B699F42BC
:10D1B00012D1707E397BFFF771FC68B195F896301B
:10D1C00013F0800F03F1010301D103F07F0385F811
:10D1D0009630284600F03AF995F89B30B5F8A4103F
:10D1E00040465943FAF75CF8737E3B73BDE8F88319
:10D1F000B880FFDEA28BB5F8A2309A4209D1A7749D
:10D2000017F0800F07F1010708BF07F07F07A77429
:10D2100055E096F8502042B196F85130590604D5A1
:10D22000204606F13C01FFF77FFC2046FBF75EFF3E
:10D23000F37D2046A374B27E236A83F89820236A84
:10D24000F27E83F89920236A327F83F89A20236A3A
:10D25000727F83F89B20236AF28BA3F8A420236AB1
:10D260009B681B6898474FF6FF73226A238292F8E7
:10D270009630204613F0800F03F1010308BF03F03E
:10D280007F0382F8963031464246FBF7C9FE0546D9
:10D2900020B94FF6FF73A383BDE8F883236A00210A
:10D2A0009B681B699847A08320822946206ABDE8B5
:10D2B000F843FFF7F7BDA37D002B3FF4E5AE28460A
:10D2C000BDE8F84300F0B4B8BDE8F8834218D3785D
:10D2D000405C43EA0063507843EA0043907843EAB5
:10D2E00000207047130E43540144130C4B70130A73
:10D2F0008B70CA707047425C0144487840EA022053
:10D300007047130A435401444A7070477047002322
:10D310000370704738B50C46054618B934B14FF460
:10D32000007009E0FBF730FE18B9F7E74FF6FF7021
:10D3300038BD408A04B9AC88C4F57F43FF338342CB
:10D34000F4DB204480B238BD70B505460E46144665
:10D35000FBF71AFED0B1418A16B92402A2B203E04B
:10D36000022E13D14FF420626B7B9C0741BF5A23DE
:10D370004B430A2101FB023245BF6423B2FBF3F2A7
:10D3800043F0020392B258BF6B73428270BDC37CFC
:10D39000CA7C9A4203D0002B08BF08467047027D22
:10D3A0000B7D9A4201D006D97047828B8B8B9A42B3
:10D3B00028BF0846704708467047F8B507460D462F
:10D3C0000668FBF7E1FD20B1448ABB881C44A4B287
:10D3D00001E04FF4C84415B94FF4C84308E02846AB
:10D3E000FBF7D2FD0028F7D0428AAB8813449BB2EA
:10D3F000B069874201D0854207D103F1800294428F
:10D4000003DAA3F18002944203DC9C4234BF384625
:10D410002846F8BD10B50446D0F84C01FBF7DAFDFC
:10D42000014620B12046BDE81040FCF7C7BA10BD48
:10D4300090F8992090F89C10914206D9002180F82C
:10D440009E1080F89C20FCF7A3BD70474FF400713C
:10D45000FCF746BE0B6803604B684360704708B535
:10D460000822FEF783FCB0FA80F0400908BD30B511
:10D47000B9B1B2B1CC684D68141B94FBF5F4621CD1
:10D480000FD00122096823B102FA01F3015D0B43B9
:10D4900004E0035D02FA01F123EA0103035510469B
:10D4A00030BD002030BD10B504460846FCF712FF21
:10D4B00034B1431C06D06268E36802FB003010BD43
:10D4C000204610BD002010BD38B505460C4621464B
:10D4D0002846FCF72FFFFFF740F901462846FFF7E3
:10D4E000E2FF044628B128462146FCF739FF002810
:10D4F000EDD0204638BD38B505460846FCF7FAFEA3
:10D5000035B1431C06D06C68EB6804FB003402E0C4
:10D510002C4600E0002428462146FCF721FF002885
:10D5200014BF2046002038BD08B5FCF703FF00B14A
:10D53000043008BD016801F18200A031FDF7FEB89A
:10D5400010B5046804F1820004F1A001FDF7F6F8BB
:10D550002046FDF71FF8A4F8800010BD036803EB18
:10D560004101B1F88200704710B510B3037A022B65
:10D5700007D1C4790379C4B1B3FA83F300245B09FA
:10D5800013E00378022B0ED003792BB9447A14F000
:10D59000030418BF012400E00024C37913F003033F
:10D5A00018BF012301E000231C4601B10C6002B149
:10D5B000136010BD37B504460D460846062200210B
:10D5C000FEF7E0FC637DD9075CBF01232B70237E4F
:10D5D000012B0DD8E37D9A0708D0637E9B0705D009
:10D5E000E28BA38B9A4201D1012300E00023237533
:10D5F00004F11000694601AAFFF7B6FF009B0BB1CA
:10D600000223EB70019B0BB102236B70E37D03F0EF
:10D610000303022B03D0032B0CBF08230023AB70A2
:10D62000637E03F00303022B03D0032B0CBF0823FC
:10D6300000232B7103B030BD02280CBF0223082346
:10D640000B448B4205D013F8012DFF2AF9D000209E
:10D6500070470120704707B56946FFF7ABFF9DF89B
:10D6600000009DF80130023018449DF802309DF80A
:10D67000032018449DF80430104403449DF805002D
:10D68000184403B05DF804FB73B504460D466946C3
:10D69000FFF790FFA37C627C03F001031B0102F003
:10D6A000010243EAC202237C03F0070342EA0301BA
:10D6B000E37C03F0010341EA4312237D03F00103FD
:10D6C00042EA83132B70617D607EA27DE37D01F0D1
:10D6D000010102F0010241EA801003F0030340EA75
:10D6E000420141EA8302237E03F0030342EA03136B
:10D6F0006B709DF80030012B02BFA37E0322AB703C
:10D700009DF8013018BF0222022B08D1A18B531CB7
:10D71000A954A18BDBB20232090AD2B2E9549DF8B6
:10D72000026031469319DBB2581AC0B219B10139FF
:10D73000635C2B54F6E79DF80320022A08D1E18BA5
:10D740005A1CE954E18BD2B20233090ADBB2A95464
:10D750009DF8046032469819C0B2811AC9B222B14C
:10D76000013AA018007A6854F5E702B070BD30B5F0
:10D7700091B0FCF753FF0446FCF764FF6A4601468C
:10D780002046FDF753FA044610B94FF0FF3036E05B
:10D79000FCF728FF0028F8D00E209DF81010FDF7A8
:10D7A00001F89DF81730ABB1BDF81C50FDF738FA01
:10D7B000854205D04FF6FF73BDF81C209A42E4D194
:10D7C0009DF817006946FFF737FF18B91020694622
:10D7D000FCF7F6FF02A90F20FCF7F2FF0D209DF8E1
:10D7E0001210FCF7DFFF9DF815300A2013B99DF8E1
:10D7F0001A1001E04FF6FF71FCF7D4FF204611B07C
:10D8000030BD0120FDF7CCBA0020FDF7C9BA10B534
:10D81000044630B1084611461A462346BDE810407A
:10D82000184710BD1020704770B5054600200C4603
:10D83000FDF7AAFC0328024606D028462146BDE88B
:10D8400070400123FFF7E3BF70BD704793DB2000FA
:10D85000D124200009252000E9C42000A8DB2000F5
:10D8600091252000ED2520000000000001000000AF
:10D87000010000000100000000C0004000410D4018
:10D8800000000000080000002C0000000000000163
:10D89000FFFFFFFF05000000020000000200000083
:10D8A0000200000000D0004008410D4002000000CE
:10D8B000080000002C00000002010200FFFFFFFF33
:10D8C000060000005133200051302000B530200008
:10D8D0002BC520008D322000D12E20000D2F2000DE
:10D8E000252F2000252E2000512E2000352F20002E
:10D8F000593120002D3220005D3220000700000049
:10D90000FF00000005000000ED0000000300000023
:10D91000D500000001000000C5000000000000006C
:10D92000B6000000FFFFFFFFB0000000FDFFFFFF9B
:10D93000A1000000FBFFFFFF91000000F9FFFFFFC7
:10D9400088000000F7FFFFFF72000000F5FFFFFFF7
:10D9500062000000F3FFFFFF58000000F1FFFFFF2F
:10D9600042000000E8FFFFFF00000000C0DB2000D5
:10D9700095C520008DC5200091C52000D4DB200076
:10D98000D1C52000C9C52000CDC520006FDC200016
:10D99000C1472000F5512000F6DC20006DAA2000D0
:10D9A00025A92000C1A82000CDA82000D9A82000CA
:10D9B000E5A8200009D8200003D820006FD7200058
:10D9C000FBDC200061AF200029D8200081B32000BB
:10D9D000E1B020006DB0200035B0200025D8200037
:10D9E00006DD20004BD820003DB6200031B62000D7
:10D9F00034410020FC4100200000000000202020D5
:10DA000020202020202028282828282020202020EE
:10DA100020202020202020202020202020881010BE
:10DA2000101010101010101010101010100404041A
:10DA300004040404040404101010101010104141D8
:10DA400041414141010101010101010101010101C6
:10DA500001010101010101011010101010104242DA
:10DA60004242424202020202020202020202020296
:10DA70000202020202020202101010102000000036
:10DA80000000000000000000000000000000000096
:10DA90000000000000000000000000000000000086
:10DAA0000000000000000000000000000000000076
:10DAB0000000000000000000000000000000000066
:10DAC0000000000000000000000000000000000056
:10DAD0000000000000000000000000000000000046
:10DAE0000000000000000000000000000000000036
:10DAF0000000000000000000000000000000002FF7
:10DB00008001000000780008C00C0004000000083C
:10DB1000FF0200000000000000000000000000FB09
:10DB2000436F6E74696B692D322E362D3333333269
:10DB30002D6766623331643864005A6F6C657274A5
:10DB400069612052452D4D6F746520706C6174665B
:10DB50006F726D0052696D6520636F6E66696775DF
:10DB60007265642077697468206164647265737398
:10DB70002000253032783A00253032780A00204ED5
:10DB800065743A2000204D41433A2000205244431E
:10DB90003A20004144432073656E736F7220696EB2
:10DBA0007465726661636500427574746F6E0063BC
:10DBB00063323533382052462064726976657200CC
:10DBC0004F6E2D436869702054656D706572617485
:10DBD0007572650056444433003030303030303098
:10DBE0003030303030303030303031323334353620
:10DBF00037383941424344454600303132333435B9
:10DC000036373839616263646566003078003058B1
:10DC1000002D002B00286E756C6C2900250020203B
:10DC2000202020202020202020202020202043747D
:10DC3000696D65722070726F6365737300457665F8
:10DC40006E742074696D65720053657269616C2031
:10DC50006472697665720053656E736F727300FF4C
:10DC600002000140FF0F282220FE800F2523217390
:10DC70006963736C6F7770616E00008882802E6CB0
:10DC80006F63616C00636F6E74696B69006D444E05
:10DC9000532070726F626500444E53207265736F3B
:10DCA0006C766572005443502F4950207374616341
:10DCB0006B00284E554C4C204950206164647229F9
:10DCC000003A3A464646463A25752E25752E257564
:10DCD0002E2575003A3A00257800284E554C4C20E8
:10DCE0004C4C2061646472290025303278000000B9
:10DCF00000000000000043534D4100436F6E746903
:10DD00006B694D4143006E756C6C736563005544DF
:10DD10005020636C69656E742070726F63657373F5
:10DD2000207374617274656400526573706F6E73F2
:10DD3000652066726F6D2074686520736572766504
:10DD4000723A20272573270A0048756D616E2025D9
:10DD50006420656E74657265642074686520726FF6
:10DD60006F6D206F6F0048756D616E202564206CAB
:10DD70006566742074686520726F6F6D00446F6E05
:10DD80002774206B6E6F7720776861742773206823
:10DD9000617070656E696E673A2068756D616E209E
:10DDA000636F756E742069732025642000436C696D
:10DDB000656E742073656E64696E6720746F3A20B7
:10DDC0000020286D73673A202573290A00554450B6
:10DDD00020636C69656E742070726F636573730085
:10DDE0005CD820007CD920006CD920000000000005
:10DDF00000000000AFDB20001D3420000000000008
:10DE0000FBC5200000000000000000002EDC200008
:10DE1000113F200000000000000000003DDC200059
:10DE2000C5402000000000000000000049DC200088
:10DE3000E1442000000000000000000057DC20004A
:10DE40007946200000000000AC40002000000000E7
:10DE500028000000000000006446002020000200AE
:10DE6000FF6000208449002000000000080000003E
:10DE700000000000CC490020C84000202800140009
:10DE800015610020704A0020080014000161002084
:10DE9000904D00200000000080FF00004D74200025
:10DEA0000000000081FF00006573200000000000FA
:10DEB00087FF0000597920000000000088FF000063
:10DEC00085772000000000008DDC2000CD87200039
:10DED000000000000000000098DC20003D802000D1
:10DEE0000000000000000000A5DC2000298A2000BE
:10DEF0000000000058410020000000001000000059
:10DF000000000000CC4F0020000000009B03000038
:10DF1000CD962000000000009B000000C99B20005F
:10DF2000000000009B0200007D9D2000000000001A
:10DF30009B010000E19620000DD3200049D3200072
:10DF4000BBD320008FD3200015D320000FD3200097
:10DF5000010000000C00140074610020305100200A
:10DF600004000800B9610020F8520020B000080049
:10DF7000B16100200A5500200C000800CC6100208F
:10DF80001853002038000200C1610020DC5300203B
:10DF90000C000800C46100207C5300200000000039
:10DFA000CDDD20005DB6200000000000FCD920007F
:04DFB000CDAB1AF0EB
:08DFB4009CD8FF7F0100000072
:020000040027D3
:10FFD400FFFFFFF30000000000202000FFFFFFFFF1
:10FFE400FFFFFFFFFFFFFFFFFFFFFFFFFFFFFFFF1D
:0CFFF400FFFFFFFFFFFFFFFFFFFFFFFF0D
:040000050027FFD4FD
:00000001FF
