Archive member included because of file (symbol)

/usr/bin/../lib/gcc/arm-none-eabi/4.9.3/armv7-m/libgcc.a(_aeabi_uldivmod.o)
                              obj_zoul/strformat.o (__aeabi_uldivmod)
/usr/bin/../lib/gcc/arm-none-eabi/4.9.3/armv7-m/libgcc.a(bpabi.o)
                              /usr/bin/../lib/gcc/arm-none-eabi/4.9.3/armv7-m/libgcc.a(_aeabi_uldivmod.o) (__gnu_uldivmod_helper)
/usr/bin/../lib/gcc/arm-none-eabi/4.9.3/armv7-m/libgcc.a(_dvmd_tls.o)
                              /usr/bin/../lib/gcc/arm-none-eabi/4.9.3/armv7-m/libgcc.a(_aeabi_uldivmod.o) (__aeabi_ldiv0)
/usr/bin/../lib/gcc/arm-none-eabi/4.9.3/armv7-m/libgcc.a(_divdi3.o)
                              /usr/bin/../lib/gcc/arm-none-eabi/4.9.3/armv7-m/libgcc.a(bpabi.o) (__divdi3)
/usr/bin/../lib/gcc/arm-none-eabi/4.9.3/armv7-m/libgcc.a(_udivdi3.o)
                              /usr/bin/../lib/gcc/arm-none-eabi/4.9.3/armv7-m/libgcc.a(bpabi.o) (__udivdi3)
/usr/bin/../lib/gcc/arm-none-eabi/4.9.3/../../../../arm-none-eabi/lib/armv7-m/libc.a(lib_a-atoi.o)
                              obj_zoul/res-hello.o (atoi)
/usr/bin/../lib/gcc/arm-none-eabi/4.9.3/../../../../arm-none-eabi/lib/armv7-m/libc.a(lib_a-ctype_.o)
                              obj_zoul/resolv.o (__ctype_ptr__)
/usr/bin/../lib/gcc/arm-none-eabi/4.9.3/../../../../arm-none-eabi/lib/armv7-m/libc.a(lib_a-memchr.o)
                              obj_zoul/er-coap.o (memchr)
/usr/bin/../lib/gcc/arm-none-eabi/4.9.3/../../../../arm-none-eabi/lib/armv7-m/libc.a(lib_a-memcmp.o)
                              obj_zoul/er-coap-observe.o (memcmp)
/usr/bin/../lib/gcc/arm-none-eabi/4.9.3/../../../../arm-none-eabi/lib/armv7-m/libc.a(lib_a-memcpy.o)
                              obj_zoul/er-coap.o (memcpy)
/usr/bin/../lib/gcc/arm-none-eabi/4.9.3/../../../../arm-none-eabi/lib/armv7-m/libc.a(lib_a-memmove.o)
                              obj_zoul/er-coap.o (memmove)
/usr/bin/../lib/gcc/arm-none-eabi/4.9.3/../../../../arm-none-eabi/lib/armv7-m/libc.a(lib_a-memset.o)
                              obj_zoul/er-coap.o (memset)
/usr/bin/../lib/gcc/arm-none-eabi/4.9.3/../../../../arm-none-eabi/lib/armv7-m/libc.a(lib_a-reent.o)
                              obj_zoul/syscalls.o (errno)
/usr/bin/../lib/gcc/arm-none-eabi/4.9.3/../../../../arm-none-eabi/lib/armv7-m/libc.a(lib_a-strcasecmp.o)
                              obj_zoul/resolv.o (strcasecmp)
/usr/bin/../lib/gcc/arm-none-eabi/4.9.3/../../../../arm-none-eabi/lib/armv7-m/libc.a(lib_a-strcat.o)
                              obj_zoul/resolv.o (strcat)
/usr/bin/../lib/gcc/arm-none-eabi/4.9.3/../../../../arm-none-eabi/lib/armv7-m/libc.a(lib_a-strchr.o)
                              obj_zoul/er-coap.o (strchr)
/usr/bin/../lib/gcc/arm-none-eabi/4.9.3/../../../../arm-none-eabi/lib/armv7-m/libc.a(lib_a-strcmp.o)
                              obj_zoul/cfs-coffee.o (strcmp)
/usr/bin/../lib/gcc/arm-none-eabi/4.9.3/../../../../arm-none-eabi/lib/armv7-m/libc.a(lib_a-strcpy.o)
                              obj_zoul/res-separate.o (strcpy)
/usr/bin/../lib/gcc/arm-none-eabi/4.9.3/../../../../arm-none-eabi/lib/armv7-m/libc.a(lib_a-strlen.o)
                              obj_zoul/er-coap.o (strlen)
/usr/bin/../lib/gcc/arm-none-eabi/4.9.3/../../../../arm-none-eabi/lib/armv7-m/libc.a(lib_a-strncasecmp.o)
                              obj_zoul/resolv.o (strncasecmp)
/usr/bin/../lib/gcc/arm-none-eabi/4.9.3/../../../../arm-none-eabi/lib/armv7-m/libc.a(lib_a-strncat.o)
                              obj_zoul/resolv.o (strncat)
/usr/bin/../lib/gcc/arm-none-eabi/4.9.3/../../../../arm-none-eabi/lib/armv7-m/libc.a(lib_a-strncmp.o)
                              obj_zoul/er-coap.o (strncmp)
/usr/bin/../lib/gcc/arm-none-eabi/4.9.3/../../../../arm-none-eabi/lib/armv7-m/libc.a(lib_a-strncpy.o)
                              obj_zoul/er-coap-observe.o (strncpy)
/usr/bin/../lib/gcc/arm-none-eabi/4.9.3/../../../../arm-none-eabi/lib/armv7-m/libc.a(lib_a-strtol.o)
                              /usr/bin/../lib/gcc/arm-none-eabi/4.9.3/../../../../arm-none-eabi/lib/armv7-m/libc.a(lib_a-atoi.o) (_strtol_r)
/usr/bin/../lib/gcc/arm-none-eabi/4.9.3/../../../../arm-none-eabi/lib/armv7-m/libc.a(lib_a-freer.o)
                              /usr/bin/../lib/gcc/arm-none-eabi/4.9.3/../../../../arm-none-eabi/lib/armv7-m/libc.a(lib_a-reent.o) (_free_r)
/usr/bin/../lib/gcc/arm-none-eabi/4.9.3/../../../../arm-none-eabi/lib/armv7-m/libc.a(lib_a-impure.o)
                              /usr/bin/../lib/gcc/arm-none-eabi/4.9.3/../../../../arm-none-eabi/lib/armv7-m/libc.a(lib_a-reent.o) (_impure_ptr)
/usr/bin/../lib/gcc/arm-none-eabi/4.9.3/../../../../arm-none-eabi/lib/armv7-m/libc.a(lib_a-mallocr.o)
                              /usr/bin/../lib/gcc/arm-none-eabi/4.9.3/../../../../arm-none-eabi/lib/armv7-m/libc.a(lib_a-freer.o) (__malloc_current_mallinfo)
/usr/bin/../lib/gcc/arm-none-eabi/4.9.3/../../../../arm-none-eabi/lib/armv7-m/libc.a(lib_a-mlock.o)
                              /usr/bin/../lib/gcc/arm-none-eabi/4.9.3/../../../../arm-none-eabi/lib/armv7-m/libc.a(lib_a-freer.o) (__malloc_lock)
/usr/bin/../lib/gcc/arm-none-eabi/4.9.3/../../../../arm-none-eabi/lib/armv7-m/libc.a(lib_a-sbrkr.o)
                              /usr/bin/../lib/gcc/arm-none-eabi/4.9.3/../../../../arm-none-eabi/lib/armv7-m/libc.a(lib_a-freer.o) (_sbrk_r)

Allocating common symbols
Common symbol       size              file

compower_idle_activity
                    0x8               obj_zoul/compower.o
uip_ds6_timer_ra    0x8               obj_zoul/uip-ds6.o
rtcc_int1_callback  0x4               obj_zoul/rtcc.o
usb_setup_buffer    0x8               obj_zoul/usb-core.o
uip_ds6_if          0xf8              obj_zoul/uip-ds6.o
resolv_event_found  0x1               obj_zoul/resolv.o
uip_ds6_netif_addr_list_offset
                    0x1               obj_zoul/uip-ds6.o
uip_len             0x2               obj_zoul/uip6.o
errno               0x4               /usr/bin/../lib/gcc/arm-none-eabi/4.9.3/../../../../arm-none-eabi/lib/armv7-m/libc.a(lib_a-reent.o)
slip_active         0x1               obj_zoul/slip.o
uip_ds6_addr_size   0x1               obj_zoul/uip-ds6.o
uip_sappdata        0x4               obj_zoul/uip6.o
packetbuf_addrs     0x10              obj_zoul/packetbuf.o
uip_ds6_prefix_list
                    0x60              obj_zoul/uip-ds6.o
uip_lladdr          0x8               obj_zoul/uip6.o
uip_aligned_buf     0x514             obj_zoul/uip6.o
uip_flags           0x1               obj_zoul/uip6.o
uip_ds6_timer_periodic
                    0x10              obj_zoul/uip-ds6.o
uip_next_hdr        0x4               obj_zoul/uip6.o
linkaddr_node_addr  0x8               obj_zoul/linkaddr.o
default_instance    0x4               obj_zoul/rpl-dag.o
uip_udp_conn        0x4               obj_zoul/uip6.o
packetbuf_attrs     0x1e              obj_zoul/packetbuf.o
instance_table      0x150             obj_zoul/rpl-dag.o
uip_appdata         0x4               obj_zoul/uip6.o
uip_conn            0x4               obj_zoul/uip6.o
tcpip_event         0x1               obj_zoul/tcpip.o
uip_icmp6_conns     0x8               obj_zoul/uip6.o
avail_memory        0x4               obj_zoul/mmem.o
sensors_flags       0x4               obj_zoul/zoul-sensors.o
serial_line_event_message
                    0x1               obj_zoul/serial-line.o
sensors_event       0x1               obj_zoul/sensors.o
tcpip_icmp6_event   0x1               obj_zoul/tcpip.o
button_press_duration_exceeded
                    0x1               obj_zoul/button-sensor.o
uip_slen            0x2               obj_zoul/uip6.o
uip_udp_conns       0x140             obj_zoul/uip6.o

Discarded input sections

 .text          0x00000000        0x0 obj_zoul/startup-gcc.o
 .data          0x00000000        0x0 obj_zoul/startup-gcc.o
 .bss           0x00000000        0x0 obj_zoul/startup-gcc.o
 .text          0x00000000        0x0 obj_zoul/er-coap.o
 .data          0x00000000        0x0 obj_zoul/er-coap.o
 .bss           0x00000000        0x0 obj_zoul/er-coap.o
 .text.coap_set_header_accept
                0x00000000       0x10 obj_zoul/er-coap.o
 .text.coap_get_header_etag
                0x00000000       0x1c obj_zoul/er-coap.o
 .text.coap_set_header_if_match
                0x00000000       0x22 obj_zoul/er-coap.o
 .text.coap_set_header_if_none_match
                0x00000000        0xc obj_zoul/er-coap.o
 .text.coap_get_header_proxy_uri
                0x00000000       0x18 obj_zoul/er-coap.o
 .text.coap_set_header_proxy_uri
                0x00000000       0x18 obj_zoul/er-coap.o
Memory Configuration

Name             Origin             Length             Attributes
FLASH_FW         0x00202000         0x0007dfd4         xr
FLASH_CCA        0x0027ffd4         0x0000002c         xr
NRSRAM           0x20000000         0x00004000         xrw
FRSRAM           0x20004000         0x00004000         xrw
*default*        0x00000000         0xffffffff

Linker script and memory map

LOAD obj_zoul/startup-gcc.o
LOAD obj_zoul/er-coap.o
LOAD obj_zoul/er-coap-engine.o
LOAD obj_zoul/er-coap-transactions.o
LOAD obj_zoul/er-coap-observe.o
LOAD obj_zoul/er-coap-separate.o
LOAD obj_zoul/er-coap-res-well-known-core.o
LOAD obj_zoul/er-coap-block1.o
LOAD obj_zoul/er-coap-observe-client.o
LOAD obj_zoul/rest-engine.o
LOAD obj_zoul/contiki-main.o
LOAD obj_zoul/leds.o
LOAD obj_zoul/leds-arch.o
LOAD obj_zoul/cc1200-zoul-arch.o
LOAD obj_zoul/adc-zoul.o
LOAD obj_zoul/button-sensor.o
LOAD obj_zoul/zoul-sensors.o
LOAD obj_zoul/board.o
LOAD obj_zoul/antenna-sw.o
LOAD obj_zoul/rtcc.o
LOAD obj_zoul/power-mgmt.o
LOAD obj_zoul/clock.o
LOAD obj_zoul/rtimer-arch.o
LOAD obj_zoul/uart.o
LOAD obj_zoul/watchdog.o
LOAD obj_zoul/nvic.o
LOAD obj_zoul/cpu.o
LOAD obj_zoul/sys-ctrl.o
LOAD obj_zoul/gpio.o
LOAD obj_zoul/ioc.o
LOAD obj_zoul/spi.o
LOAD obj_zoul/adc.o
LOAD obj_zoul/crypto.o
LOAD obj_zoul/aes.o
LOAD obj_zoul/ecb.o
LOAD obj_zoul/cbc.o
LOAD obj_zoul/ctr.o
LOAD obj_zoul/cbc-mac.o
LOAD obj_zoul/gcm.o
LOAD obj_zoul/ccm.o
LOAD obj_zoul/sha256.o
LOAD obj_zoul/cc2538-aes-128.o
LOAD obj_zoul/cc2538-ccm-star.o
LOAD obj_zoul/cc2538-rf.o
LOAD obj_zoul/udma.o
LOAD obj_zoul/lpm.o
LOAD obj_zoul/pka.o
LOAD obj_zoul/bignum-driver.o
LOAD obj_zoul/ecc-driver.o
LOAD obj_zoul/ecc-algorithm.o
LOAD obj_zoul/ecc-curve.o
LOAD obj_zoul/dbg.o
LOAD obj_zoul/ieee-addr.o
LOAD obj_zoul/slip-arch.o
LOAD obj_zoul/slip.o
LOAD obj_zoul/i2c.o
LOAD obj_zoul/cc2538-temp-sensor.o
LOAD obj_zoul/vdd3-sensor.o
LOAD obj_zoul/cfs-coffee.o
LOAD obj_zoul/cfs-coffee-arch.o
LOAD obj_zoul/pwm.o
LOAD obj_zoul/dbg-printf.o
LOAD obj_zoul/dbg-snprintf.o
LOAD obj_zoul/dbg-sprintf.o
LOAD obj_zoul/strformat.o
LOAD obj_zoul/usb-core.o
LOAD obj_zoul/cdc-acm.o
LOAD obj_zoul/usb-arch.o
LOAD obj_zoul/usb-serial.o
LOAD obj_zoul/cdc-acm-descriptors.o
LOAD obj_zoul/arg.o
LOAD obj_zoul/autostart.o
LOAD obj_zoul/compower.o
LOAD obj_zoul/ctimer.o
LOAD obj_zoul/energest.o
LOAD obj_zoul/etimer.o
LOAD obj_zoul/mt.o
LOAD obj_zoul/process.o
LOAD obj_zoul/procinit.o
LOAD obj_zoul/rtimer.o
LOAD obj_zoul/stimer.o
LOAD obj_zoul/timer.o
LOAD obj_zoul/nullradio.o
LOAD obj_zoul/serial-line.o
LOAD obj_zoul/aes-128.o
LOAD obj_zoul/assert.o
LOAD obj_zoul/ccm-star.o
LOAD obj_zoul/crc16.o
LOAD obj_zoul/gcr.o
LOAD obj_zoul/ifft.o
LOAD obj_zoul/list.o
LOAD obj_zoul/me.o
LOAD obj_zoul/memb.o
LOAD obj_zoul/me_tabs.o
LOAD obj_zoul/mmem.o
LOAD obj_zoul/petsciiconv.o
LOAD obj_zoul/print-stats.o
LOAD obj_zoul/random.o
LOAD obj_zoul/ringbuf.o
LOAD obj_zoul/ringbufindex.o
LOAD obj_zoul/sensors.o
LOAD obj_zoul/settings.o
LOAD obj_zoul/trickle-timer.o
LOAD obj_zoul/sicslowpan.o
LOAD obj_zoul/uip6.o
LOAD obj_zoul/uip-ds6.o
LOAD obj_zoul/uip-ds6-nbr.o
LOAD obj_zoul/uip-ds6-route.o
LOAD obj_zoul/uip-icmp6.o
LOAD obj_zoul/uip-nd6.o
LOAD obj_zoul/dhcpc.o
LOAD obj_zoul/ip64-addr.o
LOAD obj_zoul/psock.o
LOAD obj_zoul/resolv.o
LOAD obj_zoul/simple-udp.o
LOAD obj_zoul/slipdev.o
LOAD obj_zoul/tcpip.o
LOAD obj_zoul/tcp-socket.o
LOAD obj_zoul/udp-socket.o
LOAD obj_zoul/uip-debug.o
LOAD obj_zoul/uiplib.o
LOAD obj_zoul/uip-nameserver.o
LOAD obj_zoul/uip-packetqueue.o
LOAD obj_zoul/uip-split.o
LOAD obj_zoul/uip-udp-packet.o
LOAD obj_zoul/rpl.o
LOAD obj_zoul/rpl-dag.o
LOAD obj_zoul/rpl-dag-root.o
LOAD obj_zoul/rpl-ext-header.o
LOAD obj_zoul/rpl-icmp6.o
LOAD obj_zoul/rpl-mrhof.o
LOAD obj_zoul/rpl-of0.o
LOAD obj_zoul/rpl-timers.o
LOAD obj_zoul/syscalls.o
LOAD obj_zoul/linkaddr.o
LOAD obj_zoul/nbr-table.o
LOAD obj_zoul/netstack.o
LOAD obj_zoul/packetbuf.o
LOAD obj_zoul/queuebuf.o
LOAD obj_zoul/csma.o
LOAD obj_zoul/frame802154.o
LOAD obj_zoul/frame802154e-ie.o
LOAD obj_zoul/framer-802154.o
LOAD obj_zoul/framer-nullmac.o
LOAD obj_zoul/mac.o
LOAD obj_zoul/mac-sequence.o
LOAD obj_zoul/nordc.o
LOAD obj_zoul/nullmac.o
LOAD obj_zoul/nullrdc.o
LOAD obj_zoul/nullrdc-noframer.o
LOAD obj_zoul/phase.o
LOAD obj_zoul/contikimac.o
LOAD obj_zoul/contikimac-framer.o
LOAD obj_zoul/anti-replay.o
LOAD obj_zoul/ccm-star-packetbuf.o
LOAD obj_zoul/nullsec.o
LOAD obj_zoul/noncoresec.o
LOAD obj_zoul/cc1200-802154g-863-870-fsk-50kbps.o
LOAD obj_zoul/cc1200.o
LOAD er-example-server.co
LOAD obj_zoul/res-separate.o
LOAD obj_zoul/res-plugtest-validate.o
LOAD obj_zoul/res-plugtest-create2.o
LOAD obj_zoul/res-plugtest-query.o
LOAD obj_zoul/res-sht11.o
LOAD obj_zoul/res-push.o
LOAD obj_zoul/res-toggle.o
LOAD obj_zoul/res-plugtest-path.o
LOAD obj_zoul/res-light.o
LOAD obj_zoul/res-chunks.o
LOAD obj_zoul/res-plugtest-large.o
LOAD obj_zoul/res-radio.o
LOAD obj_zoul/res-sub.o
LOAD obj_zoul/res-event.o
LOAD obj_zoul/res-plugtest-large-create.o
LOAD obj_zoul/res-plugtest-create3.o
LOAD obj_zoul/res-leds.o
LOAD obj_zoul/res-plugtest-multi.o
LOAD obj_zoul/res-plugtest-obs.o
LOAD obj_zoul/res-plugtest-separate.o
LOAD obj_zoul/res-hello.o
LOAD obj_zoul/res-mirror.o
LOAD obj_zoul/res-plugtest-create1.o
LOAD obj_zoul/res-temperature.o
LOAD obj_zoul/res-battery.o
LOAD obj_zoul/res-b1-sep-b2.o
LOAD obj_zoul/res-plugtest-test.o
LOAD obj_zoul/res-plugtest-large-update.o
LOAD obj_zoul/res-plugtest-longpath.o
LOAD obj_zoul/res-plugtest-links.o
LOAD obj_zoul/res-plugtest-locquery.o
START GROUP
LOAD /usr/bin/../lib/gcc/arm-none-eabi/4.9.3/armv7-m/libgcc.a
LOAD /usr/bin/../lib/gcc/arm-none-eabi/4.9.3/../../../../arm-none-eabi/lib/armv7-m/libc.a
END GROUP

.text           0x00202000     0xb538
                0x00202000                _text = .
 *(SORT(.vectors))
 .vectors       0x00202000      0x28c obj_zoul/startup-gcc.o
                0x00202000                vectors
 *(SORT(.text*))
 .text.reset_handler
                0x0020228c       0x40 obj_zoul/startup-gcc.o
                0x0020228c                reset_handler
 .text.coap_init_connection
                0x002022cc       0x28 obj_zoul/er-coap.o
                0x002022cc                coap_init_connection
 .text.coap_get_mid
                0x002022f4       0x10 obj_zoul/er-coap.o
                0x002022f4                coap_get_mid
 .text.coap_serialize_message
                0x00202304      0x2e4 obj_zoul/er-coap.o
                0x00202304                coap_serialize_message
 .text.coap_send_message
                0x002025e8       0x4c obj_zoul/er-coap.o
                0x002025e8                coap_send_message
 .text.coap_parse_message
                0x00202634      0x2e4 obj_zoul/er-coap.o
                0x00202634                coap_parse_message
 .text.coap_set_service_callback
                0x00202918        0xc obj_zoul/er-coap-engine.o
                0x00202918                coap_set_service_callback
 .text.process_thread_coap_engine
                0x00202924      0x38c obj_zoul/er-coap-engine.o
 .text.coap_init_engine
                0x00202cb0        0xc obj_zoul/er-coap-engine.o
                0x00202cb0                coap_init_engine
 .text.coap_register_as_transaction_handler
                0x00202cbc       0x14 obj_zoul/er-coap-transactions.o
                0x00202cbc                coap_register_as_transaction_handler
 .text.coap_new_transaction
                0x00202cd0       0x44 obj_zoul/er-coap-transactions.o
                0x00202cd0                coap_new_transaction
 .text.coap_clear_transaction
                0x00202d14       0x2c obj_zoul/er-coap-transactions.o
                0x00202d14                coap_clear_transaction
 .text.coap_send_transaction
                0x00202d40       0x98 obj_zoul/er-coap-transactions.o
                0x00202d40                coap_send_transaction
 .text.coap_get_transaction_by_mid
                0x00202dd8       0x1c obj_zoul/er-coap-transactions.o
                0x00202dd8                coap_get_transaction_by_mid
 .text.coap_check_transactions
                0x00202df4       0x2c obj_zoul/er-coap-transactions.o
                0x00202df4                coap_check_transactions
 .text.coap_remove_observer
                0x00202e20       0x20 obj_zoul/er-coap-observe.o
                0x00202e20                coap_remove_observer
 .text.coap_remove_observer_by_client
                0x00202e40       0x3c obj_zoul/er-coap-observe.o
                0x00202e40                coap_remove_observer_by_client
 .text.coap_remove_observer_by_token
                0x00202e7c       0x58 obj_zoul/er-coap-observe.o
                0x00202e7c                coap_remove_observer_by_token
 .text.coap_remove_observer_by_uri
                0x00202ed4       0x5c obj_zoul/er-coap-observe.o
                0x00202ed4                coap_remove_observer_by_uri
 .text.coap_remove_observer_by_mid
                0x00202f30       0x48 obj_zoul/er-coap-observe.o
                0x00202f30                coap_remove_observer_by_mid
 .text.coap_notify_observers_sub
                0x00202f78      0x11c obj_zoul/er-coap-observe.o
                0x00202f78                coap_notify_observers_sub
 .text.coap_observe_handler
                0x00203094      0x10c obj_zoul/er-coap-observe.o
                0x00203094                coap_observe_handler
 .text.coap_separate_reject
                0x002031a0       0x1c obj_zoul/er-coap-separate.o
                0x002031a0                coap_separate_reject
 .text.coap_separate_accept
                0x002031bc       0xd0 obj_zoul/er-coap-separate.o
                0x002031bc                coap_separate_accept
 .text.well_known_core_get_handler
                0x0020328c      0x168 obj_zoul/er-coap-res-well-known-core.o
                0x0020328c                well_known_core_get_handler
 .text.classify_notification
                0x002033f4       0x54 obj_zoul/er-coap-observe-client.o
 .text.simple_reply.isra.1
                0x00203448       0x38 obj_zoul/er-coap-observe-client.o
 .text.coap_get_obs_subject_by_token
                0x00203480       0x40 obj_zoul/er-coap-observe-client.o
                0x00203480                coap_get_obs_subject_by_token
 .text.coap_handle_notification
                0x002034c0       0xa8 obj_zoul/er-coap-observe-client.o
                0x002034c0                coap_handle_notification
 .text.process_thread_rest_engine_process
                0x00203568       0x88 obj_zoul/rest-engine.o
 .text.rest_invoke_restful_service
                0x002035f0       0xf8 obj_zoul/rest-engine.o
                0x002035f0                rest_invoke_restful_service
 .text.rest_init_engine
                0x002036e8       0x40 obj_zoul/rest-engine.o
                0x002036e8                rest_init_engine
 .text.rest_activate_resource
                0x00203728       0x34 obj_zoul/rest-engine.o
                0x00203728                rest_activate_resource
 .text.rest_get_resources
                0x0020375c        0x8 obj_zoul/rest-engine.o
                0x0020375c                rest_get_resources
 .text.startup.main
                0x00203764      0x1b0 obj_zoul/contiki-main.o
                0x00203764                main
 .text.leds_init
                0x00203914       0x14 obj_zoul/leds.o
                0x00203914                leds_init
 .text.leds_on  0x00203928       0x10 obj_zoul/leds.o
                0x00203928                leds_on
 .text.leds_off
                0x00203938       0x14 obj_zoul/leds.o
                0x00203938                leds_off
 .text.leds_toggle
                0x0020394c       0x10 obj_zoul/leds.o
                0x0020394c                leds_toggle
 .text.leds_arch_init
                0x0020395c       0x10 obj_zoul/leds-arch.o
                0x0020395c                leds_arch_init
 .text.leds_arch_set
                0x0020396c        0xc obj_zoul/leds-arch.o
                0x0020396c                leds_arch_set
 .text.value    0x00203978       0x20 obj_zoul/button-sensor.o
 .text.duration_exceeded_callback
                0x00203998       0x3c obj_zoul/button-sensor.o
 .text.config_user
                0x002039d4       0xa0 obj_zoul/button-sensor.o
 .text.btn_callback
                0x00203a74       0x5c obj_zoul/button-sensor.o
 .text.antenna_sw_config
                0x00203ad0       0x30 obj_zoul/antenna-sw.o
                0x00203ad0                antenna_sw_config
 .text.update_ticks
                0x00203b00       0x4c obj_zoul/clock.o
 .text.clock_init
                0x00203b4c       0x50 obj_zoul/clock.o
                0x00203b4c                clock_init
 .text.clock_time
                0x00203b9c       0x14 obj_zoul/clock.o
                0x00203b9c                clock_time
 .text.clock_seconds
                0x00203bb0       0x14 obj_zoul/clock.o
                0x00203bb0                clock_seconds
 .text.clock_delay_usec
                0x00203bc4       0x1c obj_zoul/clock.o
                0x00203bc4                clock_delay_usec
 .text.clock_adjust
                0x00203be0       0x20 obj_zoul/clock.o
                0x00203be0                clock_adjust
 .text.rtimer_arch_next_trigger
                0x00203c00        0xc obj_zoul/rtimer-arch.o
                0x00203c00                rtimer_arch_next_trigger
 .text.rtimer_arch_now
                0x00203c0c       0x2c obj_zoul/rtimer-arch.o
                0x00203c0c                rtimer_arch_now
 .text.rtimer_arch_schedule
                0x00203c38       0x58 obj_zoul/rtimer-arch.o
                0x00203c38                rtimer_arch_schedule
 .text.rtimer_isr
                0x00203c90       0x24 obj_zoul/rtimer-arch.o
                0x00203c90                rtimer_isr
 .text.permit_pm1
                0x00203cb4       0x2c obj_zoul/uart.o
 .text.uart_isr
                0x00203ce0       0x64 obj_zoul/uart.o
 .text.uart_init
                0x00203d44      0x1ac obj_zoul/uart.o
                0x00203d44                uart_init
 .text.uart_set_input
                0x00203ef0       0x10 obj_zoul/uart.o
                0x00203ef0                uart_set_input
 .text.uart_write_byte
                0x00203f00       0x1c obj_zoul/uart.o
                0x00203f00                uart_write_byte
 .text.watchdog_init
                0x00203f1c        0xc obj_zoul/watchdog.o
                0x00203f1c                watchdog_init
 .text.watchdog_start
                0x00203f28        0xc obj_zoul/watchdog.o
                0x00203f28                watchdog_start
 .text.watchdog_periodic
                0x00203f34       0x10 obj_zoul/watchdog.o
                0x00203f34                watchdog_periodic
 .text.nvic_init
                0x00203f44       0x3c obj_zoul/nvic.o
                0x00203f44                nvic_init
 .text.nvic_interrupt_enable
                0x00203f80       0x18 obj_zoul/nvic.o
                0x00203f80                nvic_interrupt_enable
 .text.nvic_interrupt_disable
                0x00203f98       0x18 obj_zoul/nvic.o
                0x00203f98                nvic_interrupt_disable
 .text.nvic_interrupt_unpend
                0x00203fb0       0x18 obj_zoul/nvic.o
                0x00203fb0                nvic_interrupt_unpend
 .text.sys_ctrl_init
                0x00203fc8       0x28 obj_zoul/sys-ctrl.o
                0x00203fc8                sys_ctrl_init
 .text.gpio_register_callback
                0x00203ff0       0x10 obj_zoul/gpio.o
                0x00203ff0                gpio_register_callback
 .text.notify   0x00204000       0x30 obj_zoul/gpio.o
                0x00204000                notify
 .text.gpio_port_isr
                0x00204030       0x50 obj_zoul/gpio.o
 .text.gpio_init
                0x00204080       0x10 obj_zoul/gpio.o
                0x00204080                gpio_init
 .text.ioc_init
                0x00204090       0x1c obj_zoul/ioc.o
                0x00204090                ioc_init
 .text.ioc_set_over
                0x002040ac       0x14 obj_zoul/ioc.o
                0x002040ac                ioc_set_over
 .text.ioc_set_sel
                0x002040c0       0x14 obj_zoul/ioc.o
                0x002040c0                ioc_set_sel
 .text.adc_get  0x002040d4       0x78 obj_zoul/adc.o
                0x002040d4                adc_get
 .text.permit_pm1
                0x0020414c       0x10 obj_zoul/crypto.o
 .text.crypto_isr
                0x0020415c       0x24 obj_zoul/crypto.o
                0x0020415c                crypto_isr
 .text.crypto_enable
                0x00204180       0x20 obj_zoul/crypto.o
                0x00204180                crypto_enable
 .text.crypto_init
                0x002041a0       0x3c obj_zoul/crypto.o
                0x002041a0                crypto_init
 .text.crypto_disable
                0x002041dc       0x20 obj_zoul/crypto.o
                0x002041dc                crypto_disable
 .text.on       0x002041fc       0x2c obj_zoul/cc2538-rf.o
 .text.off      0x00204228       0x38 obj_zoul/cc2538-rf.o
 .text.set_channel
                0x00204260       0x48 obj_zoul/cc2538-rf.o
 .text.channel_clear
                0x002042a8       0x3c obj_zoul/cc2538-rf.o
 .text.receiving_packet
                0x002042e4       0x18 obj_zoul/cc2538-rf.o
 .text.pending_packet
                0x002042fc       0x10 obj_zoul/cc2538-rf.o
 .text.get_value
                0x0020430c      0x11c obj_zoul/cc2538-rf.o
 .text.prepare  0x00204428       0x64 obj_zoul/cc2538-rf.o
 .text.transmit
                0x0020448c       0x8c obj_zoul/cc2538-rf.o
 .text.set_frame_filtering
                0x00204518       0x18 obj_zoul/cc2538-rf.o
 .text.set_value
                0x00204530       0xd4 obj_zoul/cc2538-rf.o
 .text.get_object
                0x00204604       0x30 obj_zoul/cc2538-rf.o
 .text.set_object
                0x00204634       0x30 obj_zoul/cc2538-rf.o
 .text.read     0x00204664       0xc4 obj_zoul/cc2538-rf.o
 .text.init     0x00204728       0xcc obj_zoul/cc2538-rf.o
 .text.process_thread_cc2538_rf_process
                0x002047f4       0x74 obj_zoul/cc2538-rf.o
 .text.cc2538_rf_rx_tx_isr
                0x00204868       0x18 obj_zoul/cc2538-rf.o
                0x00204868                cc2538_rf_rx_tx_isr
 .text.cc2538_rf_err_isr
                0x00204880       0x28 obj_zoul/cc2538-rf.o
                0x00204880                cc2538_rf_err_isr
 .text.udma_init
                0x002048a8       0x30 obj_zoul/udma.o
                0x002048a8                udma_init
 .text.udma_set_channel_src
                0x002048d8       0x10 obj_zoul/udma.o
                0x002048d8                udma_set_channel_src
 .text.udma_set_channel_dst
                0x002048e8       0x14 obj_zoul/udma.o
                0x002048e8                udma_set_channel_dst
 .text.udma_set_channel_control_word
                0x002048fc       0x14 obj_zoul/udma.o
                0x002048fc                udma_set_channel_control_word
 .text.udma_channel_enable
                0x00204910       0x18 obj_zoul/udma.o
                0x00204910                udma_channel_enable
 .text.udma_channel_mask_set
                0x00204928       0x18 obj_zoul/udma.o
                0x00204928                udma_channel_mask_set
 .text.udma_channel_sw_request
                0x00204940       0x18 obj_zoul/udma.o
                0x00204940                udma_channel_sw_request
 .text.udma_channel_get_mode
                0x00204958       0x1c obj_zoul/udma.o
                0x00204958                udma_channel_get_mode
 .text.udma_isr
                0x00204974       0x10 obj_zoul/udma.o
                0x00204974                udma_isr
 .text.udma_err_isr
                0x00204984        0xc obj_zoul/udma.o
                0x00204984                udma_err_isr
 .text.select_32_mhz_xosc
                0x00204990       0x2c obj_zoul/lpm.o
 .text.lpm_exit
                0x002049bc       0x34 obj_zoul/lpm.o
                0x002049bc                lpm_exit
 .text.lpm_enter
                0x002049f0       0xb0 obj_zoul/lpm.o
                0x002049f0                lpm_enter
 .text.lpm_register_peripheral
                0x00204aa0       0x20 obj_zoul/lpm.o
                0x00204aa0                lpm_register_peripheral
 .text.lpm_init
                0x00204ac0       0x24 obj_zoul/lpm.o
                0x00204ac0                lpm_init
 .text.pka_isr  0x00204ae4       0x24 obj_zoul/pka.o
                0x00204ae4                pka_isr
 .text.ieee_addr_cpy_to
                0x00204b08       0x74 obj_zoul/ieee-addr.o
                0x00204b08                ieee_addr_cpy_to
 .text.printf   0x00204b7c       0x20 obj_zoul/dbg-printf.o
                0x00204b7c                printf
 .text.vsnprintf
                0x00204b9c       0x28 obj_zoul/dbg-snprintf.o
                0x00204b9c                vsnprintf
 .text.fill_space
                0x00204bc4       0x34 obj_zoul/strformat.o
 .text.format_str_v
                0x00204bf8      0x6e8 obj_zoul/strformat.o
                0x00204bf8                format_str_v
 .text.process_thread_ctimer_process
                0x002052e0       0x80 obj_zoul/ctimer.o
 .text.ctimer_init
                0x00205360       0x28 obj_zoul/ctimer.o
                0x00205360                ctimer_init
 .text.ctimer_set_with_process
                0x00205388       0x44 obj_zoul/ctimer.o
                0x00205388                ctimer_set_with_process
 .text.ctimer_set
                0x002053cc       0x14 obj_zoul/ctimer.o
                0x002053cc                ctimer_set
 .text.ctimer_reset
                0x002053e0       0x38 obj_zoul/ctimer.o
                0x002053e0                ctimer_reset
 .text.ctimer_stop
                0x00205418       0x2c obj_zoul/ctimer.o
                0x00205418                ctimer_stop
 .text.update_time
                0x00205444       0x44 obj_zoul/etimer.o
 .text.etimer_request_poll
                0x00205488        0xc obj_zoul/etimer.o
                0x00205488                etimer_request_poll
 .text.process_thread_etimer_process
                0x00205494       0x94 obj_zoul/etimer.o
 .text.add_timer
                0x00205528       0x40 obj_zoul/etimer.o
 .text.etimer_pending
                0x00205568       0x10 obj_zoul/etimer.o
                0x00205568                etimer_pending
 .text.etimer_stop
                0x00205578       0x34 obj_zoul/etimer.o
                0x00205578                etimer_stop
 .text.call_process.part.0
                0x002055ac       0x38 obj_zoul/process.o
 .text.exit_process
                0x002055e4       0x80 obj_zoul/process.o
 .text.do_poll  0x00205664       0x30 obj_zoul/process.o
 .text.process_alloc_event
                0x00205694       0x10 obj_zoul/process.o
                0x00205694                process_alloc_event
 .text.process_init
                0x002056a4       0x30 obj_zoul/process.o
                0x002056a4                process_init
 .text.process_run
                0x002056d4       0xb0 obj_zoul/process.o
                0x002056d4                process_run
 .text.process_nevents
                0x00205784       0x14 obj_zoul/process.o
                0x00205784                process_nevents
 .text.process_post
                0x00205798       0x44 obj_zoul/process.o
                0x00205798                process_post
 .text.process_post_synch
                0x002057dc       0x14 obj_zoul/process.o
                0x002057dc                process_post_synch
 .text.process_start
                0x002057f0       0x30 obj_zoul/process.o
                0x002057f0                process_start
 .text.process_poll
                0x00205820       0x18 obj_zoul/process.o
                0x00205820                process_poll
 .text.rtimer_run_next
                0x00205838       0x28 obj_zoul/rtimer.o
                0x00205838                rtimer_run_next
 .text.stimer_expired
                0x00205860       0x20 obj_zoul/stimer.o
                0x00205860                stimer_expired
 .text.process_thread_serial_line_process
                0x00205880       0x98 obj_zoul/serial-line.o
 .text.serial_line_input_byte
                0x00205918       0x44 obj_zoul/serial-line.o
                0x00205918                serial_line_input_byte
 .text.serial_line_init
                0x0020595c       0x24 obj_zoul/serial-line.o
                0x0020595c                serial_line_init
 .text.random_rand
                0x00205980       0x20 obj_zoul/random.o
                0x00205980                random_rand
 .text.random_init
                0x002059a0       0x78 obj_zoul/random.o
                0x002059a0                random_init
 .text.process_thread_sensors_process
                0x00205a18       0xd4 obj_zoul/sensors.o
 .text.sensors_changed
                0x00205aec       0x38 obj_zoul/sensors.o
                0x00205aec                sensors_changed
 .text.clear_fragments
                0x00205b24       0x3c obj_zoul/sicslowpan.o
 .text.sicslowpan_init
                0x00205b60       0x24 obj_zoul/sicslowpan.o
                0x00205b60                sicslowpan_init
 .text.set_packet_attrs
                0x00205b84       0x44 obj_zoul/sicslowpan.o
 .text.compress_addr_64
                0x00205bc8       0x90 obj_zoul/sicslowpan.o
 .text.addr_context_lookup_by_prefix
                0x00205c58       0x28 obj_zoul/sicslowpan.o
 .text.send_packet
                0x00205c80       0x24 obj_zoul/sicslowpan.o
 .text.packet_sent
                0x00205ca4       0x28 obj_zoul/sicslowpan.o
 .text.store_fragment
                0x00205ccc       0x58 obj_zoul/sicslowpan.o
 .text.uncompress_addr
                0x00205d24       0xa4 obj_zoul/sicslowpan.o
 .text.output   0x00205dc8      0x6a8 obj_zoul/sicslowpan.o
 .text.add_fragment
                0x00206470      0x124 obj_zoul/sicslowpan.o
 .text.input    0x00206594      0x5a8 obj_zoul/sicslowpan.o
 .text.upper_layer_chksum
                0x00206b3c       0x54 obj_zoul/uip6.o
 .text.ext_hdr_options_process
                0x00206b90       0xb0 obj_zoul/uip6.o
 .text.uip_init
                0x00206c40       0x3c obj_zoul/uip6.o
                0x00206c40                uip_init
 .text.remove_ext_hdr
                0x00206c7c       0x5c obj_zoul/uip6.o
                0x00206c7c                remove_ext_hdr
 .text.uip_udp_new
                0x00206cd8       0xb0 obj_zoul/uip6.o
                0x00206cd8                uip_udp_new
 .text.uip_process
                0x00206d88      0x470 obj_zoul/uip6.o
                0x00206d88                uip_process
 .text.uip_ds6_prefix_add
                0x002071f8       0x64 obj_zoul/uip-ds6.o
                0x002071f8                uip_ds6_prefix_add
 .text.uip_ds6_is_addr_onlink
                0x0020725c       0x40 obj_zoul/uip-ds6.o
                0x0020725c                uip_ds6_is_addr_onlink
 .text.uip_ds6_addr_lookup
                0x0020729c       0x2c obj_zoul/uip-ds6.o
                0x0020729c                uip_ds6_addr_lookup
 .text.uip_ds6_get_link_local
                0x002072c8       0x40 obj_zoul/uip-ds6.o
                0x002072c8                uip_ds6_get_link_local
 .text.uip_ds6_maddr_add
                0x00207308       0x4c obj_zoul/uip-ds6.o
                0x00207308                uip_ds6_maddr_add
 .text.uip_ds6_addr_add
                0x00207354       0x94 obj_zoul/uip-ds6.o
                0x00207354                uip_ds6_addr_add
 .text.uip_ds6_maddr_lookup
                0x002073e8       0x2c obj_zoul/uip-ds6.o
                0x002073e8                uip_ds6_maddr_lookup
 .text.uip_ds6_addr_rm
                0x00207414       0x44 obj_zoul/uip-ds6.o
                0x00207414                uip_ds6_addr_rm
 .text.uip_ds6_periodic
                0x00207458       0x4c obj_zoul/uip-ds6.o
                0x00207458                uip_ds6_periodic
 .text.uip_ds6_select_src
                0x002074a4       0x94 obj_zoul/uip-ds6.o
                0x002074a4                uip_ds6_select_src
 .text.uip_ds6_compute_reachable_time
                0x00207538       0x28 obj_zoul/uip-ds6.o
                0x00207538                uip_ds6_compute_reachable_time
 .text.uip_ds6_init
                0x00207560       0xe0 obj_zoul/uip-ds6.o
                0x00207560                uip_ds6_init
 .text.uip_ds6_nbr_rm
                0x00207640       0x20 obj_zoul/uip-ds6-nbr.o
                0x00207640                uip_ds6_nbr_rm
 .text.uip_ds6_neighbors_init
                0x00207660       0x14 obj_zoul/uip-ds6-nbr.o
                0x00207660                uip_ds6_neighbors_init
 .text.uip_ds6_nbr_add
                0x00207674       0x38 obj_zoul/uip-ds6-nbr.o
                0x00207674                uip_ds6_nbr_add
 .text.uip_ds6_nbr_get_ll
                0x002076ac       0x10 obj_zoul/uip-ds6-nbr.o
                0x002076ac                uip_ds6_nbr_get_ll
 .text.uip_ds6_nbr_lookup
                0x002076bc       0x38 obj_zoul/uip-ds6-nbr.o
                0x002076bc                uip_ds6_nbr_lookup
 .text.uip_ds6_nbr_ll_lookup
                0x002076f4       0x10 obj_zoul/uip-ds6-nbr.o
                0x002076f4                uip_ds6_nbr_ll_lookup
 .text.uip_ds6_link_neighbor_callback
                0x00207704       0x2c obj_zoul/uip-ds6-nbr.o
                0x00207704                uip_ds6_link_neighbor_callback
 .text.call_route_callback
                0x00207730       0x48 obj_zoul/uip-ds6-route.o
 .text.uip_ds6_route_init
                0x00207778       0x4c obj_zoul/uip-ds6-route.o
                0x00207778                uip_ds6_route_init
 .text.uip_ds6_route_nexthop
                0x002077c4       0x20 obj_zoul/uip-ds6-route.o
                0x002077c4                uip_ds6_route_nexthop
 .text.uip_ds6_route_head
                0x002077e4        0xc obj_zoul/uip-ds6-route.o
                0x002077e4                uip_ds6_route_head
 .text.uip_ds6_route_lookup
                0x002077f0       0x64 obj_zoul/uip-ds6-route.o
                0x002077f0                uip_ds6_route_lookup
 .text.uip_ds6_route_rm
                0x00207854       0x9c obj_zoul/uip-ds6-route.o
                0x00207854                uip_ds6_route_rm
 .text.rm_routelist
                0x002078f0       0x30 obj_zoul/uip-ds6-route.o
 .text.uip_ds6_route_add
                0x00207920      0x10c obj_zoul/uip-ds6-route.o
                0x00207920                uip_ds6_route_add
 .text.uip_ds6_defrt_rm
                0x00207a2c       0x44 obj_zoul/uip-ds6-route.o
                0x00207a2c                uip_ds6_defrt_rm
 .text.uip_ds6_defrt_lookup
                0x00207a70       0x2c obj_zoul/uip-ds6-route.o
                0x00207a70                uip_ds6_defrt_lookup
 .text.uip_ds6_defrt_add
                0x00207a9c       0x64 obj_zoul/uip-ds6-route.o
                0x00207a9c                uip_ds6_defrt_add
 .text.uip_ds6_defrt_choose
                0x00207b00       0x30 obj_zoul/uip-ds6-route.o
                0x00207b00                uip_ds6_defrt_choose
 .text.uip_ds6_defrt_periodic
                0x00207b30       0x30 obj_zoul/uip-ds6-route.o
                0x00207b30                uip_ds6_defrt_periodic
 .text.echo_reply_input
                0x00207b60       0xe8 obj_zoul/uip-icmp6.o
 .text.echo_request_input
                0x00207c48      0x100 obj_zoul/uip-icmp6.o
 .text.uip_icmp6_input
                0x00207d48       0x38 obj_zoul/uip-icmp6.o
                0x00207d48                uip_icmp6_input
 .text.uip_icmp6_register_input_handler
                0x00207d80        0xc obj_zoul/uip-icmp6.o
                0x00207d80                uip_icmp6_register_input_handler
 .text.uip_icmp6_error_output
                0x00207d8c      0x14c obj_zoul/uip-icmp6.o
                0x00207d8c                uip_icmp6_error_output
 .text.uip_icmp6_send
                0x00207ed8       0x8c obj_zoul/uip-icmp6.o
                0x00207ed8                uip_icmp6_send
 .text.uip_icmp6_init
                0x00207f64       0x1c obj_zoul/uip-icmp6.o
                0x00207f64                uip_icmp6_init
 .text.tcpip_output
                0x00207f80       0x10 obj_zoul/tcpip.o
                0x00207f80                tcpip_output
 .text.tcpip_set_outputfunc
                0x00207f90        0xc obj_zoul/tcpip.o
                0x00207f90                tcpip_set_outputfunc
 .text.udp_new  0x00207f9c       0x18 obj_zoul/tcpip.o
                0x00207f9c                udp_new
 .text.tcpip_icmp6_call
                0x00207fb4       0x28 obj_zoul/tcpip.o
                0x00207fb4                tcpip_icmp6_call
 .text.tcpip_input
                0x00207fdc       0x24 obj_zoul/tcpip.o
                0x00207fdc                tcpip_input
 .text.tcpip_ipv6_output
                0x00208000       0xc0 obj_zoul/tcpip.o
                0x00208000                tcpip_ipv6_output
 .text.process_thread_tcpip_process
                0x002080c0       0xdc obj_zoul/tcpip.o
 .text.tcpip_uipcall
                0x0020819c       0x2c obj_zoul/tcpip.o
                0x0020819c                tcpip_uipcall
 .text.uip_debug_ipaddr_print
                0x002081c8       0xa0 obj_zoul/uip-debug.o
                0x002081c8                uip_debug_ipaddr_print
 .text.uip_udp_packet_send
                0x00208268       0x38 obj_zoul/uip-udp-packet.o
                0x00208268                uip_udp_packet_send
 .text.rpl_get_mode
                0x002082a0        0xc obj_zoul/rpl.o
                0x002082a0                rpl_get_mode
 .text.rpl_purge_routes
                0x002082ac       0x64 obj_zoul/rpl.o
                0x002082ac                rpl_purge_routes
 .text.rpl_link_neighbor_callback
                0x00208310       0x70 obj_zoul/rpl.o
                0x00208310                rpl_link_neighbor_callback
 .text.rpl_ipv6_neighbor_callback
                0x00208380       0x28 obj_zoul/rpl.o
                0x00208380                rpl_ipv6_neighbor_callback
 .text.rpl_purge_dags
                0x002083a8       0x3c obj_zoul/rpl.o
                0x002083a8                rpl_purge_dags
 .text.rpl_init
                0x002083e4       0x58 obj_zoul/rpl.o
                0x002083e4                rpl_init
 .text.rpl_set_preferred_parent
                0x0020843c       0x28 obj_zoul/rpl-dag.o
 .text.set_ip_from_prefix
                0x00208464       0x2c obj_zoul/rpl-dag.o
 .text.find_parent_any_dag_any_instance
                0x00208490       0x1c obj_zoul/rpl-dag.o
 .text.rpl_get_nbr
                0x002084ac       0x28 obj_zoul/rpl-dag.o
                0x002084ac                rpl_get_nbr
 .text.rpl_dag_init
                0x002084d4       0x14 obj_zoul/rpl-dag.o
                0x002084d4                rpl_dag_init
 .text.rpl_get_parent
                0x002084e8       0x10 obj_zoul/rpl-dag.o
                0x002084e8                rpl_get_parent
 .text.rpl_get_parent_ipaddr
                0x002084f8       0x18 obj_zoul/rpl-dag.o
                0x002084f8                rpl_get_parent_ipaddr
 .text.rpl_alloc_instance
                0x00208510       0x34 obj_zoul/rpl-dag.o
                0x00208510                rpl_alloc_instance
 .text.rpl_add_parent
                0x00208544       0x44 obj_zoul/rpl-dag.o
                0x00208544                rpl_add_parent
 .text.rpl_select_parent
                0x00208588       0x6c obj_zoul/rpl-dag.o
                0x00208588                rpl_select_parent
 .text.rpl_remove_parent
                0x002085f4       0x1c obj_zoul/rpl-dag.o
                0x002085f4                rpl_remove_parent
 .text.remove_parents.constprop.4
                0x00208610       0x2c obj_zoul/rpl-dag.o
 .text.rpl_get_any_dag
                0x0020863c       0x18 obj_zoul/rpl-dag.o
                0x0020863c                rpl_get_any_dag
 .text.rpl_get_instance
                0x00208654       0x20 obj_zoul/rpl-dag.o
                0x00208654                rpl_get_instance
 .text.rpl_find_of
                0x00208674       0x14 obj_zoul/rpl-dag.o
                0x00208674                rpl_find_of
 .text.rpl_join_instance
                0x00208688      0x118 obj_zoul/rpl-dag.o
                0x00208688                rpl_join_instance
 .text.rpl_local_repair
                0x002087a0       0x58 obj_zoul/rpl-dag.o
                0x002087a0                rpl_local_repair
 .text.rpl_recalculate_ranks
                0x002087f8       0x3c obj_zoul/rpl-dag.o
                0x002087f8                rpl_recalculate_ranks
 .text.rpl_verify_header
                0x00208834      0x114 obj_zoul/rpl-ext-header.o
                0x00208834                rpl_verify_header
 .text.rpl_update_header_empty
                0x00208948      0x13c obj_zoul/rpl-ext-header.o
                0x00208948                rpl_update_header_empty
 .text.rpl_update_header_final
                0x00208a84       0x88 obj_zoul/rpl-ext-header.o
                0x00208a84                rpl_update_header_final
 .text.rpl_remove_header
                0x00208b0c       0x60 obj_zoul/rpl-ext-header.o
                0x00208b0c                rpl_remove_header
 .text.rpl_invert_header
                0x00208b6c       0x68 obj_zoul/rpl-ext-header.o
                0x00208b6c                rpl_invert_header
 .text.rpl_insert_header
                0x00208bd4       0x1c obj_zoul/rpl-ext-header.o
                0x00208bd4                rpl_insert_header
 .text.dao_ack_input
                0x00208bf0       0x14 obj_zoul/rpl-icmp6.o
 .text.dio_input
                0x00208c04      0x294 obj_zoul/rpl-icmp6.o
 .text.dis_output
                0x00208e98       0x54 obj_zoul/rpl-icmp6.o
                0x00208e98                dis_output
 .text.dio_output
                0x00208eec      0x20c obj_zoul/rpl-icmp6.o
                0x00208eec                dio_output
 .text.dis_input
                0x002090f8       0x3c obj_zoul/rpl-icmp6.o
 .text.dao_output_target
                0x00209134       0xe0 obj_zoul/rpl-icmp6.o
                0x00209134                dao_output_target
 .text.dao_output
                0x00209214       0x64 obj_zoul/rpl-icmp6.o
                0x00209214                dao_output
 .text.dao_ack_output
                0x00209278       0x34 obj_zoul/rpl-icmp6.o
                0x00209278                dao_ack_output
 .text.dao_input
                0x002092ac      0x1e0 obj_zoul/rpl-icmp6.o
 .text.rpl_icmp6_register_handlers
                0x0020948c       0x30 obj_zoul/rpl-icmp6.o
                0x0020948c                rpl_icmp6_register_handlers
 .text.new_dio_interval
                0x002094bc       0x58 obj_zoul/rpl-timers.o
 .text.handle_periodic_timer
                0x00209514       0x3c obj_zoul/rpl-timers.o
 .text.set_dao_lifetime_timer
                0x00209550       0x3c obj_zoul/rpl-timers.o
 .text.handle_dio_timer
                0x0020958c       0x80 obj_zoul/rpl-timers.o
 .text.schedule_dao
                0x0020960c       0x54 obj_zoul/rpl-timers.o
 .text.handle_dao_timer
                0x00209660       0x58 obj_zoul/rpl-timers.o
 .text.rpl_reset_periodic_timer
                0x002096b8       0x34 obj_zoul/rpl-timers.o
                0x002096b8                rpl_reset_periodic_timer
 .text.rpl_schedule_unicast_dio_immediately
                0x002096ec       0x14 obj_zoul/rpl-timers.o
                0x002096ec                rpl_schedule_unicast_dio_immediately
 .text.rpl_schedule_probing
                0x00209700       0x30 obj_zoul/rpl-timers.o
                0x00209700                rpl_schedule_probing
 .text.handle_probing_timer
                0x00209730       0xd0 obj_zoul/rpl-timers.o
 .text.index_from_key
                0x00209800       0x20 obj_zoul/nbr-table.o
 .text.index_from_lladdr
                0x00209820       0x40 obj_zoul/nbr-table.o
 .text.key_from_item
                0x00209860       0x2c obj_zoul/nbr-table.o
 .text.nbr_get_bit.constprop.0
                0x0020988c       0x30 obj_zoul/nbr-table.o
 .text.nbr_table_register
                0x002098bc       0x28 obj_zoul/nbr-table.o
                0x002098bc                nbr_table_register
 .text.nbr_table_head
                0x002098e4       0x34 obj_zoul/nbr-table.o
                0x002098e4                nbr_table_head
 .text.nbr_table_add_lladdr
                0x00209918      0x11c obj_zoul/nbr-table.o
                0x00209918                nbr_table_add_lladdr
 .text.nbr_table_remove
                0x00209a34       0x2c obj_zoul/nbr-table.o
                0x00209a34                nbr_table_remove
 .text.nbr_table_lock
                0x00209a60       0x14 obj_zoul/nbr-table.o
                0x00209a60                nbr_table_lock
 .text.nbr_table_unlock
                0x00209a74       0x14 obj_zoul/nbr-table.o
                0x00209a74                nbr_table_unlock
 .text.netstack_init
                0x00209a88       0x38 obj_zoul/netstack.o
                0x00209a88                netstack_init
 .text.packetbuf_copyto
                0x00209ac0       0x50 obj_zoul/packetbuf.o
                0x00209ac0                packetbuf_copyto
 .text.packetbuf_hdrreduce
                0x00209b10       0x2c obj_zoul/packetbuf.o
                0x00209b10                packetbuf_hdrreduce
 .text.packetbuf_set_datalen
                0x00209b3c        0xc obj_zoul/packetbuf.o
                0x00209b3c                packetbuf_set_datalen
 .text.packetbuf_dataptr
                0x00209b48       0x14 obj_zoul/packetbuf.o
                0x00209b48                packetbuf_dataptr
 .text.packetbuf_hdrptr
                0x00209b5c       0x14 obj_zoul/packetbuf.o
                0x00209b5c                packetbuf_hdrptr
 .text.packetbuf_datalen
                0x00209b70        0xc obj_zoul/packetbuf.o
                0x00209b70                packetbuf_datalen
 .text.packetbuf_hdrlen
                0x00209b7c       0x1c obj_zoul/packetbuf.o
                0x00209b7c                packetbuf_hdrlen
 .text.packetbuf_totlen
                0x00209b98       0x14 obj_zoul/packetbuf.o
                0x00209b98                packetbuf_totlen
 .text.packetbuf_hdralloc
                0x00209bac       0x28 obj_zoul/packetbuf.o
                0x00209bac                packetbuf_hdralloc
 .text.packetbuf_attr_clear
                0x00209bd4       0x38 obj_zoul/packetbuf.o
                0x00209bd4                packetbuf_attr_clear
 .text.packetbuf_clear
                0x00209c0c       0x30 obj_zoul/packetbuf.o
                0x00209c0c                packetbuf_clear
 .text.packetbuf_copyfrom
                0x00209c3c       0x2c obj_zoul/packetbuf.o
                0x00209c3c                packetbuf_copyfrom
 .text.packetbuf_attr_copyto
                0x00209c68       0x34 obj_zoul/packetbuf.o
                0x00209c68                packetbuf_attr_copyto
 .text.packetbuf_attr_copyfrom
                0x00209c9c       0x34 obj_zoul/packetbuf.o
                0x00209c9c                packetbuf_attr_copyfrom
 .text.packetbuf_set_attr
                0x00209cd0       0x10 obj_zoul/packetbuf.o
                0x00209cd0                packetbuf_set_attr
 .text.packetbuf_attr
                0x00209ce0        0xc obj_zoul/packetbuf.o
                0x00209ce0                packetbuf_attr
 .text.packetbuf_set_addr
                0x00209cec       0x18 obj_zoul/packetbuf.o
                0x00209cec                packetbuf_set_addr
 .text.packetbuf_addr
                0x00209d04       0x10 obj_zoul/packetbuf.o
                0x00209d04                packetbuf_addr
 .text.packetbuf_holds_broadcast
                0x00209d14       0x10 obj_zoul/packetbuf.o
                0x00209d14                packetbuf_holds_broadcast
 .text.queuebuf_init
                0x00209d24       0x1c obj_zoul/queuebuf.o
                0x00209d24                queuebuf_init
 .text.queuebuf_numfree
                0x00209d40        0xc obj_zoul/queuebuf.o
                0x00209d40                queuebuf_numfree
 .text.queuebuf_new_from_packetbuf
                0x00209d4c       0x44 obj_zoul/queuebuf.o
                0x00209d4c                queuebuf_new_from_packetbuf
 .text.queuebuf_free
                0x00209d90       0x2c obj_zoul/queuebuf.o
                0x00209d90                queuebuf_free
 .text.queuebuf_to_packetbuf
                0x00209dbc       0x30 obj_zoul/queuebuf.o
                0x00209dbc                queuebuf_to_packetbuf
 .text.frame802154_get_pan_id
                0x00209dec        0xc obj_zoul/frame802154.o
                0x00209dec                frame802154_get_pan_id
 .text.frame802154_parse
                0x00209df8      0x174 obj_zoul/frame802154.o
                0x00209df8                frame802154_parse
 .text.create_frame.isra.0
                0x00209f6c      0x124 obj_zoul/framer-802154.o
 .text.mac_sequence_is_duplicate
                0x0020a090       0x38 obj_zoul/mac-sequence.o
                0x0020a090                mac_sequence_is_duplicate
 .text.mac_sequence_register_seqno
                0x0020a0c8       0x64 obj_zoul/mac-sequence.o
                0x0020a0c8                mac_sequence_register_seqno
 .text.send_packet
                0x0020a12c        0xc obj_zoul/nullmac.o
 .text.packet_input
                0x0020a138        0xc obj_zoul/nullmac.o
 .text.on       0x0020a144        0xc obj_zoul/nullmac.o
 .text.off      0x0020a150        0xc obj_zoul/nullmac.o
 .text.on       0x0020a15c        0xc obj_zoul/nullrdc.o
 .text.send_one_packet
                0x0020a168      0x118 obj_zoul/nullrdc.o
 .text.off      0x0020a280       0x18 obj_zoul/nullrdc.o
 .text.packet_input
                0x0020a298       0x54 obj_zoul/nullrdc.o
 .text.input    0x0020a2ec        0xc obj_zoul/nullsec.o
 .text.send     0x0020a2f8       0x20 obj_zoul/nullsec.o
 .text.process_thread_er_example_server
                0x0020a318       0x9c er-example-server.co
 .text.res_get_handler
                0x0020a3b4       0x38 obj_zoul/res-separate.o
 .text.res_resume_handler
                0x0020a3ec       0x70 obj_zoul/res-separate.o
 .text.res_periodic_handler
                0x0020a45c       0x1c obj_zoul/res-push.o
 .text.res_get_handler
                0x0020a478       0x54 obj_zoul/res-push.o
 .text.res_event_handler
                0x0020a4cc       0x1c obj_zoul/res-event.o
 .text.res_get_handler
                0x0020a4e8       0x40 obj_zoul/res-event.o
 .text.res_get_handler
                0x0020a528       0x68 obj_zoul/res-hello.o
 .text          0x0020a590       0x30 /usr/bin/../lib/gcc/arm-none-eabi/4.9.3/armv7-m/libgcc.a(_aeabi_uldivmod.o)
                0x0020a590                __aeabi_uldivmod
 .text          0x0020a5c0       0x60 /usr/bin/../lib/gcc/arm-none-eabi/4.9.3/armv7-m/libgcc.a(bpabi.o)
                0x0020a5c0                __gnu_ldivmod_helper
                0x0020a5f0                __gnu_uldivmod_helper
 .text          0x0020a620        0x4 /usr/bin/../lib/gcc/arm-none-eabi/4.9.3/armv7-m/libgcc.a(_dvmd_tls.o)
                0x0020a620                __aeabi_ldiv0
                0x0020a620                __aeabi_idiv0
 .text          0x0020a624      0x2ac /usr/bin/../lib/gcc/arm-none-eabi/4.9.3/armv7-m/libgcc.a(_divdi3.o)
                0x0020a624                __divdi3
 .text          0x0020a8d0      0x270 /usr/bin/../lib/gcc/arm-none-eabi/4.9.3/armv7-m/libgcc.a(_udivdi3.o)
                0x0020a8d0                __udivdi3
 .text.atoi     0x0020ab40        0x8 /usr/bin/../lib/gcc/arm-none-eabi/4.9.3/../../../../arm-none-eabi/lib/armv7-m/libc.a(lib_a-atoi.o)
                0x0020ab40                atoi
 .text.memchr   0x0020ab48       0x94 /usr/bin/../lib/gcc/arm-none-eabi/4.9.3/../../../../arm-none-eabi/lib/armv7-m/libc.a(lib_a-memchr.o)
                0x0020ab48                memchr
 .text.memcmp   0x0020abdc       0x64 /usr/bin/../lib/gcc/arm-none-eabi/4.9.3/../../../../arm-none-eabi/lib/armv7-m/libc.a(lib_a-memcmp.o)
                0x0020abdc                memcmp
 .text          0x0020ac40       0xec /usr/bin/../lib/gcc/arm-none-eabi/4.9.3/../../../../arm-none-eabi/lib/armv7-m/libc.a(lib_a-memcpy.o)
                0x0020ac40                memcpy
 .text.memmove  0x0020ad2c       0xc8 /usr/bin/../lib/gcc/arm-none-eabi/4.9.3/../../../../arm-none-eabi/lib/armv7-m/libc.a(lib_a-memmove.o)
                0x0020ad2c                memmove
 .text.memset   0x0020adf4       0x9c /usr/bin/../lib/gcc/arm-none-eabi/4.9.3/../../../../arm-none-eabi/lib/armv7-m/libc.a(lib_a-memset.o)
                0x0020adf4                memset
 .text.strchr   0x0020ae90       0xcc /usr/bin/../lib/gcc/arm-none-eabi/4.9.3/../../../../arm-none-eabi/lib/armv7-m/libc.a(lib_a-strchr.o)
                0x0020ae90                strchr
 .text.strcpy   0x0020af5c       0xbc /usr/bin/../lib/gcc/arm-none-eabi/4.9.3/../../../../arm-none-eabi/lib/armv7-m/libc.a(lib_a-strcpy.o)
                0x0020af5c                strcpy
 .text.strlen   0x0020b018       0x5c /usr/bin/../lib/gcc/arm-none-eabi/4.9.3/../../../../arm-none-eabi/lib/armv7-m/libc.a(lib_a-strlen.o)
                0x0020b018                strlen
 .text.strncmp  0x0020b074       0x94 /usr/bin/../lib/gcc/arm-none-eabi/4.9.3/../../../../arm-none-eabi/lib/armv7-m/libc.a(lib_a-strncmp.o)
                0x0020b074                strncmp
 .text.strncpy  0x0020b108       0x68 /usr/bin/../lib/gcc/arm-none-eabi/4.9.3/../../../../arm-none-eabi/lib/armv7-m/libc.a(lib_a-strncpy.o)
                0x0020b108                strncpy
 .text._strtol_r
                0x0020b170      0x11c /usr/bin/../lib/gcc/arm-none-eabi/4.9.3/../../../../arm-none-eabi/lib/armv7-m/libc.a(lib_a-strtol.o)
                0x0020b170                _strtol_r
 .text.strtol   0x0020b28c       0x18 /usr/bin/../lib/gcc/arm-none-eabi/4.9.3/../../../../arm-none-eabi/lib/armv7-m/libc.a(lib_a-strtol.o)
                0x0020b28c                strtol
 .text.default_handler
                0x0020b2a4        0x2 obj_zoul/startup-gcc.o
                0x0020b2a4                default_handler
 .text.nmi_handler
                0x0020b2a6        0x6 obj_zoul/startup-gcc.o
                0x0020b2a6                nmi_handler
 .text.coap_parse_int_option
                0x0020b2ac       0x16 obj_zoul/er-coap.o
 .text.coap_merge_multi_option
                0x0020b2c2       0x32 obj_zoul/er-coap.o
 .text.coap_get_variable
                0x0020b2f4       0x6a obj_zoul/er-coap.o
 .text.coap_set_option_header
                0x0020b35e       0x76 obj_zoul/er-coap.o
 .text.coap_serialize_int_option
                0x0020b3d4       0x60 obj_zoul/er-coap.o
 .text.coap_serialize_array_option.part.0
                0x0020b434       0x20 obj_zoul/er-coap.o
 .text.coap_serialize_array_option
                0x0020b454       0x76 obj_zoul/er-coap.o
 .text.coap_init_message
                0x0020b4ca       0x1a obj_zoul/er-coap.o
                0x0020b4ca                coap_init_message
 .text.coap_get_query_variable
                0x0020b4e4       0x26 obj_zoul/er-coap.o
                0x0020b4e4                coap_get_query_variable
 .text.coap_get_post_variable
                0x0020b50a       0x1e obj_zoul/er-coap.o
                0x0020b50a                coap_get_post_variable
 .text.coap_set_status_code
                0x0020b528        0xc obj_zoul/er-coap.o
                0x0020b528                coap_set_status_code
 .text.coap_set_token
                0x0020b534       0x16 obj_zoul/er-coap.o
                0x0020b534                coap_set_token
 .text.coap_get_header_content_format
                0x0020b54a       0x18 obj_zoul/er-coap.o
                0x0020b54a                coap_get_header_content_format
 .text.coap_set_header_content_format
                0x0020b562        0xe obj_zoul/er-coap.o
                0x0020b562                coap_set_header_content_format
 .text.coap_get_header_accept
                0x0020b570       0x1a obj_zoul/er-coap.o
                0x0020b570                coap_get_header_accept
 .text.coap_get_header_max_age
                0x0020b58a       0x10 obj_zoul/er-coap.o
                0x0020b58a                coap_get_header_max_age
 .text.coap_set_header_max_age
                0x0020b59a        0xe obj_zoul/er-coap.o
                0x0020b59a                coap_set_header_max_age
 .text.coap_set_header_etag
                0x0020b5a8       0x22 obj_zoul/er-coap.o
                0x0020b5a8                coap_set_header_etag
 .text.coap_get_header_if_match
                0x0020b5ca       0x1c obj_zoul/er-coap.o
                0x0020b5ca                coap_get_header_if_match
 .text.coap_get_header_if_none_match
                0x0020b5e6        0x8 obj_zoul/er-coap.o
                0x0020b5e6                coap_get_header_if_none_match
 .text.coap_get_header_uri_host
                0x0020b5ee       0x18 obj_zoul/er-coap.o
                0x0020b5ee                coap_get_header_uri_host
 .text.coap_get_header_uri_path
                0x0020b606       0x18 obj_zoul/er-coap.o
                0x0020b606                coap_get_header_uri_path
 .text.coap_set_header_uri_path
                0x0020b61e       0x20 obj_zoul/er-coap.o
                0x0020b61e                coap_set_header_uri_path
 .text.coap_get_header_uri_query
                0x0020b63e       0x16 obj_zoul/er-coap.o
                0x0020b63e                coap_get_header_uri_query
 .text.coap_set_header_location_query
                0x0020b654       0x20 obj_zoul/er-coap.o
                0x0020b654                coap_set_header_location_query
 .text.coap_set_header_location_path
                0x0020b674       0x40 obj_zoul/er-coap.o
                0x0020b674                coap_set_header_location_path
 .text.coap_get_header_observe
                0x0020b6b4       0x18 obj_zoul/er-coap.o
                0x0020b6b4                coap_get_header_observe
 .text.coap_set_header_observe
                0x0020b6cc        0xe obj_zoul/er-coap.o
                0x0020b6cc                coap_set_header_observe
 .text.coap_get_header_block2
                0x0020b6da       0x32 obj_zoul/er-coap.o
                0x0020b6da                coap_get_header_block2
 .text.coap_set_header_block2
                0x0020b70c       0x32 obj_zoul/er-coap.o
                0x0020b70c                coap_set_header_block2
 .text.coap_set_header_block1
                0x0020b73e       0x2e obj_zoul/er-coap.o
                0x0020b73e                coap_set_header_block1
 .text.coap_get_header_size2
                0x0020b76c       0x1a obj_zoul/er-coap.o
                0x0020b76c                coap_get_header_size2
 .text.coap_set_header_size2
                0x0020b786       0x10 obj_zoul/er-coap.o
                0x0020b786                coap_set_header_size2
 .text.coap_get_payload
                0x0020b796       0x12 obj_zoul/er-coap.o
                0x0020b796                coap_get_payload
 .text.coap_set_payload
                0x0020b7a8       0x12 obj_zoul/er-coap.o
                0x0020b7a8                coap_set_payload
 .text.coap_get_rest_method
                0x0020b7ba        0xc obj_zoul/er-coap-engine.o
                0x0020b7ba                coap_get_rest_method
 .text.coap_notify_observers
                0x0020b7c6        0x6 obj_zoul/er-coap-observe.o
                0x0020b7c6                coap_notify_observers
 .text.coap_separate_resume
                0x0020b7cc       0x30 obj_zoul/er-coap-separate.o
                0x0020b7cc                coap_separate_resume
 .text.fade     0x0020b7fc       0x54 obj_zoul/contiki-main.o
 .text.board_init
                0x0020b850        0x4 obj_zoul/board.o
                0x0020b850                board_init
 .text.clock_isr
                0x0020b854        0x4 obj_zoul/clock.o
                0x0020b854                clock_isr
 .text.rtimer_arch_init
                0x0020b858        0x2 obj_zoul/rtimer-arch.o
                0x0020b858                rtimer_arch_init
 .text.uart0_isr
                0x0020b85a        0x6 obj_zoul/uart.o
                0x0020b85a                uart0_isr
 .text.uart1_isr
                0x0020b860        0x6 obj_zoul/uart.o
                0x0020b860                uart1_isr
 .text.cpu_cpsie
                0x0020b866        0x8 obj_zoul/cpu.o
                0x0020b866                cpu_cpsie
 .text.cpu_cpsid
                0x0020b86e        0x8 obj_zoul/cpu.o
                0x0020b86e                cpu_cpsid
 .text.gpio_port_a_isr
                0x0020b876        0x6 obj_zoul/gpio.o
                0x0020b876                gpio_port_a_isr
 .text.gpio_port_b_isr
                0x0020b87c        0x6 obj_zoul/gpio.o
                0x0020b87c                gpio_port_b_isr
 .text.gpio_port_c_isr
                0x0020b882        0x6 obj_zoul/gpio.o
                0x0020b882                gpio_port_c_isr
 .text.gpio_port_d_isr
                0x0020b888        0x6 obj_zoul/gpio.o
                0x0020b888                gpio_port_d_isr
 .text.send     0x0020b88e       0x12 obj_zoul/cc2538-rf.o
 .text.putchar  0x0020b8a0       0x10 obj_zoul/dbg.o
                0x0020b8a0                putchar
 .text.dbg_send_bytes
                0x0020b8b0       0x20 obj_zoul/dbg.o
                0x0020b8b0                dbg_send_bytes
 .text.puts     0x0020b8d0       0x20 obj_zoul/dbg.o
                0x0020b8d0                puts
 .text.configure
                0x0020b8f0        0x4 obj_zoul/cc2538-temp-sensor.o
 .text.status   0x0020b8f4        0x4 obj_zoul/cc2538-temp-sensor.o
 .text.value    0x0020b8f8       0x34 obj_zoul/cc2538-temp-sensor.o
 .text.configure
                0x0020b92c        0x4 obj_zoul/vdd3-sensor.o
 .text.status   0x0020b930        0x4 obj_zoul/vdd3-sensor.o
 .text.value    0x0020b934       0x2a obj_zoul/vdd3-sensor.o
 .text.write_str
                0x0020b95e       0x10 obj_zoul/dbg-printf.o
 .text.buffer_str
                0x0020b96e       0x28 obj_zoul/dbg-snprintf.o
 .text.snprintf
                0x0020b996       0x1a obj_zoul/dbg-snprintf.o
                0x0020b996                snprintf
 .text.autostart_start
                0x0020b9b0       0x14 obj_zoul/autostart.o
                0x0020b9b0                autostart_start
 .text.energest_init
                0x0020b9c4        0x2 obj_zoul/energest.o
                0x0020b9c4                energest_init
 .text.etimer_set
                0x0020b9c6       0x12 obj_zoul/etimer.o
                0x0020b9c6                etimer_set
 .text.etimer_reset
                0x0020b9d8       0x12 obj_zoul/etimer.o
                0x0020b9d8                etimer_reset
 .text.etimer_restart
                0x0020b9ea       0x12 obj_zoul/etimer.o
                0x0020b9ea                etimer_restart
 .text.etimer_expired
                0x0020b9fc        0xa obj_zoul/etimer.o
                0x0020b9fc                etimer_expired
 .text.etimer_expiration_time
                0x0020ba06        0x6 obj_zoul/etimer.o
                0x0020ba06                etimer_expiration_time
 .text.call_process
                0x0020ba0c        0xc obj_zoul/process.o
 .text.rtimer_init
                0x0020ba18        0x4 obj_zoul/rtimer.o
                0x0020ba18                rtimer_init
 .text.stimer_set
                0x0020ba1c        0xe obj_zoul/stimer.o
                0x0020ba1c                stimer_set
 .text.timer_set
                0x0020ba2a        0xe obj_zoul/timer.o
                0x0020ba2a                timer_set
 .text.timer_reset
                0x0020ba38        0xa obj_zoul/timer.o
                0x0020ba38                timer_reset
 .text.timer_restart
                0x0020ba42        0xc obj_zoul/timer.o
                0x0020ba42                timer_restart
 .text.timer_expired
                0x0020ba4e       0x1c obj_zoul/timer.o
                0x0020ba4e                timer_expired
 .text.list_init
                0x0020ba6a        0x6 obj_zoul/list.o
                0x0020ba6a                list_init
 .text.list_head
                0x0020ba70        0x4 obj_zoul/list.o
                0x0020ba70                list_head
 .text.list_tail
                0x0020ba74       0x10 obj_zoul/list.o
                0x0020ba74                list_tail
 .text.list_remove
                0x0020ba84       0x28 obj_zoul/list.o
                0x0020ba84                list_remove
 .text.list_add
                0x0020baac       0x1e obj_zoul/list.o
                0x0020baac                list_add
 .text.list_push
                0x0020baca       0x12 obj_zoul/list.o
                0x0020baca                list_push
 .text.list_length
                0x0020badc        0xe obj_zoul/list.o
                0x0020badc                list_length
 .text.list_item_next
                0x0020baea        0x6 obj_zoul/list.o
                0x0020baea                list_item_next
 .text.memb_init
                0x0020baf0       0x20 obj_zoul/memb.o
                0x0020baf0                memb_init
 .text.memb_alloc
                0x0020bb10       0x28 obj_zoul/memb.o
                0x0020bb10                memb_alloc
 .text.memb_free
                0x0020bb38       0x2c obj_zoul/memb.o
                0x0020bb38                memb_free
 .text.memb_inmemb
                0x0020bb64       0x1c obj_zoul/memb.o
                0x0020bb64                memb_inmemb
 .text.memb_numfree
                0x0020bb80       0x1c obj_zoul/memb.o
                0x0020bb80                memb_numfree
 .text.ringbuf_init
                0x0020bb9c        0xe obj_zoul/ringbuf.o
                0x0020bb9c                ringbuf_init
 .text.ringbuf_put
                0x0020bbaa       0x28 obj_zoul/ringbuf.o
                0x0020bbaa                ringbuf_put
 .text.ringbuf_get
                0x0020bbd2       0x20 obj_zoul/ringbuf.o
                0x0020bbd2                ringbuf_get
 .text.chksum   0x0020bbf2       0x38 obj_zoul/uip6.o
 .text.uip_icmp6chksum
                0x0020bc2a        0x6 obj_zoul/uip6.o
                0x0020bc2a                uip_icmp6chksum
 .text.uip_udpchksum
                0x0020bc30        0x6 obj_zoul/uip6.o
                0x0020bc30                uip_udpchksum
 .text.uip_htonl
                0x0020bc36       0x14 obj_zoul/uip6.o
                0x0020bc36                uip_htonl
 .text.uip_ds6_list_loop
                0x0020bc4a       0x48 obj_zoul/uip-ds6.o
                0x0020bc4a                uip_ds6_list_loop
 .text.uip_ds6_maddr_rm
                0x0020bc92        0x8 obj_zoul/uip-ds6.o
                0x0020bc92                uip_ds6_maddr_rm
 .text.uip_ds6_set_addr_iid
                0x0020bc9a       0x12 obj_zoul/uip-ds6.o
                0x0020bc9a                uip_ds6_set_addr_iid
 .text.get_match_length
                0x0020bcac       0x3a obj_zoul/uip-ds6.o
                0x0020bcac                get_match_length
 .text.uip_ds6_nbr_ipaddr_from_lladdr
                0x0020bce6        0x4 obj_zoul/uip-ds6-nbr.o
                0x0020bce6                uip_ds6_nbr_ipaddr_from_lladdr
 .text.uip_ds6_nbr_lladdr_from_ipaddr
                0x0020bcea       0x12 obj_zoul/uip-ds6-nbr.o
                0x0020bcea                uip_ds6_nbr_lladdr_from_ipaddr
 .text.uip_ds6_route_next
                0x0020bcfc        0x8 obj_zoul/uip-ds6-route.o
                0x0020bcfc                uip_ds6_route_next
 .text.rm_routelist_callback
                0x0020bd04        0x4 obj_zoul/uip-ds6-route.o
 .text.uip_nd6_init
                0x0020bd08        0x2 obj_zoul/uip-nd6.o
                0x0020bd08                uip_nd6_init
 .text.rpl_remove_routes
                0x0020bd0a       0x1e obj_zoul/rpl.o
                0x0020bd0a                rpl_remove_routes
 .text.rpl_remove_routes_by_nexthop
                0x0020bd28       0x36 obj_zoul/rpl.o
                0x0020bd28                rpl_remove_routes_by_nexthop
 .text.rpl_add_route
                0x0020bd5e       0x28 obj_zoul/rpl.o
                0x0020bd5e                rpl_add_route
 .text.lollipop_greater_than
                0x0020bd86       0x34 obj_zoul/rpl-dag.o
 .text.check_prefix
                0x0020bdba       0x58 obj_zoul/rpl-dag.o
 .text.rpl_set_prefix
                0x0020be12       0x6c obj_zoul/rpl-dag.o
                0x0020be12                rpl_set_prefix
 .text.rpl_set_default_route
                0x0020be7e       0x38 obj_zoul/rpl-dag.o
                0x0020be7e                rpl_set_default_route
 .text.rpl_find_parent
                0x0020beb6       0x16 obj_zoul/rpl-dag.o
                0x0020beb6                rpl_find_parent
 .text.rpl_find_parent_any_dag
                0x0020becc       0x1e obj_zoul/rpl-dag.o
                0x0020becc                rpl_find_parent_any_dag
 .text.rpl_select_dag
                0x0020beea      0x152 obj_zoul/rpl-dag.o
                0x0020beea                rpl_select_dag
 .text.rpl_nullify_parent
                0x0020c03c       0x48 obj_zoul/rpl-dag.o
                0x0020c03c                rpl_nullify_parent
 .text.nbr_callback
                0x0020c084        0x4 obj_zoul/rpl-dag.o
 .text.rpl_free_dag
                0x0020c088       0x2e obj_zoul/rpl-dag.o
                0x0020c088                rpl_free_dag
 .text.rpl_move_parent
                0x0020c0b6       0x48 obj_zoul/rpl-dag.o
                0x0020c0b6                rpl_move_parent
 .text.rpl_repair_root
                0x0020c0fe       0x48 obj_zoul/rpl-dag.o
                0x0020c0fe                rpl_repair_root
 .text.rpl_alloc_dag
                0x0020c146       0x48 obj_zoul/rpl-dag.o
                0x0020c146                rpl_alloc_dag
 .text.rpl_process_parent_event
                0x0020c18e       0x60 obj_zoul/rpl-dag.o
                0x0020c18e                rpl_process_parent_event
 .text.rpl_add_dag
                0x0020c1ee      0x10c obj_zoul/rpl-dag.o
                0x0020c1ee                rpl_add_dag
 .text.rpl_process_dio
                0x0020c2fa      0x2bc obj_zoul/rpl-dag.o
                0x0020c2fa                rpl_process_dio
 .text.get32    0x0020c5b6       0x18 obj_zoul/rpl-icmp6.o
 .text.set32    0x0020c5ce       0x12 obj_zoul/rpl-icmp6.o
 .text.get16    0x0020c5e0        0xc obj_zoul/rpl-icmp6.o
 .text.set16    0x0020c5ec        0xa obj_zoul/rpl-icmp6.o
 .text.reset    0x0020c5f6        0x2 obj_zoul/rpl-mrhof.o
 .text.update_metric_container
                0x0020c5f8        0x6 obj_zoul/rpl-mrhof.o
 .text.calculate_rank
                0x0020c5fe       0x34 obj_zoul/rpl-mrhof.o
 .text.neighbor_link_callback
                0x0020c632       0x46 obj_zoul/rpl-mrhof.o
 .text.best_dag
                0x0020c678       0x2c obj_zoul/rpl-mrhof.o
 .text.best_parent
                0x0020c6a4       0x5a obj_zoul/rpl-mrhof.o
 .text.handle_unicast_dio_timer
                0x0020c6fe       0x1c obj_zoul/rpl-timers.o
 .text.rpl_reset_dio_timer
                0x0020c71a       0x1c obj_zoul/rpl-timers.o
                0x0020c71a                rpl_reset_dio_timer
 .text.rpl_schedule_dao
                0x0020c736        0x8 obj_zoul/rpl-timers.o
                0x0020c736                rpl_schedule_dao
 .text.linkaddr_copy
                0x0020c73e        0xa obj_zoul/linkaddr.o
                0x0020c73e                linkaddr_copy
 .text.linkaddr_cmp
                0x0020c748       0x10 obj_zoul/linkaddr.o
                0x0020c748                linkaddr_cmp
 .text.nbr_set_bit
                0x0020c758       0x38 obj_zoul/nbr-table.o
 .text.item_from_key
                0x0020c790       0x22 obj_zoul/nbr-table.o
 .text.nbr_table_next
                0x0020c7b2       0x2e obj_zoul/nbr-table.o
                0x0020c7b2                nbr_table_next
 .text.nbr_table_get_from_lladdr
                0x0020c7e0       0x32 obj_zoul/nbr-table.o
                0x0020c7e0                nbr_table_get_from_lladdr
 .text.nbr_table_get_lladdr
                0x0020c812        0xc obj_zoul/nbr-table.o
                0x0020c812                nbr_table_get_lladdr
 .text.frame802154_has_panid
                0x0020c81e       0x4c obj_zoul/frame802154.o
                0x0020c81e                frame802154_has_panid
 .text.field_len
                0x0020c86a       0x84 obj_zoul/frame802154.o
 .text.frame802154_is_broadcast_addr
                0x0020c8ee       0x1e obj_zoul/frame802154.o
                0x0020c8ee                frame802154_is_broadcast_addr
 .text.frame802154_hdrlen
                0x0020c90c       0x32 obj_zoul/frame802154.o
                0x0020c90c                frame802154_hdrlen
 .text.frame802154_create
                0x0020c93e       0xe6 obj_zoul/frame802154.o
                0x0020c93e                frame802154_create
 .text.parse    0x0020ca24       0x94 obj_zoul/framer-802154.o
 .text.create   0x0020cab8        0x6 obj_zoul/framer-802154.o
 .text.hdr_length
                0x0020cabe        0x6 obj_zoul/framer-802154.o
 .text.mac_call_sent_callback
                0x0020cac4       0x16 obj_zoul/mac.o
                0x0020cac4                mac_call_sent_callback
 .text.channel_check_interval
                0x0020cada        0x4 obj_zoul/nullmac.o
 .text.init     0x0020cade        0x2 obj_zoul/nullmac.o
 .text.channel_check_interval
                0x0020cae0        0x4 obj_zoul/nullrdc.o
 .text.init     0x0020cae4        0x4 obj_zoul/nullrdc.o
 .text.send_list
                0x0020cae8       0x20 obj_zoul/nullrdc.o
 .text.send_packet
                0x0020cb08        0x4 obj_zoul/nullrdc.o
 .text.init     0x0020cb0c        0x2 obj_zoul/nullsec.o
 .text.res_post_handler
                0x0020cb0e        0x6 obj_zoul/res-toggle.o
 *(SORT(.rodata*))
 .rodata.coap_rest_implementation
                0x0020cb14      0x10c obj_zoul/er-coap-engine.o
                0x0020cb14                coap_rest_implementation
 .rodata.button_sensor
                0x0020cc20       0x10 obj_zoul/button-sensor.o
                0x0020cc20                button_sensor
 .rodata.uart_regs
                0x0020cc30       0x58 obj_zoul/uart.o
 .rodata.cc2538_rf_driver
                0x0020cc88       0x38 obj_zoul/cc2538-rf.o
                0x0020cc88                cc2538_rf_driver
 .rodata.output_power
                0x0020ccc0       0x70 obj_zoul/cc2538-rf.o
 .rodata.cc2538_temp_sensor
                0x0020cd30       0x10 obj_zoul/cc2538-temp-sensor.o
                0x0020cd30                cc2538_temp_sensor
 .rodata.vdd3_sensor
                0x0020cd40       0x10 obj_zoul/vdd3-sensor.o
                0x0020cd40                vdd3_sensor
 .rodata.sicslowpan_driver
                0x0020cd50        0xc obj_zoul/sicslowpan.o
                0x0020cd50                sicslowpan_driver
 .rodata.framer_802154
                0x0020cd5c        0xc obj_zoul/framer-802154.o
                0x0020cd5c                framer_802154
 .rodata.nullmac_driver
                0x0020cd68       0x1c obj_zoul/nullmac.o
                0x0020cd68                nullmac_driver
 .rodata.nullrdc_driver
                0x0020cd84       0x20 obj_zoul/nullrdc.o
                0x0020cd84                nullrdc_driver
 .rodata.nullsec_driver
                0x0020cda4       0x10 obj_zoul/nullsec.o
                0x0020cda4                nullsec_driver
 .rodata.autostart_processes
                0x0020cdb4        0x8 er-example-server.co
                0x0020cdb4                autostart_processes
 .rodata._ctype_
                0x0020cdbc      0x101 /usr/bin/../lib/gcc/arm-none-eabi/4.9.3/../../../../arm-none-eabi/lib/armv7-m/libc.a(lib_a-ctype_.o)
                0x0020cdbc                _ctype_
 *fill*         0x0020cebd        0x3 00000000
 .rodata.str1.4
                0x0020cec0        0x4 /usr/bin/../lib/gcc/arm-none-eabi/4.9.3/../../../../arm-none-eabi/lib/armv7-m/libc.a(lib_a-impure.o)
                                  0x2 (size before relaxing)
 .rodata.str1.1
                0x0020cec4       0xae obj_zoul/er-coap.o
                                 0xaf (size before relaxing)
 .rodata.str1.1
                0x0020cf72       0x66 obj_zoul/er-coap-engine.o
 .rodata.str1.1
                0x0020cfd8       0x11 obj_zoul/er-coap-observe.o
 .rodata.str1.1
                0x0020cfe9        0xd obj_zoul/er-coap-separate.o
 .rodata.str1.1
                0x0020cff6        0x9 obj_zoul/er-coap-res-well-known-core.o
                                 0x19 (size before relaxing)
 .rodata.str1.1
                0x0020cfff      0x24f obj_zoul/er-coap-observe-client.o
 .rodata.str1.1
                0x0020d24e        0xc obj_zoul/rest-engine.o
 .rodata.str1.1
                0x0020d25a       0x73 obj_zoul/contiki-main.o
 .rodata.str1.1
                0x0020d2cd        0x7 obj_zoul/button-sensor.o
 .rodata.str1.1
                0x0020d2d4       0x11 obj_zoul/cc2538-rf.o
 .rodata.str1.1
                0x0020d2e5       0x14 obj_zoul/cc2538-temp-sensor.o
 .rodata.str1.1
                0x0020d2f9        0x5 obj_zoul/vdd3-sensor.o
 .rodata.buffer.4159
                0x0020d2fe       0x10 obj_zoul/strformat.o
 .rodata.str1.1
                0x0020d30e       0x35 obj_zoul/strformat.o
                                 0x37 (size before relaxing)
 .rodata.buffer.4150
                0x0020d343       0x10 obj_zoul/strformat.o
 .rodata.str1.1
                0x0020d353        0xf obj_zoul/ctimer.o
 .rodata.str1.1
                0x0020d362        0xc obj_zoul/etimer.o
 .rodata.str1.1
                0x0020d36e        0xe obj_zoul/serial-line.o
 .rodata.str1.1
                0x0020d37c        0x8 obj_zoul/sensors.o
 .rodata        0x0020d384        0x2 obj_zoul/sicslowpan.o
 .rodata.ttl_values
                0x0020d386        0x4 obj_zoul/sicslowpan.o
 .rodata.unc_llconf
                0x0020d38a        0x4 obj_zoul/sicslowpan.o
                0x0020d38a                unc_llconf
 .rodata.llprefix
                0x0020d38e        0x2 obj_zoul/sicslowpan.o
                0x0020d38e                llprefix
 .rodata.unc_mxconf
                0x0020d390        0x4 obj_zoul/sicslowpan.o
                0x0020d390                unc_mxconf
 .rodata.str1.1
                0x0020d394        0xb obj_zoul/sicslowpan.o
 .rodata.unc_ctxconf
                0x0020d39f        0x4 obj_zoul/sicslowpan.o
                0x0020d39f                unc_ctxconf
 .rodata.str1.1
                0x0020d3a3        0xd obj_zoul/tcpip.o
 .rodata.str1.1
                0x0020d3b0       0x3c obj_zoul/uip-debug.o
 .rodata.linkaddr_null
                0x0020d3ec        0x8 obj_zoul/linkaddr.o
                0x0020d3ec                linkaddr_null
 .rodata.str1.1
                0x0020d3f4        0x8 obj_zoul/nullmac.o
 .rodata.str1.1
                0x0020d3fc        0x8 obj_zoul/nullrdc.o
 .rodata.str1.1
                0x0020d404        0x8 obj_zoul/nullsec.o
 .rodata.str1.1
                0x0020d40c       0x3c er-example-server.co
 .rodata.str1.1
                0x0020d448       0x21 obj_zoul/res-separate.o
 .rodata.str1.1
                0x0020d469       0x2e obj_zoul/res-push.o
 .rodata.str1.1
                0x0020d497       0x1d obj_zoul/res-toggle.o
 .rodata.str1.1
                0x0020d4b4       0x17 obj_zoul/res-event.o
                                 0x21 (size before relaxing)
 .rodata.str1.1
                0x0020d4cb       0x6d obj_zoul/res-hello.o
                0x0020d538                _etext = .

.glue_7         0x0020d538        0x0
 .glue_7        0x00000000        0x0 linker stubs

.glue_7t        0x0020d538        0x0
 .glue_7t       0x00000000        0x0 linker stubs

.vfp11_veneer   0x0020d538        0x0
 .vfp11_veneer  0x00000000        0x0 linker stubs

.v4_bx          0x0020d538        0x0
 .v4_bx         0x00000000        0x0 linker stubs

.iplt           0x0020d538        0x0
 .iplt          0x00000000        0x0 obj_zoul/startup-gcc.o

.socdata        0x20004000       0x40
 *(SORT(.udma_channel_control_table))
 .udma_channel_control_table
                0x20004000       0x40 obj_zoul/udma.o

.data           0x20004040      0x6d8 load address 0x0020d538
                0x20004040                _data = .
 *(SORT(.data*))
 .data.impure_data
                0x20004040      0x428 /usr/bin/../lib/gcc/arm-none-eabi/4.9.3/../../../../arm-none-eabi/lib/armv7-m/libc.a(lib_a-impure.o)
 .data.coap_error_message
                0x20004468        0x4 obj_zoul/er-coap.o
                0x20004468                coap_error_message
 .data.coap_engine
                0x2000446c       0x10 obj_zoul/er-coap-engine.o
                0x2000446c                coap_engine
 .data.transactions_memb
                0x2000447c        0xc obj_zoul/er-coap-transactions.o
 .data.observers_memb
                0x20004488        0xc obj_zoul/er-coap-observe.o
 .data.res_well_known_core
                0x20004494       0x24 obj_zoul/er-coap-res-well-known-core.o
                0x20004494                res_well_known_core
 .data.rest_engine_process
                0x200044b8       0x10 obj_zoul/rest-engine.o
                0x200044b8                rest_engine_process
 .data.sensors  0x200044c8       0x10 obj_zoul/zoul-sensors.o
                0x200044c8                sensors
 .data.cc2538_rf_process
                0x200044d8       0x10 obj_zoul/cc2538-rf.o
                0x200044d8                cc2538_rf_process
 .data.ctxt     0x200044e8        0x8 obj_zoul/dbg-printf.o
 .data.ctimer_process
                0x200044f0       0x10 obj_zoul/ctimer.o
                0x200044f0                ctimer_process
 .data.etimer_process
                0x20004500       0x10 obj_zoul/etimer.o
                0x20004500                etimer_process
 .data.serial_line_process
                0x20004510       0x10 obj_zoul/serial-line.o
                0x20004510                serial_line_process
 .data.sensors_process
                0x20004520       0x10 obj_zoul/sensors.o
                0x20004520                sensors_process
 .data.ds6_neighbors
                0x20004530        0x4 obj_zoul/uip-ds6-nbr.o
                0x20004530                ds6_neighbors
 .data.ds6_neighbors_struct
                0x20004534       0x10 obj_zoul/uip-ds6-nbr.o
 .data.defaultroutermemb
                0x20004544        0xc obj_zoul/uip-ds6-route.o
 .data.nbr_routes_struct
                0x20004550       0x10 obj_zoul/uip-ds6-route.o
 .data.nbr_routes
                0x20004560        0x4 obj_zoul/uip-ds6-route.o
                0x20004560                nbr_routes
 .data.routememb
                0x20004564        0xc obj_zoul/uip-ds6-route.o
 .data.neighborroutememb
                0x20004570        0xc obj_zoul/uip-ds6-route.o
 .data.echo_request_handler
                0x2000457c        0xc obj_zoul/uip-icmp6.o
 .data.echo_reply_handler
                0x20004588        0xc obj_zoul/uip-icmp6.o
 .data.tcpip_process
                0x20004594       0x10 obj_zoul/tcpip.o
                0x20004594                tcpip_process
 .data.rpl_parents
                0x200045a4        0x4 obj_zoul/rpl-dag.o
                0x200045a4                rpl_parents
 .data.rpl_parents_struct
                0x200045a8       0x10 obj_zoul/rpl-dag.o
 .data.dao_ack_handler
                0x200045b8        0xc obj_zoul/rpl-icmp6.o
 .data.dis_handler
                0x200045c4        0xc obj_zoul/rpl-icmp6.o
 .data.dao_handler
                0x200045d0        0xc obj_zoul/rpl-icmp6.o
 .data.dio_handler
                0x200045dc        0xc obj_zoul/rpl-icmp6.o
 .data.rpl_mrhof
                0x200045e8       0x1c obj_zoul/rpl-mrhof.o
                0x200045e8                rpl_mrhof
 .data.neighbor_addr_mem
                0x20004604        0xc obj_zoul/nbr-table.o
 .data.bufmem   0x20004610        0xc obj_zoul/queuebuf.o
 .data.buframmem
                0x2000461c        0xc obj_zoul/queuebuf.o
 .data.er_example_server
                0x20004628       0x10 er-example-server.co
                0x20004628                er_example_server
 .data.res_separate
                0x20004638       0x24 obj_zoul/res-separate.o
                0x20004638                res_separate
 .data.periodic_res_push
                0x2000465c       0x20 obj_zoul/res-push.o
                0x2000465c                periodic_res_push
 .data.res_push
                0x2000467c       0x24 obj_zoul/res-push.o
                0x2000467c                res_push
 .data.res_toggle
                0x200046a0       0x24 obj_zoul/res-toggle.o
                0x200046a0                res_toggle
 .data.res_event
                0x200046c4       0x24 obj_zoul/res-event.o
                0x200046c4                res_event
 .data.res_hello
                0x200046e8       0x24 obj_zoul/res-hello.o
                0x200046e8                res_hello
 .data.__ctype_ptr__
                0x2000470c        0x4 /usr/bin/../lib/gcc/arm-none-eabi/4.9.3/../../../../arm-none-eabi/lib/armv7-m/libc.a(lib_a-ctype_.o)
                0x2000470c                __ctype_ptr__
 .data._impure_ptr
                0x20004710        0x4 /usr/bin/../lib/gcc/arm-none-eabi/4.9.3/../../../../arm-none-eabi/lib/armv7-m/libc.a(lib_a-impure.o)
                0x20004710                _impure_ptr
 .data.mac_pan_id
                0x20004714        0x2 obj_zoul/frame802154.o
 .data.rf_channel
                0x20004716        0x1 obj_zoul/cc2538-rf.o
 .data.dao_sequence
                0x20004717        0x1 obj_zoul/rpl-icmp6.o
                0x20004718                _edata = .
                0x0020d538                _ldata = LOADADDR (.data)

.igot.plt       0x20004718        0x0 load address 0x0020dc10
 .igot.plt      0x00000000        0x0 obj_zoul/startup-gcc.o

.ARM.exidx      0x0020dc10        0x8
 *(SORT(.ARM.exidx*))
 .ARM.exidx     0x0020dc10        0x8 /usr/bin/../lib/gcc/arm-none-eabi/4.9.3/armv7-m/libgcc.a(_divdi3.o)
 .ARM.exidx     0x0020dc18        0x0 /usr/bin/../lib/gcc/arm-none-eabi/4.9.3/armv7-m/libgcc.a(_udivdi3.o)
                                  0x8 (size before relaxing)

.bss            0x20004718     0x2ad3
                0x20004718                _bss = .
 *(SORT(.bss*))
 .bss.rt_ticks_startup
                0x20004718        0x8 obj_zoul/clock.o
 .bss.rt_ticks_epoch
                0x20004720        0x8 obj_zoul/clock.o
 .bss.udp_conn  0x20004728        0x4 obj_zoul/er-coap.o
 .bss.transaction.8614
                0x2000472c        0x4 obj_zoul/er-coap-engine.o
 .bss.message.8612
                0x20004730       0xa4 obj_zoul/er-coap-engine.o
 .bss.response.8613
                0x200047d4       0xa4 obj_zoul/er-coap-engine.o
 .bss.service_cbk
                0x20004878        0x4 obj_zoul/er-coap-engine.o
 .bss.transactions_list_list
                0x2000487c        0x4 obj_zoul/er-coap-transactions.o
 .bss.transaction_handler_process
                0x20004880        0x4 obj_zoul/er-coap-transactions.o
 .bss.transactions_memb_memb_mem
                0x20004884      0x2a0 obj_zoul/er-coap-transactions.o
 .bss.observers_memb_memb_mem
                0x20004b24       0xf0 obj_zoul/er-coap-observe.o
 .bss.observers_list_list
                0x20004c14        0x4 obj_zoul/er-coap-observe.o
 .bss.obs_subjects_list_list
                0x20004c18        0x4 obj_zoul/er-coap-observe-client.o
 .bss.response.8155
                0x20004c1c       0xa4 obj_zoul/er-coap-observe-client.o
 .bss.restful_periodic_services_list
                0x20004cc0        0x4 obj_zoul/rest-engine.o
 .bss.restful_services_list
                0x20004cc4        0x4 obj_zoul/rest-engine.o
 .bss.press_counter
                0x20004cc8       0x20 obj_zoul/button-sensor.o
 .bss.debouncetimer
                0x20004ce8        0x8 obj_zoul/button-sensor.o
 .bss.press_duration
                0x20004cf0        0x4 obj_zoul/button-sensor.o
 .bss.next_trigger
                0x20004cf4        0x4 obj_zoul/rtimer-arch.o
 .bss.input_handler
                0x20004cf8        0x8 obj_zoul/uart.o
 .bss.interrupt_disable
                0x20004d00        0x4 obj_zoul/nvic.o
 .bss.interrupt_pend
                0x20004d04        0x4 obj_zoul/nvic.o
 .bss.interrupt_unpend
                0x20004d08        0x4 obj_zoul/nvic.o
 .bss.interrupt_enable
                0x20004d0c        0x4 obj_zoul/nvic.o
 .bss.gpio_callbacks
                0x20004d10       0x80 obj_zoul/gpio.o
 .bss.ioc_sel   0x20004d90        0x4 obj_zoul/ioc.o
 .bss.ioc_over  0x20004d94        0x4 obj_zoul/ioc.o
 .bss.notification_process
                0x20004d98        0x4 obj_zoul/crypto.o
 .bss.periph_permit_pm1_funcs
                0x20004d9c       0x14 obj_zoul/lpm.o
 .bss.notification_process
                0x20004db0        0x4 obj_zoul/pka.o
 .bss.ctimer_list_list
                0x20004db4        0x4 obj_zoul/ctimer.o
 .bss.timerlist
                0x20004db8        0x4 obj_zoul/etimer.o
 .bss.next_expiration
                0x20004dbc        0x4 obj_zoul/etimer.o
 .bss.receiver.5355
                0x20004dc0        0x4 obj_zoul/process.o
 .bss.p.5356    0x20004dc4        0x4 obj_zoul/process.o
 .bss.process_current
                0x20004dc8        0x4 obj_zoul/process.o
                0x20004dc8                process_current
 .bss.data.5354
                0x20004dcc        0x4 obj_zoul/process.o
 .bss.process_list
                0x20004dd0        0x4 obj_zoul/process.o
                0x20004dd0                process_list
 .bss.events    0x20004dd4      0x180 obj_zoul/process.o
 .bss.next_rtimer
                0x20004f54        0x4 obj_zoul/rtimer.o
 .bss.rxbuf     0x20004f58        0x8 obj_zoul/serial-line.o
 .bss.ptr.4707  0x20004f60        0x4 obj_zoul/serial-line.o
 .bss.i.4722    0x20004f64        0x4 obj_zoul/sensors.o
 .bss.events.4723
                0x20004f68        0x4 obj_zoul/sensors.o
 .bss.context   0x20004f6c        0x4 obj_zoul/sicslowpan.o
 .bss.last_rssi
                0x20004f70        0x4 obj_zoul/sicslowpan.o
 .bss.hc06_ptr  0x20004f74        0x4 obj_zoul/sicslowpan.o
 .bss.packetbuf_ptr
                0x20004f78        0x4 obj_zoul/sicslowpan.o
 .bss.packetbuf_payload_len
                0x20004f7c        0x4 obj_zoul/sicslowpan.o
 .bss.last_tx_status
                0x20004f80        0x4 obj_zoul/sicslowpan.o
 .bss.callback  0x20004f84        0x4 obj_zoul/sicslowpan.o
 .bss.frag_info
                0x20004f88      0x170 obj_zoul/sicslowpan.o
 .bss.locmaddr  0x200050f8        0x4 obj_zoul/uip-ds6.o
 .bss.locprefix
                0x200050fc        0x4 obj_zoul/uip-ds6.o
 .bss.locaddr   0x20005100        0x4 obj_zoul/uip-ds6.o
 .bss.defaultroutermemb_memb_mem
                0x20005104       0x40 obj_zoul/uip-ds6-route.o
 .bss.num_routes
                0x20005144        0x4 obj_zoul/uip-ds6-route.o
 .bss.defaultrouterlist_list
                0x20005148        0x4 obj_zoul/uip-ds6-route.o
 .bss._nbr_routes_mem
                0x2000514c       0xa0 obj_zoul/uip-ds6-route.o
 .bss.routelist_list
                0x200051ec        0x4 obj_zoul/uip-ds6-route.o
 .bss.routememb_memb_mem
                0x200051f0      0x320 obj_zoul/uip-ds6-route.o
 .bss.neighborroutememb_memb_mem
                0x20005510       0xa0 obj_zoul/uip-ds6-route.o
 .bss.notificationlist_list
                0x200055b0        0x4 obj_zoul/uip-ds6-route.o
 .bss.echo_reply_callback_list_list
                0x200055b4        0x4 obj_zoul/uip-icmp6.o
 .bss.input_handler_list_list
                0x200055b8        0x4 obj_zoul/uip-icmp6.o
 .bss.periodic  0x200055bc       0x10 obj_zoul/tcpip.o
 .bss.outputfunc
                0x200055cc        0x4 obj_zoul/tcpip.o
 .bss._rpl_parents_mem
                0x200055d0      0x140 obj_zoul/rpl-dag.o
 .bss.periodic_timer
                0x20005710       0x20 obj_zoul/rpl-timers.o
 .bss.nbr_table_keys_list
                0x20005730        0x4 obj_zoul/nbr-table.o
 .bss.neighbor_addr_mem_memb_mem
                0x20005734       0xf0 obj_zoul/nbr-table.o
 .bss.all_tables
                0x20005824       0x20 obj_zoul/nbr-table.o
 .bss.num_tables
                0x20005844        0x4 obj_zoul/nbr-table.o
 .bss.packetbufptr
                0x20005848        0x4 obj_zoul/packetbuf.o
 .bss.packetbuf_aligned
                0x2000584c       0xb0 obj_zoul/packetbuf.o
 .bss.bufmem_memb_mem
                0x200058fc       0x20 obj_zoul/queuebuf.o
 .bss.separate_store
                0x2000591c       0x80 obj_zoul/res-separate.o
 .bss.event_counter
                0x2000599c        0x4 obj_zoul/res-push.o
 .bss.event_counter
                0x200059a0        0x4 obj_zoul/res-event.o
 .bss.current_mid
                0x200059a4        0x2 obj_zoul/er-coap.o
 .bss.my_tag    0x200059a6        0x2 obj_zoul/sicslowpan.o
 .bss.lastport  0x200059a8        0x2 obj_zoul/uip6.o
 .bss.loc_fipaddr
                0x200059aa       0x10 obj_zoul/uip-ds6.o
 .bss._ds6_neighbors_mem
                0x200059ba      0x190 obj_zoul/uip-ds6-nbr.o
 .bss.tmp_ipaddr
                0x20005b4a       0x10 obj_zoul/uip-icmp6.o
 .bss.next_dis  0x20005b5a        0x2 obj_zoul/rpl-timers.o
 .bss.buflen    0x20005b5c        0x2 obj_zoul/packetbuf.o
 .bss.bufptr    0x20005b5e        0x2 obj_zoul/packetbuf.o
 .bss.buframmem_memb_mem
                0x20005b60      0x580 obj_zoul/queuebuf.o
 .bss.erbium_status_code
                0x200060e0        0x1 obj_zoul/er-coap.o
                0x200060e0                erbium_status_code
 .bss.transactions_memb_memb_count
                0x200060e1        0x4 obj_zoul/er-coap-transactions.o
 .bss.observers_memb_memb_count
                0x200060e5        0x3 obj_zoul/er-coap-observe.o
 .bss.initialized.5703
                0x200060e8        0x1 obj_zoul/rest-engine.o
 .bss.leds      0x200060e9        0x1 obj_zoul/leds.o
 .bss.press_event_counter
                0x200060ea        0x1 obj_zoul/button-sensor.o
 .bss.initialized
                0x200060eb        0x1 obj_zoul/antenna-sw.o
 .bss.rf_flags  0x200060ec        0x1 obj_zoul/cc2538-rf.o
 .bss.max_pm    0x200060ed        0x1 obj_zoul/lpm.o
 .bss.initialized
                0x200060ee        0x1 obj_zoul/ctimer.o
 .bss.fevent    0x200060ef        0x1 obj_zoul/process.o
 .bss.nevents   0x200060f0        0x1 obj_zoul/process.o
 .bss.poll_requested
                0x200060f1        0x1 obj_zoul/process.o
 .bss.snum.5371
                0x200060f2        0x1 obj_zoul/process.o
 .bss.ev.5353   0x200060f3        0x1 obj_zoul/process.o
 .bss.lastevent
                0x200060f4        0x1 obj_zoul/process.o
 .bss.overflow.4700
                0x200060f5        0x1 obj_zoul/serial-line.o
 .bss.rxbuf_data
                0x200060f6       0x80 obj_zoul/serial-line.o
 .bss.buf.4706  0x20006176       0x80 obj_zoul/serial-line.o
 .bss.num_sensors
                0x200061f6        0x1 obj_zoul/sensors.o
 .bss.uncomp_hdr_len
                0x200061f7        0x1 obj_zoul/sicslowpan.o
 .bss.addr_contexts
                0x200061f8        0xa obj_zoul/sicslowpan.o
 .bss.frag_buf  0x20006202      0x54c obj_zoul/sicslowpan.o
 .bss.packetbuf_hdr_len
                0x2000674e        0x1 obj_zoul/sicslowpan.o
 .bss.uip_ext_len
                0x2000674f        0x1 obj_zoul/uip6.o
                0x2000674f                uip_ext_len
 .bss.uip_ext_bitmap
                0x20006750        0x1 obj_zoul/uip6.o
                0x20006750                uip_ext_bitmap
 .bss.uip_ext_opt_offset
                0x20006751        0x1 obj_zoul/uip6.o
                0x20006751                uip_ext_opt_offset
 .bss.c         0x20006752        0x1 obj_zoul/uip6.o
 .bss.defaultroutermemb_memb_count
                0x20006753        0x2 obj_zoul/uip-ds6-route.o
 .bss.neighborroutememb_memb_count
                0x20006755       0x14 obj_zoul/uip-ds6-route.o
 .bss.routememb_memb_count
                0x20006769       0x14 obj_zoul/uip-ds6-route.o
 .bss.mode      0x2000677d        0x1 obj_zoul/rpl.o
 .bss.dio_send_ok
                0x2000677e        0x1 obj_zoul/rpl-timers.o
 .bss.neighbor_addr_mem_memb_count
                0x2000677f       0x14 obj_zoul/nbr-table.o
 .bss.locked_map
                0x20006793       0x14 obj_zoul/nbr-table.o
 .bss.used_map  0x200067a7       0x14 obj_zoul/nbr-table.o
 .bss.hdrptr    0x200067bb        0x1 obj_zoul/packetbuf.o
 .bss.buframmem_memb_count
                0x200067bc        0x8 obj_zoul/queuebuf.o
 .bss.bufmem_memb_count
                0x200067c4        0x8 obj_zoul/queuebuf.o
 .bss.mac_dsn   0x200067cc        0x1 obj_zoul/framer-802154.o
 .bss.initialized
                0x200067cd        0x1 obj_zoul/framer-802154.o
 .bss.received_seqnos
                0x200067ce       0x90 obj_zoul/mac-sequence.o
 .bss.separate_active
                0x2000685e        0x1 obj_zoul/res-separate.o
 *(SORT(COMMON))
 *fill*         0x2000685f        0x1 
 COMMON         0x20006860      0x684 obj_zoul/uip6.o
                0x20006860                uip_len
                0x20006864                uip_sappdata
                0x20006868                uip_lladdr
                0x20006870                uip_aligned_buf
                0x20006d84                uip_flags
                0x20006d88                uip_next_hdr
                0x20006d8c                uip_udp_conn
                0x20006d90                uip_appdata
                0x20006d94                uip_conn
                0x20006d98                uip_icmp6_conns
                0x20006da0                uip_slen
                0x20006da4                uip_udp_conns
 COMMON         0x20006ee4      0x174 obj_zoul/uip-ds6.o
                0x20006ee4                uip_ds6_timer_ra
                0x20006eec                uip_ds6_if
                0x20006fe4                uip_ds6_netif_addr_list_offset
                0x20006fe5                uip_ds6_addr_size
                0x20006fe8                uip_ds6_prefix_list
                0x20007048                uip_ds6_timer_periodic
 COMMON         0x20007058      0x154 obj_zoul/rpl-dag.o
                0x20007058                default_instance
                0x2000705c                instance_table
 COMMON         0x200071ac       0x2e obj_zoul/packetbuf.o
                0x200071ac                packetbuf_addrs
                0x200071bc                packetbuf_attrs
 COMMON         0x200071da        0x1 obj_zoul/button-sensor.o
                0x200071da                button_press_duration_exceeded
 COMMON         0x200071db        0x4 obj_zoul/zoul-sensors.o
                0x200071db                sensors_flags
 COMMON         0x200071df        0x1 obj_zoul/serial-line.o
                0x200071df                serial_line_event_message
 COMMON         0x200071e0        0x1 obj_zoul/sensors.o
                0x200071e0                sensors_event
 COMMON         0x200071e1        0x2 obj_zoul/tcpip.o
                0x200071e1                tcpip_event
                0x200071e2                tcpip_icmp6_event
 COMMON         0x200071e3        0x8 obj_zoul/linkaddr.o
                0x200071e3                linkaddr_node_addr
                0x200071eb                _ebss = .

.stack          0x200071f0      0x800
 *(SORT(.stack))
 .stack         0x200071f0      0x800 obj_zoul/startup-gcc.o
                0x200079f0                _heap = .
                0x20008000                _eheap = (ORIGIN (FRSRAM) + 0x4000)

.nrdata         0x20000000        0x0
                0x20000000                _nrdata = .
 *(SORT(.nrdata*))
                0x20000000                _enrdata = .

.flashcca       0x0027ffd4       0x2c
 *(SORT(.flashcca))
 .flashcca      0x0027ffd4       0x2c obj_zoul/startup-gcc.o
                0x0027ffd4                flash_cca_lock_page
OUTPUT(er-example-server.elf elf32-littlearm)

.rel.dyn        0x00280000        0x0
 .rel.iplt      0x00000000        0x0 obj_zoul/startup-gcc.o

.comment        0x00000000       0x70
 .comment       0x00000000       0x70 obj_zoul/startup-gcc.o
                                 0x71 (size before relaxing)
 .comment       0x00000000       0x71 obj_zoul/er-coap.o
 .comment       0x00000000       0x71 obj_zoul/er-coap-engine.o
 .comment       0x00000000       0x71 obj_zoul/er-coap-transactions.o
 .comment       0x00000000       0x71 obj_zoul/er-coap-observe.o
 .comment       0x00000000       0x71 obj_zoul/er-coap-separate.o
 .comment       0x00000000       0x71 obj_zoul/er-coap-res-well-known-core.o
 .comment       0x00000000       0x71 obj_zoul/er-coap-observe-client.o
 .comment       0x00000000       0x71 obj_zoul/rest-engine.o
 .comment       0x00000000       0x71 obj_zoul/contiki-main.o
 .comment       0x00000000       0x71 obj_zoul/leds.o
 .comment       0x00000000       0x71 obj_zoul/leds-arch.o
 .comment       0x00000000       0x71 obj_zoul/button-sensor.o
 .comment       0x00000000       0x71 obj_zoul/zoul-sensors.o
 .comment       0x00000000       0x71 obj_zoul/board.o
 .comment       0x00000000       0x71 obj_zoul/antenna-sw.o
 .comment       0x00000000       0x71 obj_zoul/clock.o
 .comment       0x00000000       0x71 obj_zoul/rtimer-arch.o
 .comment       0x00000000       0x71 obj_zoul/uart.o
 .comment       0x00000000       0x71 obj_zoul/watchdog.o
 .comment       0x00000000       0x71 obj_zoul/nvic.o
 .comment       0x00000000       0x71 obj_zoul/cpu.o
 .comment       0x00000000       0x71 obj_zoul/sys-ctrl.o
 .comment       0x00000000       0x71 obj_zoul/gpio.o
 .comment       0x00000000       0x71 obj_zoul/ioc.o
 .comment       0x00000000       0x71 obj_zoul/adc.o
 .comment       0x00000000       0x71 obj_zoul/crypto.o
 .comment       0x00000000       0x71 obj_zoul/cc2538-rf.o
 .comment       0x00000000       0x71 obj_zoul/udma.o
 .comment       0x00000000       0x71 obj_zoul/lpm.o
 .comment       0x00000000       0x71 obj_zoul/pka.o
 .comment       0x00000000       0x71 obj_zoul/dbg.o
 .comment       0x00000000       0x71 obj_zoul/ieee-addr.o
 .comment       0x00000000       0x71 obj_zoul/cc2538-temp-sensor.o
 .comment       0x00000000       0x71 obj_zoul/vdd3-sensor.o
 .comment       0x00000000       0x71 obj_zoul/dbg-printf.o
 .comment       0x00000000       0x71 obj_zoul/dbg-snprintf.o
 .comment       0x00000000       0x71 obj_zoul/strformat.o
 .comment       0x00000000       0x71 obj_zoul/autostart.o
 .comment       0x00000000       0x71 obj_zoul/ctimer.o
 .comment       0x00000000       0x71 obj_zoul/energest.o
 .comment       0x00000000       0x71 obj_zoul/etimer.o
 .comment       0x00000000       0x71 obj_zoul/process.o
 .comment       0x00000000       0x71 obj_zoul/rtimer.o
 .comment       0x00000000       0x71 obj_zoul/stimer.o
 .comment       0x00000000       0x71 obj_zoul/timer.o
 .comment       0x00000000       0x71 obj_zoul/serial-line.o
 .comment       0x00000000       0x71 obj_zoul/list.o
 .comment       0x00000000       0x71 obj_zoul/memb.o
 .comment       0x00000000       0x71 obj_zoul/random.o
 .comment       0x00000000       0x71 obj_zoul/ringbuf.o
 .comment       0x00000000       0x71 obj_zoul/sensors.o
 .comment       0x00000000       0x71 obj_zoul/sicslowpan.o
 .comment       0x00000000       0x71 obj_zoul/uip6.o
 .comment       0x00000000       0x71 obj_zoul/uip-ds6.o
 .comment       0x00000000       0x71 obj_zoul/uip-ds6-nbr.o
 .comment       0x00000000       0x71 obj_zoul/uip-ds6-route.o
 .comment       0x00000000       0x71 obj_zoul/uip-icmp6.o
 .comment       0x00000000       0x71 obj_zoul/uip-nd6.o
 .comment       0x00000000       0x71 obj_zoul/tcpip.o
 .comment       0x00000000       0x71 obj_zoul/uip-debug.o
 .comment       0x00000000       0x71 obj_zoul/uip-udp-packet.o
 .comment       0x00000000       0x71 obj_zoul/rpl.o
 .comment       0x00000000       0x71 obj_zoul/rpl-dag.o
 .comment       0x00000000       0x71 obj_zoul/rpl-ext-header.o
 .comment       0x00000000       0x71 obj_zoul/rpl-icmp6.o
 .comment       0x00000000       0x71 obj_zoul/rpl-mrhof.o
 .comment       0x00000000       0x71 obj_zoul/rpl-timers.o
 .comment       0x00000000       0x71 obj_zoul/linkaddr.o
 .comment       0x00000000       0x71 obj_zoul/nbr-table.o
 .comment       0x00000000       0x71 obj_zoul/netstack.o
 .comment       0x00000000       0x71 obj_zoul/packetbuf.o
 .comment       0x00000000       0x71 obj_zoul/queuebuf.o
 .comment       0x00000000       0x71 obj_zoul/frame802154.o
 .comment       0x00000000       0x71 obj_zoul/framer-802154.o
 .comment       0x00000000       0x71 obj_zoul/mac.o
 .comment       0x00000000       0x71 obj_zoul/mac-sequence.o
 .comment       0x00000000       0x71 obj_zoul/nullmac.o
 .comment       0x00000000       0x71 obj_zoul/nullrdc.o
 .comment       0x00000000       0x71 obj_zoul/nullsec.o
 .comment       0x00000000       0x71 er-example-server.co
 .comment       0x00000000       0x71 obj_zoul/res-separate.o
 .comment       0x00000000       0x71 obj_zoul/res-push.o
 .comment       0x00000000       0x71 obj_zoul/res-toggle.o
 .comment       0x00000000       0x71 obj_zoul/res-event.o
 .comment       0x00000000       0x71 obj_zoul/res-hello.o

.ARM.attributes
                0x00000000       0x31
 .ARM.attributes
                0x00000000       0x33 obj_zoul/startup-gcc.o
 .ARM.attributes
                0x00000033       0x33 obj_zoul/er-coap.o
 .ARM.attributes
                0x00000066       0x33 obj_zoul/er-coap-engine.o
 .ARM.attributes
                0x00000099       0x33 obj_zoul/er-coap-transactions.o
 .ARM.attributes
                0x000000cc       0x33 obj_zoul/er-coap-observe.o
 .ARM.attributes
                0x000000ff       0x33 obj_zoul/er-coap-separate.o
 .ARM.attributes
                0x00000132       0x33 obj_zoul/er-coap-res-well-known-core.o
 .ARM.attributes
                0x00000165       0x33 obj_zoul/er-coap-observe-client.o
 .ARM.attributes
                0x00000198       0x33 obj_zoul/rest-engine.o
 .ARM.attributes
                0x000001cb       0x33 obj_zoul/contiki-main.o
 .ARM.attributes
                0x000001fe       0x33 obj_zoul/leds.o
 .ARM.attributes
                0x00000231       0x33 obj_zoul/leds-arch.o
 .ARM.attributes
                0x00000264       0x33 obj_zoul/button-sensor.o
 .ARM.attributes
                0x00000297       0x33 obj_zoul/zoul-sensors.o
 .ARM.attributes
                0x000002ca       0x33 obj_zoul/board.o
 .ARM.attributes
                0x000002fd       0x33 obj_zoul/antenna-sw.o
 .ARM.attributes
                0x00000330       0x33 obj_zoul/clock.o
 .ARM.attributes
                0x00000363       0x33 obj_zoul/rtimer-arch.o
 .ARM.attributes
                0x00000396       0x33 obj_zoul/uart.o
 .ARM.attributes
                0x000003c9       0x33 obj_zoul/watchdog.o
 .ARM.attributes
                0x000003fc       0x33 obj_zoul/nvic.o
 .ARM.attributes
                0x0000042f       0x33 obj_zoul/cpu.o
 .ARM.attributes
                0x00000462       0x33 obj_zoul/sys-ctrl.o
 .ARM.attributes
                0x00000495       0x33 obj_zoul/gpio.o
 .ARM.attributes
                0x000004c8       0x33 obj_zoul/ioc.o
 .ARM.attributes
                0x000004fb       0x33 obj_zoul/adc.o
 .ARM.attributes
                0x0000052e       0x33 obj_zoul/crypto.o
 .ARM.attributes
                0x00000561       0x33 obj_zoul/cc2538-rf.o
 .ARM.attributes
                0x00000594       0x33 obj_zoul/udma.o
 .ARM.attributes
                0x000005c7       0x33 obj_zoul/lpm.o
 .ARM.attributes
                0x000005fa       0x33 obj_zoul/pka.o
 .ARM.attributes
                0x0000062d       0x33 obj_zoul/dbg.o
 .ARM.attributes
                0x00000660       0x33 obj_zoul/ieee-addr.o
 .ARM.attributes
                0x00000693       0x33 obj_zoul/cc2538-temp-sensor.o
 .ARM.attributes
                0x000006c6       0x33 obj_zoul/vdd3-sensor.o
 .ARM.attributes
                0x000006f9       0x33 obj_zoul/dbg-printf.o
 .ARM.attributes
                0x0000072c       0x33 obj_zoul/dbg-snprintf.o
 .ARM.attributes
                0x0000075f       0x33 obj_zoul/strformat.o
 .ARM.attributes
                0x00000792       0x33 obj_zoul/autostart.o
 .ARM.attributes
                0x000007c5       0x33 obj_zoul/ctimer.o
 .ARM.attributes
                0x000007f8       0x33 obj_zoul/energest.o
 .ARM.attributes
                0x0000082b       0x33 obj_zoul/etimer.o
 .ARM.attributes
                0x0000085e       0x33 obj_zoul/process.o
 .ARM.attributes
                0x00000891       0x33 obj_zoul/rtimer.o
 .ARM.attributes
                0x000008c4       0x33 obj_zoul/stimer.o
 .ARM.attributes
                0x000008f7       0x33 obj_zoul/timer.o
 .ARM.attributes
                0x0000092a       0x33 obj_zoul/serial-line.o
 .ARM.attributes
                0x0000095d       0x33 obj_zoul/list.o
 .ARM.attributes
                0x00000990       0x33 obj_zoul/memb.o
 .ARM.attributes
                0x000009c3       0x33 obj_zoul/random.o
 .ARM.attributes
                0x000009f6       0x33 obj_zoul/ringbuf.o
 .ARM.attributes
                0x00000a29       0x33 obj_zoul/sensors.o
 .ARM.attributes
                0x00000a5c       0x33 obj_zoul/sicslowpan.o
 .ARM.attributes
                0x00000a8f       0x33 obj_zoul/uip6.o
 .ARM.attributes
                0x00000ac2       0x33 obj_zoul/uip-ds6.o
 .ARM.attributes
                0x00000af5       0x33 obj_zoul/uip-ds6-nbr.o
 .ARM.attributes
                0x00000b28       0x33 obj_zoul/uip-ds6-route.o
 .ARM.attributes
                0x00000b5b       0x33 obj_zoul/uip-icmp6.o
 .ARM.attributes
                0x00000b8e       0x33 obj_zoul/uip-nd6.o
 .ARM.attributes
                0x00000bc1       0x33 obj_zoul/tcpip.o
 .ARM.attributes
                0x00000bf4       0x33 obj_zoul/uip-debug.o
 .ARM.attributes
                0x00000c27       0x33 obj_zoul/uip-udp-packet.o
 .ARM.attributes
                0x00000c5a       0x33 obj_zoul/rpl.o
 .ARM.attributes
                0x00000c8d       0x33 obj_zoul/rpl-dag.o
 .ARM.attributes
                0x00000cc0       0x33 obj_zoul/rpl-ext-header.o
 .ARM.attributes
                0x00000cf3       0x33 obj_zoul/rpl-icmp6.o
 .ARM.attributes
                0x00000d26       0x33 obj_zoul/rpl-mrhof.o
 .ARM.attributes
                0x00000d59       0x33 obj_zoul/rpl-timers.o
 .ARM.attributes
                0x00000d8c       0x33 obj_zoul/linkaddr.o
 .ARM.attributes
                0x00000dbf       0x33 obj_zoul/nbr-table.o
 .ARM.attributes
                0x00000df2       0x33 obj_zoul/netstack.o
 .ARM.attributes
                0x00000e25       0x33 obj_zoul/packetbuf.o
 .ARM.attributes
                0x00000e58       0x33 obj_zoul/queuebuf.o
 .ARM.attributes
                0x00000e8b       0x33 obj_zoul/frame802154.o
 .ARM.attributes
                0x00000ebe       0x33 obj_zoul/framer-802154.o
 .ARM.attributes
                0x00000ef1       0x33 obj_zoul/mac.o
 .ARM.attributes
                0x00000f24       0x33 obj_zoul/mac-sequence.o
 .ARM.attributes
                0x00000f57       0x33 obj_zoul/nullmac.o
 .ARM.attributes
                0x00000f8a       0x33 obj_zoul/nullrdc.o
 .ARM.attributes
                0x00000fbd       0x33 obj_zoul/nullsec.o
 .ARM.attributes
                0x00000ff0       0x33 er-example-server.co
 .ARM.attributes
                0x00001023       0x33 obj_zoul/res-separate.o
 .ARM.attributes
                0x00001056       0x33 obj_zoul/res-push.o
 .ARM.attributes
                0x00001089       0x33 obj_zoul/res-toggle.o
 .ARM.attributes
                0x000010bc       0x33 obj_zoul/res-event.o
 .ARM.attributes
                0x000010ef       0x33 obj_zoul/res-hello.o
 .ARM.attributes
                0x00001122       0x1d /usr/bin/../lib/gcc/arm-none-eabi/4.9.3/armv7-m/libgcc.a(_aeabi_uldivmod.o)
 .ARM.attributes
                0x0000113f       0x2d /usr/bin/../lib/gcc/arm-none-eabi/4.9.3/armv7-m/libgcc.a(bpabi.o)
 .ARM.attributes
                0x0000116c       0x1d /usr/bin/../lib/gcc/arm-none-eabi/4.9.3/armv7-m/libgcc.a(_dvmd_tls.o)
 .ARM.attributes
                0x00001189       0x2d /usr/bin/../lib/gcc/arm-none-eabi/4.9.3/armv7-m/libgcc.a(_divdi3.o)
 .ARM.attributes
                0x000011b6       0x2d /usr/bin/../lib/gcc/arm-none-eabi/4.9.3/armv7-m/libgcc.a(_udivdi3.o)
 .ARM.attributes
                0x000011e3       0x2d /usr/bin/../lib/gcc/arm-none-eabi/4.9.3/../../../../arm-none-eabi/lib/armv7-m/libc.a(lib_a-atoi.o)
 .ARM.attributes
                0x00001210       0x2d /usr/bin/../lib/gcc/arm-none-eabi/4.9.3/../../../../arm-none-eabi/lib/armv7-m/libc.a(lib_a-ctype_.o)
 .ARM.attributes
                0x0000123d       0x2d /usr/bin/../lib/gcc/arm-none-eabi/4.9.3/../../../../arm-none-eabi/lib/armv7-m/libc.a(lib_a-memchr.o)
 .ARM.attributes
                0x0000126a       0x2d /usr/bin/../lib/gcc/arm-none-eabi/4.9.3/../../../../arm-none-eabi/lib/armv7-m/libc.a(lib_a-memcmp.o)
 .ARM.attributes
                0x00001297       0x1b /usr/bin/../lib/gcc/arm-none-eabi/4.9.3/../../../../arm-none-eabi/lib/armv7-m/libc.a(lib_a-memcpy.o)
 .ARM.attributes
                0x000012b2       0x2d /usr/bin/../lib/gcc/arm-none-eabi/4.9.3/../../../../arm-none-eabi/lib/armv7-m/libc.a(lib_a-memmove.o)
 .ARM.attributes
                0x000012df       0x2d /usr/bin/../lib/gcc/arm-none-eabi/4.9.3/../../../../arm-none-eabi/lib/armv7-m/libc.a(lib_a-memset.o)
 .ARM.attributes
                0x0000130c       0x2d /usr/bin/../lib/gcc/arm-none-eabi/4.9.3/../../../../arm-none-eabi/lib/armv7-m/libc.a(lib_a-strchr.o)
 .ARM.attributes
                0x00001339       0x2d /usr/bin/../lib/gcc/arm-none-eabi/4.9.3/../../../../arm-none-eabi/lib/armv7-m/libc.a(lib_a-strcpy.o)
 .ARM.attributes
                0x00001366       0x2d /usr/bin/../lib/gcc/arm-none-eabi/4.9.3/../../../../arm-none-eabi/lib/armv7-m/libc.a(lib_a-strlen.o)
 .ARM.attributes
                0x00001393       0x2d /usr/bin/../lib/gcc/arm-none-eabi/4.9.3/../../../../arm-none-eabi/lib/armv7-m/libc.a(lib_a-strncmp.o)
 .ARM.attributes
                0x000013c0       0x2d /usr/bin/../lib/gcc/arm-none-eabi/4.9.3/../../../../arm-none-eabi/lib/armv7-m/libc.a(lib_a-strncpy.o)
 .ARM.attributes
                0x000013ed       0x2d /usr/bin/../lib/gcc/arm-none-eabi/4.9.3/../../../../arm-none-eabi/lib/armv7-m/libc.a(lib_a-strtol.o)
 .ARM.attributes
                0x0000141a       0x2d /usr/bin/../lib/gcc/arm-none-eabi/4.9.3/../../../../arm-none-eabi/lib/armv7-m/libc.a(lib_a-impure.o)

.debug_frame    0x00000000      0x354
 .debug_frame   0x00000000       0x28 /usr/bin/../lib/gcc/arm-none-eabi/4.9.3/armv7-m/libgcc.a(_aeabi_uldivmod.o)
 .debug_frame   0x00000028       0x54 /usr/bin/../lib/gcc/arm-none-eabi/4.9.3/armv7-m/libgcc.a(bpabi.o)
 .debug_frame   0x0000007c       0x34 /usr/bin/../lib/gcc/arm-none-eabi/4.9.3/armv7-m/libgcc.a(_divdi3.o)
 .debug_frame   0x000000b0       0x34 /usr/bin/../lib/gcc/arm-none-eabi/4.9.3/armv7-m/libgcc.a(_udivdi3.o)
 .debug_frame   0x000000e4       0x30 /usr/bin/../lib/gcc/arm-none-eabi/4.9.3/../../../../arm-none-eabi/lib/armv7-m/libc.a(lib_a-atoi.o)
 .debug_frame   0x00000114       0x3c /usr/bin/../lib/gcc/arm-none-eabi/4.9.3/../../../../arm-none-eabi/lib/armv7-m/libc.a(lib_a-memchr.o)
 .debug_frame   0x00000150       0x38 /usr/bin/../lib/gcc/arm-none-eabi/4.9.3/../../../../arm-none-eabi/lib/armv7-m/libc.a(lib_a-memcmp.o)
 .debug_frame   0x00000188       0x30 /usr/bin/../lib/gcc/arm-none-eabi/4.9.3/../../../../arm-none-eabi/lib/armv7-m/libc.a(lib_a-memmove.o)
 .debug_frame   0x000001b8       0x34 /usr/bin/../lib/gcc/arm-none-eabi/4.9.3/../../../../arm-none-eabi/lib/armv7-m/libc.a(lib_a-memset.o)
 .debug_frame   0x000001ec       0x4c /usr/bin/../lib/gcc/arm-none-eabi/4.9.3/../../../../arm-none-eabi/lib/armv7-m/libc.a(lib_a-strchr.o)
 .debug_frame   0x00000238       0x20 /usr/bin/../lib/gcc/arm-none-eabi/4.9.3/../../../../arm-none-eabi/lib/armv7-m/libc.a(lib_a-strcpy.o)
 .debug_frame   0x00000258       0x20 /usr/bin/../lib/gcc/arm-none-eabi/4.9.3/../../../../arm-none-eabi/lib/armv7-m/libc.a(lib_a-strlen.o)
 .debug_frame   0x00000278       0x54 /usr/bin/../lib/gcc/arm-none-eabi/4.9.3/../../../../arm-none-eabi/lib/armv7-m/libc.a(lib_a-strncmp.o)
 .debug_frame   0x000002cc       0x34 /usr/bin/../lib/gcc/arm-none-eabi/4.9.3/../../../../arm-none-eabi/lib/armv7-m/libc.a(lib_a-strncpy.o)
 .debug_frame   0x00000300       0x54 /usr/bin/../lib/gcc/arm-none-eabi/4.9.3/../../../../arm-none-eabi/lib/armv7-m/libc.a(lib_a-strtol.o)

Cross Reference Table

Symbol                                            File
__aeabi_idiv0                                     /usr/bin/../lib/gcc/arm-none-eabi/4.9.3/armv7-m/libgcc.a(_dvmd_tls.o)
__aeabi_ldiv0                                     /usr/bin/../lib/gcc/arm-none-eabi/4.9.3/armv7-m/libgcc.a(_dvmd_tls.o)
                                                  /usr/bin/../lib/gcc/arm-none-eabi/4.9.3/armv7-m/libgcc.a(_aeabi_uldivmod.o)
__aeabi_uldivmod                                  /usr/bin/../lib/gcc/arm-none-eabi/4.9.3/armv7-m/libgcc.a(_aeabi_uldivmod.o)
                                                  obj_zoul/strformat.o
__ctype_ptr__                                     /usr/bin/../lib/gcc/arm-none-eabi/4.9.3/../../../../arm-none-eabi/lib/armv7-m/libc.a(lib_a-ctype_.o)
                                                  /usr/bin/../lib/gcc/arm-none-eabi/4.9.3/../../../../arm-none-eabi/lib/armv7-m/libc.a(lib_a-strtol.o)
                                                  /usr/bin/../lib/gcc/arm-none-eabi/4.9.3/../../../../arm-none-eabi/lib/armv7-m/libc.a(lib_a-strncasecmp.o)
                                                  /usr/bin/../lib/gcc/arm-none-eabi/4.9.3/../../../../arm-none-eabi/lib/armv7-m/libc.a(lib_a-strcasecmp.o)
                                                  obj_zoul/resolv.o
__divdi3                                          /usr/bin/../lib/gcc/arm-none-eabi/4.9.3/armv7-m/libgcc.a(_divdi3.o)
                                                  /usr/bin/../lib/gcc/arm-none-eabi/4.9.3/armv7-m/libgcc.a(bpabi.o)
__gnu_ldivmod_helper                              /usr/bin/../lib/gcc/arm-none-eabi/4.9.3/armv7-m/libgcc.a(bpabi.o)
__gnu_uldivmod_helper                             /usr/bin/../lib/gcc/arm-none-eabi/4.9.3/armv7-m/libgcc.a(bpabi.o)
                                                  /usr/bin/../lib/gcc/arm-none-eabi/4.9.3/armv7-m/libgcc.a(_aeabi_uldivmod.o)
__malloc_av_                                      /usr/bin/../lib/gcc/arm-none-eabi/4.9.3/../../../../arm-none-eabi/lib/armv7-m/libc.a(lib_a-mallocr.o)
                                                  /usr/bin/../lib/gcc/arm-none-eabi/4.9.3/../../../../arm-none-eabi/lib/armv7-m/libc.a(lib_a-freer.o)
__malloc_current_mallinfo                         /usr/bin/../lib/gcc/arm-none-eabi/4.9.3/../../../../arm-none-eabi/lib/armv7-m/libc.a(lib_a-mallocr.o)
                                                  /usr/bin/../lib/gcc/arm-none-eabi/4.9.3/../../../../arm-none-eabi/lib/armv7-m/libc.a(lib_a-freer.o)
__malloc_lock                                     /usr/bin/../lib/gcc/arm-none-eabi/4.9.3/../../../../arm-none-eabi/lib/armv7-m/libc.a(lib_a-mlock.o)
                                                  /usr/bin/../lib/gcc/arm-none-eabi/4.9.3/../../../../arm-none-eabi/lib/armv7-m/libc.a(lib_a-mallocr.o)
                                                  /usr/bin/../lib/gcc/arm-none-eabi/4.9.3/../../../../arm-none-eabi/lib/armv7-m/libc.a(lib_a-freer.o)
__malloc_max_sbrked_mem                           /usr/bin/../lib/gcc/arm-none-eabi/4.9.3/../../../../arm-none-eabi/lib/armv7-m/libc.a(lib_a-mallocr.o)
__malloc_max_total_mem                            /usr/bin/../lib/gcc/arm-none-eabi/4.9.3/../../../../arm-none-eabi/lib/armv7-m/libc.a(lib_a-mallocr.o)
__malloc_sbrk_base                                /usr/bin/../lib/gcc/arm-none-eabi/4.9.3/../../../../arm-none-eabi/lib/armv7-m/libc.a(lib_a-mallocr.o)
                                                  /usr/bin/../lib/gcc/arm-none-eabi/4.9.3/../../../../arm-none-eabi/lib/armv7-m/libc.a(lib_a-freer.o)
__malloc_top_pad                                  /usr/bin/../lib/gcc/arm-none-eabi/4.9.3/../../../../arm-none-eabi/lib/armv7-m/libc.a(lib_a-mallocr.o)
                                                  /usr/bin/../lib/gcc/arm-none-eabi/4.9.3/../../../../arm-none-eabi/lib/armv7-m/libc.a(lib_a-freer.o)
__malloc_trim_threshold                           /usr/bin/../lib/gcc/arm-none-eabi/4.9.3/../../../../arm-none-eabi/lib/armv7-m/libc.a(lib_a-mallocr.o)
                                                  /usr/bin/../lib/gcc/arm-none-eabi/4.9.3/../../../../arm-none-eabi/lib/armv7-m/libc.a(lib_a-freer.o)
__malloc_unlock                                   /usr/bin/../lib/gcc/arm-none-eabi/4.9.3/../../../../arm-none-eabi/lib/armv7-m/libc.a(lib_a-mlock.o)
                                                  /usr/bin/../lib/gcc/arm-none-eabi/4.9.3/../../../../arm-none-eabi/lib/armv7-m/libc.a(lib_a-mallocr.o)
                                                  /usr/bin/../lib/gcc/arm-none-eabi/4.9.3/../../../../arm-none-eabi/lib/armv7-m/libc.a(lib_a-freer.o)
__udivdi3                                         /usr/bin/../lib/gcc/arm-none-eabi/4.9.3/armv7-m/libgcc.a(_udivdi3.o)
                                                  /usr/bin/../lib/gcc/arm-none-eabi/4.9.3/armv7-m/libgcc.a(bpabi.o)
_atoi_r                                           /usr/bin/../lib/gcc/arm-none-eabi/4.9.3/../../../../arm-none-eabi/lib/armv7-m/libc.a(lib_a-atoi.o)
_bss                                              obj_zoul/startup-gcc.o
_ctype_                                           /usr/bin/../lib/gcc/arm-none-eabi/4.9.3/../../../../arm-none-eabi/lib/armv7-m/libc.a(lib_a-ctype_.o)
_data                                             obj_zoul/startup-gcc.o
_ebss                                             obj_zoul/startup-gcc.o
_edata                                            obj_zoul/startup-gcc.o
_eheap                                            obj_zoul/syscalls.o
_free_r                                           /usr/bin/../lib/gcc/arm-none-eabi/4.9.3/../../../../arm-none-eabi/lib/armv7-m/libc.a(lib_a-freer.o)
                                                  /usr/bin/../lib/gcc/arm-none-eabi/4.9.3/../../../../arm-none-eabi/lib/armv7-m/libc.a(lib_a-mallocr.o)
                                                  /usr/bin/../lib/gcc/arm-none-eabi/4.9.3/../../../../arm-none-eabi/lib/armv7-m/libc.a(lib_a-reent.o)
_global_impure_ptr                                /usr/bin/../lib/gcc/arm-none-eabi/4.9.3/../../../../arm-none-eabi/lib/armv7-m/libc.a(lib_a-impure.o)
_heap                                             obj_zoul/syscalls.o
_impure_ptr                                       /usr/bin/../lib/gcc/arm-none-eabi/4.9.3/../../../../arm-none-eabi/lib/armv7-m/libc.a(lib_a-impure.o)
                                                  /usr/bin/../lib/gcc/arm-none-eabi/4.9.3/../../../../arm-none-eabi/lib/armv7-m/libc.a(lib_a-strtol.o)
                                                  /usr/bin/../lib/gcc/arm-none-eabi/4.9.3/../../../../arm-none-eabi/lib/armv7-m/libc.a(lib_a-reent.o)
_ldata                                            obj_zoul/startup-gcc.o
_malloc_r                                         /usr/bin/../lib/gcc/arm-none-eabi/4.9.3/../../../../arm-none-eabi/lib/armv7-m/libc.a(lib_a-mallocr.o)
_malloc_trim_r                                    /usr/bin/../lib/gcc/arm-none-eabi/4.9.3/../../../../arm-none-eabi/lib/armv7-m/libc.a(lib_a-freer.o)
_reclaim_reent                                    /usr/bin/../lib/gcc/arm-none-eabi/4.9.3/../../../../arm-none-eabi/lib/armv7-m/libc.a(lib_a-reent.o)
_sbrk                                             obj_zoul/syscalls.o
                                                  /usr/bin/../lib/gcc/arm-none-eabi/4.9.3/../../../../arm-none-eabi/lib/armv7-m/libc.a(lib_a-sbrkr.o)
_sbrk_r                                           /usr/bin/../lib/gcc/arm-none-eabi/4.9.3/../../../../arm-none-eabi/lib/armv7-m/libc.a(lib_a-sbrkr.o)
                                                  /usr/bin/../lib/gcc/arm-none-eabi/4.9.3/../../../../arm-none-eabi/lib/armv7-m/libc.a(lib_a-mallocr.o)
                                                  /usr/bin/../lib/gcc/arm-none-eabi/4.9.3/../../../../arm-none-eabi/lib/armv7-m/libc.a(lib_a-freer.o)
_strtol_r                                         /usr/bin/../lib/gcc/arm-none-eabi/4.9.3/../../../../arm-none-eabi/lib/armv7-m/libc.a(lib_a-strtol.o)
                                                  /usr/bin/../lib/gcc/arm-none-eabi/4.9.3/../../../../arm-none-eabi/lib/armv7-m/libc.a(lib_a-atoi.o)
_xassert                                          obj_zoul/assert.o
adc_get                                           obj_zoul/adc.o
                                                  obj_zoul/vdd3-sensor.o
                                                  obj_zoul/cc2538-temp-sensor.o
                                                  obj_zoul/adc-zoul.o
adc_init                                          obj_zoul/adc.o
                                                  obj_zoul/adc-zoul.o
adc_zoul                                          obj_zoul/adc-zoul.o
aes_128_driver                                    obj_zoul/aes-128.o
aes_128_set_padded_key                            obj_zoul/aes-128.o
aes_auth_crypt_check_status                       obj_zoul/aes.o
                                                  obj_zoul/cc2538-ccm-star.o
                                                  obj_zoul/ctr.o
                                                  obj_zoul/cbc.o
                                                  obj_zoul/ecb.o
aes_auth_crypt_get_result                         obj_zoul/aes.o
                                                  obj_zoul/ccm.o
                                                  obj_zoul/gcm.o
                                                  obj_zoul/cbc-mac.o
                                                  obj_zoul/ctr.o
                                                  obj_zoul/cbc.o
                                                  obj_zoul/ecb.o
aes_auth_crypt_start                              obj_zoul/aes.o
                                                  obj_zoul/ccm.o
                                                  obj_zoul/gcm.o
                                                  obj_zoul/cbc-mac.o
                                                  obj_zoul/ctr.o
                                                  obj_zoul/cbc.o
                                                  obj_zoul/ecb.o
aes_load_keys                                     obj_zoul/aes.o
                                                  obj_zoul/cc2538-aes-128.o
antenna_sw_config                                 obj_zoul/antenna-sw.o
                                                  obj_zoul/board.o
antenna_sw_get                                    obj_zoul/antenna-sw.o
antenna_sw_select                                 obj_zoul/antenna-sw.o
anti_replay_get_counter                           obj_zoul/anti-replay.o
anti_replay_init_info                             obj_zoul/anti-replay.o
                                                  obj_zoul/noncoresec.o
anti_replay_set_counter                           obj_zoul/anti-replay.o
                                                  obj_zoul/noncoresec.o
anti_replay_was_replayed                          obj_zoul/anti-replay.o
                                                  obj_zoul/noncoresec.o
arg_alloc                                         obj_zoul/arg.o
arg_free                                          obj_zoul/arg.o
arg_init                                          obj_zoul/arg.o
atoi                                              /usr/bin/../lib/gcc/arm-none-eabi/4.9.3/../../../../arm-none-eabi/lib/armv7-m/libc.a(lib_a-atoi.o)
                                                  obj_zoul/res-hello.o
autostart_exit                                    obj_zoul/autostart.o
autostart_processes                               er-example-server.co
                                                  obj_zoul/contiki-main.o
autostart_start                                   obj_zoul/autostart.o
                                                  obj_zoul/contiki-main.o
avail_memory                                      obj_zoul/mmem.o
bignum_add_get_result                             obj_zoul/bignum-driver.o
                                                  obj_zoul/ecc-algorithm.o
bignum_add_start                                  obj_zoul/bignum-driver.o
                                                  obj_zoul/ecc-algorithm.o
bignum_cmp_get_result                             obj_zoul/bignum-driver.o
                                                  obj_zoul/ecc-algorithm.o
bignum_cmp_start                                  obj_zoul/bignum-driver.o
                                                  obj_zoul/ecc-algorithm.o
bignum_divide_get_result                          obj_zoul/bignum-driver.o
bignum_divide_start                               obj_zoul/bignum-driver.o
bignum_exp_mod_get_result                         obj_zoul/bignum-driver.o
bignum_exp_mod_start                              obj_zoul/bignum-driver.o
bignum_inv_mod_get_result                         obj_zoul/bignum-driver.o
                                                  obj_zoul/ecc-algorithm.o
bignum_inv_mod_start                              obj_zoul/bignum-driver.o
                                                  obj_zoul/ecc-algorithm.o
bignum_mod_get_result                             obj_zoul/bignum-driver.o
                                                  obj_zoul/ecc-algorithm.o
bignum_mod_start                                  obj_zoul/bignum-driver.o
                                                  obj_zoul/ecc-algorithm.o
bignum_mul_get_result                             obj_zoul/bignum-driver.o
                                                  obj_zoul/ecc-algorithm.o
bignum_mul_start                                  obj_zoul/bignum-driver.o
                                                  obj_zoul/ecc-algorithm.o
bignum_subtract_get_result                        obj_zoul/bignum-driver.o
bignum_subtract_start                             obj_zoul/bignum-driver.o
board_init                                        obj_zoul/board.o
                                                  obj_zoul/contiki-main.o
button_press_duration_exceeded                    obj_zoul/button-sensor.o
button_sensor                                     obj_zoul/button-sensor.o
                                                  er-example-server.co
                                                  obj_zoul/zoul-sensors.o
                                                  obj_zoul/contiki-main.o
cbc_crypt_check_status                            obj_zoul/cbc.o
cbc_crypt_start                                   obj_zoul/cbc.o
cbc_mac_auth_get_result                           obj_zoul/cbc-mac.o
cbc_mac_auth_start                                obj_zoul/cbc-mac.o
cc1200_802154g_863_870_fsk_50kbps                 obj_zoul/cc1200-802154g-863-870-fsk-50kbps.o
                                                  obj_zoul/cc1200.o
cc1200_arch_gpio0_disable_irq                     obj_zoul/cc1200-zoul-arch.o
                                                  obj_zoul/cc1200.o
cc1200_arch_gpio0_enable_irq                      obj_zoul/cc1200-zoul-arch.o
                                                  obj_zoul/cc1200.o
cc1200_arch_gpio0_read_pin                        obj_zoul/cc1200-zoul-arch.o
                                                  obj_zoul/cc1200.o
cc1200_arch_gpio0_setup_irq                       obj_zoul/cc1200-zoul-arch.o
                                                  obj_zoul/cc1200.o
cc1200_arch_gpio2_disable_irq                     obj_zoul/cc1200-zoul-arch.o
                                                  obj_zoul/cc1200.o
cc1200_arch_gpio2_enable_irq                      obj_zoul/cc1200-zoul-arch.o
                                                  obj_zoul/cc1200.o
cc1200_arch_gpio2_read_pin                        obj_zoul/cc1200-zoul-arch.o
cc1200_arch_gpio2_setup_irq                       obj_zoul/cc1200-zoul-arch.o
                                                  obj_zoul/cc1200.o
cc1200_arch_gpio3_read_pin                        obj_zoul/cc1200-zoul-arch.o
cc1200_arch_init                                  obj_zoul/cc1200-zoul-arch.o
                                                  obj_zoul/cc1200.o
cc1200_arch_spi_deselect                          obj_zoul/cc1200-zoul-arch.o
                                                  obj_zoul/cc1200.o
cc1200_arch_spi_rw                                obj_zoul/cc1200-zoul-arch.o
                                                  obj_zoul/cc1200.o
cc1200_arch_spi_rw_byte                           obj_zoul/cc1200-zoul-arch.o
                                                  obj_zoul/cc1200.o
cc1200_arch_spi_select                            obj_zoul/cc1200-zoul-arch.o
                                                  obj_zoul/cc1200.o
cc1200_driver                                     obj_zoul/cc1200.o
cc1200_int_handler                                obj_zoul/cc1200-zoul-arch.o
cc1200_process                                    obj_zoul/cc1200.o
cc1200_rx_interrupt                               obj_zoul/cc1200.o
                                                  obj_zoul/cc1200-zoul-arch.o
cc2538_aes_128_driver                             obj_zoul/cc2538-aes-128.o
                                                  obj_zoul/ccm-star.o
                                                  obj_zoul/aes-128.o
                                                  obj_zoul/cc2538-ccm-star.o
cc2538_ccm_star_driver                            obj_zoul/cc2538-ccm-star.o
                                                  obj_zoul/noncoresec.o
cc2538_rf_driver                                  obj_zoul/cc2538-rf.o
                                                  obj_zoul/contikimac.o
                                                  obj_zoul/nullrdc-noframer.o
                                                  obj_zoul/nullrdc.o
                                                  obj_zoul/netstack.o
                                                  obj_zoul/contiki-main.o
cc2538_rf_err_isr                                 obj_zoul/cc2538-rf.o
                                                  obj_zoul/startup-gcc.o
cc2538_rf_process                                 obj_zoul/cc2538-rf.o
cc2538_rf_rx_tx_isr                               obj_zoul/cc2538-rf.o
                                                  obj_zoul/startup-gcc.o
cc2538_rf_set_promiscous_mode                     obj_zoul/cc2538-rf.o
cc2538_temp_sensor                                obj_zoul/cc2538-temp-sensor.o
                                                  obj_zoul/zoul-sensors.o
ccm_auth_decrypt_get_result                       obj_zoul/ccm.o
                                                  obj_zoul/cc2538-ccm-star.o
ccm_auth_decrypt_start                            obj_zoul/ccm.o
                                                  obj_zoul/cc2538-ccm-star.o
ccm_auth_encrypt_get_result                       obj_zoul/ccm.o
                                                  obj_zoul/cc2538-ccm-star.o
ccm_auth_encrypt_start                            obj_zoul/ccm.o
                                                  obj_zoul/cc2538-ccm-star.o
ccm_star_driver                                   obj_zoul/ccm-star.o
ccm_star_packetbuf_set_nonce                      obj_zoul/ccm-star-packetbuf.o
                                                  obj_zoul/noncoresec.o
cfs_close                                         obj_zoul/cfs-coffee.o
cfs_closedir                                      obj_zoul/cfs-coffee.o
cfs_coffee_arch_erase                             obj_zoul/cfs-coffee-arch.o
                                                  obj_zoul/cfs-coffee.o
cfs_coffee_arch_read                              obj_zoul/cfs-coffee-arch.o
                                                  obj_zoul/cfs-coffee.o
cfs_coffee_arch_write                             obj_zoul/cfs-coffee-arch.o
                                                  obj_zoul/cfs-coffee.o
cfs_coffee_configure_log                          obj_zoul/cfs-coffee.o
cfs_coffee_format                                 obj_zoul/cfs-coffee.o
cfs_coffee_get_protected_mem                      obj_zoul/cfs-coffee.o
cfs_coffee_reserve                                obj_zoul/cfs-coffee.o
cfs_open                                          obj_zoul/cfs-coffee.o
cfs_opendir                                       obj_zoul/cfs-coffee.o
cfs_read                                          obj_zoul/cfs-coffee.o
cfs_readdir                                       obj_zoul/cfs-coffee.o
cfs_remove                                        obj_zoul/cfs-coffee.o
cfs_seek                                          obj_zoul/cfs-coffee.o
cfs_write                                         obj_zoul/cfs-coffee.o
cleanup_glue                                      /usr/bin/../lib/gcc/arm-none-eabi/4.9.3/../../../../arm-none-eabi/lib/armv7-m/libc.a(lib_a-reent.o)
clock_adjust                                      obj_zoul/clock.o
                                                  obj_zoul/lpm.o
clock_delay                                       obj_zoul/clock.o
                                                  obj_zoul/cc1200.o
                                                  obj_zoul/leds.o
clock_delay_usec                                  obj_zoul/clock.o
                                                  obj_zoul/i2c.o
                                                  obj_zoul/cc2538-rf.o
                                                  obj_zoul/power-mgmt.o
                                                  obj_zoul/rtcc.o
clock_init                                        obj_zoul/clock.o
                                                  obj_zoul/contiki-main.o
clock_isr                                         obj_zoul/clock.o
                                                  obj_zoul/startup-gcc.o
clock_seconds                                     obj_zoul/clock.o
                                                  obj_zoul/cc1200.o
                                                  obj_zoul/resolv.o
                                                  obj_zoul/stimer.o
clock_set_seconds                                 obj_zoul/clock.o
clock_time                                        obj_zoul/clock.o
                                                  obj_zoul/rpl-timers.o
                                                  obj_zoul/rpl-dag.o
                                                  obj_zoul/rpl.o
                                                  obj_zoul/trickle-timer.o
                                                  obj_zoul/timer.o
                                                  obj_zoul/etimer.o
clock_wait                                        obj_zoul/clock.o
coap_block1_handler                               obj_zoul/er-coap-block1.o
                                                  obj_zoul/res-b1-sep-b2.o
coap_blocking_request                             obj_zoul/er-coap-engine.o
coap_blocking_request_callback                    obj_zoul/er-coap-engine.o
coap_check_transactions                           obj_zoul/er-coap-transactions.o
                                                  obj_zoul/er-coap-engine.o
coap_clear_transaction                            obj_zoul/er-coap-transactions.o
                                                  obj_zoul/er-coap-observe-client.o
                                                  obj_zoul/er-coap-engine.o
coap_engine                                       obj_zoul/er-coap-engine.o
coap_error_message                                obj_zoul/er-coap.o
                                                  obj_zoul/er-coap-block1.o
                                                  obj_zoul/er-coap-separate.o
                                                  obj_zoul/er-coap-engine.o
coap_generate_token                               obj_zoul/er-coap-observe-client.o
coap_get_header_accept                            obj_zoul/er-coap.o
                                                  obj_zoul/er-coap-engine.o
coap_get_header_block1                            obj_zoul/er-coap.o
                                                  obj_zoul/res-mirror.o
coap_get_header_block2                            obj_zoul/er-coap.o
                                                  obj_zoul/res-mirror.o
                                                  obj_zoul/er-coap-engine.o
coap_get_header_content_format                    obj_zoul/er-coap.o
                                                  obj_zoul/er-coap-engine.o
coap_get_header_etag                              obj_zoul/er-coap.o
                                                  obj_zoul/res-plugtest-test.o
                                                  obj_zoul/res-plugtest-validate.o
coap_get_header_if_match                          obj_zoul/er-coap.o
                                                  obj_zoul/res-plugtest-test.o
                                                  obj_zoul/res-plugtest-validate.o
                                                  obj_zoul/er-coap-engine.o
coap_get_header_if_none_match                     obj_zoul/er-coap.o
                                                  obj_zoul/res-plugtest-test.o
                                                  obj_zoul/res-plugtest-create1.o
                                                  obj_zoul/res-plugtest-create3.o
                                                  obj_zoul/er-coap-engine.o
coap_get_header_location_path                     obj_zoul/er-coap.o
                                                  obj_zoul/res-mirror.o
coap_get_header_location_query                    obj_zoul/er-coap.o
                                                  obj_zoul/res-mirror.o
coap_get_header_max_age                           obj_zoul/er-coap.o
                                                  obj_zoul/er-coap-engine.o
coap_get_header_observe                           obj_zoul/er-coap.o
                                                  obj_zoul/er-coap-observe-client.o
coap_get_header_proxy_uri                         obj_zoul/er-coap.o
coap_get_header_size1                             obj_zoul/er-coap.o
coap_get_header_size2                             obj_zoul/er-coap.o
                                                  obj_zoul/er-coap-engine.o
coap_get_header_uri_host                          obj_zoul/er-coap.o
                                                  obj_zoul/er-coap-engine.o
coap_get_header_uri_path                          obj_zoul/er-coap.o
                                                  obj_zoul/er-coap-engine.o
coap_get_header_uri_query                         obj_zoul/er-coap.o
                                                  obj_zoul/er-coap-engine.o
coap_get_mid                                      obj_zoul/er-coap.o
                                                  obj_zoul/er-coap-observe-client.o
                                                  obj_zoul/er-coap-separate.o
                                                  obj_zoul/er-coap-observe.o
                                                  obj_zoul/er-coap-engine.o
coap_get_obs_subject_by_token                     obj_zoul/er-coap-observe-client.o
coap_get_payload                                  obj_zoul/er-coap.o
                                                  obj_zoul/er-coap-engine.o
coap_get_post_variable                            obj_zoul/er-coap.o
                                                  obj_zoul/er-coap-engine.o
coap_get_query_variable                           obj_zoul/er-coap.o
                                                  obj_zoul/er-coap-engine.o
coap_get_rest_method                              obj_zoul/er-coap-engine.o
coap_get_transaction_by_mid                       obj_zoul/er-coap-transactions.o
                                                  obj_zoul/er-coap-separate.o
                                                  obj_zoul/er-coap-engine.o
coap_handle_notification                          obj_zoul/er-coap-observe-client.o
                                                  obj_zoul/er-coap-engine.o
coap_init_connection                              obj_zoul/er-coap.o
                                                  obj_zoul/er-coap-engine.o
coap_init_engine                                  obj_zoul/er-coap-engine.o
coap_init_message                                 obj_zoul/er-coap.o
                                                  obj_zoul/er-coap-observe-client.o
                                                  obj_zoul/er-coap-separate.o
                                                  obj_zoul/er-coap-observe.o
                                                  obj_zoul/er-coap-engine.o
coap_new_transaction                              obj_zoul/er-coap-transactions.o
                                                  obj_zoul/res-b1-sep-b2.o
                                                  obj_zoul/res-plugtest-separate.o
                                                  obj_zoul/res-separate.o
                                                  obj_zoul/er-coap-observe-client.o
                                                  obj_zoul/er-coap-observe.o
                                                  obj_zoul/er-coap-engine.o
coap_notify_observers                             obj_zoul/er-coap-observe.o
                                                  obj_zoul/er-coap-engine.o
coap_notify_observers_sub                         obj_zoul/er-coap-observe.o
coap_obs_add_observee                             obj_zoul/er-coap-observe-client.o
coap_obs_remove_observee                          obj_zoul/er-coap-observe-client.o
coap_obs_remove_observee_by_token                 obj_zoul/er-coap-observe-client.o
coap_obs_remove_observee_by_url                   obj_zoul/er-coap-observe-client.o
coap_obs_request_registration                     obj_zoul/er-coap-observe-client.o
coap_observe_handler                              obj_zoul/er-coap-observe.o
                                                  obj_zoul/er-coap-engine.o
coap_parse_message                                obj_zoul/er-coap.o
                                                  obj_zoul/er-coap-engine.o
coap_register_as_transaction_handler              obj_zoul/er-coap-transactions.o
                                                  obj_zoul/er-coap-engine.o
coap_remove_observer                              obj_zoul/er-coap-observe.o
coap_remove_observer_by_client                    obj_zoul/er-coap-observe.o
                                                  obj_zoul/er-coap-transactions.o
coap_remove_observer_by_mid                       obj_zoul/er-coap-observe.o
                                                  obj_zoul/er-coap-engine.o
coap_remove_observer_by_token                     obj_zoul/er-coap-observe.o
coap_remove_observer_by_uri                       obj_zoul/er-coap-observe.o
                                                  obj_zoul/res-plugtest-obs.o
coap_rest_implementation                          obj_zoul/er-coap-engine.o
                                                  obj_zoul/res-plugtest-locquery.o
                                                  obj_zoul/res-plugtest-links.o
                                                  obj_zoul/res-plugtest-longpath.o
                                                  obj_zoul/res-plugtest-large-update.o
                                                  obj_zoul/res-plugtest-test.o
                                                  obj_zoul/res-plugtest-create1.o
                                                  obj_zoul/res-mirror.o
                                                  obj_zoul/res-hello.o
                                                  obj_zoul/res-plugtest-separate.o
                                                  obj_zoul/res-plugtest-obs.o
                                                  obj_zoul/res-plugtest-multi.o
                                                  obj_zoul/res-leds.o
                                                  obj_zoul/res-plugtest-create3.o
                                                  obj_zoul/res-plugtest-large-create.o
                                                  obj_zoul/res-event.o
                                                  obj_zoul/res-sub.o
                                                  obj_zoul/res-plugtest-large.o
                                                  obj_zoul/res-chunks.o
                                                  obj_zoul/res-plugtest-path.o
                                                  obj_zoul/res-push.o
                                                  obj_zoul/res-plugtest-query.o
                                                  obj_zoul/res-plugtest-create2.o
                                                  obj_zoul/res-plugtest-validate.o
                                                  obj_zoul/res-separate.o
                                                  obj_zoul/rest-engine.o
                                                  obj_zoul/er-coap-block1.o
coap_send_message                                 obj_zoul/er-coap.o
                                                  obj_zoul/er-coap-observe-client.o
                                                  obj_zoul/er-coap-separate.o
                                                  obj_zoul/er-coap-transactions.o
                                                  obj_zoul/er-coap-engine.o
coap_send_transaction                             obj_zoul/er-coap-transactions.o
                                                  obj_zoul/res-b1-sep-b2.o
                                                  obj_zoul/res-plugtest-separate.o
                                                  obj_zoul/res-separate.o
                                                  obj_zoul/er-coap-observe-client.o
                                                  obj_zoul/er-coap-observe.o
                                                  obj_zoul/er-coap-engine.o
coap_separate_accept                              obj_zoul/er-coap-separate.o
                                                  obj_zoul/res-b1-sep-b2.o
                                                  obj_zoul/res-plugtest-separate.o
                                                  obj_zoul/res-separate.o
coap_separate_reject                              obj_zoul/er-coap-separate.o
                                                  obj_zoul/res-plugtest-separate.o
                                                  obj_zoul/res-separate.o
coap_separate_resume                              obj_zoul/er-coap-separate.o
                                                  obj_zoul/res-b1-sep-b2.o
                                                  obj_zoul/res-plugtest-separate.o
                                                  obj_zoul/res-separate.o
coap_serialize_message                            obj_zoul/er-coap.o
                                                  obj_zoul/res-b1-sep-b2.o
                                                  obj_zoul/res-plugtest-separate.o
                                                  obj_zoul/res-separate.o
                                                  obj_zoul/er-coap-observe-client.o
                                                  obj_zoul/er-coap-separate.o
                                                  obj_zoul/er-coap-observe.o
                                                  obj_zoul/er-coap-engine.o
coap_set_header_accept                            obj_zoul/er-coap.o
                                                  obj_zoul/res-mirror.o
coap_set_header_block1                            obj_zoul/er-coap.o
                                                  obj_zoul/res-plugtest-large-update.o
                                                  obj_zoul/res-mirror.o
                                                  obj_zoul/res-plugtest-large-create.o
                                                  obj_zoul/er-coap-block1.o
                                                  obj_zoul/er-coap-separate.o
coap_set_header_block2                            obj_zoul/er-coap.o
                                                  obj_zoul/res-b1-sep-b2.o
                                                  obj_zoul/res-mirror.o
                                                  obj_zoul/res-plugtest-separate.o
                                                  obj_zoul/res-separate.o
                                                  obj_zoul/er-coap-engine.o
coap_set_header_content_format                    obj_zoul/er-coap.o
                                                  obj_zoul/er-coap-res-well-known-core.o
                                                  obj_zoul/er-coap-engine.o
coap_set_header_etag                              obj_zoul/er-coap.o
                                                  obj_zoul/er-coap-engine.o
coap_set_header_if_match                          obj_zoul/er-coap.o
coap_set_header_if_none_match                     obj_zoul/er-coap.o
                                                  obj_zoul/res-mirror.o
coap_set_header_location_path                     obj_zoul/er-coap.o
                                                  obj_zoul/er-coap-engine.o
coap_set_header_location_query                    obj_zoul/er-coap.o
coap_set_header_max_age                           obj_zoul/er-coap.o
                                                  obj_zoul/er-coap-engine.o
coap_set_header_observe                           obj_zoul/er-coap.o
                                                  obj_zoul/res-mirror.o
                                                  obj_zoul/er-coap-observe-client.o
                                                  obj_zoul/er-coap-observe.o
coap_set_header_proxy_uri                         obj_zoul/er-coap.o
                                                  obj_zoul/res-mirror.o
coap_set_header_size1                             obj_zoul/er-coap.o
coap_set_header_size2                             obj_zoul/er-coap.o
                                                  obj_zoul/er-coap-engine.o
coap_set_header_uri_host                          obj_zoul/er-coap.o
                                                  obj_zoul/res-mirror.o
coap_set_header_uri_path                          obj_zoul/er-coap.o
                                                  obj_zoul/er-coap-observe-client.o
                                                  obj_zoul/er-coap-observe.o
coap_set_header_uri_query                         obj_zoul/er-coap.o
coap_set_payload                                  obj_zoul/er-coap.o
                                                  obj_zoul/res-b1-sep-b2.o
                                                  obj_zoul/res-plugtest-separate.o
                                                  obj_zoul/res-separate.o
                                                  obj_zoul/er-coap-res-well-known-core.o
                                                  obj_zoul/er-coap-observe.o
                                                  obj_zoul/er-coap-engine.o
coap_set_service_callback                         obj_zoul/er-coap-engine.o
coap_set_status_code                              obj_zoul/er-coap.o
                                                  obj_zoul/res-b1-sep-b2.o
                                                  obj_zoul/er-coap-block1.o
                                                  obj_zoul/er-coap-res-well-known-core.o
                                                  obj_zoul/er-coap-engine.o
coap_set_token                                    obj_zoul/er-coap.o
                                                  obj_zoul/er-coap-separate.o
                                                  obj_zoul/er-coap-observe.o
                                                  obj_zoul/er-coap-engine.o
compower_accumulate                               obj_zoul/compower.o
compower_accumulate_attrs                         obj_zoul/compower.o
compower_attrconv                                 obj_zoul/compower.o
compower_clear                                    obj_zoul/compower.o
compower_idle_activity                            obj_zoul/compower.o
compower_init                                     obj_zoul/compower.o
configuration_block                               obj_zoul/cdc-acm-descriptors.o
configuration_head                                obj_zoul/cdc-acm-descriptors.o
                                                  obj_zoul/usb-core.o
contikimac_debug_print                            obj_zoul/contikimac.o
contikimac_driver                                 obj_zoul/contikimac.o
contikimac_framer                                 obj_zoul/contikimac-framer.o
cpu_cpsid                                         obj_zoul/cpu.o
                                                  obj_zoul/cfs-coffee-arch.o
                                                  obj_zoul/watchdog.o
                                                  obj_zoul/rtimer-arch.o
cpu_cpsie                                         obj_zoul/cpu.o
                                                  obj_zoul/cfs-coffee-arch.o
                                                  obj_zoul/rtimer-arch.o
                                                  obj_zoul/contiki-main.o
crc16_add                                         obj_zoul/crc16.o
crc16_data                                        obj_zoul/crc16.o
crypto_disable                                    obj_zoul/crypto.o
                                                  obj_zoul/cc2538-ccm-star.o
                                                  obj_zoul/cc2538-aes-128.o
                                                  obj_zoul/contiki-main.o
crypto_enable                                     obj_zoul/crypto.o
                                                  obj_zoul/cc2538-ccm-star.o
                                                  obj_zoul/cc2538-aes-128.o
crypto_init                                       obj_zoul/crypto.o
                                                  obj_zoul/contiki-main.o
crypto_isr                                        obj_zoul/crypto.o
                                                  obj_zoul/startup-gcc.o
crypto_register_process_notification              obj_zoul/crypto.o
                                                  obj_zoul/aes.o
csma_driver                                       obj_zoul/csma.o
ctimer_expired                                    obj_zoul/ctimer.o
ctimer_init                                       obj_zoul/ctimer.o
                                                  obj_zoul/contiki-main.o
ctimer_process                                    obj_zoul/ctimer.o
ctimer_reset                                      obj_zoul/ctimer.o
                                                  obj_zoul/rpl-timers.o
ctimer_restart                                    obj_zoul/ctimer.o
ctimer_set                                        obj_zoul/ctimer.o
                                                  obj_zoul/contikimac.o
                                                  obj_zoul/phase.o
                                                  obj_zoul/csma.o
                                                  obj_zoul/rpl-timers.o
                                                  obj_zoul/rpl-dag-root.o
                                                  obj_zoul/uip-packetqueue.o
                                                  obj_zoul/trickle-timer.o
                                                  obj_zoul/button-sensor.o
ctimer_set_with_process                           obj_zoul/ctimer.o
ctimer_stop                                       obj_zoul/ctimer.o
                                                  obj_zoul/contikimac.o
                                                  obj_zoul/csma.o
                                                  obj_zoul/rpl-timers.o
                                                  obj_zoul/rpl-dag.o
                                                  obj_zoul/uip-packetqueue.o
                                                  obj_zoul/button-sensor.o
ctr_crypt_check_status                            obj_zoul/ctr.o
ctr_crypt_start                                   obj_zoul/ctr.o
dao_ack_output                                    obj_zoul/rpl-icmp6.o
dao_output                                        obj_zoul/rpl-icmp6.o
                                                  obj_zoul/rpl-timers.o
                                                  obj_zoul/rpl-dag.o
                                                  obj_zoul/rpl.o
dao_output_target                                 obj_zoul/rpl-icmp6.o
                                                  obj_zoul/rpl-ext-header.o
                                                  obj_zoul/rpl.o
dbg_send_bytes                                    obj_zoul/dbg.o
                                                  obj_zoul/dbg-printf.o
default_handler                                   obj_zoul/startup-gcc.o
default_instance                                  obj_zoul/rpl-dag.o
                                                  obj_zoul/rpl-ext-header.o
                                                  obj_zoul/rpl.o
device_descriptor                                 obj_zoul/cdc-acm-descriptors.o
                                                  obj_zoul/usb-core.o
dhcpc_appcall                                     obj_zoul/dhcpc.o
dhcpc_configured                                  obj_zoul/dhcpc.o
dhcpc_init                                        obj_zoul/dhcpc.o
dhcpc_request                                     obj_zoul/dhcpc.o
dhcpc_unconfigured                                obj_zoul/dhcpc.o
dio_output                                        obj_zoul/rpl-icmp6.o
                                                  obj_zoul/rpl-timers.o
dis_output                                        obj_zoul/rpl-icmp6.o
                                                  obj_zoul/rpl-timers.o
                                                  obj_zoul/rpl-dag-root.o
ds6_neighbors                                     obj_zoul/uip-ds6-nbr.o
                                                  obj_zoul/rpl-dag.o
ecb_crypt_check_status                            obj_zoul/ecb.o
                                                  obj_zoul/cc2538-aes-128.o
ecb_crypt_start                                   obj_zoul/ecb.o
                                                  obj_zoul/cc2538-aes-128.o
ecc_add_get_result                                obj_zoul/ecc-driver.o
                                                  obj_zoul/ecc-algorithm.o
ecc_add_start                                     obj_zoul/ecc-driver.o
                                                  obj_zoul/ecc-algorithm.o
ecc_compare                                       obj_zoul/ecc-algorithm.o
ecc_dsa_sign                                      obj_zoul/ecc-algorithm.o
ecc_dsa_verify                                    obj_zoul/ecc-algorithm.o
ecc_mul_gen_pt_get_result                         obj_zoul/ecc-driver.o
ecc_mul_gen_pt_start                              obj_zoul/ecc-driver.o
ecc_mul_get_result                                obj_zoul/ecc-driver.o
                                                  obj_zoul/ecc-algorithm.o
ecc_mul_start                                     obj_zoul/ecc-driver.o
                                                  obj_zoul/ecc-algorithm.o
ecc_multiply                                      obj_zoul/ecc-algorithm.o
energest_flush                                    obj_zoul/energest.o
                                                  obj_zoul/compower.o
energest_init                                     obj_zoul/energest.o
                                                  obj_zoul/contiki-main.o
energest_type_set                                 obj_zoul/energest.o
energest_type_time                                obj_zoul/energest.o
                                                  obj_zoul/compower.o
er_example_server                                 er-example-server.co
erbium_status_code                                obj_zoul/er-coap.o
                                                  obj_zoul/er-coap-block1.o
                                                  obj_zoul/er-coap-separate.o
                                                  obj_zoul/er-coap-engine.o
errno                                             /usr/bin/../lib/gcc/arm-none-eabi/4.9.3/../../../../arm-none-eabi/lib/armv7-m/libc.a(lib_a-reent.o)
                                                  /usr/bin/../lib/gcc/arm-none-eabi/4.9.3/../../../../arm-none-eabi/lib/armv7-m/libc.a(lib_a-sbrkr.o)
                                                  obj_zoul/syscalls.o
etimer_adjust                                     obj_zoul/etimer.o
etimer_expiration_time                            obj_zoul/etimer.o
                                                  obj_zoul/rpl-timers.o
etimer_expired                                    obj_zoul/etimer.o
                                                  obj_zoul/rpl-timers.o
                                                  obj_zoul/tcpip.o
                                                  obj_zoul/dhcpc.o
                                                  obj_zoul/ctimer.o
                                                  obj_zoul/rest-engine.o
                                                  obj_zoul/er-coap-transactions.o
etimer_next_expiration_time                       obj_zoul/etimer.o
etimer_pending                                    obj_zoul/etimer.o
                                                  obj_zoul/clock.o
etimer_process                                    obj_zoul/etimer.o
                                                  obj_zoul/contiki-main.o
etimer_request_poll                               obj_zoul/etimer.o
                                                  obj_zoul/clock.o
etimer_reset                                      obj_zoul/etimer.o
                                                  obj_zoul/uip-ds6.o
                                                  obj_zoul/ctimer.o
                                                  obj_zoul/rest-engine.o
etimer_reset_with_new_interval                    obj_zoul/etimer.o
etimer_restart                                    obj_zoul/etimer.o
                                                  obj_zoul/ctimer.o
                                                  obj_zoul/er-coap-transactions.o
etimer_set                                        obj_zoul/etimer.o
                                                  obj_zoul/tcpip.o
                                                  obj_zoul/resolv.o
                                                  obj_zoul/dhcpc.o
                                                  obj_zoul/uip-ds6.o
                                                  obj_zoul/ctimer.o
                                                  obj_zoul/rest-engine.o
etimer_start_time                                 obj_zoul/etimer.o
etimer_stop                                       obj_zoul/etimer.o
                                                  obj_zoul/ctimer.o
                                                  obj_zoul/er-coap-transactions.o
event_process                                     obj_zoul/usb-arch.o
flash_cca_lock_page                               obj_zoul/startup-gcc.o
format_str                                        obj_zoul/strformat.o
format_str_v                                      obj_zoul/strformat.o
                                                  obj_zoul/dbg-sprintf.o
                                                  obj_zoul/dbg-snprintf.o
                                                  obj_zoul/dbg-printf.o
frame802154_check_dest_panid                      obj_zoul/frame802154.o
frame802154_create                                obj_zoul/frame802154.o
                                                  obj_zoul/framer-802154.o
frame802154_extract_linkaddr                      obj_zoul/frame802154.o
frame802154_get_pan_id                            obj_zoul/frame802154.o
                                                  obj_zoul/framer-802154.o
frame802154_has_panid                             obj_zoul/frame802154.o
frame802154_hdrlen                                obj_zoul/frame802154.o
                                                  obj_zoul/framer-802154.o
frame802154_is_broadcast_addr                     obj_zoul/frame802154.o
                                                  obj_zoul/framer-802154.o
frame802154_parse                                 obj_zoul/frame802154.o
                                                  obj_zoul/cc1200.o
                                                  obj_zoul/framer-802154.o
frame802154_set_pan_id                            obj_zoul/frame802154.o
frame802154e_parse_information_elements           obj_zoul/frame802154e-ie.o
frame80215e_create_ie_header_ack_nack_time_correction obj_zoul/frame802154e-ie.o
frame80215e_create_ie_header_list_termination_1   obj_zoul/frame802154e-ie.o
frame80215e_create_ie_header_list_termination_2   obj_zoul/frame802154e-ie.o
frame80215e_create_ie_mlme                        obj_zoul/frame802154e-ie.o
frame80215e_create_ie_payload_list_termination    obj_zoul/frame802154e-ie.o
frame80215e_create_ie_tsch_channel_hopping_sequence obj_zoul/frame802154e-ie.o
frame80215e_create_ie_tsch_slotframe_and_link     obj_zoul/frame802154e-ie.o
frame80215e_create_ie_tsch_synchronization        obj_zoul/frame802154e-ie.o
frame80215e_create_ie_tsch_timeslot               obj_zoul/frame802154e-ie.o
framer_802154                                     obj_zoul/framer-802154.o
                                                  obj_zoul/noncoresec.o
                                                  obj_zoul/contikimac-framer.o
                                                  obj_zoul/contikimac.o
                                                  obj_zoul/nullrdc.o
                                                  obj_zoul/sicslowpan.o
framer_nullmac                                    obj_zoul/framer-nullmac.o
gcm_auth_decrypt_get_result                       obj_zoul/gcm.o
gcm_auth_decrypt_start                            obj_zoul/gcm.o
gcm_auth_encrypt_get_result                       obj_zoul/gcm.o
gcm_auth_encrypt_start                            obj_zoul/gcm.o
gcr_decode                                        obj_zoul/gcr.o
gcr_encode                                        obj_zoul/gcr.o
gcr_finished                                      obj_zoul/gcr.o
gcr_get_decoded                                   obj_zoul/gcr.o
gcr_get_encoded                                   obj_zoul/gcr.o
gcr_init                                          obj_zoul/gcr.o
gcr_valid                                         obj_zoul/gcr.o
get_match_length                                  obj_zoul/uip-ds6.o
gpio_init                                         obj_zoul/gpio.o
                                                  obj_zoul/contiki-main.o
gpio_port_a_isr                                   obj_zoul/gpio.o
                                                  obj_zoul/startup-gcc.o
gpio_port_b_isr                                   obj_zoul/gpio.o
                                                  obj_zoul/startup-gcc.o
gpio_port_c_isr                                   obj_zoul/gpio.o
                                                  obj_zoul/startup-gcc.o
gpio_port_d_isr                                   obj_zoul/gpio.o
                                                  obj_zoul/startup-gcc.o
gpio_register_callback                            obj_zoul/gpio.o
                                                  obj_zoul/rtcc.o
                                                  obj_zoul/button-sensor.o
                                                  obj_zoul/cc1200-zoul-arch.o
i2c_burst_receive                                 obj_zoul/i2c.o
                                                  obj_zoul/rtcc.o
i2c_burst_send                                    obj_zoul/i2c.o
                                                  obj_zoul/rtcc.o
i2c_init                                          obj_zoul/i2c.o
                                                  obj_zoul/rtcc.o
i2c_master_busy                                   obj_zoul/i2c.o
i2c_master_command                                obj_zoul/i2c.o
i2c_master_data_get                               obj_zoul/i2c.o
i2c_master_data_put                               obj_zoul/i2c.o
i2c_master_disable                                obj_zoul/i2c.o
i2c_master_enable                                 obj_zoul/i2c.o
                                                  obj_zoul/rtcc.o
i2c_master_error                                  obj_zoul/i2c.o
i2c_master_set_slave_address                      obj_zoul/i2c.o
i2c_set_frequency                                 obj_zoul/i2c.o
i2c_single_receive                                obj_zoul/i2c.o
i2c_single_send                                   obj_zoul/i2c.o
                                                  obj_zoul/rtcc.o
icmp6_new                                         obj_zoul/tcpip.o
ieee_addr_cpy_to                                  obj_zoul/ieee-addr.o
                                                  obj_zoul/usb-serial.o
                                                  obj_zoul/contiki-main.o
ifft                                              obj_zoul/ifft.o
instance_table                                    obj_zoul/rpl-dag.o
                                                  obj_zoul/rpl-icmp6.o
                                                  obj_zoul/rpl.o
ioc_init                                          obj_zoul/ioc.o
                                                  obj_zoul/contiki-main.o
ioc_set_over                                      obj_zoul/ioc.o
                                                  obj_zoul/pwm.o
                                                  obj_zoul/i2c.o
                                                  obj_zoul/spi.o
                                                  obj_zoul/uart.o
                                                  obj_zoul/rtcc.o
                                                  obj_zoul/button-sensor.o
                                                  obj_zoul/adc-zoul.o
                                                  obj_zoul/cc1200-zoul-arch.o
ioc_set_sel                                       obj_zoul/ioc.o
                                                  obj_zoul/pwm.o
                                                  obj_zoul/i2c.o
                                                  obj_zoul/spi.o
                                                  obj_zoul/uart.o
ip64_addr_4to6                                    obj_zoul/ip64-addr.o
ip64_addr_6to4                                    obj_zoul/ip64-addr.o
ip64_addr_copy4                                   obj_zoul/ip64-addr.o
ip64_addr_copy6                                   obj_zoul/ip64-addr.o
leds_arch_get                                     obj_zoul/leds-arch.o
                                                  obj_zoul/leds.o
leds_arch_init                                    obj_zoul/leds-arch.o
                                                  obj_zoul/leds.o
leds_arch_set                                     obj_zoul/leds-arch.o
                                                  obj_zoul/leds.o
leds_blink                                        obj_zoul/leds.o
leds_get                                          obj_zoul/leds.o
leds_init                                         obj_zoul/leds.o
                                                  obj_zoul/contiki-main.o
leds_off                                          obj_zoul/leds.o
                                                  obj_zoul/res-leds.o
                                                  obj_zoul/contiki-main.o
leds_on                                           obj_zoul/leds.o
                                                  obj_zoul/res-leds.o
                                                  obj_zoul/contiki-main.o
leds_set                                          obj_zoul/leds.o
leds_toggle                                       obj_zoul/leds.o
                                                  obj_zoul/res-toggle.o
linkaddr_cmp                                      obj_zoul/linkaddr.o
                                                  obj_zoul/cc1200.o
                                                  obj_zoul/noncoresec.o
                                                  obj_zoul/contikimac.o
                                                  obj_zoul/nullrdc.o
                                                  obj_zoul/mac-sequence.o
                                                  obj_zoul/csma.o
                                                  obj_zoul/packetbuf.o
                                                  obj_zoul/nbr-table.o
                                                  obj_zoul/uip-ds6-nbr.o
                                                  obj_zoul/sicslowpan.o
linkaddr_copy                                     obj_zoul/linkaddr.o
                                                  obj_zoul/mac-sequence.o
                                                  obj_zoul/framer-nullmac.o
                                                  obj_zoul/framer-802154.o
                                                  obj_zoul/frame802154.o
                                                  obj_zoul/csma.o
                                                  obj_zoul/packetbuf.o
                                                  obj_zoul/nbr-table.o
                                                  obj_zoul/sicslowpan.o
linkaddr_node_addr                                obj_zoul/linkaddr.o
                                                  obj_zoul/cc1200.o
                                                  obj_zoul/noncoresec.o
                                                  obj_zoul/ccm-star-packetbuf.o
                                                  obj_zoul/contikimac.o
                                                  obj_zoul/nullrdc.o
                                                  obj_zoul/framer-nullmac.o
                                                  obj_zoul/framer-802154.o
                                                  obj_zoul/contiki-main.o
linkaddr_null                                     obj_zoul/linkaddr.o
                                                  obj_zoul/frame802154.o
                                                  obj_zoul/packetbuf.o
                                                  obj_zoul/nbr-table.o
                                                  obj_zoul/uip-ds6-nbr.o
                                                  obj_zoul/sicslowpan.o
linkaddr_set_node_addr                            obj_zoul/linkaddr.o
list_add                                          obj_zoul/list.o
                                                  obj_zoul/csma.o
                                                  obj_zoul/nbr-table.o
                                                  obj_zoul/tcp-socket.o
                                                  obj_zoul/uip-icmp6.o
                                                  obj_zoul/uip-ds6-route.o
                                                  obj_zoul/mmem.o
                                                  obj_zoul/ctimer.o
                                                  obj_zoul/rest-engine.o
                                                  obj_zoul/er-coap-observe-client.o
                                                  obj_zoul/er-coap-observe.o
                                                  obj_zoul/er-coap-transactions.o
list_chop                                         obj_zoul/list.o
list_copy                                         obj_zoul/list.o
list_head                                         obj_zoul/list.o
                                                  obj_zoul/csma.o
                                                  obj_zoul/nbr-table.o
                                                  obj_zoul/tcp-socket.o
                                                  obj_zoul/uip-icmp6.o
                                                  obj_zoul/uip-ds6-route.o
                                                  obj_zoul/ctimer.o
                                                  obj_zoul/rest-engine.o
                                                  obj_zoul/er-coap-observe-client.o
                                                  obj_zoul/er-coap-res-well-known-core.o
                                                  obj_zoul/er-coap-observe.o
                                                  obj_zoul/er-coap-transactions.o
list_init                                         obj_zoul/list.o
                                                  obj_zoul/csma.o
                                                  obj_zoul/tcp-socket.o
                                                  obj_zoul/uip-ds6-route.o
                                                  obj_zoul/mmem.o
                                                  obj_zoul/ctimer.o
                                                  obj_zoul/rest-engine.o
list_insert                                       obj_zoul/list.o
list_item_next                                    obj_zoul/list.o
                                                  obj_zoul/contikimac.o
                                                  obj_zoul/csma.o
                                                  obj_zoul/nbr-table.o
                                                  obj_zoul/tcp-socket.o
                                                  obj_zoul/uip-icmp6.o
                                                  obj_zoul/uip-ds6-route.o
list_length                                       obj_zoul/list.o
                                                  obj_zoul/csma.o
                                                  obj_zoul/uip-ds6-route.o
list_pop                                          obj_zoul/list.o
list_push                                         obj_zoul/list.o
                                                  obj_zoul/uip-ds6-route.o
list_remove                                       obj_zoul/list.o
                                                  obj_zoul/csma.o
                                                  obj_zoul/nbr-table.o
                                                  obj_zoul/tcp-socket.o
                                                  obj_zoul/uip-icmp6.o
                                                  obj_zoul/uip-ds6-route.o
                                                  obj_zoul/mmem.o
                                                  obj_zoul/ctimer.o
                                                  obj_zoul/er-coap-observe-client.o
                                                  obj_zoul/er-coap-observe.o
                                                  obj_zoul/er-coap-transactions.o
list_tail                                         obj_zoul/list.o
                                                  obj_zoul/uip-ds6-route.o
llprefix                                          obj_zoul/sicslowpan.o
lpm_enter                                         obj_zoul/lpm.o
                                                  obj_zoul/contiki-main.o
lpm_exit                                          obj_zoul/lpm.o
                                                  obj_zoul/gpio.o
                                                  obj_zoul/rtimer-arch.o
lpm_init                                          obj_zoul/lpm.o
                                                  obj_zoul/contiki-main.o
lpm_register_peripheral                           obj_zoul/lpm.o
                                                  obj_zoul/usb-arch.o
                                                  obj_zoul/pwm.o
                                                  obj_zoul/pka.o
                                                  obj_zoul/crypto.o
                                                  obj_zoul/uart.o
lpm_set_max_pm                                    obj_zoul/lpm.o
mac_call_sent_callback                            obj_zoul/mac.o
                                                  obj_zoul/contikimac.o
                                                  obj_zoul/nullrdc-noframer.o
                                                  obj_zoul/nullrdc.o
                                                  obj_zoul/csma.o
mac_sequence_is_duplicate                         obj_zoul/mac-sequence.o
                                                  obj_zoul/contikimac.o
                                                  obj_zoul/nullrdc.o
mac_sequence_register_seqno                       obj_zoul/mac-sequence.o
                                                  obj_zoul/contikimac.o
                                                  obj_zoul/nullrdc.o
main                                              obj_zoul/contiki-main.o
                                                  obj_zoul/startup-gcc.o
mdns_probe_process                                obj_zoul/resolv.o
me_decode16                                       obj_zoul/me.o
me_decode8                                        obj_zoul/me.o
me_decode_tab                                     obj_zoul/me_tabs.o
                                                  obj_zoul/me.o
me_encode                                         obj_zoul/me.o
me_encode_tab                                     obj_zoul/me_tabs.o
                                                  obj_zoul/me.o
me_valid                                          obj_zoul/me.o
me_valid_tab                                      obj_zoul/me_tabs.o
                                                  obj_zoul/me.o
memb_alloc                                        obj_zoul/memb.o
                                                  obj_zoul/phase.o
                                                  obj_zoul/csma.o
                                                  obj_zoul/queuebuf.o
                                                  obj_zoul/nbr-table.o
                                                  obj_zoul/uip-packetqueue.o
                                                  obj_zoul/uip-ds6-route.o
                                                  obj_zoul/er-coap-observe-client.o
                                                  obj_zoul/er-coap-observe.o
                                                  obj_zoul/er-coap-transactions.o
memb_free                                         obj_zoul/memb.o
                                                  obj_zoul/phase.o
                                                  obj_zoul/csma.o
                                                  obj_zoul/queuebuf.o
                                                  obj_zoul/uip-packetqueue.o
                                                  obj_zoul/uip-ds6-route.o
                                                  obj_zoul/er-coap-observe-client.o
                                                  obj_zoul/er-coap-observe.o
                                                  obj_zoul/er-coap-transactions.o
memb_init                                         obj_zoul/memb.o
                                                  obj_zoul/phase.o
                                                  obj_zoul/csma.o
                                                  obj_zoul/queuebuf.o
                                                  obj_zoul/uip-ds6-route.o
memb_inmemb                                       obj_zoul/memb.o
                                                  obj_zoul/queuebuf.o
memb_numfree                                      obj_zoul/memb.o
                                                  obj_zoul/queuebuf.o
memchr                                            /usr/bin/../lib/gcc/arm-none-eabi/4.9.3/../../../../arm-none-eabi/lib/armv7-m/libc.a(lib_a-memchr.o)
                                                  obj_zoul/er-coap.o
memcmp                                            /usr/bin/../lib/gcc/arm-none-eabi/4.9.3/../../../../arm-none-eabi/lib/armv7-m/libc.a(lib_a-memcmp.o)
                                                  obj_zoul/res-plugtest-test.o
                                                  obj_zoul/res-plugtest-validate.o
                                                  obj_zoul/linkaddr.o
                                                  obj_zoul/rpl-icmp6.o
                                                  obj_zoul/rpl-dag-root.o
                                                  obj_zoul/rpl-dag.o
                                                  obj_zoul/rpl.o
                                                  obj_zoul/dhcpc.o
                                                  obj_zoul/uip-ds6-route.o
                                                  obj_zoul/uip-ds6-nbr.o
                                                  obj_zoul/uip-ds6.o
                                                  obj_zoul/uip6.o
                                                  obj_zoul/sicslowpan.o
                                                  obj_zoul/slip.o
                                                  obj_zoul/er-coap-observe-client.o
                                                  obj_zoul/er-coap-observe.o
memcpy                                            /usr/bin/../lib/gcc/arm-none-eabi/4.9.3/../../../../arm-none-eabi/lib/armv7-m/libc.a(lib_a-memcpy.o)
                                                  obj_zoul/res-plugtest-large-update.o
                                                  obj_zoul/res-hello.o
                                                  obj_zoul/res-plugtest-obs.o
                                                  obj_zoul/cc1200.o
                                                  obj_zoul/frame802154e-ie.o
                                                  obj_zoul/packetbuf.o
                                                  obj_zoul/rpl-icmp6.o
                                                  obj_zoul/rpl-dag.o
                                                  obj_zoul/udp-socket.o
                                                  obj_zoul/tcp-socket.o
                                                  obj_zoul/slipdev.o
                                                  obj_zoul/simple-udp.o
                                                  obj_zoul/psock.o
                                                  obj_zoul/dhcpc.o
                                                  obj_zoul/uip6.o
                                                  obj_zoul/sicslowpan.o
                                                  obj_zoul/ccm-star.o
                                                  obj_zoul/aes-128.o
                                                  obj_zoul/dbg-sprintf.o
                                                  obj_zoul/dbg-snprintf.o
                                                  obj_zoul/slip.o
                                                  obj_zoul/er-coap-observe-client.o
                                                  obj_zoul/er-coap-block1.o
                                                  obj_zoul/er-coap-separate.o
                                                  obj_zoul/er-coap-observe.o
                                                  obj_zoul/er-coap.o
memmove                                           /usr/bin/../lib/gcc/arm-none-eabi/4.9.3/../../../../arm-none-eabi/lib/armv7-m/libc.a(lib_a-memmove.o)
                                                  obj_zoul/rpl-ext-header.o
                                                  obj_zoul/uip-udp-packet.o
                                                  obj_zoul/uiplib.o
                                                  obj_zoul/uip-icmp6.o
                                                  obj_zoul/uip6.o
                                                  obj_zoul/sicslowpan.o
                                                  obj_zoul/mmem.o
                                                  obj_zoul/er-coap.o
memset                                            /usr/bin/../lib/gcc/arm-none-eabi/4.9.3/../../../../arm-none-eabi/lib/armv7-m/libc.a(lib_a-memset.o)
                                                  obj_zoul/contikimac-framer.o
                                                  obj_zoul/framer-802154.o
                                                  obj_zoul/frame802154.o
                                                  obj_zoul/nbr-table.o
                                                  obj_zoul/rpl-icmp6.o
                                                  obj_zoul/rpl-dag.o
                                                  obj_zoul/uiplib.o
                                                  obj_zoul/resolv.o
                                                  obj_zoul/dhcpc.o
                                                  obj_zoul/uip-nd6.o
                                                  obj_zoul/uip-ds6-route.o
                                                  obj_zoul/uip-ds6.o
                                                  obj_zoul/uip6.o
                                                  obj_zoul/sicslowpan.o
                                                  obj_zoul/memb.o
                                                  obj_zoul/aes-128.o
                                                  obj_zoul/cfs-coffee.o
                                                  obj_zoul/slip.o
                                                  obj_zoul/udma.o
                                                  obj_zoul/gpio.o
                                                  obj_zoul/er-coap.o
mmem_alloc                                        obj_zoul/mmem.o
mmem_free                                         obj_zoul/mmem.o
mmem_init                                         obj_zoul/mmem.o
mt_exec                                           obj_zoul/mt.o
mt_exit                                           obj_zoul/mt.o
mt_init                                           obj_zoul/mt.o
mt_remove                                         obj_zoul/mt.o
mt_start                                          obj_zoul/mt.o
mt_stop                                           obj_zoul/mt.o
mt_yield                                          obj_zoul/mt.o
mtarch_exec                                       obj_zoul/mt.o
mtarch_init                                       obj_zoul/mt.o
